S01C0000686F6D655F636F6E74726F6C5F70726F6A6563742E73726563A9
S113000079C0000094C0000092C0000090C00000BD
S11300108EC000008CC000008AC0000088C00000B0
S113002086C0000084C0000082C0000080C00000C0
S11300307EC000007CC000007AC0000078C00000D0
S113004076C0000074C00000E4C1000070C000006D
S1130050A1C100006CC000006AC0000068C00000BC
S113006066C0000064C0000062C0000060C0000000
S113007052C100005CC000005AC00000C8051B0645
S1130080CE051B06D4051B061B06DA05E0051B0678
S1130090E6051B06EC05F205F8051B061B061B0608
S11300A01B061B061B06FE0504061B061B060A068A
S11300B01B061B061006160625066C062B066C0688
S11300C031066C066C0637063D066C0643066C0664
S11300D049064F0655066C066C066C066C066C06E3
S11300E06C065B066C066C066C066C066C066C068D
S11300F06106670611241FBECFEFD0E1DEBFCDBF7E
S113010015E0A0E0B1E0EAE2F5E102C005900D924D
S1130110A23BB107D9F728E0A2EBB5E001C01D92DC
S1130120AD38B207E1F70E94C5090C94930A68CF71
S11301302F923F924F925F926F927F928F929F92F3
S1130140AF92BF92CF92DF92EF92FF920F931F93E1
S1130150CF93DF93CDB7DEB7C856D1090FB6F89465
S1130160DEBF0FBECDBF2130310521F410927C08D3
S113017010927B08FA013196DA012C91222349F07E
S1130180C12CD12CBFEFCB1ADB0A21912111FACF5C
S113019002C0C12CD12CE0907B08F0907C08209107
S11301A0140130911501E216F3060CF077C0A796FE
S11301B05FAF4EAFA7972B01A9969FAFA997A896BB
S11301C08FAFA897812C912C00E010E02224239477
S11301D0FE0131965F010F2EF3E63F2EF02D39011B
S11301E0C7010E947D0A833231F4922D892809F0D7
S11301F090E0892E912CF1E08F16910439F4F501E9
S1130200E00FF11F80830F5F1F4F3FC010161106D0
S1130210E4F5F501E00FF11F1082A7966EAD7FADF6
S1130220A797C5010E94090A009741F12FEFC21A4E
S1130230D20AFC01EC0DFD1D80818823B1F041142C
S1130240510471F1A896AFADA897A996BFADA9972F
S1130250319620E030E003C04216530619F12F5FB7
S11302603F4F8D9381918111F7CF8FEFE81AF80AF0
S1130270F0927C08E0927B0881E015C0D501E32D63
S11302801D92EA95E9F700E010E0FFEFEF1AFF0A8C
S1130290E614F7040CF4A4CF80E005C080E003C0AA
S11302A080E001C080E0C859DF4F0FB6F894DEBF8C
S11302B00FBECDBFDF91CF911F910F91FF90EF90B3
S11302C0DF90CF90BF90AF909F908F907F906F9072
S11302D05F904F903F902F9008950F931F93CF936B
S11302E0DF93EB01FC016081662379F08C010F5FE1
S11302F01F4FF999FECF2196CE0101970E94850ADE
S1130300F80161918F016111F4CFCE01DF91CF919A
S11303101F910F9108951F920F920FB60F921124FF
S11303202F933F934F938F939F93EF93FF9340911A
S1130330CE0080911C0890911D08853C910520F009
S113034010921D0810921C08ECE1F8E08081918164
S11303509C012F5F3F4F31832083FC01E05BF84F0A
S113036040834D3021F04A3011F0411107C081E043
S113037080931908F901EC5DF94F1082FF91EF9118
S11303809F918F914F913F912F910F900FBE0F909E
S11303901F9018951F920F920FB60F9211242F934E
S11303A03F934F938F939F93EF93FF934091C60096
S11303B080911A0890911B088932914020F0109284
S11303C01B0810921A08EAE1F8E0808191819C01EF
S11303D02F5F3F4F31832083FC01EC5DF94F408355
S11303E04D3021F04A3011F0411107C081E0809373
S11303F01808F901EC5DF94F1082FF91EF919F917C
S11304008F914F913F912F910F900FBE0F901F909E
S113041018951F920F920FB60F9211242F933F93AA
S11304204F935F938F939F93AF93BF93EF93FF93F8
S11304308091790890917A0801968732910529F084
S113044090937A08809379088AC010927A0810925F
S11304507908E4EBF5E08485958501969587848792
S1130460883E934031F582859385019693878287F0
S1130470868997890196978B868B15861486808941
S1130480918926853785281739072CF00196909392
S1130490C5058093C405E4EBF5E084899589228938
S11304A03389281739072CF001969093C905809356
S11304B0C8058091BE059091BF05CC9749F4E4EB43
S11304C0F5E0808591850196918780871386128651
S11304D08091BC059091BD05CC9749F4E4EBF5E01F
S11304E086819781019697838683118610868091F1
S11304F0BA059091BB05489749F4E4EBF5E0848193
S1130500958101969583848317821682A4EBB5E0C6
S113051012968D919C911397FC01EE0FFF1FE95BDE
S1130520FE4F14964D915C911597208131814217AD
S1130530530731F4FD01019693838283158214825B
S11305408091B6059091B7050C9749F4E4EBF5E07A
S11305508081918101969183808313821282FF911D
S1130560EF91BF91AF919F918F915F914F913F9187
S11305702F910F900FBE0F901F90189569E671E0B0
S113058084E296E046D7892B39F0CDD48EE691E00B
S1130590DCD288EE93E0E7C208958091C40590917F
S11305A0C505843B91050CF44DC01092C50510920D
S11305B0C40584EF91E0D7D2B6D48AE791E0C5D2DE
S11305C084EF91E0D0D265E871E084E296E021D72F
S11305D0892B51F560E971E084E296E01AD7892B02
S11305E019F580911E0890E020916101309162011B
S11305F08217930721F480915F0180931E0893D49E
S11306008BE991E0A2D284EF91E0ADD260EA71E08F
S113061084E296E0FED6892B19F0809112015DD315
S1130620809112015AC3089580911E0890E0209190
S11306305F01309160018217930721F48091610179
S113064080931E08089580911F08882379F08BE910
S113065091E07BD284EF91E086D283EA91E075D277
S113066084EF91E080D210921F085DC40895EF9248
S1130670FF920F931F93CF93DF937C018B01EA01C9
S11306808BE991E062D284EF91E06DD288EB91E046
S11306905CD284EF91E067D284EC91E056D2C7013A
S11306A054D282E24AD28DE048D284EF91E05BD208
S11306B0C8014BD2CE0149D28AE13FD28DE03DD26E
S11306C080E197E250D2DF91CF911F910F91FF907B
S11306D0EF9008956EEC71E084E296E09AD600976C
S11306E091F065ED71E006966FD6BC018DE298E05D
S11306F089D66DEF74E080E090E066D669ED71E034
S113070080E090E061C608952F923F924F925F92ED
S11307106F927F928F929F92AF92BF92CF92DF920D
S1130720EF92FF920F931F93CF93DF93CDB7DEB772
S1130730CD5CD1090FB6F894DEBF0FBECDBF6EEC11
S113074071E084E296E065D6892B79F465EF71E077
S113075084E296E05ED6892B41F460ED71E084E298
S113076096E057D6892B09F4BBC184EF91E0FBD105
S113077081E080931F08AEDF8C01892B09F4B0C19E
S11307808CE291E0F0D16AEF71E0C80142D6892B86
S113079061F184E690E0E7D16DE278E080E298E0F0
S11307A028D6892B41F44EEF54E060E072E080E2F9
S11307B098E05DDF18C04DE258E069E172E080E244
S11307C098E055DF40E258E06AE272E08DE298E09A
S11307D04EDF6DE278E080E298E014D660E070E0ED
S11307E080E298E07ADD9FD37BC16DE278E080E21D
S11307F098E00FD6892B09F46FC16DE372E0C8014C
S113080008D6892B09F473C087E0E2E4F2E0DE0144
S1130810119601900D928A95E1F70F2EFDE7AF2E08
S1130820F8E0BF2EF02DE12CF12CCE0101966C01E5
S11308300F2EF7E03F2EF02D6894882485F8912C34
S11308400F2EF5E02F2EF02D0F2EFFE44F2EFEE499
S11308505F2EFAE06F2E712CF02D9FEFE91AF90A42
S11308604AE0BE0167537F4FC70114D6D6010D90ED
S11308700020E9F71197E9E4F2E0832D01900D924D
S11308808A95E1F7BE0167537F4FC601A7D5F601EC
S113089001900020E9F7319791828082F5018191DE
S11308A091915F01019751F4F60101900020E9F75D
S11308B0319740825182628273820CC0D6010D90BE
S11308C00020E9F71197E0E5F2E0822D01900D9206
S11308D08A95E1F7F5E0EF16F10409F0BECF4EEF8B
S11308E054E0BE016F5F7F4F80E298E0C0DE65E5B3
S11308F072E0C8018ED5009709F4EEC0FC01F380C4
S1130900C753DF4FF882C95CD040C653DF4F18820B
S1130910CA5CD04069E572E0C8017BD511E0892B3F
S113092009F410E0012FF3E3FF16B1F1FF1538F0DD
S113093081E3F81679F092E3F916E9F0A5C0E5E34E
S1130940FE1609F44BC0FE16C0F1F8E5FF1609F4D3
S113095056C09AC0612F80910E0190910F016CD105
S1130960812F90E090937E0880937D08612F84E12D
S113097090E0CBD589C0612F80910C0190910D013D
S11309805BD1812F90E09093800880937F08612F42
S113099085E190E0BAD578C0612F80910A019091E9
S11309A00B014AD1812F90E09093820880938108B3
S11309B0612F86E190E0A9D567C0612F809108017D
S11309C09091090139D1812F90E09093840880930C
S11309D08308612F87E190E098D556C0612F8091FC
S11309E006019091070128D1812F90E09093860809
S11309F080938508612F88E190E087D545C0612FF9
S1130A0080910E0190910F0117D1612F80910C01FB
S1130A1090910D0111D1612F80910A0190910B01E8
S1130A200BD1612F809108019091090105D1612FAB
S1130A308091060190910701FFD0812F90E090935F
S1130A407E0880937D089093800880937F0890931C
S1130A5082088093810890938408809383089093FC
S1130A608608809385080F2EF4E1EF2EF12CF02DEB
S1130A70F999FECF602FC70148D58FEFE81AF80A1D
S1130A8099E1E916F104A1F787E0E9E4F2E0DE0177
S1130A90119601900D928A95E1F7BE0167537F4F3D
S1130AA0CE0101969BD4013019F0E8EEF1E002C0CA
S1130AB0EBEDF1E0BE016F5F7F4FDB010D90002095
S1130AC0E9F711978DE001900D928A95E1F74EEFC9
S1130AD054E080E298E0CBDD80ED97E044D023D26F
S1130AE0C353DF4F0FB6F894DEBF0FBECDBFDF9107
S1130AF0CF911F910F91FF90EF90DF90CF90BF9017
S1130B00AF909F908F907F906F905F904F903F90A9
S1130B102F900895209167012093C400909168015B
S1130B209093C50088E98093C1002093CC009093F2
S1130B30CD008093C90078940895E0ECF0E09081B2
S1130B4095FFFDCF8093C6000895CF93DF93EC010A
S1130B508881882329F02196F0DF89918111FCCFC7
S1130B60DF91CF9108951816190644F4E3ECF9E0E7
S1130B703197F1F700C000000197C1F708950C9771
S1130B808E31910508F057C0825C9F4FFC0116C45A
S1130B90613011F4539A089553980895613011F413
S1130BA0559A089555980895613011F4579A089507
S1130BB057980895613011F4389A08953898089533
S1130BC0613011F4399A089539980895613011F417
S1130BD03B9A08953B980895613011F43D9A089525
S1130BE03D980895613011F43E9A08953E98089511
S1130BF0613011F43F9A08953F980895613011F4DB
S1130C000C9A08950C980895613011F40B9A089584
S1130C100B980895613011F4089A0895089808957E
S1130C20613011F4209A089520980895613011F4E8
S1130C30219A0895219808950C978E31910508F012
S1130C404BC0845A9F4FFC01B9C3613011F45B9AC5
S1130C5008955B980895613011F45D9A08955D9844
S1130C600895613011F45F9A08955F980895613092
S1130C7011F4409A089540980895613011F4419A0E
S1130C80089541980895613011F4439A0895439862
S1130C900895613011F4459A089545980895613096
S1130CA011F4469A089546980895613011F4479ACC
S1130CB0089547980895613011F4149A089514988A
S1130CC00895613011F4289A0895289808956130A0
S1130CD011F4299A089529980895CF93DF93C82F82
S1130CE0D0E061E0CE01A8DF2FE784E89EE1215047
S1130CF080409040E1F700C0000060E0CE019CDF3E
S1130D002FEF81E19AE7215080409040E1F700C045
S1130D100000DF91CF9108958132910599F034F468
S1130D208831910549F04A9751F015C082329105F6
S1130D3061F0859769F00FC086B18072089586B11D
S1130D408078089580B18071089580B18870089585
S1130D5080B18170089580E0089520911801309148
S1130D601901232B51F020916501309166018217FE
S1130D70930719F48093780808952091160130910F
S1130D801701232B51F020916301309164018217E4
S1130D90930719F48093780808958FEF8093780867
S1130DA00895E4EBF5E0178A168A11821082138203
S1130DB01282158214821782168211861086138677
S1130DC0128615861486E8E5F8E080E698E011922C
S1130DD011921782168217861686E817F907B9F753
S1130DE010927E0810927D081092800810927F085D
S1130DF0109282081092810810928408109283083D
S1130E00109286081092850810928808109287081C
S1130E1010928A081092890810928C0810928B08FC
S1130E20809165019091660198DF10927A08109282
S1130E30790810927C0810927B0864E271E08CECD3
S1130E4095E0E0D261E271E08AEE95E0DBD26CE3FA
S1130E5071E08FEE95E0D6D261E371E083E096E035
S1130E60D1D26AE171E087E196E0CCD280915F0152
S1130E7080932106809322068093230680931E0884
S1130E8091E090931F082CE231E0E4E2F6E0DF0108
S1130E90A9011D9241505040E1F798ECE0E5F7E0DC
S1130EA0DF011D929A95E9F7809318088093190839
S1130EB010921B0810921A0810921D0810921C0818
S1130EC0E4EBF5E0118A108A84EB90E0978786873B
S1130ED0158A148A8EE190E0938B828B85E0EAE692
S1130EE0F5E0AAE3B8E001900D928A95E1F78FE06E
S1130EF0E9E4F8E0DF011D928A95E9F721E030E0AA
S1130F004FE655E06FE070E08AE398E011D9811173
S1130F1009C085E0EAE6F5E0AAE3B8E001900D92A5
S1130F208A95E1F70895CF93DF93C0917808D0E0D4
S1130F308091650190916601C817D90769F44BE265
S1130F4051E060E270E084E296E041D21092180829
S1130F5010921B0810921A08809163019091640109
S1130F60C817D90769F447EC50E060E270E080E507
S1130F7097E02DD21092190810921D0810921C08A7
S1130F80DF91CF91089585B5816085BD16BCEEE6ED
S1130F90F0E0808181608083089580916501909163
S1130FA06601DBDE8BE991E0D0DD8091120195CE04
S1130FB00895CF93C09143016C2F809110019091BB
S1130FC01101DDDD6C2F8091120190911301D7DDA9
S1130FD06C2F80910E0190910F01D1DD6C2F8091C7
S1130FE00C0190910D01CBDD6C2F80910A01909141
S1130FF00B01C5DD6C2F8091080190910901BFDDC3
S11310006C2F8091060190910701B9DDC0914501D3
S11310106C2F8091040190910501B1DD6C2F8091BA
S1131020020190910301ABDD6C2F8091000190913E
S11310300101A5DDCF910895EF92FF920F931F93C5
S1131040CF93DF93CDB7DEB72D970FB6F894DEBFFD
S11310500FBECDBFCE0101967C0100E010E0C801B7
S11310604CD2F70181937F010F5F1F4F0C301105A4
S1131070B1F71D8689818B3231F4BE016F5F7F4FDA
S113108080E298E0BFD110922C082D960FB6F89408
S1131090DEBF0FBECDBFDF91CF911F910F91FF90A7
S11310A0EF90089584E190E028D2813039F461E032
S11310B080910E0190910F01BFDD0AC060E0809124
S11310C00E0190910F01B8DD10927E0810927D08F8
S11310D085E190E012D2813039F461E080910C0115
S11310E090910D01A9DD0AC060E080910C019091FE
S11310F00D01A2DD1092800810927F0886E190E035
S1131100FCD1813039F461E080910A0190910B01A6
S113111093DD0AC060E080910A0190910B018CDD9F
S1131120109282081092810887E190E0E6D1813024
S113113039F461E080910801909109017DDD0AC0D4
S113114060E0809108019091090176DD1092840895
S11311501092830888E190E0D0D1813039F461E0C5
S1131160809106019091070167CD089560E0809118
S113117006019091070160DD10928608109285089F
S1131180089517DF8FDF09DF84EF91E0ECDCC2DC28
S113119084E690E0E8DC05DE4FDFF5CE089580912B
S11311A01808813041F48CE291E0DDDCE7D9ACDA57
S11311B0BADE1092180808952F923F924F925F92D0
S11311C06F927F928F929F92AF92BF92CF92DF9253
S11311D0EF92FF920F931F93CF93DF93CDB7DEB7B8
S11311E0C255D1090FB6F894DEBF0FBECDBF8091B2
S11311F0CA059091CB05181619060CF0AAC0809068
S1131200040190900501C40187DDA0900201B09013
S11312100301C50181DD6090000170900101C301EB
S11312207BDDE82EF12C0F2EF7E8CF2EF8E0DF2E31
S1131230F02D01E010E0CE01019663969FAF8EAFD2
S113124063972E0199E2490E511C22242394312CD8
S1131250C80101978130910551F08230910561F008
S1131260892B71F4C40158DDE82EF12C09C0C501A5
S113127053DDE82EF12C04C0C3014EDDE82EF12C21
S1131280E114F10439F5F60180819181892B09F08B
S113129053C0E9E7F5E0D20189E001900D928A9507
S11312A0E1F74AE0BE01695B7F4FC801F3D0BC019E
S11312B0C20194D0D2010D900020E9F71197E2E821
S11312C0F5E08CE001900D928A95E1F7F601318208
S11312D0208232C0F60180819181019769F5E9E7A6
S11312E0F5E0DE01119689E001900D928A95E1F70F
S11312F04AE0BE01645B7F4FC801CCD0BC01CE0183
S113130001966CD06396AEADBFAD63970D9000208F
S1131310E9F71197EEE8F5E08CE001900D928A95DB
S1131320E1F74EEF54E0BE016F5F7F4F80E298E03B
S11313309ED9F601118210820F5F1F4FF2E0CF0E8B
S1131340D11C0430110509F083CF1092CB05109203
S1131350CA0523D978D9CE5ADF4F0FB6F894DEBF29
S11313600FBECDBFDF91CF911F910F91FF90EF90F2
S1131370DF90CF90BF90AF909F908F907F906F90B1
S11313805F904F903F902F900895FBDE80ED97E0A3
S1131390EADB88EB91E0D9DB8CE291E0E4DB8AE9DB
S11313A095E0D3DB84EF91E0DEDB86EA95E0CDDBEC
S11313B084EF91E0D8DBF3DEFFDEFDCFEE0FFF1FFD
S11313C00590F491E02D099442EB55E03CC0DC011A
S11313D001C06D9341505040E0F70895FB01DC01DA
S11313E00D900020E9F7119701900D920020E1F78C
S11313F00895FB01DC018D91019080190110D9F34E
S1131400990B0895FB01DC0101900D920020E1F796
S11314100895FB0151915523A9F0BF01DC014D91C1
S113142045174111E1F759F4CD010190002049F02D
S11314304D9140154111C9F3FB014111EFCF81E0FA
S113144090E001970895FA01A191B081009719F4F1
S11314501097E1F0CD01DC01CD010D90002011F4D5
S1131460C00113C0FB012191222319F02015D9F7E3
S1131470F3CFFB012191201519F41E92119606C099
S11314802223C1F70D900020A1F7D001FA01A19306
S1131490B0830895BB274A3031F4992322F4BDE286
S11314A0909581959F4F01C0BB27FB015527AA2723
S11314B0880F991FAA1FA41710F0A41B83955051DD
S11314C0B9F7A05DAA3308F0A95DA193009779F755
S11314D0B111B1931192CB0100C0DC01FC01672F63
S11314E071917723E1F7329704C07C916D937083F7
S11314F06291AE17BF07C8F30895F999FECF92BD64
S113150081BDF89A992780B50895262FF999FECFC1
S11315101FBA92BD81BD20BD0FB6F894FA9AF99A0C
S10D15200FBE01960895F894FFCF62
S113152A250022002100190013001A0014001000DB
S113153A280028000010010001006F6E6C696E65B6
S113154A003836003139322E3136382E302E3237C1
S113155A0037374C643763723764570054617264D6
S113156A697300010000001F001C001F001E001FF9
S113157A001E001F001F001E001F001E001F000087
S113158A0001000000010040004D54493A00415452
S113159A2B434D47523D310D0A0041542B435245CA
S11315AA473F0D0A002B435245473A20302C31005D
S11315BA2B435245473A20302C350041540D0A003A
S11315CA4F4B0041542B434D4744413D2244454C23
S11315DA20414C4C220D0A0041542B434D47463DB1
S11315EA310D0A0041542B434D47533D2200554EB9
S11315FA5245414400222C22000D002042454B4111
S113160A5043534F4C564100204B494B415043538E
S113161A4F4C564100434D47520041444D494E00F8
S113162A486962613A204D61676120612066656C90
S113163A6861737A6E616C6F00556A2066656C68BE
S113164A61737A6E616C6F3A20005265676920662D
S113165A656C6861737A6E616C6F3A2000494E4614
S113166A4F00494E464F3A0A0052454C4159200010
S113167A4F46460A0052454C004F4E0047455420F7
S113168A2F20485454502F002B4950442C003C68B6
S113169A746D6C3E3C686561643E3C6D65746120A2
S11316AA6E616D653D2276696577706F727422206A
S11316BA636F6E74656E743D2277696474683D6401
S11316CA65766963652D77696474682C20696E6927
S11316DA7469616C2D7363616C653D312E302C2005
S11316EA6D6178696D756D2D7363616C653D312E1D
S11316FA30223E3C2F686561643E3C626F64793EE9
S113170A003C7469746C653E48434D20436F6E73A4
S113171A6F6C653C2F7469746C653E003C64697631
S113172A207374796C653D22666F6E742D73697AC1
S113173A653A206D656469756D3B20746578742D0E
S113174A616C69676E3A2063656E7465723B223E0A
S113175A3C7370616E3E003C666F726D206D6574F9
S113176A686F643D22504F5354223E003C703E3C05
S113177A7374726F6E673E53455249414C3A200066
S113178A3C2F7374726F6E673E3C2F703E3C703E02
S113179A3C7374726F6E673E535349443C2F73749F
S11317AA726F6E673E3C62723E3C696E707574205D
S11317BA747970653D227465787422206E616D6552
S11317CA3D2273736964222076616C75653D222219
S11317DA3E3C2F703E003C703E3C7374726F6E67E1
S11317EA3E50415353574F52443C2F7374726F6E99
S11317FA673E3C62723E3C696E70757420747970FF
S113180A653D2270617373776F726422206E616D15
S113181A653D2270617373776F7264222076616CFE
S113182A75653D22223E3C2F703E003C703E3C735F
S113183A74726F6E673E41504E3C2F7374726F6EB2
S113184A673E3C62723E3C696E70757420747970AE
S113185A653D227465787422206E616D653D22614E
S113186A706E222076616C75653D22223E3C2F7093
S113187A3E003C696E70757420747970653D2273FC
S113188A75626D6974223E3C2F666F726D3E3C2F01
S113189A7370616E3E3C2F6469763E003C2F626F22
S11318AA64793E3C2F68746D6C3E00485454502F42
S11318BA312E3020323030204F4B0D0A436F6E7474
S11318CA656E742D547970653A20746578742F683E
S11318DA746D6C3B20636861727365743D5554463C
S11318EA2D380D0A507261676D613A206E6F2D634F
S11318FA616368650D0A436F6E74656E742D4C6579
S113190A6E6774683A20000D0A436F6E6E656374DD
S113191A696F6E3A20636C6F73650D0A0D0A005085
S113192A4F5354202F20485454502F00706173731E
S113193A776F726400737369640061706E00535741
S113194A4954434852454C4159004E4F544946491B
S113195A434154494F4E3B5357495443483B004330
S113196A4647005B434C4541525F454550524F4DF3
S113197A5D00434C454152494E472E2E2E004F4B93
S113198A0A005B454E445D0024006E756C6C00537E
S113199A455249414C004E530042454D454E45542B
S11319AA20002042454B415043534F4C5400204B96
S11319BA494B415043534F4C540041542B434C54CC
S11319CA533D310D0A0041542B434C49503D310DCE
S10519DA0A00FD
S9030000FC
