:1000000096C00000B3C00000B1C00000AFC0000047
:10001000ADC00000ABC00000A9C00000A7C0000038
:10002000A5C00000A3C00000A1C000009FC0000048
:100030009DC000009BC0000099C0000097C0000058
:1000400095C0000093C0000018C600008FC00000DB
:10005000D1C500008BC0000089C0000087C000002F
:1000600085C0000083C0000081C000007FC0000088
:100070007EC500007BC0000079C0000077C0000092
:1000800075C0000073C0000071C00000FB080109CA
:1000900007090D09130919091F09B912BF12C51261
:1000A00018131813181318131813181318131813F8
:1000B0001813CB12D112D712DD12181318131813FC
:1000C0001813E312E912EF12F5121813181318138C
:1000D00018131813181318131813181318131813C8
:1000E0001813181318131813FB12011307130D1309
:1000F0001313211327132D1333134A134A134A13CF
:100100004A134A134A134A134A134A134A134A1307
:100110004A134A134A134A134A134A134A134A13F7
:100120004A134A134A134A1339133F134513112430
:100130001FBECFEFD0E4DEBFCDBF17E0A0E0B1E03F
:10014000E6E3FFE200E00BBF02C007900D92AA3386
:10015000B107D9F72BE0AAE3B7E001C01D92A234A2
:10016000B207E1F70E947B150C94991749CF0F93C2
:100170001F93CF93DF93EB01FC016081662379F03D
:100180008C010F5F1F4FF999FECF2196CE01019789
:100190000E948B17F80161918F016111F4CFCE019C
:1001A000DF91CF911F910F910895EF92FF920F93DE
:1001B0001F93CF93DF93EC017B0186179707A4F47D
:1001C000F999FECF0C2F1D2FCE010E9483178F3F70
:1001D00059F0F999FECF6FEF802F912F0E948B1766
:1001E0002196CE15DF0564F3DF91CF911F910F911A
:1001F000FF90EF9008952F923F924F925F926F92EF
:100200007F928F929F92AF92BF92CF92DF92EF92A6
:10021000FF920F931F93CF93DF93CDB7DEB7CC5CE4
:10022000D1090FB6F894DEBF0FBECDBFDC0121307F
:10023000310521F410923A0B1092390B9A012F5F7D
:100240003F4FFA018081882351F0F901812C912CD4
:100250002FEF821A920A91919111FACF02C0812C4C
:10026000912CE090390BF0903A0B8091A401909181
:10027000A501E816F9060CF090C02A01C553DF4F1E
:1002800079836883CB5CD040C753DF4FB983A883A1
:10029000C95CD040A12CB12C00E010E0CE01019649
:1002A0006C010F2EF7EC2F2EF02D312C6090A40155
:1002B0007090A501F999FECFC7010E948317833280
:1002C00031F491E0AB2809F090E0A92EB12C91E037
:1002D000A916B10459F4073C110509F460C0F601F0
:1002E000E00FF11F80830F5F1F4F4EC010161106E5
:1002F0000CF04AC0F601E00FF11F1082B201C601F6
:100300000E9404170097C9F1EFEF8E1A9E0AFC01B4
:10031000E80DF91D20812223E1F0C553DF4F48810C
:100320005981CB5CD04041505109D9F1C753DF4FBF
:10033000A881B981C95CD040319680E090E003C0CB
:100340008417950781F101962D9321912111F8CF02
:1003500002C080E090E0C753DF4FE881F981C95CBB
:10036000D040E80FF91F1082FFEFEF1AFF0AF0925A
:100370003A0BE092390B81E017C0F601222D119261
:100380002A95E9F7032D10E08FEFE81AF80AE61432
:10039000F7040CF48FCF80E007C080E005C080E058
:1003A00003C080E001C080E0C453DF4F0FB6F89473
:1003B000DEBF0FBECDBFDF91CF911F910F91FF9098
:1003C000EF90DF90CF90BF90AF909F908F907F90F5
:1003D0006F905F904F903F902F9008954F925F9253
:1003E0006F927F928F929F92AF92BF92CF92DF9245
:1003F000EF92FF920F931F93CF93DF93CDB7DEB7AA
:10040000CE5CD1090FB6F894DEBF0FBECDBF5C0144
:100410004B0110923A0B1092390B0EE318E00F2E9D
:10042000F8EC6F2E712CF02D0F2EF6E44F2EF8E025
:100430005F2EF02DBFC0AE0143535F4F6CE776E0F7
:10044000CE0101960E941E17009709F4A5C0AE01C7
:1004500045535F4F66E371E00E941E177C016BE31A
:1004600071E00E940417892B79F0AE0145535F4F6C
:1004700066E371E080E090E00E941E170E94B716CC
:10048000F801918380837CC06EE371E0C7010E9414
:100490000417892B79F0AE0145535F4F66E371E095
:1004A00080E090E00E941E170E94B716F801938327
:1004B000828366C064E470E0C7010E94F216892B53
:1004C00079F0AE0145535F4F66E371E080E090E064
:1004D0000E941E170E94B716F8019583848350C0AE
:1004E00061E471E0C7010E940417892B79F0AE0125
:1004F00045535F4F66E371E080E090E00E941E1775
:100500000E94B716F801978386833AC064E471E0CD
:10051000C7010E940417892B99F1AE0145535F4F23
:1005200066E371E080E090E00E941E17AE01475341
:100530005F4F69E273E00E941E170097C1F06201ED
:10054000E12CF12CFFEFEF1AFF0A0E94B716F6011B
:10055000819391936F01AE0147535F4F69E273E05E
:1005600080E090E00E941E17009761F702C0E12C26
:10057000F12CF701EE0FFF1FEA5BF74F71826082EB
:10058000AE0143535F4F6CE776E080E090E00E945D
:100590001E17009709F05BCFF801808191818A15C1
:1005A0009B0541F4828193818815990519F481E0B6
:1005B00090E00DC020E030E047E451E067EC70E0EF
:1005C000CE01019618DE811136CF80E090E0C25353
:1005D000DF4F0FB6F894DEBF0FBECDBFDF91CF91D6
:1005E0001F910F91FF90EF90DF90CF90BF90AF9051
:1005F0009F908F907F906F905F904F9008955F9243
:100600006F927F928F929F92AF92BF92CF92DF9222
:10061000EF92FF920F931F93CF93DF93CDB7DEB787
:10062000CC5CD1090FB6F894DEBF0FBECDBF46EA51
:1006300057E066E178E02EEF30E00AC02193319375
:10064000E817F907D9F7445E5F4F4617570721F0BF
:10065000CA014A96FA01F2CF10923A0B1092390B66
:100660006894AA24A2F8B12C812C912CC12CD12CF5
:100670000F2EFCE16F2EF02D55245394712C78C071
:10068000AE0145535F4F6CE776E0CE0101960E94C4
:100690001E17009709F46CC0E12CF12CAE014753F2
:1006A0005F4F66E371E00E941E178C016BE371E0FF
:1006B0000E940417892B81F0AE0147535F4F66E318
:1006C00071E080E090E00E941E170E94B7166C0156
:1006D0002FEFE21AF20A17C06EE371E0C8010E9420
:1006E0000417892B81F0AE0147535F4F66E371E039
:1006F00080E090E00E941E170E94B716882E992E67
:100700008FEFE81AF80AAE0145535F4F6CE776E0C9
:1007100080E090E00E941E17009709F0BFCF882D5F
:10072000992DA60122E0E216F10411F52DC02191C8
:1007300031912817390709F4A72DE617F707B9F7FC
:10074000A130B1F4440F551FFA01EE0FFF1FEE0F59
:10075000FF1FEE0FFF1FE41BF50BEA0DFB1DEE0F55
:10076000FF1FEA55F84F91838083C50101965C0114
:1007700020E030E042E751E068EC70E0CE01019605
:100780003ADD81117DCF0CC06C9CB0016D9C700D69
:100790001124FB01EA55F84F6054784FA52DC7CFBF
:1007A000C453DF4F0FB6F894DEBF0FBECDBFDF914D
:1007B000CF911F910F91FF90EF90DF90CF90BF905E
:1007C000AF909F908F907F906F905F9008952F9241
:1007D0003F924F925F926F927F928F929F92AF92D1
:1007E000BF92CF92DF92EF92FF920F931F93CF931E
:1007F000DF93CDB7DEB7CC56D1090FB6F894DEBF84
:100800000FBECDBF5C014B010F2EFCE16F2EF8E057
:100810007F2EF02D0EEF10E00F2EFEE24F2EF8E0AF
:100820005F2EF02DAC964FAEAC97AD965FAEAD9708
:10083000362C272C12C1AE0147595F4F6CE776E08A
:10084000CE0101960E941E172CE338E0F3010193BC
:100850001193E217F307D9F72EE438E0F201019380
:100860001193E217F307D9F7009709F4E5C00F2EAB
:10087000F4E1CF2EF8E0DF2EF02DAE0149595F4FA5
:1008800066E371E00E941E177C016BE371E00E9439
:100890000417892B79F0AE0149595F4F66E371E087
:1008A00080E090E00E941E170E94B716F601918327
:1008B0008083B6C06EE371E0C7010E940417892BE4
:1008C00079F0AE0149595F4F66E371E080E090E056
:1008D0000E941E170E94B716F60193838283A0C060
:1008E00065E771E0C7010E940417892B79F0AE011A
:1008F00049595F4F66E371E080E090E00E941E1767
:100900000E94B716F601958384838AC068E771E078
:10091000C7010E940417892B79F0AE0149595F4F36
:1009200066E371E080E090E00E941E170E94B71617
:10093000F6019783868374C06BE771E0C7010E945C
:100940000417892B39F1AE0149595F4F66E371E015
:1009500080E090E00E941E17AE014B595F4F69E2A4
:1009600073E00E941E17009709F45AC0E32CF22C82
:100970000E94B716F701819391937F01AE014B5905
:100980005F4F69E273E080E090E00E941E170097DD
:1009900079F746C06EE771E0C7010E940417892B02
:1009A00079F0AE0149595F4F66E371E080E090E075
:1009B0000E941E170E94B716F601918F808F30C0DB
:1009C00061E871E0C7010E940417892B49F1AE016B
:1009D00049595F4F66E371E080E090E00E941E1786
:1009E000AE014B595F4F69E273E00E941E170097FA
:1009F000B9F0AC96EFACAC97AD96FFACAD970E945A
:100A0000B716F701819391937F01AE014B595F4F68
:100A100069E273E080E090E00E941E17009779F78A
:100A2000AE0147595F4F6CE776E080E090E00E94AE
:100A30001E17009709F021CF809114089091150896
:100A40008A159B0551F48091160890911708881516
:100A5000990519F481E090E00DC020E030E042E714
:100A600051E064E670E0CE010196C5DB8111E3CE72
:100A700080E090E0C459DF4F0FB6F894DEBF0FBEA0
:100A8000CDBFDF91CF911F910F91FF90EF90DF903D
:100A9000CF90BF90AF909F908F907F906F905F901E
:100AA0004F903F902F900895EF92FF920F931F93D6
:100AB000CF93DF93E2E8F8E0808591852CE3289FCF
:100AC000B001299F700D112482859385680F791FCD
:100AD0004681578120EA35E0429FC001439F900D37
:100AE000529F900D1124680F791FE4E1F8E0068110
:100AF0001781E08CF18CECE1F8E0AAE2B8E0C0EA02
:100B0000D5E0819191918E3F910519F140895189EC
:100B10004E3F5105F1F08C9F90018D9F300D9C9FB1
:100B2000300D1124C901800F911F681779078CF0CF
:100B30004C9FC0014D9F900D5C9F900D11248E0D18
:100B40009F1D681779072CF48091620390916303CD
:100B500007C0EA17FB07A9F6809160039091610333
:100B6000DF91CF911F910F91FF90EF9008951F9209
:100B70000F920FB60F9211240BB60F922F933F9343
:100B80004F938F939F93EF93FF934091CE0080916B
:100B9000F60A9091F70A853C910520F01092F70A29
:100BA0001092F60AE6EFFAE0808191819C012F5FB6
:100BB0003F4F31832083FC01E65DF54F40834D308C
:100BC00021F04A3011F0411107C081E08093F30A0F
:100BD000F901E250F74F1082FF91EF919F918F91B1
:100BE0004F913F912F910F900BBE0F900FBE0F9022
:100BF0001F9018951F920F920FB60F9211240BB6EB
:100C00000F922F933F934F938F939F93EF93FF9365
:100C10004091C6008091F40A9091F50A8932914082
:100C200020F01092F50A1092F40AE4EFFAE08081C5
:100C300091819C012F5F3F4F31832083FC01E25063
:100C4000F74F40834D3021F04A3011F0411107C079
:100C500081E08093F20AF901E250F74F1082FF9190
:100C6000EF919F918F914F913F912F910F900BBEDC
:100C70000F900FBE0F901F9018951F920F920FB6F6
:100C80000F9211240BB60F922F933F934F935F93C4
:100C90008F939F93AF93BF93EF93FF938091370B05
:100CA0009091380B01968732910529F09093380B7B
:100CB0008093370BB0C01092380B1092370BE2E8DC
:100CC000F8E086859785019697878687883E9340CA
:100CD00009F04BC084859585019695878487178692
:100CE00016868289938920893189281739072CF043
:100CF00001969093950880939408E2E8F8E086893D
:100D0000978924893589281739072CF00196909303
:100D1000990880939808E2E8F8E0828D938D208D01
:100D2000318D281739072CF0019690939D088093F8
:100D30009C08E2E8F8E0868D978D248D358D281784
:100D400039072CF001969093A1088093A008E2E85F
:100D5000F8E082A193A120A131A1281739072CF036
:100D600001969093A5088093A40880918E08909195
:100D70008F08CC9749F4E2E8F8E0828593850196E4
:100D8000938782871586148680918C0890918D08B0
:100D9000CC9749F4E2E8F8E0808591850196918747
:100DA00080871386128680918A0890918B084897D5
:100DB00049F4E2E8F8E08481958101969583848383
:100DC00011861086A2E8B8E012968D919C91139737
:100DD000FC01EE0FFF1FEA5BFC4F14964D915C91F6
:100DE0001597208131814217530731F4FD01019697
:100DF0009383828315821482809184089091850860
:100E00000C9749F4E2E8F8E08081918101969183A2
:100E1000808313821282FF91EF91BF91AF919F91D6
:100E20008F915F914F913F912F910F900BBE0F903B
:100E30000FBE0F901F9018956F927F928F929F9286
:100E4000AF92BF92CF92DF92EF92FF920F931F93D8
:100E5000CF93DF933C01EB010E94831488EE93E073
:100E6000C89F8001C99F100DD89F100D1124112318
:100E7000B4F1812C912C0F2EF8EFCF2EFAE0DF2E5B
:100E8000F02DE0906603F0906703A0906403B090AB
:100E90006503F601C6ADD0E0CE15DF0539F4B30128
:100EA0008EEF98E00E940417892BE1F4CA15DB0548
:100EB00039F4B3018AE29AE00E940417892BA9F45D
:100EC000FFEF8F1A9F0A83EC99E00197F1F700C0BA
:100ED000000008151905ECF680E090E008C080E0FD
:100EE00090E005C081E090E002C081E090E0DF91F9
:100EF000CF911F910F91FF90EF90DF90CF90BF9017
:100F0000AF909F908F907F906F900895CF92DF92D7
:100F1000EF92FF920F931F93CF93DF9300D000D0F7
:100F20001F92CDB7DEB77C016B018091360B90E04C
:100F300020916603309167038217930749F5F70103
:100F40003196D7018C91882341F000E010E00F5FCB
:100F50001F4F81918111FBCF02C000E010E088EEAD
:100F600091E00E948812C6010E94881289E293E0F3
:100F70000E9488124AE0BE016F5F7F4FC8010E9445
:100F800045170E94881282E496E00E94881204C0ED
:100F900084EF91E00E94881262E070E088E594E0BE
:100FA0004BDF892B81F481E020915E0330915F0358
:100FB000232B09F080E08093FD08809160038093EB
:100FC000FB088093FC088091360B90E0209166032B
:100FD000309167038217930721F4C7010E9488129A
:100FE00009C0C7010E9472128AE10E946A128DE054
:100FF0000E946A120F900F900F900F900F90DF9148
:10100000CF911F910F91FF90EF90DF90CF900895B7
:10101000AF92BF92CF92DF92EF92FF920F931F9306
:10102000CF93DF9300D000D01F92CDB7DEB77C0105
:101030009091FD08992309F442C06B01F7013196A4
:10104000D7018C91882371F100E010E00F5F1F4FF2
:1010500081918111FBCFC80101960E948A15A82EAB
:10106000B92EE82FF92F83E28193112354F0D70191
:1010700020E030E08D9181932F5F3F4F02171307DF
:10108000CCF74AE0BE016F5F7F4FC6010E94451753
:10109000BC018A2D9B2D3ADF63E070E080E092E096
:1010A000CBDE0DC081E090E00E948A15A82EB92EFB
:1010B000E82FF92F83E2819300E010E0D8CF0F9062
:1010C0000F900F900F900F90DF91CF911F910F9184
:1010D000FF90EF90DF90CF90BF90AF900895CF92A8
:1010E000DF92EF92FF920F931F93CF93DF9300D085
:1010F00000D01F92CDB7DEB77C016B01FC013196A9
:10110000DC018C91882341F000E010E00F5F1F4F5D
:1011100081918111FBCF02C000E010E088EE91E0E8
:101120000E948812C6010E94881289E293E00E9400
:1011300088124AE0BE016F5F7F4FC8010E944517C9
:101140000E94881282E496E00E94881262E070E0B9
:1011500088E594E071DE892B81F481E020915E03C3
:1011600030915F03232B09F080E08093FD0880918C
:1011700060038093FB088093FC08C7010E948812DB
:1011800063E070E080E092E057DE0F900F900F90E8
:101190000F900F90DF91CF911F910F91FF90EF90E3
:1011A000DF90CF900895EF92FF920F931F93CF930C
:1011B000DF936FE070E083E092E03EDE892B09F47C
:1011C00063C084E690E00E94A41263E072E08EEFB8
:1011D00098E00E9404176CE776E00E94DD16892BE8
:1011E000A1F547C0FE013197E730F105B0F5EA5BA4
:1011F000FF4F0C9481150E94B716F70191838083ED
:101200002CC00E94B716F7019383828326C00E94E8
:10121000B716F7019583848320C00E94B716F701A3
:10122000918780871AC00E94B716F701938782873B
:1012300014C00E94B716F701958784870EC00E94DC
:10124000B716F7019783868308C000E010E00F2EE1
:10125000F2E8EF2EF8E0FF2EF02DE80121968E0146
:101260006CE776E080E090E00E94DD16009709F0E0
:10127000B9CF6091AC017091AD0188E092E0C8DE19
:101280000E94831481E001C080E0DF91CF911F9123
:101290000F91FF90EF9008950F931F93CF93DF93DB
:1012A000CDB7DEB7E2970FB6F894DEBF0FBECDBF65
:1012B00061E172E08EEF98E00E940417892BA9F19A
:1012C0006FE172E08EEF98E00E94DD166FE172E050
:1012D00080E090E00E94DD16BC0188EF9AE00E9459
:1012E000FD1689E0E1E2F2E08E010F5F1F4FD801A9
:1012F00001900D928A95E1F768EF7AE0C8010E94AB
:10130000E716F80101900020E9F7319783E290E0B9
:10131000918380836091A0017091A101C8010E9416
:10132000B7000E94831481E001C080E0E2960FB60E
:10133000F894DEBF0FBECDBFDF91CF911F910F910B
:1013400008950F931F93CF93DF93CDB7DEB7C456A5
:10135000D1090FB6F894DEBF0FBECDBF21E030E05B
:101360004AE252E06FE070E088EF9AE00E94FB00F2
:10137000811132C00E94831487E1E1E3F2E08E0123
:101380000F5F1F4FD80101900D928A95E1F769ED2B
:1013900071E0C8010E94E716F80101900020E9F70A
:1013A00031978AE090E09183808388EE93E00E94F9
:1013B000A4126091AC017091AD01C80129DE6FE00B
:1013C00070E081E192E038DD84E690E00E94A412B2
:1013D00063DF811122C026C08FE0E9E3F2E08E01D5
:1013E0000F5F1F4FD80101900D928A95E1F768EFCA
:1013F0007AE0C8010E94E716F80101900020E9F7A1
:1014000031978BE39AE0A0E080839183A28360917F
:10141000AC017091AD01C801FBDD84E690E00E9453
:10142000A41281E0CC59DF4F0FB6F894DEBF0FBE97
:10143000CDBFDF91CF911F910F9108950F931F930F
:10144000CF93DF938C01EB0188E492E00E94881235
:1014500063E070E080E092E0EFDC85E592E00E94DE
:10146000881263E070E080E092E0E6DC83E692E0E0
:101470000E94881263E070E080E092E0DDDC81E7AA
:1014800092E00E94881263E070E080E092E0D4DC99
:101490008AE992E00E94881263E070E080E092E0C6
:1014A000CBDC8EEA92E00E94881263E070E080E07C
:1014B00092E0C2DC89EB92E00E948812C8010E948F
:1014C000881284E293E00E948812CE010E94881262
:1014D00084EC92E00E9488126AE070E080E092E082
:1014E000ABDC892B19F08091620302C0809160030C
:1014F000DF91CF911F910F9108950F931F93CF9379
:10150000DF938C01EB010E9483142091360B30E0B5
:1015100080916603909167032817390769F482E187
:1015200093E0F6D7C801F4D788E293E0F1D7CE0173
:10153000EFD782E496E0ECD72091360B30E0809133
:101540006403909165032817390769F48BE293E0EF
:10155000DFD7C801DDD784E293E0DAD7CE01D8D750
:1015600084E093E0D5D76AE070E080E092E064DC4C
:10157000019771F4809162038093FD0814DE982F27
:10158000882339F0DEDE91E0811103C090E001C0D4
:1015900090E0892FDF91CF911F910F9108950F93C4
:1015A0001F93CF93DF93E2E8F8E0228933898089A3
:1015B0009189281739070CF466C0C0915E03D09159
:1015C0005F038091FD0890E08C179D0709F451C0DE
:1015D0000091660310916703C8010E9484136DEDAA
:1015E00078E089EC98E02ADF8093FB0881110AC03B
:1015F00080916403909165030E9484138091FB089D
:101600008823E1F1C8010E94841364EC78E086EA43
:1016100098E073DF813021F4C093FD080E948314A9
:101620008091FC08882351F08091640390916503B8
:101630000E9484138091FC08811104C08091FB08F2
:10164000882321F08091FD0881110DC080919208BE
:1016500090919308893522E092072CF44496909358
:10166000930880939208E2E8F8E0178A168A138EAE
:10167000128E109295081092940805C08091FC0873
:10168000882321F3D1CFDF91CF911F910F9108953E
:10169000AF92BF92CF92DF92EF92FF920F931F9380
:1016A000CF93DF93CDB7DEB7C154D7400FB6F894D0
:1016B000DEBF0FBECDBF6AE673E08EEF98E00E94FA
:1016C0000417892B09F41BC166E773E08EEF98E0DD
:1016D0000E940417FC018581C05CD84F8883C054E8
:1016E000D740CF5BD84F1882C154D74084EF91E0E8
:1016F0002BD78E0107511C4F83E7ECE7F3E0D801AD
:1017000001900D928A95E1F7D8010D900020E9F73C
:1017100011978BE1EFEEF3E001900D928A95E1F7DE
:10172000D8010D900020E9F711978BE3EAE0F4E08F
:1017300001900D928A95E1F7D8010D900020E9F70C
:10174000119785E1E5E4F4E001900D928A95E1F7C7
:10175000D8010D900020E9F7119784E1EAE5F4E063
:1017600001900D928A95E1F768EF7AE0C8010E9436
:10177000E716D8010D900020E9F7119780E5EEE615
:10178000F4E001900D928A95E1F769EC78E0C801E8
:101790000E94E716D8010D900020E9F7119787E025
:1017A000EEEBF4E001900D928A95E1F7D8010D90EF
:1017B0000020E9F711978FE4E5ECF4E001900D9239
:1017C0008A95E1F76DED78E0C8010E94E716D8012F
:1017D0000D900020E9F7119787E0EEEBF4E001901F
:1017E0000D928A95E1F7D8010D900020E9F7119745
:1017F00081E4E4E1F5E001900D928A95E1F761EF73
:1018000078E0C8010E94E716D8010D900020E9F7A2
:10181000119787E0EEEBF4E001900D928A95E1F7E5
:10182000D8010D900020E9F7119783E4E5E5F5E094
:1018300001900D928A95E1F766EA78E0C8010E946E
:10184000E716D8010D900020E9F7119787E0EEEB3D
:10185000F4E001900D928A95E1F7D8010D900020F7
:10186000E9F711978AE2E8E9F5E001900D928A958F
:10187000E1F7D8010D900020E9F711978FE0E2EC35
:10188000F5E001900D928A95E1F7F80101900020B2
:10189000E9F7CF0101972CE5E1EDF5E0AE014F5FEF
:1018A0005F4F7A01DA0101900D922A95E1F74AE043
:1018B000BE01655C784F801B910B0E944517BC01EF
:1018C000C7010E94E716D7010D900020E9F7119794
:1018D00088E1EDE2F6E001900D928A95E1F7B8011A
:1018E000C7010E94E716BE01605C784FC701F7DBB5
:1018F00063E070E080E092E09FDA0E94831465E488
:1019000076E08EEF98E00E940417892B09F045C11C
:1019100050C181E090E018D60150110921F162E533
:1019200076E08EEF98E00E940417892BE1F46BE5D6
:1019300076E08EEF98E00E940417892BA1F462E410
:1019400076E08EEF98E00E940417892B11F34BE2AA
:1019500051E060E270E08EEF98E00E94E016F7013F
:1019600011821082D6CF88EC90E0EED56BE576E060
:101970008EEF98E00E9404178C01892B61F143E1FE
:1019800050E060E270E089EC98E00E94E016F80117
:1019900085818632A1F08D30A9F08A3009F0F4C03B
:1019A00014C09191963299F09D3089F09A3079F077
:1019B0002F5F3F4F9D932431310599F708C020E0F8
:1019C00030E005C020E030E002C020E030E0F90166
:1019D000EA55F74F13A262E576E08EEF98E00E9499
:1019E00004178C01892B61F143E150E060E270E063
:1019F0008DED98E00E94E016F80181858632A1F015
:101A00008D30A9F08A3009F0B6C014C09191963299
:101A100099F09D3089F09A3079F02F5F3F4F9D9378
:101A20002431310599F708C020E030E005C020E0FE
:101A300030E002C020E030E0F901EA55F74F17AA84
:101A400060E676E08EEF98E00E9404178C01892B07
:101A500061F149E050E060E270E081EF98E00E94BF
:101A6000E016F80184818632A1F08D30A9F08A3029
:101A700009F078C014C09191963299F09D3089F0A8
:101A80009A3079F02F5F3F4F9D932A30310599F7B7
:101A900008C020E030E005C020E030E002C020E0D7
:101AA00030E0F901EF50F74F108264E676E08EEFF8
:101AB00098E00E9404176C01892B09F442C04DE1A3
:101AC00050E060E270E086EA98E00E94E016F601DD
:101AD00015811D3069F11A3071F1F6E0CF0ED11C7D
:101AE0000F2EF6EAAF2EF8E0BF2EF02DE12CF12CF0
:101AF00007C0F60111916F011D30F9F01A30E9F0BD
:101B0000812F90E00E94D616892B39F4812F90E026
:101B1000C0970A9710F01E3281F4FFEFEF1AFF0A08
:101B2000F50111935F01FEE1EF16F10411F705C015
:101B3000E12CF12C02C0E12CF12CF701EA55F74F12
:101B40001082E2E8F8E0138A128A118A108A109251
:101B5000FD081092FB088091660390916703D4D52D
:101B6000D2D627C08093F108F8013596A2EFB8E0ED
:101B700021E030E080CF8093DD08F8013A96AEEDA9
:101B8000B8E021E030E042CF8093C908F8013696F2
:101B9000AAECB8E021E030E004CF81E090E0D4D4BA
:101BA00007EE13E00F2EF4EFEF2EFAE0FF2EF02DEC
:101BB000B6CECF5BD84F0FB6F894DEBF0FBECDBF09
:101BC000DF91CF911F910F91FF90EF90DF90CF9019
:101BD000BF90AF9008953F924F925F926F927F9225
:101BE0008F929F92AF92BF92CF92DF92EF92FF922D
:101BF0000F931F93CF93DF93CDB7DEB7AD970FB69B
:101C0000F894DEBF0FBECDBF762E542EA62EB12C7B
:101C1000E82EF12CB501C7010E94EE01019739F4BD
:101C2000EEE3F8E0C680D7808480958004C0812CE4
:101C3000912CC12CD12C0AE010E060903F0360E0B1
:101C400070E0C701F3D3862D2CD4872D2AD4482EDB
:101C500021E0C216D10421F481E023D4382E03C040
:101C6000852D1FD4382E61E070E0C701DFD3232D0E
:101C700030E0240D311D2E30310509F486C082E399
:101C800090E062D401501109D1F684C088EE93E04F
:101C90009C01829EC001839E900D929E900D112406
:101CA00053D40AE010E090903F0360E070E0C70179
:101CB000BDD3892DF6D3872DF4D3C82E80E0F1D380
:101CC000D82E61E070E0C701B1D32D2D30E02C0D8E
:101CD000311D2E30310539F082E390E035D40150CA
:101CE000110919F75BC085E1E9E6F6E08E010F5FA7
:101CF0001F4FD80101900D928A95E1F74AE0BE018D
:101D0000675D7F4FC7010E944517BC01C8010E9453
:101D1000E716F80101900020E9F731970F2EFBE359
:101D2000EF2EF12CF02DF182E0824AE0BE01675DDA
:101D30007F4FC5010E944517BC01C8010E94E716EC
:101D4000F80101900020E9F73197F182E0824AE042
:101D5000BE01675D7F4F852D90E00E944517BC0155
:101D6000C8010E94E716F80101900020E9F73197B9
:101D70008BE39AE0A0E080839183A2836091AC0121
:101D80007091AD01C80144D909C0CA94CD2809F0A9
:101D9000AACF7CCFCA94CD2809F478CFAD960FB6E0
:101DA000F894DEBF0FBECDBFDF91CF911F910F9191
:101DB000FF90EF90DF90CF90BF90AF909F908F906B
:101DC0007F906F905F904F903F900895EF92FF92B9
:101DD0000F931F93CF93DF936EE776E08EEF98E03B
:101DE0000E940417009709F445C06CE776E0E5D738
:101DF0006CE776E080E090E0E0D7B9D78C016CE743
:101E000076E080E090E0D9D7B2D7EC016CE776E0DD
:101E100080E090E0D2D7ABD77C01482F6C2F802F89
:101E2000DADE043011052CF5CD30D10514F5EA9435
:101E3000EF2889F42DE0209FC001219F900D1124EF
:101E4000C80FD91FCC0FDD1FC45CD84F81E090E0D4
:101E5000998388830EC02DE0209FC001219F900DA3
:101E60001124C80FD91FCC0FDD1FC45CD84F1982B5
:101E7000188249D5DF91CF911F910F91FF90EF907C
:101E80000895CF93DF936AE876E08EEF98E0BCD7B1
:101E9000892B09F466C010929908109298086EE890
:101EA00076E08EEF98E0B0D7892BE1F010923D0BF1
:101EB0008DE996E02DD3C091A201D091A30160914C
:101EC000A4017091A501CE010E94D500D0933A0BD8
:101ED000C093390B6091AC017091AD018DE092E03F
:101EE00097D84EC069EA76E08EEF98E08DD7892BBF
:101EF000D9F08091A2019091A30190933A0B809325
:101F0000390B81E080933D0BC091AC01D091AD01C4
:101F1000BE018DE092E07CD884EF91E015D3BE0144
:101F20008FEA96E075D82CC066EC76E08EEF98E0EC
:101F300044D766EC76E080E090E03FD7C9E3DBE091
:101F4000688179810E94B700998388838AE090E054
:101F5000FBD26091AC017091AD018DE092E058D858
:101F6000D2D468EC76E08EEF98E04ED7892B41F022
:101F70006091AC017091AD018FEC96E049D8C3D46B
:101F8000DF91CF9108952F923F924F925F926F927F
:101F90007F928F929F92AF92BF92CF92DF92EF92F9
:101FA000FF920F931F93CF93DF93CDB7DEB7A39725
:101FB0000FB6F894DEBF0FBECDBFE2E8F8E0228D89
:101FC000338D808D918D281739070CF4F9C04AE0C4
:101FD000BE01615E7F4F809198089091990855D716
:101FE0000F2EF6E1EF2EFBE0FF2EF02D00E010E0CB
:101FF00088248394912C212C3090410340904003FD
:102000000F2EFBE36F2EFBE07F2EF02D5701D70143
:1020100058968D919C91599756D3811124C0F70100
:1020200080899189892B09F4ADC01DC060E070E002
:10203000C801FCD1832D35D2842D33D2582EB40162
:10204000C801F4D18EEF850D8C3F28F0F1E0CF1A56
:10205000D10861F7512C852D90E0D5018D939C938B
:10206000F30191828082D50158968D919C91599768
:102070002AD3882331F0F50180899189019709F4E9
:102080008FC00F5F1F4FF2E0EF0EF11C04301105FF
:1020900009F0BCCF80913B0B90913C0B019709F06C
:1020A0006CC010923C0B10923B0B8091FD08882372
:1020B00009F463C082E1E6E0F1E0DE0111960190EF
:1020C0000D928A95E1F7FE0173968CE0DF011D9277
:1020D0008A95E9F70F2EFEE1EF2EFBE0FF2EF02DA3
:1020E00000E010E072976F010F2EFAE38F2E912C13
:1020F000F02D0F2EFBE3AF2EB12CF02DD7018D91DB
:102100009D917D01019719F54AE0BE01615E7F4F07
:10211000C801BBD6BC01C6015AD6F6010190002009
:10212000E9F73197918280824AE0BE01615E7F4F7C
:10213000F7013A9780819181A8D6BC01C60147D6A4
:10214000F60101900020E9F73197B182A0820F5F7C
:102150001F4F0430110591F6CE010196FC0101904C
:102160000020E9F731972AE030E031832083609145
:10217000AC017091AD010E94080810929D08109268
:102180009C081EC084EF91E0DFD1F7019186808624
:10219000918A808A0F2EF5E0CF2EF02DD22C46CFDB
:1021A00084EF91E0D1D1D50119961C921E92189717
:1021B00051961C921E925097F3019182808261CFBA
:1021C000A3960FB6F894DEBF0FBECDBFDF91CF91BF
:1021D0001F910F91FF90EF90DF90CF90BF90AF9045
:1021E0009F908F907F906F905F904F903F902F9037
:1021F0000895E2E8F8E026893789848995892817C7
:10220000390704F18091FD088823C1F06091AC0189
:102210007091AD018FED96E00E94080863E070E0D8
:1022200086EE96E00E941C07892B41F480916003A2
:102230008093FD088093FB088093FC081092990816
:102240001092980808952F923F924F925F926F924A
:102250007F928F929F92AF92BF92CF92DF92EF9236
:10226000FF920F931F93CF93DF9300D000D0CDB791
:10227000DEB7E2E8F8E0268D378D848D958D28173E
:1022800039070CF4BCC080913D0B813009F0B7C018
:102290000E94FF0284EA97E09A83898300E010E0BD
:1022A000612C0F2EF9E34F2EFBE05F2EF02D2090D6
:1022B000A2013090A301E0906203F090630390C00C
:1022C000DC82CB82D60112968D919C9113978E3F22
:1022D000910509F470C0E0E6F3E07080D2012D9220
:1022E0003C9206C00E9454058E159F0509F4782E75
:1022F000EB81FC8162817381C8010E94E703892B15
:1023000089F7772079F1043011050CF054C0FDE015
:10231000AF16B1040CF04FC0AB81BC8112966D9129
:102320007C911397F401E60FF71FEE0FFF1FE45C9B
:10233000F84F80819181892B09F03DC041E0802FC9
:102340004ADCAB81BC811296ED91FC911397E80DAC
:10235000F91DEE0FFF1FE45CF84F81E090E09183E0
:10236000808329C00430110534F59DE0A916B1041D
:1023700014F5AB81BC8112966D917C911397F40199
:10238000E60FF71FEE0FFF1FE45CF84F808191818D
:10239000019789F440E0802F1EDCAB81BC8112964E
:1023A000ED91FC911397E80DF91DEE0FFF1FE45C12
:1023B000F84F11821082BFEFAB1ABB0AE2E0CE0EDB
:1023C000D11CFDE0AF16B10409F07ACF0F5F1F4FAB
:1023D00089819A814C969A8389830430110559F03A
:1023E000C980DA80A62CB12C9DE0909F4001919F7E
:1023F000900C112465CF1092A1081092A0080F90A4
:102400000F900F900F90DF91CF911F910F91FF9040
:10241000EF90DF90CF90BF90AF909F908F907F9084
:102420006F905F904F903F902F9008951F93CF93A0
:10243000DF93EC01162F84E690E086D0C130D10501
:1024400089F01CF4CD2B39F021C0C230D10589F0C0
:102450002397B1F01BC0612F80919A0190919B014D
:10246000E8D014C0612F8091980190919901E1D03A
:102470000DC0612F8091960190919701DAD006C02E
:10248000612F8091940190919501D3D084E690E0E2
:102490005BD0DF91CF911F91089581E58CBD1EBC6B
:1024A00008958EBD0DB407FEFDCF8EB50895209121
:1024B00068032093C400909169039093C50088E954
:1024C0008093C1002093CC009093CD008093C900ED
:1024D00078940895E8ECF0E0908195FFFDCF80932B
:1024E000CE000895CF93DF93EC018881882329F0F3
:1024F0002196F0DF89918111FCCFDF91CF91089572
:10250000E0ECF0E0908195FFFDCF8093C600089548
:10251000CF93DF93EC018881882329F02196F0DFA7
:1025200089918111FCCFDF91CF9108952091A6016F
:102530003091A7012115310511F4EACF089521301A
:10254000310509F4CFCF08951816190644F4E3ECC9
:10255000F9E03197F1F700C000000197C1F7089545
:1025600001978C32910508F063C0835B9F4FFC019B
:10257000C8C2613011F4259A0895259808956130F4
:1025800011F4269A089526980895613011F4279A37
:10259000089527980895613011F4549A0895549835
:1025A0000895613011F4559A089555980895613051
:1025B00011F4569A089556980895613011F4579A77
:1025C000089557980895613011F43A9A08953A9809
:1025D0000895613011F43B9A08953B980895613055
:1025E00011F43C9A08953C980895613011F43D9A95
:1025F00008953D980895613011F4209A0895209827
:102600000895613011F4219A089521980895613058
:1026100011F4229A089522980895613011F4239AB2
:10262000089523980895613011F4249A0895249808
:1026300008950D978E31910568F587589F4FFC01DD
:1026400060C2613011F45C9A08955C98089561301D
:1026500011F45D9A08955D980895613011F45E9AC1
:1026600008955E980895613011F45F9A08955F9817
:102670000895613011F4289A0895289808956130DA
:1026800011F4299A089529980895613011F42A9A2D
:1026900008952A980895CF93DF93C0919E01D09119
:1026A0009F0161E0CE01C5DF2FE784E89EE1215064
:1026B00080409040E1F700C0000060E0CE01B9DF4B
:1026C000DF91CF9108958731910599F034F48531E8
:1026D000910549F0469751F015C08831910561F098
:1026E0008B9769F00FC086B18470089586B18870A9
:1026F000089586B18071089586B18072089583B17E
:102700008870089580E008952091AA013091AB016E
:10271000232B51F0209166033091670382179307B2
:1027200019F48093360B08952091A8013091A901E6
:10273000232B51F020916403309165038217930796
:1027400019F48093360B08958FEF8093360B08951C
:10275000E2E8F8E01182108213821282158214825C
:10276000118610861386128615861486178616869D
:10277000E6E1FBE08EE19BE0119211921782168256
:1027800017861686E817F907B9F7ECE3F7E024EAAD
:1027900037E009C011921192E817F907D9F7FC0147
:1027A0002817390719F0CF014A96F4CFE8EFFAE07D
:1027B00010923C0B10923B0B8091920190919301EF
:1027C00097AB86AB809190019091910191AF80AFD2
:1027D00080918E0190918F0193AF82AF80918C0197
:1027E00090918D0195AF84AF1092380B1092370BFA
:1027F00010923A0B1092390B81E080933D0B6AEBFB
:1028000071E086EA98E0F9D265EB71E084EC98E03B
:10281000F4D262ED71E089EC98E0EFD267EC71E000
:102820008DED98E0EAD26EEA71E081EF98E0E5D2B2
:10283000809160038093FB088093FC088093FD08DF
:102840002CE231E0EEEFF8E0DF01A9011D924150EA
:102850005040E1F798ECEAE2FAE0DF011D929A9528
:10286000E9F78093F20A8093F30A1092F50A109226
:10287000F40A1092F70A1092F60AE2E8F8E0138AD6
:10288000128A8AE090E0918B808B178A168A8EE1FB
:1028900090E0958B848B138E128E85E090E0918F63
:1028A000808F178E168E84E190E0958F848F13A20F
:1028B00012A284EB90E091A380A385E0E1E1F7E030
:1028C000A8EFBAE001900D928A95E1F78FE0E7E07A
:1028D000FBE0DF011D928A95E9F721E030E04AE252
:1028E00052E06FE070E088EF9AE00E94FB008111F7
:1028F00009C085E0E1E1F7E0A8EFBAE001900D92B0
:102900008A95E1F708958091360B90E02091660357
:10291000309167038217930769F44BE251E060E25C
:1029200070E08EEF98E04CD21092F20A1092F50A05
:102930001092F40A089585B5816085BD16BCEEE657
:10294000F0E08081816080830895CF93DF93809150
:10295000A8019091A901892B41F180916403909184
:102960006503D2DE8CE097E0E1DD84EF91E0ECDD01
:1029700060E072E08AE29AE047D2892B21F48BDE94
:1029800080ED97E0E1DD86E197E0D0DD8CE291E03B
:10299000DBDD82E297E0CADD8CE291E0D5DD8EE2FC
:1029A00097E0C4DD8CE291E0CFDD8091AA019091A7
:1029B000AB01892BB1F0C0919C01D0919D01DD2725
:1029C00061E0CE0136DE84EF91E0BEDD60E0CE0155
:1029D00030DE88EE93E0B8DD809166039091670366
:1029E00093DEDF91CF910895CF93DF938091AA0179
:1029F0009091AB01892B39F06091420380919C0149
:102A000090919D01ADDD8091A8019091A901892B44
:102A100039F06091420380919E0190919F01A0DD69
:102A2000C09142036C2F80919A0190919B0198DD97
:102A30006C2F809198019091990192DD6C2F80917B
:102A40009601909197018CDD6C2F8091940190916B
:102A5000950186DDD09144036D2F80919201909174
:102A600093017EDD6D2F809190019091910178DD31
:102A70006D2F80918E0190918F0172DD6D2F80916D
:102A80008C0190918D016CDD6C2F80918A01909169
:102A90008B0166DD6C2F809188019091890160DD4A
:102AA0006D2F80918601909187015ADD6C2F809166
:102AB00084019091850154DDFADC84E690E044DDE8
:102AC000ECDCDF91CF9108958FDF42DE34DF3DCF24
:102AD00008958091F20A813049F484E690E034DD73
:102AE00075D9CFD90E94480B1092F20A08954BDA9B
:102AF00080DBA9CB0895E8DF0E94CF0AEADFF7DF89
:102B0000FBCFEE0FFF1F0024001C0BBE0790F691B9
:102B1000E02D0994CF93DF938230910510F482E089
:102B200090E0E091400BF091410B20E030E0C0E0FC
:102B3000D0E0309711F14081518148175907C0F01A
:102B40004817590761F482819381209719F09B837C
:102B50008A832BC09093410B8093400B26C0211594
:102B6000310519F04217530718F49A01BE01DF012D
:102B7000EF010280F381E02DDCCF2115310509F151
:102B8000281B390B2430310590F412968D919C91BD
:102B900013976115710521F0FB019383828304C0B3
:102BA0009093410B8093400BFD01329644C0FD0190
:102BB000E20FF31F81939193225031092D933C939F
:102BC0003AC020913E0B30913F0B232B41F42091D2
:102BD00002013091030130933F0B20933E0B209173
:102BE0000001309101012115310541F42DB73EB7A7
:102BF0004091040150910501241B350BE0913E0BDF
:102C0000F0913F0BE217F307A0F42E1B3F0B2817A0
:102C1000390778F0AC014E5F5F4F2417350748F055
:102C20004E0F5F1F50933F0B40933E0B8193919348
:102C300002C0E0E0F0E0CF01DF91CF9108950F9363
:102C40001F93CF93DF93009709F48CC0FC01329758
:102C5000138212820091400B1091410B0115110556
:102C600081F420813181820F931F20913E0B30919E
:102C70003F0B2817390779F5F0933F0BE0933E0B94
:102C800071C0D80140E050E0AE17BF0750F4129673
:102C90002D913C911397AD012115310509F1D90111
:102CA000F3CF9D01DA013383228360817181860F26
:102CB000971F8217930769F4EC0128813981260F49
:102CC000371F2E5F3F4F318320838A819B819383FF
:102CD0008283452B29F4F093410BE093400B42C0D3
:102CE0001396FC93EE931297ED01499159919E0131
:102CF000240F351FE217F30771F480819181840F4F
:102D0000951F029611969C938E93828193811396C0
:102D10009C938E931297E0E0F0E0D80112968D918B
:102D20009C911397009719F0F8018C01F6CF8D91C3
:102D30009C9198012E5F3F4F820F931F20913E0B75
:102D400030913F0B2817390769F4309729F4109216
:102D5000410B1092400B02C01382128210933F0B62
:102D600000933E0BDF91CF911F910F910895FC01CD
:102D700088279927E89421912032E9F3293010F02F
:102D80002E30C8F32B3239F02D3231F4689403C061
:102D900086D0820F911D219120532A30C8F31EF452
:102DA000909581959F4F089585FD9AC080629111FD
:102DB00097C081568A51E0F708954AE357E03EC034
:102DC000DC0101C06D9341505040E0F70895FB01D4
:102DD000DC010D900020E9F7119701900D92002081
:102DE000E1F70895FC018191861721F08823D9F736
:102DF000992708953197CF010895FB01DC010190D7
:102E00000D920020E1F70895FB0151915523A9F09F
:102E1000BF01DC014D9145174111E1F759F4CD0196
:102E20000190002049F04D9140154111C9F3FB017B
:102E30004111EFCF81E090E001970895FA01A1914F
:102E4000B081009719F41097E1F0CD01DC01CD01BC
:102E50000D90002011F4C00113C0FB012191222329
:102E600019F02015D9F7F3CFFB012191201519F4A2
:102E70001E92119606C02223C1F70D900020A1F7E3
:102E8000D001FA01A193B0830895BB274A3031F4F1
:102E9000992322F4BDE2909581959F4F09C07AE075
:102EA000979F902D879F802D910D11240895BB270A
:102EB000FB015527AA27880F991FAA1FA41710F0F6
:102EC000A41B83955051B9F7A05DAA3308F0A95D02
:102ED000A193009779F7B111B1931192CB0103C07F
:102EE000992788270895DC01FC01672F71917723CA
:102EF000E1F7329704C07C916D9370836291AE17B5
:102F0000BF07C8F30895F999FECF92BD81BDF89A25
:102F1000992780B50895262FF999FECF1FBA92BD43
:102F200081BD20BD0FB6F894FA9AF99A0FBE0196AA
:062F30000895F894FFCFA4
:102F36000000420B200052454C4159434F4E4E452E
:102F46004354494F4E533B00000000000000000070
:102F56000000000041444D494E005553455200556E
:102F66005352005549003A004341004D4900524929
:102F760000494D005541005253004E5300484F53EF
:102F8600543100504F52543100484F535432005080
:102F96004F52543200535349440050574400415055
:102FA6004E0054530054490053540053570045549F
:102FB600004557002C00020001000300180017000E
:102FC6001600150010000F000E000D002900280045
:102FD60000005000001001000100010000006F6EAB
:102FE6006C696E650032303836003139322E313632
:102FF600382E302E32370037374C643763723764D9
:10300600570054617264697300746573742070723A
:103016006F6475637420310041542B434950534506
:103026004E443D0041542B43495053454E440D00F8
:103036004F4B0054494D450054494D45204F4B0ACE
:103046000053455249414C5F4E554D42455200236F
:10305600002353455249414C3B0053455249414C8C
:1030660000524551554553545F53455249414C5FB3
:103076004E554D4245523B0041542B534C4545500D
:103086003D320D0A0041542B4349504D55583D31B0
:103096000D0A0041542B43574D4F44453D330D0A0D
:1030A6000041542B43575341503D2248434D2D4E2A
:1030B6004554574F524B222C2261646D696E313252
:1030C6003334222C352C330D0A0041542B434950FE
:1030D6005345525645523D312C38300D0A00415465
:1030E6002B43494653520D0A0041542B43574A413C
:1030F600503D2200220D0A0041542B4349505348AB
:1031060055540D0041542B43474154543D310D0055
:1031160041542B434744434F4E543D312C22495092
:10312600222C220041542B435354543D2200222C7E
:1031360022222C22220D0041542B43494943520D91
:103146000A0041542B43495053544152543D302CAC
:1031560022544350222C2200222C0041542B434956
:103166005053544152543D22544350222C220004C1
:103176000201010000001F001C001F001E001F00AE
:103186001E001F001F001E001F001E001F00010062
:1031960000000100000001004000474554202F2098
:1031A600485454502F002B4950442C003C68746DF1
:1031B6006C3E3C686561643E3C6D657461206E6181
:1031C6006D653D2276696577706F72742220636F34
:1031D6006E74656E743D2277696474683D646576C5
:1031E6006963652D77696474682C20696E697469F2
:1031F600616C2D7363616C653D312E302C206D61E1
:1032060078696D756D2D7363616C653D312E302265
:103216003E3C2F686561643E3C626F64793E003CCB
:103226007469746C653E48434D20436F6E736F6CD2
:10323600653C2F7469746C653E003C646976207346
:1032460074796C653D22666F6E742D73697A653A82
:10325600206D656469756D3B20746578742D616CAD
:1032660069676E3A2063656E7465723B223E3C73F5
:1032760070616E3E003C666F726D206D6574686F9E
:10328600643D22504F5354223E003C703E3C7374C2
:10329600726F6E673E53455249414C3A20003C2FAF
:1032A6007374726F6E673E3C2F703E3C703E3C738B
:1032B60074726F6E673E535349443C2F7374726F3A
:1032C6006E673E3C62723E3C696E7075742074791E
:1032D60070653D227465787422206E616D653D22AD
:1032E60073736964222076616C75653D2200223E07
:1032F6003C2F703E003C703E3C7374726F6E673EAE
:1033060050415353574F52443C2F7374726F6E673C
:103316003E3C62723E3C696E7075742074797065CD
:103326003D2270617373776F726422206E616D65E2
:103336003D2270617373776F7264222076616C75BB
:10334600653D22003C703E3C7374726F6E673E4171
:10335600504E3C2F7374726F6E673E3C62723E3CF9
:10336600696E70757420747970653D227465787421
:1033760022206E616D653D2261706E222076616C41
:1033860075653D22003C703E3C7374726F6E673EFD
:10339600484F53543C2F7374726F6E673E3C627293
:1033A6003E3C696E70757420747970653D22746553
:1033B600787422206E616D653D22686F73742220D9
:1033C60076616C75653D22003C696E70757420747B
:1033D6007970653D227375626D6974223E3C2F6675
:1033E6006F726D3E3C2F7370616E3E3C2F64697642
:1033F6003E003C2F626F64793E3C2F68746D6C3ED4
:1034060000485454502F312E3020323030204F4B4C
:103416000D0A436F6E74656E742D547970653A208B
:10342600746578742F68746D6C3B20636861727381
:1034360065743D5554462D380D0A507261676D61AD
:103446003A206E6F2D63616368650D0A436F6E7473
:10345600656E742D4C656E6774683A20000D0A43DC
:103466006F6E6E656374696F6E3A20636C6F736519
:103476000D0A0D0A00504F5354202F204854545023
:103486002F0070617373776F7264007373696400E1
:1034960061706E00686F7374004E4F54494649431D
:1034A6004154494F4E3B5357495443483B005357A9
:1034B6004954434852454C415900434647005B43F3
:1034C6004C4541525F454550524F4D5D00434C457A
:1034D6004152494E472E2E2E005B454E445D004E0E
:1034E6004F54494649434154494F4E3B5550444138
:1034F6005445443B0A00240055504441544500526B
:103506004551554553545F5550444154450A00436F
:103516004845434B0A004C4956450041542B4352FB
:1035260045473F0D0A002B435245473A20302C3180
:10353600002B435245473A20302C350041540D0AA2
:10354600006E756C6C0041542B434D47463D310D62
:103556000A0041542B434C54533D310D0A0041544B
:0A3566002B434C49503D310D0A0083
:00000001FF
