S01C0000686F6D655F636F6E74726F6C5F70726F6A6563742E73726563A9
S113000096C00000B3C00000B1C00000AFC0000043
S1130010ADC00000ABC00000A9C00000A7C0000034
S1130020A5C00000A3C00000A1C000009FC0000044
S11300309DC000009BC0000099C0000097C0000054
S113004095C0000093C000000C9430088FC00000DD
S1130050C4C700008BC0000089C0000087C0000036
S113006085C0000083C0000081C000007FC0000084
S113007071C700007BC0000079C0000077C0000099
S113008075C0000073C0000071C00000270B2D0B69
S1130090330B390B3F0B450B4B0BBF16C516CB1659
S11300A02417241724172417241724172417241774
S11300B02417D116D716DD16E31624172417241790
S11300C0E916EF16F516FB16011724172417241743
S11300D02417241724172417241724172417241744
S11300E0241724172417241707170D171317191784
S11300F01F172D17331739173F175617561756174B
S11301005617561756175617561756175617561783
S11301105617561756175617561756175617561773
S1130120561756175617561745174B1751171124BC
S11301301FBECFEFD0E4DEBFCDBF17E0A0E0B1E03B
S1130140EEEFF7E300E00BBF02C007900D92AE3C68
S1130150B107D9F72EE0AEECB7E001C01D92AC3F79
S1130160B207E1F70E94D5190C94FD1B49CF0F93F8
S11301701F93CF93DF93EB01FC016081662379F039
S11301808C010F5F1F4FF999FECF2196CE01019785
S11301900E94EF1BF80161918F016111F4CFCE0130
S11301A0DF91CF911F910F910895EF92FF920F93DA
S11301B01F93CF93DF93EC017B0186179707A4F479
S11301C0F999FECF0C2F1D2FCE010E94E71B8F3F04
S11301D059F0F999FECF6FEF802F912F0E94EF1BFA
S11301E02196CE15DF0564F3DF91CF911F910F9116
S11301F0FF90EF9008952F923F924F925F926F92EB
S11302007F928F929F92AF92BF92CF92DF92EF92A2
S1130210FF920F931F93CF93DF93CDB7DEB7C85FE1
S1130220D1400FB6F894DEBF0FBECDBFDC01213044
S1130230310521F41092E60E1092E50E9A012F5F1B
S11302403F4FFA018081882351F0F901812C912CD0
S11302502FEF821A920A91919111FACF02C0812C48
S1130260912CE090E50EF090E60E8091A101909122
S1130270A201E816F9060CF092C01A01C950DE4F2B
S113028079836883C75FD140CB50DE4FB983A8839D
S1130290C55FD140A12CB12C00E010E0CE01019645
S11302A06C010F2EF3EF4F2E55245394F02D6090D4
S11302B0A1017090A201F999FECFC7010E94E71B2A
S11302C0833231F491E0AB2809F090E0A92EB12CEF
S11302D091E0A916B10461F4033FE1E01E0709F4BB
S11302E060C0F601E00FF11F80830F5F1F4F4EC007
S11302F0101611060CF04AC0F601E00FF11F10822F
S1130300B101C6010E94681B0097C9F1FFEF8F1A63
S11303109F0AFC01E80DF91D20812223E1F0C95058
S1130320DE4F48815981C75FD14041505109D9F10D
S1130330CB50DE4FA881B981C55FD140319680E0B2
S113034090E003C08417950781F101962D932191C4
S11303502111F8CF02C080E090E0CB50DE4FE8815D
S1130360F981C55FD140E80FF91F10822FEFE21A1F
S1130370F20AF092E60EE092E50E81E017C0F60173
S1130380C20111920197E9F700E010E09FEFE91A2A
S1130390F90AE614F7040CF48ECF80E007C080E07D
S11303A005C080E003C080E001C080E0C850DE4F9B
S11303B00FB6F894DEBF0FBECDBFDF91CF911F9172
S11303C00F91FF90EF90DF90CF90BF90AF909F90F0
S11303D08F907F906F905F904F903F902F900895F3
S11303E00F931F93CF93DF93CDB7DEB7C456D109D4
S11303F00FB6F894DEBF0FBECDBF8C011092E60E8F
S11304001092E50E17C0B801CE0101960E94681B38
S1130410892B81F064E271E0CE0101960E94681B91
S1130420892BB1F46AE271E0CE0101960E94681B47
S1130430892B89F420E030E04FE251E064E670E07B
S1130440CE010196D8DE8111DECF80E090E005C0B8
S113045081E090E002C082E090E0CC59DF4F0FB61B
S1130460F894DEBF0FBECDBFDF91CF911F910F91E6
S113047008954F925F926F927F928F929F92AF9264
S1130480BF92CF92DF92EF92FF920F931F93CF937D
S1130490DF93CDB7DEB7CE5CD1090FB6F894DEBFDB
S11304A00FBECDBF5C014B011092E60E1092E50E1B
S11304B002ED18E00F2EF8EC6F2E712CF02D0F2E9C
S11304C0FAED4F2EF8E05F2EF02DBFC0AE0143537E
S11304D05F4F68E673E0CE0101960E94821B00978D
S11304E009F4A5C0AE0145535F4F63E177E00E9474
S11304F0821B7C0169E371E00E94681B892B79F0FF
S1130500AE0145535F4F63E177E080E090E00E94E5
S1130510821B0E941B1BF801918380837CC06CE3C7
S113052071E0C7010E94681B892B79F0AE01455325
S11305305F4F63E177E080E090E00E94821B0E94BD
S11305401B1BF8019383828366C064E470E0C701D7
S11305500E94561B892B79F0AE0145535F4F63E12E
S113056077E080E090E00E94821B0E941B1BF80150
S11305709583848350C06FE371E0C7010E94681BB8
S1130580892B79F0AE0145535F4F63E177E080E05A
S113059090E00E94821B0E941B1BF80197838683B4
S11305A03AC062E471E0C7010E94681B892B99F18B
S11305B0AE0145535F4F63E177E080E090E00E9435
S11305C0821BAE0147535F4F66EF72E00E94821BAD
S11305D00097C1F06201E12CF12CFFEFEF1AFF0A42
S11305E00E941B1BF601819391936F01AE01475347
S11305F05F4F66EF72E080E090E00E94821B0097FC
S113060061F702C0E12CF12CF701EE0FFF1FE65257
S1130610F74F71826082AE0143535F4F68E673E027
S113062080E090E00E94821B009709F05BCFF80104
S1130630808191818A159B0541F48281938188157B
S1130640990519F481E090E00DC020E030E045E424
S113065051E067EC70E0CE010196CDDD811136CF1B
S113066080E090E0C253DF4F0FB6F894DEBF0FBEB8
S1130670CDBFDF91CF911F910F91FF90EF90DF904D
S1130680CF90BF90AF909F908F907F906F905F902E
S11306904F900895AF92BF92CF92DF92FF920F9343
S11306A01F93CF93DF93CDB7DEB7C65FD1400FB6AC
S11306B0F894DEBF0FBECDBF6C015B011092E60E55
S11306C01092E50E20E030E048E451E064EF71E080
S11306D0CE01019690DD882309F451C0AE014B5040
S11306E05E4F68E673E0CE0101960E94821B8C0186
S11306F0892BE9F1F12C6BE471E0C8010E94681BBD
S1130700892B89F063E177E0C8010E94411B63E112
S113071077E080E090E00E94411BBC01C6010E948A
S1130720611BF39417C061E571E0C8010E94681B66
S1130730892B81F063E177E0C8010E94411B63E1EA
S113074077E080E090E00E94411BBC01C5010E945B
S1130750611BF394AE014B505E4F68E673E080E09A
S113076090E00E94821B8C01892B29F601C0F12C98
S113077081E090E022E0F21621F080E002C080E007
S113078090E0CA50DE4F0FB6F894DEBF0FBECDBF67
S1130790DF91CF911F910F91FF90DF90CF90BF9089
S11307A0AF900895AF92BF92CF92DF92FF920F93D2
S11307B01F93CF93DF93CDB7DEB7C65FD1400FB69B
S11307C0F894DEBF0FBECDBF6C015B011092E60E44
S11307D01092E50E20E030E048E451E064EF71E06F
S11307E0CE01019608DD882309F451C0AE014B50B7
S11307F05E4F68E673E0CE0101960E94821B8C0175
S1130800892BE9F1F12C67E571E0C8010E94681BAE
S1130810892B89F063E177E0C8010E94411B63E101
S113082077E080E090E00E94411BBC01C6010E9479
S1130830611BF39417C06DE571E0C8010E94681B49
S1130840892B81F063E177E0C8010E94411B63E1D9
S113085077E080E090E00E94411BBC01C5010E944A
S1130860611BF394AE014B505E4F68E673E080E089
S113087090E00E94821B8C01892B29F601C0F12C87
S113088081E090E022E0F21621F080E002C080E0F6
S113089090E0CA50DE4F0FB6F894DEBF0FBECDBF56
S11308A0DF91CF911F910F91FF90DF90CF90BF9078
S11308B0AF900895CF93DF93EB0169EB71E00E9451
S11308C0611B64EB71E0CE010E94611B81E090E04A
S11308D0DF91CF910895CF93DF93CDB7DEB7C456A0
S11308E0D1090FB6F894DEBF0FBECDBF1092E60E4D
S11308F01092E50E20E030E043E651E064E670E05B
S1130900CE01019678DC882389F0DE011196FD0181
S113091001900020E9F73197EA1BFB0B7F9760F405
S1130920BD0183EA99E00E94611B06C06AED71E093
S113093083EA99E00E94611B1092E60E1092E50E84
S113094020E030E048E651E064E670E0CE01019634
S113095052DC882389F0DE011196FD01019000200C
S1130960E9F73197EA1BFB0B7F9760F4BD0181EC3B
S113097099E00E94611B06C06FEC71E081EC99E084
S11309800E94611B1092E60E1092E50E20E030E00A
S11309904CE651E064E670E0CE0101962CDC88233D
S11309A089F0DE011196FD0101900020E9F73197ED
S11309B0EA1BFB0B3B9760F4BD018FED99E00E94AD
S11309C0611B06C06DEA71E08FED99E00E94611B26
S11309D0CC59DF4F0FB6F894DEBF0FBECDBFDF9109
S11309E0CF9108955F926F927F928F929F92AF9270
S11309F0BF92CF92DF92EF92FF920F931F93CF9308
S1130A00DF93CDB7DEB7CC5CD1090FB6F894DEBF67
S1130A100FBECDBF4AE358E06AEA78E02EEF30E03B
S1130A200AC021933193E817F907D9F7445E5F4F61
S1130A304617570721F0CA014A96FA01F2CF1092DD
S1130A40E60E1092E50E6894AA24A2F8B12C812C2B
S1130A50912CC12CD12C0F2EFCE16F2EF02D55249E
S1130A605394712C78C0AE0145535F4F68E673E030
S1130A70CE0101960E94821B009709F46CC0E12C00
S1130A80F12CAE0147535F4F63E177E00E94821B74
S1130A908C0169E371E00E94681B892B81F0AE012F
S1130AA047535F4F63E177E080E090E00E94821B50
S1130AB00E941B1B6C012FEFE21AF20A17C06CE3B1
S1130AC071E0C8010E94681B892B81F0AE01475375
S1130AD05F4F63E177E080E090E00E94821B0E9418
S1130AE01B1B882E992E8FEFE81AF80AAE01455386
S1130AF05F4F68E673E080E090E00E94821B0097FD
S1130B0009F0BFCF882D992DA60122E0E216F10449
S1130B1011F52DC0219131912817390709F4A72D1A
S1130B20E617F707B9F7A130B1F4440F551FFA01DE
S1130B30EE0FFF1FEE0FFF1FEE0FFF1FE41BF50B61
S1130B40EA0DFB1DEE0FFF1FE65CF74F91838083D8
S1130B50C50101965C0120E030E040E751E068EC1B
S1130B6070E0CE01019647DB81117DCF0CC06C9CF7
S1130B70B0016D9C700D1124FB01E65CF74F6C5ABB
S1130B80774FA52DC7CFC453DF4F0FB6F894DEBF00
S1130B900FBECDBFDF91CF911F910F91FF90EF90CA
S1130BA0DF90CF90BF90AF909F908F907F906F9089
S1130BB05F9008952F923F924F925F926F927F922F
S1130BC08F929F92AF92BF92CF92DF92EF92FF9259
S1130BD00F931F93CF93DF93CDB7DEB7CC56D109D4
S1130BE00FB6F894DEBF0FBECDBF5C014B010F2ED4
S1130BF0F0EB6F2EF8E07F2EF02D0EEF10E00F2EAD
S1130C00F2EC4F2EF8E05F2EF02DAC964FAEAC9781
S1130C10AD965FAEAD97362C272C12C1AE01475965
S1130C205F4F68E673E0CE0101960E94821B20EDBF
S1130C3038E0F30101931193E217F307D9F722EE99
S1130C4038E0F20101931193E217F307D9F7009703
S1130C5009F4E5C00F2EF8EACF2EF8E0DF2EF02DD0
S1130C60AE0149595F4F63E177E00E94821B7C012A
S1130C7069E371E00E94681B892B79F0AE01495940
S1130C805F4F63E177E080E090E00E94821B0E9466
S1130C901B1BF60191838083B6C06CE371E0C7012E
S1130CA00E94681B892B79F0AE0149595F4F63E1BB
S1130CB077E080E090E00E94821B0E941B1BF601FB
S1130CC093838283A0C063E771E0C7010E94681B1D
S1130CD0892B79F0AE0149595F4F63E177E080E0F9
S1130CE090E00E94821B0E941B1BF6019583848363
S1130CF08AC06EE073E0C7010E94681B892B79F0FB
S1130D00AE0149595F4F63E177E080E090E00E94D3
S1130D10821B0E941B1BF6019783868374C066E7BF
S1130D2071E0C7010E94681B892B39F1AE01495952
S1130D305F4F63E177E080E090E00E94821BAE01A8
S1130D404B595F4F66EF72E00E94821B009709F4D3
S1130D505AC0E32CF22C0E941B1BF7018193919340
S1130D607F01AE014B595F4F66EF72E080E090E087
S1130D700E94821B009779F746C069E771E0C701BA
S1130D800E94681B892B79F0AE0149595F4F63E1DA
S1130D9077E080E090E00E94821B0E941B1BF6011A
S1130DA0918F808F30C06CE771E0C7010E94681B8F
S1130DB0892B49F1AE0149595F4F63E177E080E047
S1130DC090E00E94821BAE014B595F4F66EF72E0C8
S1130DD00E94821B0097B9F0AC96EFACAC97AD962D
S1130DE0FFACAD970E941B1BF701819391937F0188
S1130DF0AE014B595F4F66EF72E080E090E00E94D5
S1130E00821B009779F7AE0147595F4F68E673E09C
S1130E1080E090E00E94821B009709F021CF80912E
S1130E20A8089091A9088A159B0551F48091AA08F5
S1130E309091AB088815990519F481E090E00DC0F4
S1130E4020E030E040E751E064E670E0CE01019636
S1130E50D2D98111E3CE80E090E0C459DF4F0FB6C0
S1130E60F894DEBF0FBECDBFDF91CF911F910F91DC
S1130E70FF90EF90DF90CF90BF90AF909F908F90B6
S1130E807F906F905F904F903F902F900895EF92D6
S1130E90FF920F931F93CF93DF93E6E1F9E08085F0
S1130EA091852CE3289FB001299F700D1124828520
S1130EB09385680F791F4681578120EA35E0429F68
S1130EC0C001439F900D529F900D1124680F791F0C
S1130ED0E8EAF8E006811781E08CF18CE0EBF8E0B9
S1130EE0AEEBB8E0C0EAD5E0819191918E3F9105D7
S1130EF019F1408951894E3F5105F1F08C9F9001C1
S1130F008D9F300D9C9F300D1124C901800F911FBE
S1130F10681779078CF04C9FC0014D9F900D5C9F22
S1130F20900D11248E0D9F1D681779072CF4809164
S1130F305B0390915C0307C0EA17FB07A9F6809155
S1130F40590390915A03DF91CF911F910F91FF9014
S1130F50EF9008951F920F920FB60F9211240BB6C3
S1130F600F922F933F934F938F939F93EF93FF93FE
S1130F704091CE008091A20E9091A30E853C9105E4
S1130F8020F01092A30E1092A20EE2EAFEE08081FD
S1130F9091819C012F5F3F4F31832083FC01EA52F2
S1130FA0F24F40834D3021F04A3011F0411107C017
S1130FB081E080939F0EF901E251F64F1082FF9178
S1130FC0EF919F918F914F913F912F910F900BBE75
S1130FD00F900FBE0F901F9018951F920F920FB68F
S1130FE00F9211240BB60F922F933F934F938F932D
S1130FF09F93EF93FF934091C6008091A00E909130
S1131000A10E853E934020F01092A10E1092A00EE6
S1131010E0EAFEE0808191819C012F5F3F4F3183A4
S11310202083FC01E251F64F40834D3021F04A30D9
S113103011F0411107C081E080939E0EF901E25145
S1131040F64F1082FF91EF919F918F914F913F91B5
S11310502F910F900BBE0F900FBE0F901F901895FD
S11310601F920F920FB60F9211240BB60F922F936B
S11310703F934F935F938F939F93AF93BF93EF935C
S1131080FF938091E30E9091E40E019687329105CF
S113109029F09093E40E8093E30EB0C01092E40E16
S11310A01092E30EE6E1F9E086859785019697872D
S11310B08687883E934009F04BC0848595850196C8
S11310C09587848717861686828993892089318932
S11310D0281739072CF00196909329098093280941
S11310E0E6E1F9E086899789248935892817390743
S11310F02CF0019690932D0980932C09E6E1F9E0F8
S1131100828D938D208D318D281739072CF001960F
S11311109093310980933009E6E1F9E0868D978D4B
S1131120248D358D281739072CF0019690933509B5
S113113080933409E6E1F9E082A193A120A131A1D1
S1131140281739072CF001969093390980933809B0
S11311508091220990912309CC9749F4E6E1F9E0C2
S1131160828593850196938782871586148680915C
S1131170200990912109CC9749F4E6E1F9E08085B2
S113118091850196918780871386128680911E0926
S113119090911F09489749F4E6E1F9E0848195812B
S11311A001969583848311861086A6E1B9E0129690
S11311B08D919C911397FC01EE0FFF1FEF5BFC4F89
S11311C014964D915C9115972081318142175307F4
S11311D031F4FD01019693838283158214828091F8
S11311E01809909119090C9749F4E6E1F9E0808116
S11311F0918101969183808313821282FF91EF91F2
S1131200BF91AF919F918F915F914F913F912F919A
S11312100F900BBE0F900FBE0F901F9018956F92FA
S11312207F928F929F92AF92BF92CF92DF92EF9272
S1131230FF920F931F93CF93DF934C01EB010E9416
S1131240841888EE93E0C89F8001C99F100DD89F31
S1131250100D112411230CF468C0C0E0D0E00F2E4F
S1131260F4EACF2EFEE0DF2EF02DE0905F03F09045
S11312706003A0905D03B0905E03F60166AC712C30
S11312806E147F0411F5B4018EEE99E00E94681B80
S1131290892B09F04DC060EF71E08EEE99E00E9459
S11312A0681B892B09F047C066EF71E08EEE99E068
S11312B00E94681B892B09F041C06BEF71E08EEE30
S11312C099E00E94681B892BE1F56A147B04F9F408
S11312D0B40186ED9DE00E94681B892BA9F560EF9F
S11312E071E086ED9DE00E94681B892B81F566EF15
S11312F071E086ED9DE00E94681B892B59F56BEF28
S113130071E08EEE99E00E94681B892B31F52196DD
S113131083EC99E00197F1F700C000000C171D075A
S11313200CF0ABCF80E090E01AC080E090E017C0F2
S113133081E090E014C080E090E011C080E090E093
S11313400EC080E090E00BC081E090E008C080E037
S113135090E005C080E090E002C080E090E0DF9182
S1131360CF911F910F91FF90EF90DF90CF90BF909E
S1131370AF909F908F907F906F900895CF92DF925F
S1131380EF92FF920F931F93CF93DF9300D000D07F
S11313901F92CDB7DEB77C016B018091E20E90E025
S11313A020915F03309160038217930749F5F70199
S11313B03196D7018C91882341F000E010E00F5F53
S11313C01F4F81918111FBCF02C000E010E080E04B
S11313D092E00E948016C6010E94801686EF92E079
S11313E00E9480164AE0BE016F5F7F4FC8010E94D1
S11313F0A91B0E9480168DE096E00E94801604C00E
S11314008CE092E00E94801662E070E089E594E04E
S113141006DF892B41F4809159038093ED09809371
S1131420EB098093EC098091E20E90E020915F0338
S1131430309160038217930721F4C7010E9480163C
S113144009C0C7010E946A168AE10E9462168DE0F3
S11314500E9462160F900F900F900F900F90DF91E3
S1131460CF911F910F91FF90EF90DF90CF9008954F
S1131470AF92BF92CF92DF92EF92FF920F931F939E
S1131480CF93DF9300D000D01F92CDB7DEB77C019D
S11314909091ED09992309F442C06B01F70131964B
S11314A0D7018C91882371F100E010E00F5F1F4F8A
S11314B081918111FBCFC80101960E94EE19A82EDB
S11314C0B92EE82FF92F83E28193112354F0D70129
S11314D020E030E08D9181932F5F3F4F0217130777
S11314E0CCF74AE0BE016F5F7F4FC6010E94A91B83
S11314F0BC018A2D9B2D42DF63E070E088E192E01D
S11315008EDE0DC081E090E00E94EE19A82EB92E67
S1131510E82FF92F83E2819300E010E0D8CF0F90F9
S11315200F900F900F900F90DF91CF911F910F911B
S1131530FF90EF90DF90CF90BF90AF900895CF923F
S1131540DF92EF92FF920F931F93CF93DF9300D01C
S113155000D01F92CDB7DEB77C016B01FC01319640
S1131560DC018C91882341F000E010E00F5F1F4FF5
S113157081918111FBCF02C000E010E080E092E095
S11315800E948016C6010E94801686EF92E00E9497
S113159080164AE0BE016F5F7F4FC8010E94A91BFD
S11315A00E9480168DE096E00E94801662E070E052
S11315B089E594E034DE892B41F4809159038093CA
S11315C0ED098093EB098093EC098CE291E00E9491
S11315D0AA16C7010E94801663E070E088E192E0D9
S11315E01EDE0F900F900F900F900F90DF91CF9110
S11315F01F910F91FF90EF90DF90CF900895EF929D
S1131600FF920F931F93CF93DF936FE070E08BE112
S113161092E005DE892B09F463C084E690E00E9421
S1131620AA166BE172E08EEE99E00E94681B68E6F0
S113163073E00E94411B892BA1F547C0FE0131973D
S1131640E730F105B0F5EA5BFF4F0C94E5190E9411
S11316501B1BF701918380832CC00E941B1BF70185
S11316609383828326C00E941B1BF7019583848386
S113167020C00E941B1BF701918780871AC00E941B
S11316801B1BF7019387828714C00E941B1BF70161
S1131690958784870EC00E941B1BF701978386835E
S11316A008C000E010E00F2EF6E1EF2EF9E0FF2E67
S11316B0F02DE80121968E0168E673E080E090E069
S11316C00E94411B009709F0B9CF6091AB01709162
S11316D0AC0180E292E0CCDE0E94841881E001C07B
S11316E080E0DF91CF911F910F91FF90EF900895CB
S11316F00F931F93CF93DF93CDB7DEB7E2970FB667
S1131700F894DEBF0FBECDBF69E272E08EEE99E0C1
S11317100E94681B892BA9F167E372E08EEE99E0C1
S11317200E94411B67E372E080E090E00E94411B4D
S1131730BC0184EA9EE00E94611B89E0E9E3F2E0D7
S11317408E010F5F1F4FD80101900D928A95E1F72A
S113175064EA7EE0C8010E944B1BF801019000205E
S1131760E9F7319783E290E09183808360919B0154
S113177070919C01C8010E94B7000E94841881E006
S113178001C080E0E2960FB6F894DEBF0FBECDBF75
S1131790DF91CF911F910F9108950F931F93CF93D2
S11317A0DF93CDB7DEB7C456D1090FB6F894DEBFC8
S11317B00FBECDBF21E030E042E452E06FE070E0C4
S11317C084EA9EE00E94FB00811132C00E948418CA
S11317D087E1E9E4F2E08E010F5F1F4FD801019029
S11317E00D928A95E1F761EE71E0C8010E944B1BEE
S11317F0F80101900020E9F731978AE090E09183A5
S1131800808388EE93E00E94AA166091AB017091E8
S1131810AC01C8012DDE6FE070E089E292E0FFDCEC
S113182084E690E00E94AA1663DF811122C026C0DC
S11318308FE0E1E5F2E08E010F5F1F4FD8010190C8
S11318400D928A95E1F764EA7EE0C8010E944B1B81
S1131850F80101900020E9F731978BE39AE0A0E0CA
S113186080839183A2836091AB017091AC01C80124
S1131870FFDD84E690E00E94AA1681E0CC59DF4F98
S11318800FB6F894DEBF0FBECDBFDF91CF911F918D
S11318900F9108950F931F93CF93DF938C01EB0166
S11318A080E692E00E94801663E070E088E192E0B6
S11318B0B6DC8FE792E00E94801663E070E088E176
S11318C092E0ADDC8AE892E00E948016C8010E9492
S11318D0801681EF92E00E948016CE010E9480164D
S11318E087E497E00E9480166AE070E088E192E065
S11318F096DC892B19F080915B0302C08091590317
S1131900DF91CF911F910F910895CF93C0915B0305
S1131910C093ED0974DE811105C080915903809351
S1131920ED090DC03ADF811105C080915903809300
S1131930ED0905C0C093ED090E94841801C080E040
S1131940CF9108950F931F93CF93DF938C01EB01F5
S11319500E9484182091E20E30E080915F03909100
S113196060032817390791F48FED92E00E948016E6
S1131970C8010E94801685EF92E00E948016CE0175
S11319800E9480168DE096E00E9480162091E20E5F
S113199030E080915D0390915E032817390791F43C
S11319A088EF92E00E948016C8010E94801681EFA1
S11319B092E00E948016CE010E94801681ED92E092
S11319C00E9480166AE070E088E192E028DC21E061
S11319D0019709F020E0822FDF91CF911F910F91A1
S11319E00895EF92FF920F931F93CF93DF93CDB798
S11319F0DEB768970FB6F894DEBF0FBECDBF6EE9B1
S1131A0079E08AE399E00E945A046EE979E08AE376
S1131A1099E098DF182F813009F08BC061EE71E0F6
S1131A20CE0101967C010E94611BF7010190002008
S1131A30E9F731978AE090E09183808380915B039A
S1131A408093ED0984EF91E00E94AA166091AB01A6
S1131A507091AC01C7010CDD6AE070E08CE093E0AA
S1131A60DEDB019709F063C084E690E00E94AA16C9
S1131A706CE073E08EEE99E00E94681B6CE073E00A
S1131A800E94681BAE01495E5F4F68E673E00E94E6
S1131A90821B009709F44BC000E0AE014B5E5F4F20
S1131AA06AE072E00E94821B7C016CE073E00E9499
S1131AB0681B892B81F0AE014B5E5F4F6AE072E0D8
S1131AC080E090E00E94821B7C01BC018AE399E0E3
S1131AD00E94611B0F5F61E173E0C7010E94681BF4
S1131AE0892B79F0AE014B5E5F4F6AE072E080E0D3
S1131AF090E00E94821BBC018EE999E00E94611B68
S1131B000F5FAE01495E5F4F68E673E080E090E0EE
S1131B100E94821B009709F6023049F486E193E0A3
S1131B200E94801684EF91E00E94AA1603C010E080
S1131B3001C010E0812F68960FB6F894DEBF0FBE87
S1131B40CDBFDF91CF911F910F91FF90EF9008953A
S1131B501F93CF93DF93E6E1F9E0228933898089EB
S1131B609189281739070CF49AC08091ED0990E007
S1131B7020915B0330915C038217930709F48BC0B7
S1131B80C0915903D0915A0380915F0390916003EF
S1131B900E94941761EC79E083EA99E07BDE8093FC
S1131BA0EB0981110FC080915D0390915E030E9447
S1131BB094178091EB09811105C08091EC09882369
S1131BC009F456C01C2F6EE979E08AE399E00E947B
S1131BD04A03892B49F06EE979E08AE399E0B2DEA1
S1131BE0882321F092DE03C08C2F01C08C2F282F74
S1131BF030E0C217D30781F56EE979E08AE399E012
S1131C000E94D203892BB1F086E293E00E948016F1
S1131C1084EF91E00E94AA166EE979E08AE399E0E4
S1131C2091DE882311F071DE182F812F90E0C81700
S1131C30D90791F4D6DE882379F081E393E00E94FA
S1131C40801684EF91E00E94AA166EE979E08AE397
S1131C5099E078DE811159DE8091EC09811104C08C
S1131C608091EB09882321F08091ED0981110DC049
S1131C708091260990912709893522E092072CF456
S1131C8044969093270980932609E6E1F9E0178AA0
S1131C90168A138E128E1092290910922809DF9148
S1131CA0CF911F910895EF92FF920F931F93CF93BB
S1131CB0DF93CDB7DEB7C05AD1090FB6F894DEBFB3
S1131CC00FBECDBFE0909D01F0909E0160919F01F9
S1131CD07091A001C7010E94D50087E0E3E6F3E01C
S1131CE08E010F5F1F4FD80101900D928A95E1F785
S1131CF063EA79E0C8010E944B1BD8010D900020D3
S1131D00E9F7119787E0EAE6F3E001900D928A95EE
S1131D10E1F761EC79E0C8010E944B1BD8010D90FA
S1131D200020E9F7119787E0E1E7F3E001900D92D5
S1131D308A95E1F76FED79E0C8010E944B1BF80129
S1131D4001900020E9F7319783E290E0918380834A
S1131D50F092E60EE092E50EB701C8010E94B700CA
S1131D60C056DF4F0FB6F894DEBF0FBECDBFDF9174
S1131D70CF911F910F91FF90EF900895EF92FF92F2
S1131D800F931F93CF93DF93CDB7DEB7CF53D740D5
S1131D900FB6F894DEBF0FBECDBFF82E89E0809356
S1131DA0E90968E773E08EEE99E00E94681B0097EA
S1131DB031F0FC0184818093E9091092EA0984EFEF
S1131DC091E0C8D78E0107511C4F83E7EDE7F3E09C
S1131DD0D80101900D928A95E1F7D8010D90002069
S1131DE0E9F711978BE1E0EFF3E001900D928A950A
S1131DF0E1F7D8010D900020E9F711978BE3EBE0B0
S1131E00F4E001900D928A95E1F7D8010D9000203D
S1131E10E9F7119785E1E6E4F4E001900D928A95E3
S1131E20E1F7D8010D900020E9F7119784E1EBE583
S1131E30F4E001900D928A95E1F764EA7EE0C8012E
S1131E400E944B1BD8010D900020E9F7119780E503
S1131E50EFE6F4E001900D928A95E1F763EA79E008
S1131E60C8010E944B1BD8010D900020E9F711977F
S1131E7087E0EFEBF4E001900D928A95E1F7D80149
S1131E800D900020E9F711978BE4E6ECF4E0019063
S1131E900D928A95E1F761EC79E0C8010E944B1B31
S1131EA0D8010D900020E9F7119787E0EFEBF4E0FB
S1131EB001900D928A95E1F7D8010D900020E9F781
S1131EC0119781E4E1E1F5E001900D928A95E1F743
S1131ED06FED79E0C8010E944B1BD8010D900020E2
S1131EE0E9F7119787E0EFEBF4E001900D928A9502
S1131EF0E1F7F1E0FF120DC0D8010D900020E9F7E1
S1131F00119781E1E2E5F5E001900D928A95E1F700
S1131F100EC0DE01A751BC4F0D900020E9F71197C8
S1131F2086E1E3E6F5E001900D928A95E1F77E0102
S1131F3087E1E81A8CEFF80AD7010D900020E9F741
S1131F40119783E2E9E7F5E001900D928A95E1F7B4
S1131F50F70101900020E9F7CF0101972CE5ECE9A6
S1131F60F5E08E010F5F1F4FD80101900D922A9565
S1131F70E1F74AE0BE01655C784F8E199F090E9423
S1131F80A91BBC01C8010E944B1BD8010D90002065
S1131F90E9F7119788E1E8EFF5E001900D928A9551
S1131FA0E1F7B701C8010E944B1B8091E909893010
S1131FB039F069EE79E0C801C2DA88EE93E0CAD656
S1131FC00E948418E6E1F9E0138A128A84EB90E017
S1131FD0918B808BC15CD84F0FB6F894DEBF0FBED7
S1131FE0CDBFDF91CF911F910F91FF90EF90089596
S1131FF0AF92BF92CF92DF92EF92FF920F931F9313
S1132000CF93DF9360E176E08EEE99E00E94681B47
S1132010892B11F080E0B2DE6CE176E08EEE99E07F
S11320200E94681B892B09F409C189E08093E9099E
S113203068E773E08EEE99E00E94681B009739F020
S1132040DC0114968C918093E9091092EA0984EFDB
S113205091E080D669E276E08EEE99E00E94681BFA
S1132060EC01892B71F14DE150E060E270E083EA0C
S113207099E00E94441B8D818632A1F08D30A9F035
S11320808A3009F0D2C014C09191963299F09D30F3
S113209089F09A3079F02F5F3F4F9D932E313105AF
S11320A099F708C020E030E005C020E030E002C02D
S11320B020E030E0F901ED55F64F108201E010E028
S11320C002C000E010E06EE276E08EEE99E00E943D
S11320D0681BEC01892B69F14DE150E060E270E08E
S11320E081EC99E00E94441B89858632A1F08D30F1
S11320F0A9F08A3009F090C014C09191963299F0F9
S11321009D3089F09A3079F02F5F3F4F9D932E31A7
S1132110310599F708C020E030E005C020E030E048
S113212002C020E030E0F901EF53F64F10820F5F58
S11321301F4F67E376E08EEE99E00E94681B0097DC
S113214009F446C029E0EFEDF9E0DF011D922A957C
S1132150E9F7FC01C481CD3081F1CA3089F16C0109
S1132160F5E0CF0ED11C0F2EFFEDAF2EF9E0BF2E00
S1132170F02DE12CF12C07C0D601CD916D01CD30AD
S113218009F1CA30F9F08C2F90E00E943A1B892B98
S113219049F48C2F90E0C0970A9720F083ED8C0FC0
S11321A0823080F4BFEFEB1AFB0AF501C1935F01A3
S11321B0FAE0EF16F10401F705C0E12CF12C02C09E
S11321C0E12CF12CF701E152F64F10820F5F1F4F03
S11321D003301105E1F48091E9098930C1F084EFFD
S11321E091E0B8D581E0CADD5EDDE6E1F9E0138A6D
S11321F0128A118A108A1092ED091092EB098BE36E
S113220096E07ED580915F03909160038DD688EE31
S113221093E0A0D579D712C08093C109FE013A9604
S1132220A2ECB9E021E030E068CF8093A309FE017D
S11322303696A4EAB9E021E030E026CFDF91CF91D1
S11322401F910F91FF90EF90DF90CF90BF90AF90D0
S113225008953F924F925F926F927F928F929F92D6
S1132260AF92BF92CF92DF92EF92FF920F931F93A0
S1132270CF93DF93CDB7DEB7AD970FB6F894DEBF3B
S11322800FBECDBF762E542EA62EB12CE82EF12CE7
S1132290B501C7010E943902019739F4E2EDF8E073
S11322A0C680D7808480958004C0812C912CC12C59
S11322B0D12C0AE010E060903A0360E070E0C701BE
S11322C0ADD4862DE6D4872DE4D4482E21E0C21661
S11322D0D10421F481E0DDD4382E03C0852DD9D476
S11322E0382E61E070E0C70199D4232D30E0240D2D
S11322F0311D2E30310509F486C082E390E02AD5E1
S113230001501109D1F684C088EE93E09C01829EAD
S1132310C001839E900D929E900D11241BD50AE05E
S113232010E090903A0360E070E0C70177D4892D03
S1132330B0D4872DAED4C82E80E0ABD4D82E61E0C3
S113234070E0C7016BD42D2D30E02C0D311D2E30E3
S1132350310539F082E390E0FDD40150110919F7F9
S11323605BC085E1EBE4F6E08E010F5F1F4FD801FF
S113237001900D928A95E1F74AE0BE01675D7F4FB7
S1132380C7010E94A91BBC01C8010E944B1BF80194
S113239001900020E9F731970F2EFBE3EF2EF12C8B
S11323A0F02DF182E0824AE0BE01675D7F4FC501F6
S11323B00E94A91BBC01C8010E944B1BF80101909B
S11323C00020E9F73197F182E0824AE0BE01675DBF
S11323D07F4F852D90E00E94A91BBC01C8010E947B
S11323E04B1BF80101900020E9F731978BE39AE049
S11323F0A0E080839183A2836091AB017091AC01D2
S1132400C80136D809C0CA94CD2809F0AACF7CCF18
S1132410CA94CD2809F478CFAD960FB6F894DEBFF0
S11324200FBECDBFDF91CF911F910F91FF90EF9021
S1132430DF90CF90BF90AF909F908F907F906F90E0
S11324405F904F903F900895EF92FF920F931F93E8
S1132450CF93DF9360E676E08EEE99E00E94681BEE
S1132460009709F44CC068E673E00E94411B68E6DB
S113247073E080E090E00E94411B0E941B1B8C01D2
S113248068E673E080E090E00E94411B0E941B1B01
S1132490EC0168E673E080E090E00E94411B0E943A
S11324A01B1B7C01482F6C2F802FD3DE04301105B9
S11324B02CF5CD30D10514F5EA94EF2889F42DE0FC
S11324C0209FC001219F900D1124C80FD91FCC0F4C
S11324D0DD1FC053D84F81E090E0998388830EC0FC
S11324E02DE0209FC001219F900D1124C80FD91FFA
S11324F0CC0FDD1FC053D84F1982188205D6DF9147
S1132500CF911F910F91FF90EF900895CF93DF9398
S11325106CE676E08EEE99E00E94681B892B09F444
S11325206EC010922D0910922C0960E776E08EEEB1
S113253099E00E94681B892BE9F01092E90E8FE75D
S113254096E0DED3C0919F01D091A0016091A101DA
S11325507091A201CE010E94D500D093E60EC093E3
S1132560E50E6091AB017091AC0185E292E00E94AE
S1132570380A56C06BE876E08EEE99E00E94681B3C
S1132580892BE9F080919F019091A0019093E60E30
S11325908093E50E81E08093E90EC091AB01D09168
S11325A0AC01BE0185E292E00E94380A84EF91E01A
S11325B0D1D3BE0181E996E00E94380A31C068EAAD
S11325C076E08EEE99E00E94411B68EA76E080E0B6
S11325D090E00E94411BC5EEDEE0688179810E9493
S11325E0B700998388838AE090E0B4D36091AB010B
S11325F07091AC0185E292E00E94380A85D56AEABE
S113260076E08EEE99E00E94681B892B49F0609178
S1132610AB017091AC0181EB96E00E94380A74D54D
S1132620DF91CF9108952F923F924F925F926F92D4
S11326307F928F929F92AF92BF92CF92DF92EF924E
S1132640FF920F931F93CF93DF93CDB7DEB7A3977A
S11326500FB6F894DEBF0FBECDBFE6E1F9E0228DE0
S1132660338D808D918D281739070CF4FAC04AE018
S1132670BE01615E7F4F80912C0990912D090E94CB
S1132680A91B0F2EF2ECEF2EFEE0FF2EF02D00E042
S113269010E088248394912C212C30903C034090AA
S11326A03B030F2EF7EE6F2EFEE07F2EF02D570129
S11326B0D70158968D919C91599711D4811124C0BA
S11326C0F70180899189892B09F4ADC01DC060E0B0
S11326D070E0C801A3D2832DDCD2842DDAD2582E27
S11326E0B401C8019BD28EEF850D8C3F28F0F1E038
S11326F0CF1AD10861F7512C852D90E0D5018D9327
S11327009C93F30191828082D50158968D919C917E
S11327105997E5D3882331F0F50180899189019790
S113272009F48FC00F5F1F4FF2E0EF0EF11C04306D
S1132730110509F0BCCF8091E70E9091E80E019746
S113274009F06CC08091ED09882309F467C01092E8
S1132750E80E1092E70E82E1E6E0F1E0DE01119668
S113276001900D928A95E1F7FE0173968CE0DF01EA
S11327701D928A95E9F70F2EFAECEF2EFEE0FF2E5C
S1132780F02D00E010E072976F010F2EFAE38F2E08
S1132790912CF02D0F2EFBE3AF2EB12CF02DD70191
S11327A08D919D917D01019719F54AE0BE01615E0D
S11327B07F4FC801CED7BC01C6016DD7F601019089
S11327C00020E9F73197918280824AE0BE01615E80
S11327D07F4FF7013A9780819181BBD7BC01C60135
S11327E05AD7F60101900020E9F73197B182A0820F
S11327F00F5F1F4F0430110591F6CE010196FC01C5
S113280001900020E9F731972AE030E031832083FA
S11328106091AB017091AC010E94380A10923109A9
S1132820109230091EC084EF91E094D2F701918692
S11328308086918A808A0F2EF5E0CF2EF02DD22C3F
S113284046CF84EF91E086D2D50119961C921E9250
S1132850189751961C921E925097F3019182808290
S113286061CFA3960FB6F894DEBF0FBECDBFDF9144
S1132870CF911F910F91FF90EF90DF90CF90BF9079
S1132880AF909F908F907F906F905F904F903F900C
S11328902F900895E6E1F9E026893789848995899E
S11328A02817390704F18091ED098823C1F060915C
S11328B0AB017091AC0181EC96E00E94380A63E0B0
S11328C070E088EC96E00E940F09892B41F4809116
S11328D059038093ED098093EB098093EC091092DE
S11328E02D0910922C0908952F923F924F925F92D6
S11328F06F927F928F929F92AF92BF92CF92DF920C
S1132900EF92FF920F931F93CF93DF9300D000D0E9
S1132910CDB7DEB7E6E1F9E0268D378D848D958D50
S1132920281739070CF4BCC08091E90E813009F0F6
S1132930B7C00E94F20488E398E09A83898300E098
S113294010E0612C0F2EF5EE4F2EFEE05F2EF02DE1
S113295020909F013090A001E0905B03F0905C0315
S113296090C0DC82CB82D60112968D919C911397F4
S11329708E3F910509F470C0E9E5F3E07080D2015F
S11329802D923C9206C00E9447078E159F0509F4BC
S1132990782EEB81FC8162817381C8010E94DA0583
S11329A0892B89F7772079F1043011050CF054C094
S11329B0FDE0AF16B1040CF04FC0AB81BC811296A0
S11329C06D917C911397F401E60FF71FEE0FFF1F33
S11329D0E053F84F80819181892B09F03DC041E09B
S11329E0802F37DCAB81BC811296ED91FC9113975B
S11329F0E80DF91DEE0FFF1FE053F84F81E090E062
S1132A009183808329C00430110534F59DE0A91613
S1132A10B10414F5AB81BC8112966D917C9113972E
S1132A20F401E60FF71FEE0FFF1FE053F84F80810C
S1132A309181019789F440E0802F0BDCAB81BC814C
S1132A401296ED91FC911397E80DF91DEE0FFF1FFF
S1132A50E053F84F11821082BFEFAB1ABB0AE2E0D9
S1132A60CE0ED11CFDE0AF16B10409F07ACF0F5F92
S1132A701F4F89819A814C969A838983043011056A
S1132A8059F0C980DA80A62CB12C9DE0909F4001BA
S1132A90919F900C112465CF10923509109234093E
S1132AA00F900F900F900F90DF91CF911F910F9186
S1132AB0FF90EF90DF90CF90BF90AF909F908F905A
S1132AC07F906F905F904F903F902F9008958091EA
S1132AD0A7019091A801892B79F1E6E1F9E022A1FF
S1132AE033A180A191A12817390734F128D38DECA3
S1132AF096E022D18CE291E02DD168ED76E086ED6E
S1132B009DE0E6D5892BA1F463EE76E086ED9DE0A9
S1132B10DFD5892B69F413D38EEE96E00DD168E1ED
S1132B2072E086ED9DE0D4D5892B09F0C0D1BFD1E8
S1132B3010923909109238090895089569E077E0F0
S1132B4086ED9DE0C5D5009791F061EF72E00696A1
S1132B5098D5BC018BEE9EE0B4D56EE076E080E0C3
S1132B6090E08FD562ED72E080E090E08AC5089530
S1132B700F931F93CF93DF93CDB7DEB7C85CD10912
S1132B800FB6F894DEBF0FBECDBF60E177E086EDEF
S1132B909DE09ED5892B21F1D2D281E08093EA0E6B
S1132BA085E197E0C9D088EE93E0D4D0C7DF8C01EB
S1132BB08BEE9EE00E94F001882391F061E277E0C1
S1132BC0C80186D5892B61F087E0E6E2F7E0DE01F3
S1132BD0119601900D928A95E1F78DE297E0ACD0C1
S1132BE08091EA0E882371F08EEE96E0A5D084EFF2
S1132BF091E0B0D086E397E09FD084EF91E0AAD033
S1132C001092EA0EC853DF4F0FB6F894DEBF0FBE22
S1132C10CDBFDF91CF911F910F9108951F93CF9353
S1132C20DF93EC01162F84E690E094D0C130D105F7
S1132C3089F01CF4CD2B39F021C0C230D10589F0C4
S1132C402397B1F01BC0612F80919501909196015B
S1132C50FCD014C0612F8091930190919401F5D020
S1132C600DC0612F8091910190919201EED006C028
S1132C70612F80918F0190919001E7D084E690E0DC
S1132C8069D0DF91CF911F91089581E58CBD1EBC61
S1132C9008958EBD0DB407FEFDCF8EB50895209125
S1132CA061032093C400909162039093C50088E966
S1132CB08093C1002093CC009093CD008093C900F1
S1132CC078940895E8ECF0E0908195FFFDCF80932F
S1132CD0CE000895CF93DF93EC018881882329F0F7
S1132CE02196F0DF89918111FCCFDF91CF91089576
S1132CF0E0ECF0E0908195FFFDCF8093C60008954D
S1132D00CF93DF93EC018881882329F02196F0DFAB
S1132D1089918111FCCFDF91CF9108952091A50174
S1132D203091A6012115310511F4EACF089521301F
S1132D30310509F4CFCF08952091A3013091A40166
S1132D402115310511F4DCCF08952130310509F442
S1132D50C1CF08951816190644F4E3ECF9E031974D
S1132D60F1F700C000000197C1F7089501978C3274
S1132D70910508F069C0835B9F4FFC0126C3613055
S1132D8011F4259A089525980895613011F4269A2E
S1132D90089526980895613011F4279A0895279884
S1132DA00895613011F4549A089554980895613047
S1132DB011F4559A089555980895613011F4569A6E
S1132DC0089556980895613011F4579A08955798C4
S1132DD00895613011F4399A08953998089561304D
S1132DE011F43A9A08953A980895613011F43B9A8F
S1132DF008953B980895613011F43C9A08953C98E5
S1132E000895613011F43D9A08953D980895613014
S1132E1011F4209A089520980895613011F4219AAC
S1132E20089521980895613011F4229A0895229802
S1132E300895613011F4239A089523980895613018
S1132E4011F4249A0895249808950D978E319105CC
S1132E5068F587589F4FFC01B8C2613011F45C9A41
S1132E6008955C980895613011F45D9A08955D9811
S1132E700895613011F45E9A08955E980895613062
S1132E8011F45F9A08955F980895613011F4289AB7
S1132E90089528980895613011F4299A089529987D
S1132EA00895613011F42A9A08952A980895CF93C9
S1132EB0DF93C0919901D0919A0161E0CE01C5DF01
S1132EC02FE784E89EE1215080409040E1F700C064
S1132ED0000060E0CE01B9DFDF91CF910895863123
S1132EE09105A1F034F48431910551F0459759F0DE
S1132EF019C08831910581F064F08B9781F012C07C
S1132F0086B18270089586B18470089586B1887000
S1132F10089586B18071089586B18072089583B151
S1132F208870089580E008952091A9013091AA0144
S1132F30232B51F020915F03309160038217930794
S1132F4019F48093E20E08952091A7013091A8010D
S1132F50232B51F020915D0330915E038217930778
S1132F6019F48093E20E08958FEF8093E20E089592
S1132F70E6E1F9E011821082138212821582148232
S1132F801186108613861286158614861786168671
S1132F90E2ECFEE08AEC9EE0119211921782168216
S1132FA017861686E817F907B9F7E0EDF7E028E386
S1132FB038E009C011921192E817F907D9F7FC011A
S1132FC02817390719F0CF014A96F4CFE4EAFEE056
S1132FD01092E80E1092E70E80918D0190918E016F
S1132FE097AB86AB80918B0190918C0191AF80AFB0
S1132FF08091890190918A0193AF82AF809187017A
S11330009091880195AF84AF1092E40E1092E30E74
S11330101092E60E1092E50E81E08093E90E69EBC2
S113302071E08AE399E04DD364EB71E08EE999E0B5
S113303048D3809159038093EB098093EC098093E2
S1133040ED0928EE33E0EEEEF9E0DF01A9011D926F
S113305041505040E1F798ECE6EDFDE0DF011D92B0
S11330609A95E9F780939E0E80939F0E1092A10E7D
S11330701092A00E1092A30E1092A20EE6E1F9E0B7
S1133080138A128A8AE090E0918B808B178A168AC1
S11330908EE190E0958B848B138E128E25E030E0C8
S11330A0318F208F178E168E958F848F13A212A2C4
S11330B084EB90E091A380A385E0EBE4F7E0A4EA3D
S11330C0BEE001900D928A95E1F78FE0E3EBFEE01C
S11330D0DF011D928A95E9F721E030E042E452E0F5
S11330E06FE070E084EA9EE00E94FB00811109C059
S11330F085E0EBE4F7E0A4EABEE001900D928A9546
S1133100E1F70C946B0408958091E20E90E0209115
S11331105F03309160038217930781F487EE93E095
S1133120EEEEF9E0DF019C011D9221503040E1F701
S113313010929E0E1092A10E1092A00E089547ECCC
S113314050E060E270E086ED9DE09ED210929F0E0A
S11331501092A30E1092A20E089585B5816085BDCC
S113316016BCEEE6F0E08081816080830895CF9301
S1133170DF938091A7019091A801892B41F180915F
S11331805D0390915E03D0DE8EEE96E0D5DD84EF94
S113319091E0E0DD68E172E086ED9DE099D2892B53
S11331A021F485DE88E893E1D5DD83EF96E0C4DD84
S11331B084EF91E0CFDD80E597E0BEDD84EF91E020
S11331C0C9DD8CE597E0B8DD84EF91E0C3DD809143
S11331D0A9019091AA01892B09F443C0C0919701D8
S11331E0D0919801DD2761E0CE012FDE84EF91E0DC
S11331F0B1DD60E0CE0129DE88EE93E0ABDD8091A5
S11332005F039091600390DE88E697E087DD63E0DA
S113321070E088E192E00E940F0985E797E07EDD87
S113322063E070E088E192E00E940F0983E897E090
S113323075DD63E070E088E192E00E940F0981E9A6
S113324097E06CDD63E070E088E192E00E940F0992
S11332508AEB97E063DD63E070E088E192E00E942E
S11332600F09DF91CF910895CF93DF938091A90146
S11332709091AA01892B39F060913D0380919701C7
S11332809091980173DD8091A7019091A801892BF9
S113329039F060913D038091990190919A0166DD26
S11332A0C0913D036C2F80919501909196015EDD54
S11332B06C2F809193019091940158DD6C2F809133
S11332C091019091920152DD6C2F80918F01909128
S11332D090014CDDD0913F036D2F80918D01909131
S11332E08E0144DD6D2F80918B0190918C013EDD28
S11332F06D2F8091890190918A0138DD6D2F809125
S113330087019091880132DD6C2F80918501909125
S113331086012CDD6C2F809183019091840126DD40
S11333206D2F809181019091820120DD6C2F80911D
S11333307F01909180011ADDB2DC84E690E00ADD21
S1133340A4DCDF91CF9108958FDF12DE06DF0FCF6B
S11333500895CF9380919E0E813071F4C091E20E56
S113336084E690E0F7DC0E94F80F6ED8CFD8CCDE6C
S1133370C093E20E10929E0E80919F0E813071F4E4
S1133380C091E20E80915D0390915E03CDDDD5DBAB
S1133390EFDBD5DE10929F0EC093E20ECF9108951D
S11333A042D978DAA1DA93CB0895CEDFC0E0D0E039
S11333B0CE010DD29DDC2196C83E83E0D807C1F72B
S11333C00E94A80DC6DFECDFFBCFEE0FFF1F002429
S11333D0001C0BBE0790F691E02D0994CF93DF9368
S11333E08230910510F482E090E0E091FA0EF091C1
S11333F0FB0E20E030E0C0E0D0E0309711F14081D6
S1133400518148175907C0F04817590761F4828160
S11334109381209719F09B838A832BC09093FB0E92
S11334208093FA0E26C02115310519F0421753076F
S113343018F49A01BE01DF01EF010280F381E02D4F
S1133440DCCF2115310509F1281B390B2430310556
S113345090F412968D919C9113976115710521F04A
S1133460FB019383828304C09093FB0E8093FA0E36
S1133470FD01329644C0FD01E20FF31F8193919345
S1133480225031092D933C933AC02091F80E30918B
S1133490F90E232B41F42091020130910301309362
S11334A0F90E2093F80E20910001309101012115AD
S11334B0310541F42DB73EB7409104015091050107
S11334C0241B350BE091F80EF091F90EE217F30787
S11334D0A0F42E1B3F0B2817390778F0AC014E5F80
S11334E05F4F2417350748F04E0F5F1F5093F90EB6
S11334F04093F80E8193919302C0E0E0F0E0CF0195
S1133500DF91CF9108950F931F93CF93DF9300978B
S113351009F48CC0FC013297138212820091FA0ED6
S11335201091FB0E0115110581F420813181820F68
S1133530931F2091F80E3091F90E2817390779F569
S1133540F093F90EE093F80E71C0D80140E050E01A
S1133550AE17BF0750F412962D913C911397AD010D
S11335602115310509F1D901F3CF9D01DA01338326
S1133570228360817181860F971F8217930769F4F4
S1133580EC0128813981260F371F2E5F3F4F31838D
S113359020838A819B8193838283452B29F4F09332
S11335A0FB0EE093FA0E42C01396FC93EE9312972F
S11335B0ED01499159919E01240F351FE217F3073C
S11335C071F480819181840F951F029611969C93CA
S11335D08E938281938113969C938E931297E0E04D
S11335E0F0E0D80112968D919C911397009719F0F1
S11335F0F8018C01F6CF8D919C9198012E5F3F4F7D
S1133600820F931F2091F80E3091F90E2817390775
S113361069F4309729F41092FB0E1092FA0E02C04E
S1133620138212821093F90E0093F80EDF91CF915A
S11336301F910F910895FC0188279927E8942191FF
S11336402032E9F3293010F02E30C8F32B3239F050
S11336502D3231F4689403C086D0820F911D2191DC
S113366020532A30C8F31EF4909581959F4F0895F6
S113367085FD9AC08062911197C081568A51E0F706
S113368008954EEC57E03EC0DC0101C06D934150FB
S11336905040E0F70895FB01DC010D900020E9F7AC
S11336A0119701900D920020E1F70895FC0181919A
S11336B0861721F08823D9F7992708953197CF01E8
S11336C00895FB01DC0101900D920020E1F70895BB
S11336D0FB0151915523A9F0BF01DC014D91451720
S11336E04111E1F759F4CD010190002049F04D91C9
S11336F040154111C9F3FB014111EFCF81E090E086
S113370001970895FA01A191B081009719F41097D7
S1133710E1F0CD01DC01CD010D90002011F4C001D8
S113372013C0FB012191222319F02015D9F7F3CFFF
S1133730FB012191201519F41E92119606C0222333
S1133740C1F70D900020A1F7D001FA01A193B08335
S11337500895BB274A3031F4992322F4BDE29095B1
S113376081959F4F09C07AE0979F902D879F802D68
S1133770910D11240895BB27FB015527AA27880F13
S1133780991FAA1FA41710F0A41B83955051B9F7D1
S1133790A05DAA3308F0A95DA193009779F7B11150
S11337A0B1931192CB0103C0992788270895DC01B6
S11337B0FC01672F71917723E1F7329704C07C9164
S11337C06D9370836291AE17BF07C8F30895F9999A
S11337D0FECF92BD81BDF89A992780B50895262F12
S11337E0F999FECF1FBA92BD81BD20BD0FB6F894E2
S11137F0FA9AF99A0FBE01960895F894FFCF45
S11337FE0000FC0E200052454C4159434F4E4E459D
S113380E4354494F4E533B0000000000000000009B
S113381E0000000041444D494E0055534552005599
S113382E5352005549004341004D49005249004945
S113383E4D005541005253004E5300484F535431DE
S113384E00504F52543100484F53543200504F528F
S113385E54320053534944005057440041504E00D3
S113386E5453005449005357004554004557002CF7
S113387E00020001000300180017001600150010C6
S113388E000F000E000D002900280000001400B4E3
S113389E000010010000000100010000006F6E6CBA
S11338AE696E650032303838006465766963657315
S11338BE2E6A746563682D696F742E636F6D00379D
S11338CE374C64376372376457005461726469739A
S11338DE00746573742070726F64756374203100A4
S11338EE4552524F52004661696C004641494C00A4
S11338FE41542B43495053454E443D0041542B43B0
S113390E495053454E440D004F4B0054494D45000C
S113391E54494D45204F4B0A0053455249414C5F83
S113392E4E554D4245520023002353455249414CB6
S113393E3B0053455249414C005245515545535451
S113394E5F53455249414C5F4E554D4245523B00E3
S113395E41542B434950444F4D41494E3D226A74C4
S113396E6563682D696F742E636F6D220D0A0041B5
S113397E542B43494653520D0A0041542B43574A84
S113398E41503D220041542B434950534855540D48
S113399E0041542B43474154543D310D0041542BA7
S11339AE434744434F4E543D312C224950222C223E
S11339BE0041542B435354543D2200222C22222CDA
S11339CE22220D0041542B43494943520D0A004112
S11339DE542B43495053544152543D302C2254439A
S11339EE50222C2200222C0041542B434950535474
S11339FE4152543D22544350222C2200484F5354DA
S1133A0E00504F52540041542B434950434C4F5392
S1133A1E453D300D0A007365636F6E646172790AF9
S1133A2E0064656661756C740A000402010100008D
S1133A3E001F001C001F001E001F001E001F001F81
S1133A4E001E001F001E001F0000000100000001E8
S1133A5E00400023535349443B0023235057443B17
S1133A6E00232341504E3B004950442C003C6874C3
S1133A7E6D6C3E3C686561643E3C6D657461206EA0
S1133A8E616D653D2276696577706F72742220636D
S1133A9E6F6E74656E743D2277696474683D6465F7
S1133AAE766963652D77696474682C20696E697410
S1133ABE69616C2D7363616C653D312E302C206D04
S1133ACE6178696D756D2D7363616C653D312E3052
S1133ADE223E3C2F686561643E3C626F64793E0011
S1133AEE3C7469746C653E48434D20436F6E736F2E
S1133AFE6C653C2F7469746C653E003C6469762079
S1133B0E7374796C653D22666F6E742D73697A6574
S1133B1E3A206D656469756D3B20746578742D610A
S1133B2E6C69676E3A2063656E7465723B223E3C27
S1133B3E7370616E3E003C666F726D206D657468C5
S1133B4E6F643D22504F5354223E003C703E3C73F2
S1133B5E74726F6E673E53455249414C3A20003C95
S1133B6E2F7374726F6E673E3C2F703E3C703E3CFA
S1133B7E7374726F6E673E535349443C2F73747261
S1133B8E6F6E673E3C62723E3C696E707574207453
S1133B9E7970653D227465787422206E616D653D81
S1133BAE2273736964222076616C75653D2200224E
S1133BBE3E3C2F703E003C703E3C7374726F6E67D9
S1133BCE3E50415353574F52443C2F7374726F6E91
S1133BDE673E3C62723E3C696E70757420747970F7
S1133BEE653D227465787422206E616D653D227088
S1133BFE617373776F7264222076616C75653D22F2
S1133C0E003C703E3C7374726F6E673E41504E3C86
S1133C1E2F7374726F6E673E3C62723E3C696E70B7
S1133C2E757420747970653D227465787422206EE3
S1133C3E616D653D2261706E222076616C75653D05
S1133C4E22003C62723E3C703E53415645443C2F2A
S1133C5E703E003C696E70757420747970653D22F7
S1133C6E7375626D6974223E003C2F666F726D3EF1
S1133C7E3C2F7370616E3E3C2F6469763E3C2F621E
S1133C8E6F64793E3C2F68746D6C3E0048545450FA
S1133C9E2F312E3020323030204F4B0D0A436F6EB1
S1133CAE74656E742D547970653A20746578742F2A
S1133CBE68746D6C3B20636861727365743D555412
S1133CCE462D380D0A507261676D613A206E6F2D64
S1133CDE63616368650D0A436F6E74656E742D4C73
S1133CEE656E6774683A20000D0A436F6E6E6563E5
S1133CFE74696F6E3A20636C6F73650D0A0D0A005A
S1133D0E474554202F20485454502F00504F53549D
S1133D1E202F20485454502F00737369640070612F
S1133D2E7373776F72640061706E0041542B434954
S1133D3E50434C4F53453D350D0A004E4F544946A2
S1133D4E49434154494F4E3B5357495443483B0012
S1133D5E53574954434852454C4159004346470032
S1133D6E5B434C4541525F454550524F4D5D0043B8
S1133D7E4C454152494E472E2E2E005B454E445D16
S1133D8E004E4F54494649434154494F4E3B5550BA
S1133D9E44415445443B0A00240055504441544583
S1133DAE00524551554553545F5550444154450AAC
S1133DBE00434845434B0A004C4956450041542B99
S1133DCE435245473F0D0A002B435245473A203094
S1133DDE2C31002B435245473A20302C35004154A8
S1133DEE0D0A0041542B434D47463D310D0A004107
S1133DFE542B434D47533D2200554E5245414400EA
S1133E0E4D54493A0041542B434D47523D310D0A0E
S1133E1E00494E464F00494E464F3A0A00494E4617
S1133E2E4F20534D530041542B434D4744413D22A3
S1133E3E44454C20414C4C220D0A006E756C6C00AE
S1133E4E41542B434C54533D310D0A0041542B43E2
S1133E5E4C49503D310D0A0041542B534C454550AD
S1133E6E3D320D0A0041542B4349504D55583D31B6
S1133E7E0D0A0041542B43574D4F44453D330D0A13
S1133E8E0041542B43575341503D2248434D2D4E30
S1133E9E4554574F524B222C2261646D696E313258
S1133EAE3334222C352C330D0A0041542B43495004
S1113EBE5345525645523D312C38300D0A0002
S9030000FC
