S01C0000686F6D655F636F6E74726F6C5F70726F6A6563742E73726563A9
S113000096C00000B3C00000B1C00000AFC0000043
S1130010ADC00000ABC00000A9C00000A7C0000034
S1130020A5C00000A3C00000A1C000009FC0000044
S11300309DC000009BC0000099C0000097C0000054
S113004095C0000093C00000C0C700008FC000002E
S113005079C700008BC0000089C0000087C0000081
S113006085C0000083C0000081C000007FC0000084
S113007026C700007BC0000079C0000077C00000E4
S113008075C0000073C0000071C00000BF0AC50A3B
S1130090CB0AD10AD70ADD0AE30AF115F715FD15D3
S11300A0501650165016501650165016501650161C
S11300B05016031609160F1615165016501650161C
S11300C050161B16211627162D16501650165016AC
S11300D050165016501650165016501650165016EC
S11300E05016501650165016331639163F1645162C
S11300F04B1659165F1665166B16821682168216F3
S1130100821682168216821682168216821682162B
S1130110821682168216821682168216821682161B
S11301208216821682168216711677167D1611248F
S11301301FBECFEFD0E4DEBFCDBF17E0A0E0B1E03B
S1130140E2E6F5E300E00BBF02C007900D92A63A89
S1130150B107D9F72CE0A6EAB7E001C01D92A03D93
S1130160B207E1F70E9487180C94AF1A49CF0F9396
S11301701F93CF93DF93EB01FC016081662379F039
S11301808C010F5F1F4FF999FECF2196CE01019785
S11301900E94A11AF80161918F016111F4CFCE017F
S11301A0DF91CF911F910F910895EF92FF920F93DA
S11301B01F93CF93DF93EC017B0186179707A4F479
S11301C0F999FECF0C2F1D2FCE010E94991A8F3F53
S11301D059F0F999FECF6FEF802F912F0E94A11A49
S11301E02196CE15DF0564F3DF91CF911F910F9116
S11301F0FF90EF9008952F923F924F925F926F92EB
S11302007F928F929F92AF92BF92CF92DF92EF92A2
S1130210FF920F931F93CF93DF93CDB7DEB7CC5CE0
S1130220D1090FB6F894DEBF0FBECDBFDC0121307B
S1130230310521F41092C80C1092C70C9A012F5F5B
S11302403F4FFA018081882351F0F901812C912CD0
S11302502FEF821A920A91919111FACF02C0812C48
S1130260912CE090C70CF090C80C8091A301909160
S1130270A401E816F9060CF090C02A01C553DF4F1B
S113028079836883CB5CD040C753DF4FB983A8839D
S1130290C95CD040A12CB12C00E010E0CE01019645
S11302A06C010F2EF7EC2F2EF02D312C6090A30152
S11302B07090A401F999FECFC7010E94991A833264
S11302C031F491E0AB2809F090E0A92EB12C91E033
S11302D0A916B10459F4073C110509F460C0F601EC
S11302E0E00FF11F80830F5F1F4F4EC010161106E1
S11302F00CF04AC0F601E00FF11F1082B201C601F2
S11303000E941A1A0097C9F1EFEF8E1A9E0AFC0197
S1130310E80DF91D20812223E1F0C553DF4F488108
S11303205981CB5CD04041505109D9F1C753DF4FBB
S1130330A881B981C95CD040319680E090E003C0C7
S11303408417950781F101962D9321912111F8CFFE
S113035002C080E090E0C753DF4FE881F981C95CB7
S1130360D040E80FF91F1082FFEFEF1AFF0AF09256
S1130370C80CE092C70C81E017C0F601222D11923F
S11303802A95E9F7032D10E08FEFE81AF80AE6142E
S1130390F7040CF48FCF80E007C080E005C080E054
S11303A003C080E001C080E0C453DF4F0FB6F8946F
S11303B0DEBF0FBECDBFDF91CF911F910F91FF9094
S11303C0EF90DF90CF90BF90AF909F908F907F90F1
S11303D06F905F904F903F902F9008954F925F924F
S11303E06F927F928F929F92AF92BF92CF92DF9241
S11303F0EF92FF920F931F93CF93DF93CDB7DEB7A6
S1130400CE5CD1090FB6F894DEBF0FBECDBF5C0140
S11304104B011092C80C1092C70C0AEA18E00F2E78
S1130420F8EC6F2E712CF02D0F2EF2EB4F2EF8E01E
S11304305F2EF02DBFC0AE0143535F4F60EC73E0FD
S1130440CE0101960E94341A009709F4A5C0AE01AA
S113045045535F4F66E371E00E94341A7C016BE3FD
S113046071E00E941A1A892B79F0AE0145535F4F4F
S113047066E371E080E090E00E94341A0E94CD1996
S1130480F801918380837CC06EE371E0C7010E9410
S11304901A1A892B79F0AE0145535F4F66E371E078
S11304A080E090E00E94341A0E94CD19F8019383F1
S11304B0828366C064E470E0C7010E94081A892B35
S11304C079F0AE0145535F4F66E371E080E090E060
S11304D00E94341A0E94CD19F8019583848350C078
S11304E061E471E0C7010E941A1A892B79F0AE0108
S11304F045535F4F66E371E080E090E00E94341A58
S11305000E94CD19F801978386833AC064E471E0B0
S1130510C7010E941A1A892B99F1AE0145535F4F06
S113052066E371E080E090E00E94341AAE01475324
S11305305F4F6EE473E00E94341A0097C1F06201C9
S1130540E12CF12CFFEFEF1AFF0A0E94CD19F601FE
S1130550819391936F01AE0147535F4F6EE473E053
S113056080E090E00E94341A009761F702C0E12C09
S1130570F12CF701EE0FFF1FEE54F74F71826082EA
S1130580AE0143535F4F60EC73E080E090E00E9463
S1130590341A009709F05BCFF801808191818A15A4
S11305A09B0541F4828193818815990519F481E0B2
S11305B090E00DC020E030E047E451E067EC70E0EB
S11305C0CE01019618DE811136CF80E090E0C2534F
S11305D0DF4F0FB6F894DEBF0FBECDBFDF91CF91D2
S11305E01F910F91FF90EF90DF90CF90BF90AF904D
S11305F09F908F907F906F905F904F900895AF92EF
S1130600BF92CF92DF92FF920F931F93CF93DF930A
S1130610CDB7DEB7C656D1090FB6F894DEBF0FBE0C
S1130620CDBF6C015B011092C80C1092C70C20E086
S113063030E04AE451E064E670E0CE010196DBDD8F
S1130640882309F451C0AE014B595F4F60EC73E04D
S1130650CE0101960E94341A8C01892BE9F1F12C08
S11306606DE471E0C8010E941A1A892B89F066E3CF
S113067071E0C8010E94F31966E371E080E090E044
S11306800E94F319BC01C6010E94131AF39417C007
S113069063E571E0C8010E941A1A892B81F066E3B0
S11306A071E0C8010E94F31966E371E080E090E014
S11306B00E94F319BC01C5010E94131AF394AE0100
S11306C04B595F4F60EC73E080E090E00E94341A75
S11306D08C01892B29F601C0F12C81E090E022E005
S11306E0F21621F080E002C080E090E0CA59DF4FAA
S11306F00FB6F894DEBF0FBECDBFDF91CF911F912F
S11307000F91FF90DF90CF90BF90AF900895AF927C
S1130710BF92CF92DF92FF920F931F93CF93DF93F9
S1130720CDB7DEB7C656D1090FB6F894DEBF0FBEFB
S1130730CDBF6C015B011092C80C1092C70C20E075
S113074030E04AE451E064E670E0CE01019653DD06
S1130750882309F451C0AE014B595F4F60EC73E03C
S1130760CE0101960E94341A8C01892BE9F1F12CF7
S113077069E571E0C8010E941A1A892B89F066E3C1
S113078071E0C8010E94F31966E371E080E090E033
S11307900E94F319BC01C6010E94131AF39417C0F6
S11307A06FE571E0C8010E941A1A892B81F066E393
S11307B071E0C8010E94F31966E371E080E090E003
S11307C00E94F319BC01C5010E94131AF394AE01EF
S11307D04B595F4F60EC73E080E090E00E94341A64
S11307E08C01892B29F601C0F12C81E090E022E0F4
S11307F0F21621F080E002C080E090E0CA59DF4F99
S11308000FB6F894DEBF0FBECDBFDF91CF911F911D
S11308100F91FF90DF90CF90BF90AF900895CF934A
S1130820DF93EB0169EB71E00E94131A64EB71E052
S1130830CE010E94131A81E090E0DF91CF910895D8
S1130840CF93DF93CDB7DEB7C456D1090FB6F89472
S1130850DEBF0FBECDBF1092C80C1092C70C20E0B3
S113086030E045E651E064E670E0CE010196C3DC79
S1130870882389F0DE011196FD0101900020E9F73B
S11308803197EA1BFB0B7F9760F4BD018BE799E07E
S11308900E94131A06C061ED71E08BE799E00E9493
S11308A0131A1092C80C1092C70C20E030E04AE6EC
S11308B051E064E670E0CE0101969DDC882389F066
S11308C0DE011196FD0101900020E9F73197EA1B42
S11308D0FB0B7F9760F4BD0189E999E00E94131A2C
S11308E006C066EC71E089E999E00E94131A10923F
S11308F0C80C1092C70C20E030E04EE651E064E6EC
S113090070E0CE01019677DC882389F0DE01119630
S1130910FD0101900020E9F73197EA1BFB0B3B979F
S113092060F4BD0187EB99E00E94131A06C06DEADA
S113093071E087EB99E00E94131ACC59DF4F0FB690
S1130940F894DEBF0FBECDBFDF91CF9108955F92C3
S11309506F927F928F929F92AF92BF92CF92DF92CB
S1130960EF92FF920F931F93CF93DF93CDB7DEB730
S1130970CC5CD1090FB6F894DEBF0FBECDBF42E107
S113098058E062E878E02EEF30E00AC0219331931A
S1130990E817F907D9F7445E5F4F4617570721F068
S11309A0CA014A96FA01F2CF1092C80C1092C70CF1
S11309B06894AA24A2F8B12C812C912CC12CD12C9E
S11309C00F2EFCE16F2EF02D55245394712C78C01A
S11309D0AE0145535F4F60EC73E0CE0101960E9477
S11309E0341A009709F46CC0E12CF12CAE01475382
S11309F05F4F66E371E00E94341A8C016BE371E08F
S1130A000E941A1A892B81F0AE0147535F4F66E3A7
S1130A1071E080E090E00E94341A0E94CD196C01CC
S1130A202FEFE21AF20A17C06EE371E0C8010E94C8
S1130A301A1A892B81F0AE0147535F4F66E371E0C8
S1130A4080E090E00E94341A0E94CD19882E992EDD
S1130A508FEFE81AF80AAE0145535F4F60EC73E07C
S1130A6080E090E00E94341A009709F0BFCF882DEF
S1130A70992DA60122E0E216F10411F52DC0219171
S1130A8031912817390709F4A72DE617F707B9F7A5
S1130A90A130B1F4440F551FFA01EE0FFF1FEE0F02
S1130AA0FF1FEE0FFF1FE41BF50BEA0DFB1DEE0FFE
S1130AB0FF1FEE5EF74F91838083C50101965C01B1
S1130AC020E030E042E751E068EC70E0CE010196AE
S1130AD092DB81117DCF0CC06C9CB0016D9C700DBC
S1130AE01124FB01EE5EF74F645D774FA52DC7CF50
S1130AF0C453DF4F0FB6F894DEBF0FBECDBFDF91F6
S1130B00CF911F910F91FF90EF90DF90CF90BF9006
S1130B10AF909F908F907F906F905F9008952F92E9
S1130B203F924F925F926F927F928F929F92AF9279
S1130B30BF92CF92DF92EF92FF920F931F93CF93C6
S1130B40DF93CDB7DEB7CC56D1090FB6F894DEBF2C
S1130B500FBECDBF5C014B010F2EF8E86F2EF8E0FD
S1130B607F2EF02D0EEF10E00F2EFAE94F2EF8E055
S1130B705F2EF02DAC964FAEAC97AD965FAEAD97B1
S1130B80362C272C12C1AE0147595F4F60EC73E03D
S1130B90CE0101960E94341A28EA38E0F301019349
S1130BA01193E217F307D9F72AEB38E0F201019326
S1130BB01193E217F307D9F7009709F4E5C00F2E54
S1130BC0F0E8CF2EF8E0DF2EF02DAE0149595F4F4B
S1130BD066E371E00E94341A7C016BE371E00E94C9
S1130BE01A1A892B79F0AE0149595F4F66E371E017
S1130BF080E090E00E94341A0E94CD19F60191839E
S1130C008083B6C06EE371E0C7010E941A1A892B73
S1130C1079F0AE0149595F4F66E371E080E090E0FE
S1130C200E94341A0E94CD19F60193838283A0C0D6
S1130C3065E771E0C7010E941A1A892B79F0AE01A9
S1130C4049595F4F66E371E080E090E00E94341AF6
S1130C500E94CD19F601958384838AC066E673E009
S1130C60C7010E941A1A892B79F0AE0149595F4FC6
S1130C7066E371E080E090E00E94341A0E94CD198E
S1130C80F6019783868374C068E771E0C7010E9408
S1130C901A1A892B39F1AE0149595F4F66E371E0A5
S1130CA080E090E00E94341AAE014B595F4F6EE42D
S1130CB073E00E94341A009709F45AC0E32CF22C12
S1130CC00E94CD19F701819391937F01AE014B5995
S1130CD05F4F6EE473E080E090E00E94341A009766
S1130CE079F746C06BE771E0C7010E941A1A892B95
S1130CF079F0AE0149595F4F66E371E080E090E01E
S1130D000E94341A0E94CD19F601918F808F30C051
S1130D106EE771E0C7010E941A1A892B49F1AE01EE
S1130D2049595F4F66E371E080E090E00E94341A15
S1130D30AE014B595F4F6EE473E00E94341A009782
S1130D40B9F0AC96EFACAC97AD96FFACAD970E9402
S1130D50CD19F701819391937F01AE014B595F4FF8
S1130D606EE473E080E090E00E94341A009779F713
S1130D70AE0147595F4F60EC73E080E090E00E9461
S1130D80341A009709F021CF80918008909181084E
S1130D908A159B0551F480918208909183088815E7
S1130DA0990519F481E090E00DC020E030E042E7BD
S1130DB051E064E670E0CE0101961DDA8111E3CEC4
S1130DC080E090E0C459DF4F0FB6F894DEBF0FBE49
S1130DD0CDBFDF91CF911F910F91FF90EF90DF90E6
S1130DE0CF90BF90AF909F908F907F906F905F90C7
S1130DF04F903F902F900895EF92FF920F931F937F
S1130E00CF93DF93EEEEF8E0808591852CE3289F65
S1130E10B001299F700D112482859385680F791F75
S1130E204681578120EA35E0429FC001439F900DDF
S1130E30529F900D1124680F791FE0E8F8E00681B5
S1130E401781E08CF18CE8E8F8E0A6E9B8E0C0EAA4
S1130E50D5E0819191918E3F910519F14089518995
S1130E604E3F5105F1F08C9F90018D9F300D9C9F5A
S1130E70300D1124C901800F911F681779078CF078
S1130E804C9FC0014D9F900D5C9F900D11248E0DC1
S1130E909F1D681779072CF48091B3039091B403D4
S1130EA007C0EA17FB07A9F68091B1039091B2033A
S1130EB0DF91CF911F910F91FF90EF9008951F92B2
S1130EC00F920FB60F9211240BB60F922F933F93EC
S1130ED04F938F939F93EF93FF934091CE00809114
S1130EE0840C9091850C853C910520F01092850C22
S1130EF01092840CE4E8FCE0808191819C012F5FD6
S1130F003F4F31832083FC01E854F44F40834D303C
S1130F1021F04A3011F0411107C081E08093810C27
S1130F20F901EC53F64F1082FF91EF919F918F914D
S1130F304F913F912F910F900BBE0F900FBE0F90CA
S1130F401F9018951F920F920FB60F9211240BB693
S1130F500F922F933F934F938F939F93EF93FF930E
S1130F604091C6008091820C9091830C813F914006
S1130F7020F01092830C1092820CE2E8FCE0808155
S1130F8091819C012F5F3F4F31832083FC01EC53FF
S1130F90F64F40834D3021F04A3011F0411107C023
S1130FA081E08093800CF901EC53F64F1082FF919D
S1130FB0EF919F918F914F913F912F910F900BBE85
S1130FC00F900FBE0F901F9018951F920F920FB69F
S1130FD00F9211240BB60F922F933F934F935F936D
S1130FE08F939F93AF93BF93EF93FF938091C50C1F
S1130FF09091C60C01968732910529F09093C60C06
S11310008093C50CB0C01092C60C1092C50CEEEEC5
S1131010F8E086859785019697878687883E934072
S113102009F04BC08485958501969587848717863A
S113103016868289938920893189281739072CF0EB
S113104001969093010980930009EEEEF8E08689F9
S1131050978924893589281739072CF001969093AC
S1131060050980930409EEEEF8E0828D938D208DBE
S1131070318D281739072CF0019690930909809334
S11310800809EEEEF8E0868D978D248D358D2817AE
S113109039072CF0019690930D0980930C09EEEE1C
S11310A0F8E082A193A120A131A1281739072CF0DF
S11310B0019690931109809310098091FA089091F8
S11310C0FB08CC9749F4EEEEF8E08285938501960F
S11310D093878287158614868091F8089091F90881
S11310E0CC9749F4EEEEF8E08085918501969187DE
S11310F08087138612868091F6089091F7084897A6
S113110049F4EEEEF8E08481958101969583848319
S113111011861086AEEEB8E012968D919C911397CD
S1131120FC01EE0FFF1FE756FC4F14964D915C91A6
S11311301597208131814217530731F4FD0101963F
S113114093838283158214828091F0089091F10830
S11311500C9749F4EEEEF8E0808191810196918339
S1131160808313821282FF91EF91BF91AF919F917F
S11311708F915F914F913F912F910F900BBE0F90E4
S11311800FBE0F901F9018956F927F928F929F922F
S1131190AF92BF92CF92DF92EF92FF920F931F9381
S11311A0CF93DF934C01EB010E94941788EE93E0F8
S11311B0C89F8001C99F100DD89F100D11241123C1
S11311C00CF455C0C0E0D0E00F2EF6E8CF2EFCE0C2
S11311D0DF2EF02DE090B703F090B803A090B50394
S11311E0B090B603F60166AC712C6E147F04B9F4AA
S11311F0B40184EC99E00E941A1A892BD9F567EEA0
S113120071E084EC99E00E941A1A892BB1F56DEE15
S113121071E084EC99E00E941A1A892B89F56A140A
S11312207B04B9F4B40188EB9BE00E941A1A892B61
S113123051F567EE71E088EB9BE00E941A1A892B46
S113124029F56DEE71E088EB9BE00E941A1A892B58
S113125001F5219683EC99E00197F1F700C00000B5
S11312600C171D070CF0BECF80E090E014C080E0A6
S113127090E011C081E090E00EC080E090E00BC0EF
S113128080E090E008C081E090E005C080E090E05C
S113129002C080E090E0DF91CF911F910F91FF9009
S11312A0EF90DF90CF90BF90AF909F908F907F9002
S11312B06F900895CF92DF92EF92FF920F931F9356
S11312C0CF93DF9300D000D01F92CDB7DEB77C015F
S11312D06B018091C40C90E02091B7033091B80366
S11312E08217930749F5F7013196D7018C9188232A
S11312F041F000E010E00F5F1F4F81918111FBCF9F
S113130002C000E010E082EF91E00E94C015C60127
S11313100E94C0158EE493E00E94C0154AE0BE010D
S11313206F5F7F4FC8010E945B1A0E94C0158BEA51
S113133096E00E94C01504C08EEF91E00E94C01593
S113134062E070E081EC94E01FDF892B41F480912E
S1131350B1038093C3098093C1098093C20980912A
S1131360C40C90E02091B7033091B803821793071F
S113137021F4C7010E94C01509C0C7010E94AA1523
S11313808AE10E94A2158DE00E94A2150F900F9091
S11313900F900F900F90DF91CF911F910F91FF90BD
S11313A0EF90DF90CF900895AF92BF92CF92DF92EB
S11313B0EF92FF920F931F93CF93DF9300D000D04F
S11313C01F92CDB7DEB77C019091C309992309F42C
S11313D042C06B01F7013196D7018C91882371F1DA
S11313E000E010E00F5F1F4F81918111FBCFC80116
S11313F001960E94A018A82EB92EE82FF92F83E297
S11314008193112354F0D70120E030E08D91819332
S11314102F5F3F4F02171307CCF74AE0BE016F5FFF
S11314207F4FC6010E945B1ABC018A2D9B2D42DFAF
S113143063E070E08AE092E0A7DE0DC081E090E016
S11314400E94A018A82EB92EE82FF92F83E28193C9
S113145000E010E0D8CF0F900F900F900F900F90F6
S1131460DF91CF911F910F91FF90EF90DF90CF907C
S1131470BF90AF900895CF92DF92EF92FF920F93B7
S11314801F93CF93DF9300D000D01F92CDB7DEB768
S11314907C016B01FC013196DC018C91882341F0C5
S11314A000E010E00F5F1F4F81918111FBCF02C05C
S11314B000E010E082EF91E00E94C015C6010E9496
S11314C0C0158EE493E00E94C0154AE0BE016F5F30
S11314D07F4FC8010E945B1A0E94C0158BEA96E0F8
S11314E00E94C01562E070E081EC94E04DDE892B2F
S11314F041F48091B1038093C3098093C10980931F
S1131500C209C7010E94C01563E070E08AE092E05E
S11315103BDE0F900F900F900F900F90DF91CF91C3
S11315201F910F91FF90EF90DF90CF900895EF926D
S1131530FF920F931F93CF93DF936FE070E08DE0E2
S113154092E022DE892B09F463C084E690E00E94D5
S1131550DC156DE072E084EC99E00E941A1A60ECEC
S113156073E00E94F319892BA1F547C0FE0131975E
S1131570E730F105B0F5EA5BFF4F0C9497180E9431
S1131580CD19F701918380832CC00E94CD19F701F6
S11315909383828326C00E94CD19F70195838483A7
S11315A020C00E94CD19F701918780871AC00E943C
S11315B0CD19F7019387828714C00E94CD19F701D2
S11315C0958784870EC00E94CD19F701978386837F
S11315D008C000E010E00F2EFEEEEF2EF8E0FF2E24
S11315E0F02DE80121968E0160EC73E080E090E03C
S11315F00E94F319009709F0B9CF6091AB01709183
S1131600AC0182E192E0D0DE0E94941781E001C037
S113161080E0DF91CF911F910F91FF90EF9008959B
S11316200F931F93CF93DF93CDB7DEB7E2970FB637
S1131630F894DEBF0FBECDBF6BE172E084EC99E09D
S11316400E941A1A892BA9F169E272E084EC99E0EC
S11316500E94F31969E272E080E090E00E94F319BD
S1131660BC0186E89CE00E94131A89E0EBE2F2E0F8
S11316708E010F5F1F4FD80101900D928A95E1F7FB
S113168066E87CE0C8010E94FD19F8010190002081
S1131690E9F7319783E290E09183808360919D0123
S11316A070919E01C8010E94B7000E94941781E0C6
S11316B001C080E0E2960FB6F894DEBF0FBECDBF46
S11316C0DF91CF911F910F9108950F931F93CF93A3
S11316D0DF93CDB7DEB7C456D1090FB6F894DEBF99
S11316E00FBECDBF21E030E044E352E06FE070E094
S11316F086E89CE00E94FB00811132C00E9494178E
S113170087E1EBE3F2E08E010F5F1F4FD8010190F8
S11317100D928A95E1F768ED71E0C8010E94FD1908
S1131720F80101900020E9F731978AE090E0918375
S1131730808388EE93E00E94DC156091AB01709188
S1131740AC01C80131DE6FE070E08BE192E01CDD9A
S113175084E690E00E94DC1563DF811122C026C07C
S11317608FE0E3E4F2E08E010F5F1F4FD801019098
S11317700D928A95E1F766E87CE0C8010E94FD19A4
S1131780F80101900020E9F731978BE39AE0A0E09B
S113179080839183A2836091AB017091AC01C801F5
S11317A003DE84E690E00E94DC1581E0CC59DF4F33
S11317B00FB6F894DEBF0FBECDBFDF91CF911F915E
S11317C00F9108950F931F93CF93DF938C01EB0137
S11317D082E592E00E94C01563E070E08AE092E046
S11317E0D3DC8FE592E00E94C01563E070E08AE0EC
S11317F092E0CADC8DE692E00E94C01563E070E0DE
S11318008AE092E0C1DC8BE792E00E94C01563E0BD
S113181070E08AE092E0B8DC84EA92E00E94C015AD
S113182063E070E08AE092E0AFDC88EB92E00E9433
S1131830C01563E070E08AE092E0A6DC87ED92E0F8
S11318400E94C01563E070E08AE092E09DDC82EEC5
S113185092E00E94C015C8010E94C01589E493E07B
S11318600E94C015CE010E94C01583ED92E00E9433
S1131870C0156AE070E08AE092E086DC892B19F0FA
S11318808091B30302C08091B103DF91CF911F9186
S11318900F910895CF93C091B303C093C30947DE5A
S11318A0811105C08091B1038093C3090DC00DDF80
S11318B0811105C08091B1038093C30905C0C09311
S11318C0C3090E94941701C080E0CF9108950F933B
S11318D01F93CF93DF938C01EB010E949417209107
S11318E0C40C30E08091B7039091B80328173907EE
S11318F091F487E393E00E94C015C8010E94C015CB
S11319008DE493E00E94C015CE010E94C0158BEABD
S113191096E00E94C0152091C40C30E08091B5037C
S11319209091B6032817390791F480E593E00E945B
S1131930C015C8010E94C01589E493E00E94C01537
S1131940CE010E94C01589E293E00E94C0156AE0AE
S113195070E08AE092E018DC21E0019709F020E0D1
S1131960822FDF91CF911F910F910895EF92FF92F3
S11319700F931F93CF93DF93CDB7DEB768970FB65E
S1131980F894DEBF0FBECDBF66E779E082E199E04F
S11319900E940F0466E779E082E199E098DF182F4E
S11319A0813009F08BC068ED71E0CE0101967C01B5
S11319B00E94131AF70101900020E9F731978AE099
S11319C090E0918380838091B3038093C30984EF73
S11319D091E00E94DC156091AB017091AC01C701EC
S11319E0E3DC6AE070E084E693E0CEDB019709F083
S11319F063C084E690E00E94DC1564E673E084EC46
S1131A0099E00E941A1A64E673E00E941A1AAE0161
S1131A10495E5F4F60EC73E00E94341A009709F44A
S1131A204BC000E0AE014B5E5F4F6CEF71E00E9473
S1131A30341A7C0164E673E00E941A1A892B81F03F
S1131A40AE014B5E5F4F6CEF71E080E090E00E946E
S1131A50341A7C01BC0182E199E00E94131A0F5FE1
S1131A6069E673E0C7010E941A1A892B79F0AE0166
S1131A704B5E5F4F6CEF71E080E090E00E94341A9F
S1131A80BC0186E799E00E94131A0F5FAE01495E1C
S1131A905F4F60EC73E080E090E00E94341A00979E
S1131AA009F6023049F48EE693E00E94C01584EFF3
S1131AB091E00E94DC1503C010E001C010E0812F0A
S1131AC068960FB6F894DEBF0FBECDBFDF91CF91FD
S1131AD01F910F91FF90EF9008951F93CF93DF9381
S1131AE0EEEEF8E022893389808991892817390735
S1131AF00CF497C08091C30990E02091B303309116
S1131B00B4038217930709F488C0C091B103D0913C
S1131B10B2038091B7039091B8030E94A41669E9B7
S1131B2079E08BE799E04EDE8093C10981110FC003
S1131B308091B5039091B6030E94A4168091C109C7
S1131B40811105C08091C209882309F453C01C2F58
S1131B5066E779E082E199E00E94FF02892B49F06F
S1131B6066E779E082E199E0B2DE882321F092DE33
S1131B7003C08C2F01C08C2F282F30E0C217D3074D
S1131B8069F566E779E082E199E00E948703892B91
S1131B90A9F08EE793E0F4D784EF91E00E94DC157E
S1131BA066E779E082E199E092DE882311F072DE43
S1131BB0182F812F90E0C817D90781F4D7DE882326
S1131BC069F089E893E0DCD784EF91E0F5D766E724
S1131BD079E082E199E07BDE81115CDE8091C209CB
S1131BE0811104C08091C109882321F08091C30927
S1131BF081110DC08091FE089091FF08893522E083
S1131C0092072CF444969093FF088093FE08EEEE1E
S1131C10F8E0178A168A138E128E10920109109218
S1131C200009DF91CF911F910895EF92FF920F93D6
S1131C301F93CF93DF93CDB7DEB7C05AD1090FB648
S1131C40F894DEBF0FBECDBFE0909F01F090A001DD
S1131C506091A1017091A201C7010E94D50087E0A3
S1131C60EBEBF3E08E010F5F1F4FD80101900D9253
S1131C708A95E1F76BE779E0C8010E94FD19D80164
S1131C800D900020E9F7119787E0E2ECF3E0019072
S1131C900D928A95E1F769E979E0C8010E94FD197E
S1131CA0D8010D900020E9F7119787E0E9ECF3E003
S1131CB001900D928A95E1F767EB79E0C8010E94E3
S1131CC0FD19F80101900020E9F7319783E290E0D3
S1131CD091838083C80154D784EF91E06DD7F0924B
S1131CE0C80CE092C70CB701C8010E94B700C056E7
S1131CF0DF4F0FB6F894DEBF0FBECDBFDF91CF919B
S1131D001F910F91FF90EF9008958F929F92AF9241
S1131D10BF92CF92DF92EF92FF920F931F93CF93D4
S1131D20DF93CDB7DEB7C154D7400FB6F894DEBF0A
S1131D300FBECDBF60ED73E084EC99E00E941A1AE7
S1131D40892B09F424C16CED73E084EC99E00E94C2
S1131D501A1A0197FC018081C05CD84F8883C05453
S1131D60D740CF5BD84F1882C154D74084EF91E05D
S1131D7023D77E01F7E1EF1AFCEFFF0A83E7E5EED4
S1131D80F3E0D70101900D928A95E1F7D7010D9008
S1131D900020E9F711978BE1E8E5F4E001900D925A
S1131DA08A95E1F7D7010D900020E9F711978BE3AD
S1131DB0E3E7F4E001900D928A95E1F7D7010D90E5
S1131DC00020E9F7119785E1EEEAF4E001900D9225
S1131DD08A95E1F7D7010D900020E9F7119784E186
S1131DE0E3ECF4E001900D928A95E1F766E87CE07B
S1131DF0C7010E94FD19D7010D900020E9F7119742
S1131E0080E5E7EDF4E001900D928A95E1F76BE748
S1131E1079E0C7010E94FD19D7010D900020E9F770
S1131E20119787E0E7E2F5E001900D928A95E1F7DA
S1131E30D7010D900020E9F711978FE4EEE2F5E069
S1131E4001900D928A95E1F769E979E0C7010E9452
S1131E50FD19D7010D900020E9F7119787E0E7E21B
S1131E60F5E001900D928A95E1F7D7010D900020DD
S1131E70E9F7119781E4EDE7F5E001900D928A9579
S1131E80E1F767EB79E0C7010E94FD19D7010D90D6
S1131E900020E9F7119787E0E7E2F5E001900D9261
S1131EA08A95E1F7D7010D900020E9F7119783E4B3
S1131EB0EEEBF5E001900D928A95E1F762E179E0AD
S1131EC0C7010E94FD19D7010D900020E9F7119771
S1131ED087E0E7E2F5E001900D928A95E1F7D701FA
S1131EE00D900020E9F711978AE2E1E0F6E0019015
S1131EF00D928A95E1F7D7010D900020E9F711972B
S1131F008FE0EBE2F6E001900D928A95E1F7F7019C
S1131F1001900020E9F7CF0101972CE5EAE3F6E010
S1131F208E010F5F1F4FD80101900D922A95E1F7A2
S1131F304AE0BE01655C784F8E199F090E945B1AC6
S1131F40BC01C8010E94FD19D8010D900020E9F7D9
S1131F50119788E1E6E9F6E001900D928A95E1F7A0
S1131F60B701C8010E94FD19BE01605C784FC80129
S1131F7082DA63E070E08AE092E006D9D5D7EEEE2B
S1131F80F8E0138A128A84EB90E0918B808B6EEADE
S1131F9076E084EC99E00E941A1A892B09F43AC17C
S1131FA063EB76E084EC99E00E941A1A892B09F419
S1131FB031C182E390E000D66CEB76E084EC99E0EA
S1131FC00E941A1A7C01892B81F14DE150E060E2F4
S1131FD070E08BE799E00E94F619F701858186325B
S1131FE0A1F08D30A9F08A3009F00BC114C0919191
S1131FF0963299F09D3089F09A3079F02F5F3F4FF7
S11320009D932E31310599F708C020E030E005C0DA
S113201020E030E002C020E030E0F901E558F64F5E
S11320201082AA24A394B12C02C0A12CB12C63EB7E
S113203076E084EC99E00E941A1A7C01892B79F1EC
S11320404DE150E060E270E089E999E00E94F61900
S1132050F70181858632A1F08D30A9F08A3009F02C
S1132060C7C014C09191963299F09D3089F09A308E
S113207079F02F5F3F4F9D932E31310599F708C0BA
S113208020E030E005C020E030E002C020E030E095
S1132090F901E756F64F1082FFEFAF1ABF0A61EC61
S11320A076E084EC99E00E941A1A7C01892B79F17C
S11320B049E050E060E270E087EB99E00E94F61995
S11320C0F70184818632A1F08D30A9F08A3009F0BD
S11320D086C014C09191963299F09D3089F09A305F
S11320E079F02F5F3F4F9D932A30310599F708C04F
S11320F020E030E005C020E030E002C020E030E025
S1132100F901E954F64F1082FFEFAF1ABF0A6EEAE5
S113211076E084EC99E00E941A1A6C01892B09F488
S113212045C043E650E060E270E082E199E00E943D
S1132130F619F60115811D3069F11A3071F1F6E0D6
S1132140CF0ED11C0F2EF2E18F2EF9E09F2EF02D31
S1132150E12CF12C07C0F60111916F011D30F9F04B
S11321601A30E9F0812F90E00E94EC19892B39F4A0
S1132170812F90E0C0970A9710F01E3281F4FFEF90
S1132180EF1AFF0AF40111934F01F4E6EF16F1047C
S113219011F705C0E12CF12C02C0E12CF12CF70160
S11321A0EE5EF64F10828FEFA81AB80AE4E0AE167E
S11321B0B10499F43ADDEEEEF8E0138A128A118A3A
S11321C0108A1092C3091092C10985EC96E0D8D404
S11321D08091B7039091B803B7D5A6D61BC080935E
S11321E0B709F7013596A8EBB9E021E030E072CFEA
S11321F080939909F7013A96AAE9B9E021E030E021
S113220031CF80937B09F7013696ACE7B9E021E042
S113221030E0EDCECF5BD84F0FB6F894DEBF0FBEE3
S1132220CDBFDF91CF911F910F91FF90EF90DF9081
S1132230CF90BF90AF909F908F9008953F924F9210
S11322405F926F927F928F929F92AF92BF92CF9242
S1132250DF92EF92FF920F931F93CF93DF93CDB74B
S1132260DEB7AD970FB6F894DEBF0FBECDBF762EA6
S1132270542EA62EB12CE82EF12CB501C7010E94D4
S1132280EE01019739F4EAEAF8E0C680D780848049
S1132290958004C0812C912CC12CD12C0AE010E033
S11322A06090920360E070E0C701F8D3862D31D4CA
S11322B0872D2FD4482E21E0C216D10421F481E0C9
S11322C028D4382E03C0852D24D4382E61E070E044
S11322D0C701E4D3232D30E0240D311D2E30310508
S11322E009F487C082E390E067D401501109D1F664
S11322F085C088EE93E09C01829EC001839E900D70
S1132300929E900D112458D40AE010E0909092030C
S113231060E070E0C701C2D3892DFBD3872DF9D3C8
S1132320C82E80E0F6D3D82E61E070E0C701B6D3A2
S11323302D2D30E02C0D311D2E30310539F082E386
S113234090E03AD40150110919F75CC085E1E5ED3C
S1132350F6E08E010F5F1F4FD80101900D928A9510
S1132360E1F74AE0BE01675D7F4FC7010E945B1A37
S1132370BC01C8010E94FD19F80101900020E9F791
S113238031970F2EFBE3EF2EF12CF02DF182E0823A
S11323904AE0BE01675D7F4FC5010E945B1ABC0124
S11323A0C8010E94FD19F80101900020E9F7319756
S11323B0F182E0824AE0BE01675D7F4F852D90E0A7
S11323C00E945B1ABC01C8010E94FD19F80101902A
S11323D00020E9F731978BE39AE0A0E080839183B2
S11323E0A2836091AB017091AC01C8010E94D40931
S11323F009C0CA94CD2809F0A9CF7BCFCA94CD28AF
S113240009F477CFAD960FB6F894DEBF0FBECDBFFB
S1132410DF91CF911F910F91FF90EF90DF90CF90BC
S1132420BF90AF909F908F907F906F905F904F90F0
S11324303F900895EF92FF920F931F93CF93DF93F2
S11324406AEE76E084EC99E0F5D7009709F445C08C
S113245060EC73E0C8D760EC73E080E090E0C3D731
S11324609CD78C0160EC73E080E090E0BCD795D7FA
S1132470EC0160EC73E080E090E0B5D78ED77C018E
S1132480482F6C2F802FDADE043011052CF5CD3067
S1132490D10514F5EA94EF2889F42DE0209FC001BA
S11324A0219F900D1124C80FD91FCC0FDD1FC855D3
S11324B0D84F81E090E0998388830EC02DE0209F5F
S11324C0C001219F900D1124C80FD91FCC0FDD1F0F
S11324D0C855D84F1982188227D5DF91CF911F9103
S11324E00F91FF90EF900895CF93DF9366EF76E01E
S11324F084EC99E09FD7892B09F46AC010920509EE
S1132500109204096AEF76E084EC99E093D7892B62
S1132510E9F01092CB0C89E097E032D3C091A1018D
S1132520D091A2016091A3017091A401CE010E94F7
S1132530D500D093C80CC093C70C6091AB017091C7
S1132540AC0187E192E00E94D40952C065E177E0D2
S113255084EC99E06FD7892BE9F08091A1019091E7
S1132560A2019093C80C8093C70C81E08093CB0C9C
S1132570C091AB01D091AC01BE0187E192E00E9411
S1132580D40984EF91E018D3BE018BE197E00E9457
S1132590D4092EC062E377E084EC99E024D762E3A7
S11325A077E080E090E01FD7C7ECDCE068817981B8
S11325B00E94B700998388838AE090E0FDD26091FD
S11325C0AB017091AC0187E192E00E94D409ACD4D4
S11325D064E377E084EC99E02DD7892B49F060918E
S11325E0AB017091AC018BE397E00E94D4099CD4B9
S11325F0DF91CF9108952F923F924F925F926F9205
S11326007F928F929F92AF92BF92CF92DF92EF927E
S1132610FF920F931F93CF93DF93CDB7DEB7A397AA
S11326200FB6F894DEBF0FBECDBFEEEEF8E0228DFC
S1132630338D808D918D281739070CF4F9C04AE049
S1132640BE01615E7F4F809104099091050933D7E3
S11326500F2EF4EAEF2EFCE0FF2EF02D00E010E048
S113266088248394912C212C3090940340909303DC
S11326700F2EF9EC6F2EFCE07F2EF02D5701D701C1
S113268058968D919C9159973ED3811124C0F7019E
S113269080899189892B09F4ADC01DC060E070E088
S11326A0C801FCD1832D35D2842D33D2582EB401E8
S11326B0C801F4D18EEF850D8C3F28F0F1E0CF1ADC
S11326C0D10861F7512C852D90E0D5018D939C9311
S11326D0F30191828082D50158968D919C915997EE
S11326E012D3882331F0F50180899189019709F487
S11326F08FC00F5F1F4FF2E0EF0EF11C0430110585
S113270009F0BCCF8091C90C9091CA0C019709F0D3
S11327106CC01092CA0C1092C90C8091C309882312
S113272009F463C082E1E6E0F1E0DE011196019074
S11327300D928A95E1F7FE0173968CE0DF011D92FC
S11327408A95E9F70F2EFCEAEF2EFCE0FF2EF02D20
S113275000E010E072976F010F2EFAE38F2E912C98
S1132760F02D0F2EFBE3AF2EB12CF02DD7018D9160
S11327709D917D01019719F54AE0BE01615E7F4F8D
S1132780C80199D6BC01C60138D6F60101900020D3
S1132790E9F73197918280824AE0BE01615E7F4F02
S11327A0F7013A978081918186D6BC01C60125D66E
S11327B0F60101900020E9F73197B182A0820F5F02
S11327C01F4F0430110591F6CE010196FC010190D2
S11327D00020E9F731972AE030E0318320836091CB
S11327E0AB017091AC010E94D409109209091092B6
S11327F008091EC084EF91E0DFD1F701918680863D
S1132800918A808A0F2EF5E0CF2EF02DD22C46CF60
S113281084EF91E0D1D1D50119961C921E9218979C
S113282051961C921E925097F3019182808261CF3F
S1132830A3960FB6F894DEBF0FBECDBFDF91CF9144
S11328401F910F91FF90EF90DF90CF90BF90AF90CA
S11328509F908F907F906F905F904F903F902F90BC
S11328600895EEEEF8E0268937898489958928173A
S1132870390704F18091C3098823C1F06091AB0149
S11328807091AC018BE497E00E94D40963E070E09E
S113289082E597E00E94C408892B41F48091B1033A
S11328A08093C3098093C1098093C20910920509DA
S11328B01092040908952F923F924F925F926F9263
S11328C07F928F929F92AF92BF92CF92DF92EF92BC
S11328D0FF920F931F93CF93DF9300D000D0CDB717
S11328E0DEB7EEEEF8E0268D378D848D958D2817B2
S11328F039070CF4BCC08091CB0C813009F0B7C00F
S11329000E94A70480E198E09A83898300E010E0A4
S1132910612C0F2EF7EC4F2EFCE05F2EF02D209053
S1132920A1013090A201E090B303F090B40390C0F1
S1132930DC82CB82D60112968D919C9113978E3FA7
S1132940910509F470C0E1EBF3E07080D2012D929F
S11329503C9206C00E94FC068E159F0509F4782E51
S1132960EB81FC8162817381C8010E948F05892BF0
S113297089F7772079F1043011050CF054C0FDE09B
S1132980AF16B1040CF04FC0AB81BC8112966D91AF
S11329907C911397F401E60FF71FEE0FFF1FE85524
S11329A0F84F80819181892B09F03DC041E0802F4F
S11329B045DCAB81BC811296ED91FC911397E80D37
S11329C0F91DEE0FFF1FE855F84F81E090E0918369
S11329D0808329C00430110534F59DE0A916B104A3
S11329E014F5AB81BC8112966D917C911397F4011F
S11329F0E60FF71FEE0FFF1FE855F84F8081918116
S1132A00019789F440E0802F19DCAB81BC811296D8
S1132A10ED91FC911397E80DF91DEE0FFF1FE8559A
S1132A20F84F11821082BFEFAB1ABB0AE2E0CE0E60
S1132A30D11CFDE0AF16B10409F07ACF0F5F1F4F30
S1132A4089819A814C969A8389830430110559F0BF
S1132A50C980DA80A62CB12C9DE0909F4001919F03
S1132A60900C112465CF10920D0910920C090F904F
S1132A700F900F900F90DF91CF911F910F91FF90C6
S1132A80EF90DF90CF90BF90AF909F908F907F900A
S1132A906F905F904F903F902F9008951F93CF9326
S1132AA0DF93EC01162F84E690E086D0C130D10587
S1132AB089F01CF4CD2B39F021C0C230D10589F046
S1132AC02397B1F01BC0612F8091970190919801D9
S1132AD0E8D014C0612F8091950190919601E1D0C6
S1132AE00DC0612F8091930190919401DAD006C0BA
S1132AF0612F8091910190919201D3D084E690E06E
S1132B005BD0DF91CF911F91089581E58CBD1EBCF0
S1132B1008958EBD0DB407FEFDCF8EB508952091A6
S1132B20B9032093C4009091BA039093C50088E937
S1132B308093C1002093CC009093CD008093C90072
S1132B4078940895E8ECF0E0908195FFFDCF8093B0
S1132B50CE000895CF93DF93EC018881882329F078
S1132B602196F0DF89918111FCCFDF91CF910895F7
S1132B70E0ECF0E0908195FFFDCF8093C6000895CE
S1132B80CF93DF93EC018881882329F02196F0DF2D
S1132B9089918111FCCFDF91CF9108952091A501F6
S1132BA03091A6012115310511F4EACF08952130A1
S1132BB0310509F4CFCF08951816190644F4E3EC4F
S1132BC0F9E03197F1F700C000000197C1F70895CB
S1132BD001978C32910508F063C0835B9F4FFC0121
S1132BE0A6C2613011F4259A08952598089561309C
S1132BF011F4269A089526980895613011F4279ABD
S1132C00089527980895613011F4549A08955498BA
S1132C100895613011F4559A0895559808956130D6
S1132C2011F4569A089556980895613011F4579AFC
S1132C30089557980895613011F43A9A08953A988E
S1132C400895613011F43B9A08953B9808956130DA
S1132C5011F43C9A08953C980895613011F43D9A1A
S1132C6008953D980895613011F4209A08952098AC
S1132C700895613011F4219A0895219808956130DE
S1132C8011F4229A089522980895613011F4239A38
S1132C90089523980895613011F4249A089524988E
S1132CA008950D978E31910568F587589F4FFC0163
S1132CB03EC2613011F45C9A08955C9808956130C5
S1132CC011F45D9A08955D980895613011F45E9A47
S1132CD008955E980895613011F45F9A08955F989D
S1132CE00895613011F4289A089528980895613060
S1132CF011F4299A089529980895613011F42A9AB3
S1132D0008952A9808958731910599F034F485310E
S1132D10910549F0469751F015C08831910561F04D
S1132D208B9769F00FC086B18470089586B188705E
S1132D30089586B18071089586B18072089583B133
S1132D408870089580E008952091A9013091AA0126
S1132D50232B51F02091B7033091B80382179307C6
S1132D6019F48093C40C08952091A7013091A8010F
S1132D70232B51F02091B5033091B60382179307AA
S1132D8019F48093C40C08958FEF8093C40C0895B4
S1132D90EEEEF8E011821082138212821582148200
S1132DA01186108613861286158614861786168653
S1132DB0E4EAFCE08CEA9CE01192119217821682FC
S1132DC017861686E817F907B9F7E8EAF7E020E16D
S1132DD038E009C011921192E817F907D9F7FC01FC
S1132DE02817390719F0CF014A96F4CFE6E8FCE03A
S1132DF01092CA0C1092C90C80918F01909190018D
S1132E0097AB86AB80918D0190918E0191AF80AF8D
S1132E1080918B0190918C0193AF82AF8091890155
S1132E2090918A0195AF84AF1092C60C1092C50C94
S1132E301092C80C1092C70C81E08093CB0C69EB04
S1132E4071E082E199E0EFD264EB71E086E799E00A
S1132E50EAD28091B1038093C1098093C20980931F
S1132E60C30924EF31E0E4ECF9E0DF01A9011D928C
S1132E7041505040E1F798ECE8EBFBE0DF011D9294
S1132E809A95E9F78093800C8093810C1092830CBF
S1132E901092820C1092850C1092840CEEEEF8E0E5
S1132EA0138A128A8AE090E0918B808B178A168AA3
S1132EB08EE190E0958B848B138E128E25E030E0AA
S1132EC0318F208F178E168E958F848F13A212A2A6
S1132ED084EB90E091A380A385E0EDE7F7E0A6E81A
S1132EE0BCE001900D928A95E1F78FE0E5E9FCE002
S1132EF0DF011D928A95E9F721E030E044E352E0D6
S1132F006FE070E086E89CE00E94FB00811109C03C
S1132F1085E0EDE7F7E0A6E8BCE001900D928A9524
S1132F20E1F70C94200408958091C40C90E0209162
S1132F30B7033091B8038217930769F443EF51E064
S1132F4060E270E084EC99E051D21092800C10920F
S1132F50830C1092820C089585B5816085BD16BCE2
S1132F60EEE6F0E08081816080830895CF93DF9363
S1132F708091A7019091A801892BE9F08091B50374
S1132F809091B603E1DE88E797E008DE84EF91E0F4
S1132F9013DE82E897E002DE8CE291E00DDE8EE83B
S1132FA097E0FCDD8CE291E007DE8AE997E0F6DD4C
S1132FB08CE291E001DE8091A9019091AA01892B14
S1132FC0B1F0C0919901D0919A01DD2761E0CE0161
S1132FD068DE84EF91E0F0DD60E0CE0162DE88EE31
S1132FE093E0EADD8091B7039091B803ADDEDF9101
S1132FF0CF910895CF93DF938091A9019091AA0175
S1133000892B39F0609195038091990190919A01EF
S1133010DFDD8091A7019091A801892B39F060919F
S1133020950380919B0190919C01D2DDC091950301
S11330306C2F8091970190919801CADD6C2F80913B
S1133040950190919601C4DD6C2F8091930190912C
S11330509401BEDD6C2F8091910190919201B8DDB5
S1133060D09197036D2F80918F0190919001B0DDE5
S11330706D2F80918D0190918E01AADD6D2F80912D
S11330808B0190918C01A4DD6D2F80918901909129
S11330908A019EDD6C2F809187019091880198DDD3
S11330A06C2F809185019091860192DD6D2F809126
S11330B08301909184018CDD6C2F8091810190912A
S11330C0820186DD2CDD84E690E076DD1EDDDF9175
S11330D0CF9108958FDF5CDE3FDF48CF0895809164
S11330E0800C813049F484E690E066DDA3D9FCD9F4
S11330F00E94850E1092800C8091810C813011F415
S11331001092810C089577DAACDBD5CB0895E2DF19
S1133110C0E0D0E0CE010DD22BDD2196C83E83E085
S1133120D807C1F70E946D0DDADFEDDFFBCFEE0F9C
S1133130FF1F0024001C0BBE0790F691E02D09949C
S1133140CF93DF938230910510F482E090E0E09118
S1133150CE0CF091CF0C20E030E0C0E0D0E030970E
S113316011F14081518148175907C0F04817590798
S113317061F482819381209719F09B838A832BC009
S11331809093CF0C8093CE0C26C02115310519F0F5
S11331904217530718F49A01BE01DF01EF010280C0
S11331A0F381E02DDCCF2115310509F1281B390B02
S11331B02430310590F412968D919C9113976115EA
S11331C0710521F0FB019383828304C09093CF0C9B
S11331D08093CE0CFD01329644C0FD01E20FF31F33
S11331E081939193225031092D933C933AC02091BD
S11331F0CC0C3091CD0C232B41F420910201309161
S113320003013093CD0C2093CC0C2091000130911C
S113321001012115310541F42DB73EB74091040158
S113322050910501241B350BE091CC0CF091CD0C91
S1133230E217F307A0F42E1B3F0B2817390778F089
S1133240AC014E5F5F4F2417350748F04E0F5F1FE8
S11332505093CD0C4093CC0C8193919302C0E0E049
S1133260F0E0CF01DF91CF9108950F931F93CF9397
S1133270DF93009709F48CC0FC0132971382128209
S11332800091CE0C1091CF0C0115110581F4208111
S11332903181820F931F2091CC0C3091CD0C2817D3
S11332A0390779F5F093CD0CE093CC0C71C0D801BB
S11332B040E050E0AE17BF0750F412962D913C91B8
S11332C01397AD012115310509F1D901F3CF9D0102
S11332D0DA013383228360817181860F971F8217FD
S11332E0930769F4EC0128813981260F371F2E5F7B
S11332F03F4F318320838A819B8193838283452B33
S113330029F4F093CF0CE093CE0C42C01396FC93B7
S1133310EE931297ED01499159919E01240F351FA7
S1133320E217F30771F480819181840F951F02964F
S113333011969C938E938281938113969C938E9382
S11333401297E0E0F0E0D80112968D919C911397CA
S1133350009719F0F8018C01F6CF8D919C9198019A
S11333602E5F3F4F820F931F2091CC0C3091CD0CD8
S11333702817390769F4309729F41092CF0C10926A
S1133380CE0C02C0138212821093CD0C0093CC0C8D
S1133390DF91CF911F910F910895FC018827992700
S11333A0E89421912032E9F3293010F02E30C8F34B
S11333B02B3239F02D3231F4689403C086D0820F59
S11333C0911D219120532A30C8F31EF490958195C4
S11333D09F4F089585FD9AC08062911197C08156D0
S11333E08A51E0F7089546EA57E03EC0DC0101C087
S11333F06D9341505040E0F70895FB01DC010D90BE
S11334000020E9F7119701900D920020E1F708954B
S1133410FC018191861721F08823D9F79927089513
S11334203197CF010895FB01DC0101900D9200203A
S1133430E1F70895FB0151915523A9F0BF01DC0187
S11334404D9145174111E1F759F4CD010190002048
S113345049F04D9140154111C9F3FB014111EFCFE2
S113346081E090E001970895FA01A191B08100975D
S113347019F41097E1F0CD01DC01CD010D9000208D
S113348011F4C00113C0FB012191222319F020156E
S1133490D9F7F3CFFB012191201519F41E9211964F
S11334A006C02223C1F70D900020A1F7D001FA0134
S11334B0A193B0830895BB274A3031F4992322F4B1
S11334C0BDE2909581959F4F09C07AE0979F902D1A
S11334D0879F802D910D11240895BB27FB0155274B
S11334E0AA27880F991FAA1FA41710F0A41B83955D
S11334F05051B9F7A05DAA3308F0A95DA1930097D4
S113350079F7B111B1931192CB0103C099278827A0
S11335100895DC01FC01672F71917723E1F732975D
S113352004C07C916D9370836291AE17BF07C8F39A
S11335300895F999FECF92BD81BDF89A992780B577
S11335400895262FF999FECF1FBA92BD81BD20BDE3
S11335500FB6F894FA9AF99A0FBE01960895F89462
S1053560FFCF97
S11335620000D00C200052454C4159434F4E4E4569
S11335724354494F4E533B0000000000000000003A
S11335820000000041444D494E0055534552005538
S11335925352005549003A004341004D49005249F3
S11335A200494D005541005253004E5300484F53B9
S11335B2543100504F52543100484F53543200504A
S11335C24F5254320053534944005057440041501F
S11335D24E00545300544900535700455400455774
S11335E2002C000200010003001800170016001549
S11335F20010000F000E000D002900280000001426
S113360200B400001001000100010000006F6E6CA4
S1133612696E650032303838003139322E3136382D
S11336222E302E32370037374C6437637237645783
S11336320054617264697300746573742070726FEC
S1133642647563742031004552524F5200466169D9
S11336526C0041542B43495053454E443D00415460
S11336622B43495053454E440D004F4B0054494D92
S1133672450054494D45204F4B0A00534552494198
S11336824C5F4E554D424552002300235345524947
S1133692414C3B0053455249414C0052455155451A
S11336A253545F53455249414C5F4E554D42455226
S11336B23B0041542B534C4545503D320D0A0041C9
S11336C2542B4349504D55583D310D0A0041542B5A
S11336D243574D4F44453D330D0A0041542B435744
S11336E25341503D2248434D2D4E4554574F524B62
S11336F2222C2261646D696E31323334222C352CD2
S1133702330D0A0041542B434950534552564552F6
S11337123D312C38300D0A0041542B434950444F5B
S11337224D41494E3D226A746563682D696F742E5A
S1133732636F6D220D0A0041542B43494653520DC7
S11337420A0041542B43574A41503D220041542B15
S1133752434950534855540D0041542B4347415457
S1133762543D310D0041542B434744434F4E543D85
S1133772312C224950222C220041542B43535454BD
S11337823D2200222C22222C22220D0041542B43C2
S1133792494943520D0A0041542B43495053544161
S11337A252543D302C22544350222C2200222C000D
S11337B241542B43495053544152543D2254435093
S11337C2222C2200484F535400504F52540041546B
S11337D22B434950434C4F53453D300D0A0073650A
S11337E2636F6E646172790A0064656661756C74F4
S11337F20A00040201010000001F001C001F001E39
S1133802001F001E001F001F001E001F001E001FBD
S1133812000000010000000100400023535349440A
S11338223B0023235057443B00232341504E3B008B
S1133832474554202F20485454502F002C434F4EB8
S11338424E454354003C68746D6C3E3C686561644B
S11338523E3C6D657461206E616D653D22766965DD
S113386277706F72742220636F6E74656E743D227A
S113387277696474683D6465766963652D77696404
S113388274682C20696E697469616C2D7363616C50
S1133892653D312E302C206D6178696D756D2D7307
S11338A263616C653D312E30223E3C2F6865616454
S11338B23E3C626F64793E003C7469746C653E48B8
S11338C2434D20436F6E736F6C653C2F7469746C47
S11338D2653E003C646976207374796C653D2266AA
S11338E26F6E742D73697A653A206D656469756DBE
S11338F23B20746578742D616C69676E3A20636548
S11339026E7465723B223E3C7370616E3E003C668F
S11339126F726D206D6574686F643D22504F53540D
S1133922223E003C703E3C7374726F6E673E534598
S11339325249414C3A20003C2F7374726F6E673EB9
S11339423C2F703E3C703E3C7374726F6E673E5304
S11339525349443C2F7374726F6E673E3C62723EED
S11339623C696E70757420747970653D2274657853
S11339727422206E616D653D227373696422207620
S1133982616C75653D2200223E3C2F703E003C7006
S11339923E3C7374726F6E673E50415353574F529D
S11339A2443C2F7374726F6E673E3C62723E3C6994
S11339B26E70757420747970653D227061737377CB
S11339C26F726422206E616D653D2270617373773C
S11339D26F7264222076616C75653D22003C703EF4
S11339E23C7374726F6E673E41504E3C2F73747217
S11339F26F6E673E3C62723E3C696E7075742074F1
S1133A027970653D227465787422206E616D653D1E
S1133A122261706E222076616C75653D22003C70D5
S1133A223E3C7374726F6E673E484F53543C2F731F
S1133A3274726F6E673E3C62723E3C696E7075745E
S1133A4220747970653D227465787422206E616DEC
S1133A52653D22686F7374222076616C75653D2220
S1133A62003C696E70757420747970653D227375BB
S1133A72626D6974223E3C2F666F726D3E3C2F73F9
S1133A8270616E3E3C2F6469763E003C2F626F6427
S1133A92793E3C2F68746D6C3E00485454502F316B
S1133AA22E3020323030204F4B0D0A436F6E746536
S1133AB26E742D547970653A20746578742F687425
S1133AC26D6C3B20636861727365743D5554462D79
S1133AD2380D0A507261676D613A206E6F2D636111
S1133AE26368650D0A436F6E74656E742D4C656E62
S1133AF26774683A20000D0A436F6E6E65637469D9
S1133B026F6E3A20636C6F73650D0A0D0A00686F5D
S1133B1273740070617373776F7264007373696492
S1133B220061706E0041542B434950434C4F53453E
S1133B323D350D0A004E4F54494649434154494FBD
S1133B424E3B5357495443483B0053574954434807
S1133B5252454C415900434647005B434C45415250
S1133B625F454550524F4D5D00434C454152494ECD
S1133B72472E2E2E005B454E445D004E4F5449465F
S1133B8249434154494F4E3B555044415445443BAB
S1133B920A002400555044415445005245515545AC
S1133BA253545F5550444154450A00434845434BDE
S1133BB20A004C4956450041542B435245473F0D98
S1133BC20A002B435245473A20302C31002B4352F2
S1133BD245473A20302C350041540D0A006E756C6D
S1133BE26C0041542B434D47463D310D0A0041546C
S1133BF22B434C54533D310D0A0041542B434C4941
S1093C02503D310D0A00E3
S9030000FC
