:1000000096C00000B3C00000B1C00000AFC0000047
:10001000ADC00000ABC00000A9C00000A7C0000038
:10002000A5C00000A3C00000A1C000009FC0000048
:100030009DC000009BC0000099C0000097C0000058
:1000400095C0000093C000000C9430088FC00000E1
:10005000C4C700008BC0000089C0000087C000003A
:1000600085C0000083C0000081C000007FC0000088
:1000700071C700007BC0000079C0000077C000009D
:1000800075C0000073C0000071C000000A0B100BA7
:10009000160B1C0B220B280B2E0B1B1721172717D7
:1000A0008017801780178017801780178017801798
:1000B00080172D17331739173F17801780178017B0
:1000C00045174B17511757175D1780178017801763
:1000D0008017801780178017801780178017801768
:1000E0008017801780178017631769176F177517A8
:1000F0007B1789178F1795179B17B217B217B2176F
:10010000B217B217B217B217B217B217B217B217A7
:10011000B217B217B217B217B217B217B217B21797
:10012000B217B217B217B217A117A717AD1711243C
:100130001FBECFEFD0E4DEBFCDBF17E0A0E0B1E03F
:10014000E2E5F8E300E00BBF02C007900D92A83F84
:10015000B107D9F72DE0A8EFB7E001C01D92A03399
:10016000B207E1F70E94FF190C94271C49CF0F93A7
:100170001F93CF93DF93EB01FC016081662379F03D
:100180008C010F5F1F4FF999FECF2196CE01019789
:100190000E94191CF80161918F016111F4CFCE0109
:1001A000DF91CF911F910F910895EF92FF920F93DE
:1001B0001F93CF93DF93EC017B0186179707A4F47D
:1001C000F999FECF0C2F1D2FCE010E94111C8F3FDD
:1001D00059F0F999FECF6FEF802F912F0E94191CD3
:1001E0002196CE15DF0564F3DF91CF911F910F911A
:1001F000FF90EF9008952F923F924F925F926F92EF
:100200007F928F929F92AF92BF92CF92DF92EF92A6
:10021000FF920F931F93CF93DF93CDB7DEB7C85FE5
:10022000D1400FB6F894DEBF0FBECDBFDC01213048
:10023000310521F410921A0D1092190D9A012F5FB9
:100240003F4FFA018081882351F0F901812C912CD4
:100250002FEF821A920A91919111FACF02C0812C4C
:10026000912CE090190DF0901A0D8091A1019091C0
:10027000A201E816F9060CF092C01A01C950DE4F2F
:1002800079836883C75FD140CB50DE4FB983A883A1
:10029000C55FD140A12CB12C00E010E0CE01019649
:1002A0006C010F2EF3EF4F2E55245394F02D6090D8
:1002B000A1017090A201F999FECFC7010E94111C03
:1002C000833231F491E0AB2809F090E0A92EB12CF3
:1002D00091E0A916B10461F4033FE1E01E0709F4BF
:1002E00060C0F601E00FF11F80830F5F1F4F4EC00B
:1002F000101611060CF04AC0F601E00FF11F108233
:10030000B101C6010E94921B0097C9F1FFEF8F1A3D
:100310009F0AFC01E80DF91D20812223E1F0C9505C
:10032000DE4F48815981C75FD14041505109D9F111
:10033000CB50DE4FA881B981C55FD140319680E0B6
:1003400090E003C08417950781F101962D932191C8
:100350002111F8CF02C080E090E0CB50DE4FE88161
:10036000F981C55FD140E80FF91F10822FEFE21A23
:10037000F20AF0921A0DE092190D81E017C0F60111
:10038000C20111920197E9F700E010E09FEFE91A2E
:10039000F90AE614F7040CF48ECF80E007C080E081
:1003A00005C080E003C080E001C080E0C850DE4F9F
:1003B0000FB6F894DEBF0FBECDBFDF91CF911F9176
:1003C0000F91FF90EF90DF90CF90BF90AF909F90F4
:1003D0008F907F906F905F904F903F902F900895F7
:1003E0000F931F93CF93DF93CDB7DEB7C456D109D8
:1003F0000FB6F894DEBF0FBECDBF8C0110921A0D60
:100400001092190D17C0B801CE0101960E94921BDF
:10041000892B81F064E271E0CE0101960E94921B6B
:10042000892BB1F46AE271E0CE0101960E94921B21
:10043000892B89F420E030E04FE251E064E670E07F
:10044000CE010196D8DE8111DECF80E090E005C0BC
:1004500081E090E002C082E090E0CC59DF4F0FB61F
:10046000F894DEBF0FBECDBFDF91CF911F910F91EA
:1004700008954F925F926F927F928F929F92AF9268
:10048000BF92CF92DF92EF92FF920F931F93CF9381
:10049000DF93CDB7DEB7CE5CD1090FB6F894DEBFDF
:1004A0000FBECDBF5C014B0110921A0D1092190DB9
:1004B0000CEF18E00F2EF8EC6F2E712CF02D0F2E94
:1004C000F4E04F2EF9E05F2EF02DBFC0AE01435394
:1004D0005F4F6EEB73E0CE0101960E94AC1B00975C
:1004E00009F4A5C0AE0145535F4F62EA77E00E9470
:1004F000AC1B7C0169E371E00E94921B892B79F0AF
:10050000AE0145535F4F62EA77E080E090E00E94E1
:10051000AC1B0E94451BF801918380837CC06CE377
:1005200071E0C7010E94921B892B79F0AE014553FF
:100530005F4F62EA77E080E090E00E94AC1B0E948F
:10054000451BF8019383828366C064E470E0C701B1
:100550000E94801B892B79F0AE0145535F4F62EA00
:1005600077E080E090E00E94AC1B0E94451BF80100
:100570009583848350C06FE371E0C7010E94921B92
:10058000892B79F0AE0145535F4F62EA77E080E056
:1005900090E00E94AC1B0E94451BF8019783868364
:1005A0003AC062E471E0C7010E94921B892B99F165
:1005B000AE0145535F4F62EA77E080E090E00E9431
:1005C000AC1BAE0147535F4F6CE473E00E94AC1B61
:1005D0000097C1F06201E12CF12CFFEFEF1AFF0A46
:1005E0000E94451BF601819391936F01AE01475321
:1005F0005F4F6CE473E080E090E00E94AC1B0097DA
:1006000061F702C0E12CF12CF701EE0FFF1FEC5F48
:10061000F64F71826082AE0143535F4F6EEB73E021
:1006200080E090E00E94AC1B009709F05BCFF801DE
:10063000808191818A159B0541F48281938188157F
:10064000990519F481E090E00DC020E030E045E428
:1006500051E067EC70E0CE010196CDDD811136CF1F
:1006600080E090E0C253DF4F0FB6F894DEBF0FBEBC
:10067000CDBFDF91CF911F910F91FF90EF90DF9051
:10068000CF90BF90AF909F908F907F906F905F9032
:100690004F900895AF92BF92CF92DF92FF920F9347
:1006A0001F93CF93DF93CDB7DEB7C65FD1400FB6B0
:1006B000F894DEBF0FBECDBF6C015B0110921A0D26
:1006C0001092190D20E030E048E451E064EF71E051
:1006D000CE01019690DD882309F451C0AE014B5044
:1006E0005E4F6EEB73E0CE0101960E94AC1B8C0155
:1006F000892BE9F1F12C6BE471E0C8010E94921B97
:10070000892B89F062EA77E0C8010E946B1B62EADC
:1007100077E080E090E00E946B1BBC01C6010E9464
:100720008B1BF39417C061E571E0C8010E94921B16
:10073000892B81F062EA77E0C8010E946B1B62EAB4
:1007400077E080E090E00E946B1BBC01C5010E9435
:100750008B1BF394AE014B505E4F6EEB73E080E069
:1007600090E00E94AC1B8C01892B29F601C0F12C72
:1007700081E090E022E0F21621F080E002C080E00B
:1007800090E0CA50DE4F0FB6F894DEBF0FBECDBF6B
:10079000DF91CF911F910F91FF90DF90CF90BF908D
:1007A000AF900895AF92BF92CF92DF92FF920F93D6
:1007B0001F93CF93DF93CDB7DEB7C65FD1400FB69F
:1007C000F894DEBF0FBECDBF6C015B0110921A0D15
:1007D0001092190D20E030E048E451E064EF71E040
:1007E000CE01019608DD882309F451C0AE014B50BB
:1007F0005E4F6EEB73E0CE0101960E94AC1B8C0144
:10080000892BE9F1F12C67E571E0C8010E94921B88
:10081000892B89F062EA77E0C8010E946B1B62EACB
:1008200077E080E090E00E946B1BBC01C6010E9453
:100830008B1BF39417C06DE571E0C8010E94921BF9
:10084000892B81F062EA77E0C8010E946B1B62EAA3
:1008500077E080E090E00E946B1BBC01C5010E9424
:100860008B1BF394AE014B505E4F6EEB73E080E058
:1008700090E00E94AC1B8C01892B29F601C0F12C61
:1008800081E090E022E0F21621F080E002C080E0FA
:1008900090E0CA50DE4F0FB6F894DEBF0FBECDBF5A
:1008A000DF91CF911F910F91FF90DF90CF90BF907C
:1008B000AF900895CF93DF93EB0167EB71E00E9457
:1008C0008B1B62EB71E0CE010E948B1B81E090E0FC
:1008D000DF91CF910895CF93DF93CDB7DEB7C456A4
:1008E000D1090FB6F894DEBF0FBECDBF10921A0D1E
:1008F0001092190D20E030E043E651E064E670E02C
:10090000CE01019678DC882389F0DE011196FD0185
:1009100001900020E9F73197EA1BFB0B7F9760F409
:10092000BD018DEC99E00E948B1B06C06FEC71E05D
:100930008DEC99E00E948B1B10921A0D1092190DEC
:1009400020E030E048E651E064E670E0CE01019638
:1009500052DC882389F0DE011196FD010190002010
:10096000E9F73197EA1BFB0B7F9760F4BD018BEE33
:1009700099E00E948B1B06C064EC71E08BEE99E05D
:100980000E948B1B10921A0D1092190D20E030E07E
:100990004CE651E064E670E0CE0101962CDC882341
:1009A00089F0DE011196FD0101900020E9F73197F1
:1009B000EA1BFB0B3B9760F4BD0189E09AE00E94C3
:1009C0008B1B06C06BEA71E089E09AE00E948B1BEA
:1009D000CC59DF4F0FB6F894DEBF0FBECDBFDF910D
:1009E000CF9108955F926F927F928F929F92AF9274
:1009F000BF92CF92DF92EF92FF920F931F93CF930C
:100A0000DF93CDB7DEB7CC5CD1090FB6F894DEBF6B
:100A10000FBECDBF44E658E064ED78E02EEF30E045
:100A20000AC021933193E817F907D9F7445E5F4F65
:100A30004617570721F0CA014A96FA01F2CF1092E1
:100A40001A0D1092190D6894AA24A2F8B12C812CC9
:100A5000912CC12CD12C0F2EFCE16F2EF02D5524A2
:100A60005394712C78C0AE0145535F4F6EEB73E029
:100A7000CE0101960E94AC1B009709F46CC0E12CDA
:100A8000F12CAE0147535F4F62EA77E00E94AC1B46
:100A90008C0169E371E00E94921B892B81F0AE0109
:100AA00047535F4F62EA77E080E090E00E94AC1B22
:100AB0000E94451B6C012FEFE21AF20A17C06CE38B
:100AC00071E0C8010E94921B892B81F0AE0147534F
:100AD0005F4F62EA77E080E090E00E94AC1B0E94EA
:100AE000451B882E992E8FEFE81AF80AAE01455360
:100AF0005F4F6EEB73E080E090E00E94AC1B0097CC
:100B000009F0BFCF882D992DA60122E0E216F1044D
:100B100011F52DC0219131912817390709F4A72D1E
:100B2000E617F707B9F7A130B1F4440F551FFA01E2
:100B3000EE0FFF1FEE0FFF1FEE0FFF1FE41BF50B65
:100B4000EA0DFB1DEE0FFF1FEC59F74F91838083D9
:100B5000C50101965C0120E030E040E751E068EC1F
:100B600070E0CE01019647DB81117DCF0CC06C9CFB
:100B7000B0016D9C700D1124FB01EC59F74F6258C8
:100B8000774FA52DC7CFC453DF4F0FB6F894DEBF04
:100B90000FBECDBFDF91CF911F910F91FF90EF90CE
:100BA000DF90CF90BF90AF909F908F907F906F908D
:100BB0005F9008952F923F924F925F926F927F9233
:100BC0008F929F92AF92BF92CF92DF92EF92FF925D
:100BD0000F931F93CF93DF93CDB7DEB7CC56D109D8
:100BE0000FB6F894DEBF0FBECDBF5C014B010F2ED8
:100BF000FAED6F2EF8E07F2EF02D0EEF10E00F2EA5
:100C0000FCEE4F2EF8E05F2EF02DAC964FAEAC9779
:100C1000AD965FAEAD97362C272C12C1AE01475969
:100C20005F4F6EEB73E0CE0101960E94AC1B2AEF82
:100C300038E0F30101931193E217F307D9F72CE0A1
:100C400039E0F20101931193E217F307D9F7009706
:100C500009F4E5C00F2EF2EDCF2EF8E0DF2EF02DD7
:100C6000AE0149595F4F62EA77E00E94AC1B7C01FC
:100C700069E371E00E94921B892B79F0AE0149591A
:100C80005F4F62EA77E080E090E00E94AC1B0E9438
:100C9000451BF60191838083B6C06CE371E0C70108
:100CA0000E94921B892B79F0AE0149595F4F62EA8D
:100CB00077E080E090E00E94AC1B0E94451BF601AB
:100CC00093838283A0C063E771E0C7010E94921BF7
:100CD000892B79F0AE0149595F4F62EA77E080E0F5
:100CE00090E00E94AC1B0E94451BF6019583848313
:100CF0008AC064E673E0C7010E94921B892B79F0D9
:100D0000AE0149595F4F62EA77E080E090E00E94CF
:100D1000AC1B0E94451BF6019783868374C066E76F
:100D200071E0C7010E94921B892B39F1AE0149592C
:100D30005F4F62EA77E080E090E00E94AC1BAE017A
:100D40004B595F4F6CE473E00E94AC1B009709F4B1
:100D50005AC0E32CF22C0E94451BF701819391931A
:100D60007F01AE014B595F4F6CE473E080E090E08F
:100D70000E94AC1B009779F746C069E771E0C70194
:100D80000E94921B892B79F0AE0149595F4F62EAAC
:100D900077E080E090E00E94AC1B0E94451BF601CA
:100DA000918F808F30C06CE771E0C7010E94921B69
:100DB000892B49F1AE0149595F4F62EA77E080E043
:100DC00090E00E94AC1BAE014B595F4F6CE473E0A6
:100DD0000E94AC1B0097B9F0AC96EFACAC97AD9607
:100DE000FFACAD970E94451BF701819391937F0162
:100DF000AE014B595F4F6CE473E080E090E00E94DD
:100E0000AC1B009779F7AE0147595F4F6EEB73E06B
:100E100080E090E00E94AC1B009709F021CF809108
:100E2000D2089091D3088A159B0551F48091D4087B
:100E30009091D5088815990519F481E090E00DC0CE
:100E400020E030E040E751E064E670E0CE0101963A
:100E5000D2D98111E3CE80E090E0C459DF4F0FB6C4
:100E6000F894DEBF0FBECDBFDF91CF911F910F91E0
:100E7000FF90EF90DF90CF90BF90AF909F908F90BA
:100E80007F906F905F904F903F902F900895EF92DA
:100E9000FF920F931F93CF93DF93E0E4F9E08085F7
:100EA00091852CE3289FB001299F700D1124828524
:100EB0009385680F791F4681578120EA35E0429F6C
:100EC000C001439F900D529F900D1124680F791F10
:100ED000E2EDF8E006811781E08CF18CEAEDF8E0B4
:100EE000A8EEB8E0C0EAD5E0819191918E3F9105DE
:100EF00019F1408951894E3F5105F1F08C9F9001C5
:100F00008D9F300D9C9F300D1124C901800F911FC2
:100F1000681779078CF04C9FC0014D9F900D5C9F26
:100F2000900D11248E0D9F1D681779072CF4809168
:100F3000B1039091B20307C0EA17FB07A9F68091AD
:100F4000AF039091B003DF91CF911F910F91FF906C
:100F5000EF9008951F920F920FB60F9211240BB6C7
:100F60000F922F933F934F938F939F93EF93FF9302
:100F70004091CE008091D60C9091D70C853C910584
:100F800020F01092D70C1092D60CE6EDFCE0808198
:100F900091819C012F5F3F4F31832083FC01E65FED
:100FA000F34F40834D3021F04A3011F0411107C01A
:100FB00081E08093D30CF901EA5EF54F1082FF9136
:100FC000EF919F918F914F913F912F910F900BBE79
:100FD0000F900FBE0F901F9018951F920F920FB693
:100FE0000F9211240BB60F922F933F934F938F9331
:100FF0009F93EF93FF934091C6008091D40C909102
:10100000D50C813F914020F01092D50C1092D40C59
:10101000E4EDFCE0808191819C012F5F3F4F3183A3
:101020002083FC01EA5EF54F40834D3021F04A30C9
:1010300011F0411107C081E08093D20CF901EA5E02
:10104000F54F1082FF91EF919F918F914F913F91BA
:101050002F910F900BBE0F900FBE0F901F90189501
:101060001F920F920FB60F9211240BB60F922F936F
:101070003F934F935F938F939F93AF93BF93EF9360
:10108000FF938091170D9091180D0196873291056D
:1010900029F09093180D8093170DB0C01092180D81
:1010A0001092170DE0E4F9E0868597850196978701
:1010B0008687883E934009F04BC0848595850196CC
:1010C0009587848717861686828993892089318936
:1010D000281739072CF001969093530980935209F1
:1010E000E0E4F9E08689978924893589281739074A
:1010F0002CF001969093570980935609E0E4F9E0AB
:10110000828D938D208D318D281739072CF0019613
:1011100090935B0980935A09E0E4F9E0868D978DFE
:10112000248D358D281739072CF0019690935F098F
:1011300080935E09E0E4F9E082A193A120A131A1AE
:10114000281739072CF00196909363098093620960
:1011500080914C0990914D09CC9749F4E0E4F9E075
:101160008285938501969387828715861486809160
:101170004A0990914B09CC9749F4E0E4F9E0808565
:101180009185019691878087138612868091480900
:1011900090914909489749F4E0E4F9E08481958108
:1011A00001969583848311861086A0E4B9E0129697
:1011B0008D919C911397FC01EE0FFF1FE956FC4F98
:1011C00014964D915C9115972081318142175307F8
:1011D00031F4FD01019693838283158214828091FC
:1011E0004209909143090C9749F4E0E4F9E08081C9
:1011F000918101969183808313821282FF91EF91F6
:10120000BF91AF919F918F915F914F913F912F919E
:101210000F900BBE0F900FBE0F901F9018956F92FE
:101220007F928F929F92AF92BF92CF92DF92EF9276
:10123000FF920F931F93CF93DF934C01EB010E941A
:10124000E01888EE93E0C89F8001C99F100DD89FD9
:10125000100D112411230CF455C0C0E0D0E00F2E66
:10126000F8EDCF2EFCE0DF2EF02DE090B503F090EE
:10127000B603A090B303B090B403F60166AC712C32
:101280006E147F04B9F4B40186E19AE00E94921BC7
:10129000892BD9F565EE71E086E19AE00E94921BF8
:1012A000892BB1F56BEE71E086E19AE00E94921B0A
:1012B000892B89F56A147B04B9F4B4018AE09CE0B7
:1012C0000E94921B892B51F565EE71E08AE09CE04B
:1012D0000E94921B892B29F56BEE71E08AE09CE05D
:1012E0000E94921B892B01F5219683EC99E00197CE
:1012F000F1F700C000000C171D070CF0BECF80E016
:1013000090E014C080E090E011C081E090E00EC059
:1013100080E090E00BC080E090E008C081E090E0C9
:1013200005C080E090E002C080E090E0DF91CF91C6
:101330001F910F91FF90EF90DF90CF90BF90AF90F3
:101340009F908F907F906F900895CF92DF92EF9251
:10135000FF920F931F93CF93DF9300D000D01F9283
:10136000CDB7DEB77C016B018091160D90E0209126
:10137000B5033091B6038217930749F5F70131960B
:10138000D7018C91882341F000E010E00F5F1F4FE0
:1013900081918111FBCF02C000E010E080EF91E06D
:1013A0000E94EA16C6010E94EA168CE493E00E94AD
:1013B000EA164AE0BE016F5F7F4FC8010E94D31B4F
:1013C0000E94EA1689EA96E00E94EA1604C08CEFB1
:1013D00091E00E94EA1662E070E08FEB94E01FDF7C
:1013E000892B41F48091AF038093150A8093130AEF
:1013F0008093140A8091160D90E02091B5033091EE
:10140000B6038217930721F4C7010E94EA1609C0A8
:10141000C7010E94D4168AE10E94CC168DE00E947A
:10142000CC160F900F900F900F900F90DF91CF91EF
:101430001F910F91FF90EF90DF90CF900895AF92A2
:10144000BF92CF92DF92EF92FF920F931F93CF93B1
:10145000DF9300D000D01F92CDB7DEB77C01909112
:10146000150A992309F442C06B01F7013196D7019F
:101470008C91882371F100E010E00F5F1F4F819184
:101480008111FBCFC80101960E94181AA82EB92E0F
:10149000E82FF92F83E28193112354F0D70120E044
:1014A00030E08D9181932F5F3F4F02171307CCF7E8
:1014B0004AE0BE016F5F7F4FC6010E94D31BBC0193
:1014C0008A2D9B2D42DF63E070E088E092E0A7DE8A
:1014D0000DC081E090E00E94181AA82EB92EE82FC6
:1014E000F92F83E2819300E010E0D8CF0F900F90A6
:1014F0000F900F900F90DF91CF911F910F91FF9060
:10150000EF90DF90CF90BF90AF900895CF92DF9291
:10151000EF92FF920F931F93CF93DF9300D000D0F1
:101520001F92CDB7DEB77C016B01FC013196DC0167
:101530008C91882341F000E010E00F5F1F4F8191F4
:101540008111FBCF02C000E010E080EF91E00E942B
:10155000EA16C6010E94EA168CE493E00E94EA169D
:101560004AE0BE016F5F7F4FC8010E94D31B0E94FB
:10157000EA1689EA96E00E94EA1662E070E08FEBD4
:1015800094E04DDE892B41F48091AF038093150ADE
:101590008093130A8093140AC7010E94EA1663E03D
:1015A00070E088E092E03BDE0F900F900F900F907C
:1015B0000F90DF91CF911F910F91FF90EF90DF90EF
:1015C000CF900895EF92FF920F931F93CF93DF93E5
:1015D0006FE070E08BE092E022DE892B09F463C0BB
:1015E00084E690E00E9406176BE072E086E19AE0E4
:1015F0000E94921B6EEB73E00E946B1B892BA1F57E
:1016000047C0FE013197E730F105B0F5EA5BFF4FC7
:101610000C940F1A0E94451BF701918380832CC004
:101620000E94451BF7019383828326C00E94451BBD
:10163000F7019583848320C00E94451BF7019187A1
:1016400080871AC00E94451BF7019387828714C0C8
:101650000E94451BF701958784870EC00E94451B99
:10166000F7019783868308C000E010E00F2EF0E4B6
:10167000EF2EF9E0FF2EF02DE80121968E016EEBA2
:1016800073E080E090E00E946B1B009709F0B9CFF7
:101690006091A9017091AA0180E192E0D0DE0E94E0
:1016A000E01881E001C080E0DF91CF911F910F91A0
:1016B000FF90EF9008950F931F93CF93DF93CDB7D3
:1016C000DEB7E2970FB6F894DEBF0FBECDBF69E17B
:1016D00072E086E19AE00E94921B892BA9F167E2F1
:1016E00072E086E19AE00E946B1B67E272E080E0A4
:1016F00090E00E946B1BBC0188ED9CE00E948B1B5C
:1017000089E0E9E2F2E08E010F5F1F4FD8010190FE
:101710000D928A95E1F768ED7CE0C8010E94751B87
:10172000F80101900020E9F7319783E290E091837E
:10173000808360919B0170919C01C8010E94B70059
:101740000E94E01881E001C080E0E2960FB6F894B4
:10175000DEBF0FBECDBFDF91CF911F910F910895D6
:101760000F931F93CF93DF93CDB7DEB7C456D10944
:101770000FB6F894DEBF0FBECDBF21E030E042E3EC
:1017800052E06FE070E088ED9CE00E94FB00811168
:1017900032C00E94E01887E1E9E3F2E08E010F5FBA
:1017A0001F4FD80101900D928A95E1F766ED71E027
:1017B000C8010E94751BF80101900020E9F73197DC
:1017C0008AE090E09183808388EE93E00E94061780
:1017D0006091A9017091AA01C80131DE6FE070E04B
:1017E00089E192E01CDD84E690E00E94061763DF49
:1017F000811122C026C08FE0E1E4F2E08E010F5F8C
:101800001F4FD80101900D928A95E1F768ED7CE0B9
:10181000C8010E94751BF80101900020E9F731977B
:101820008BE39AE0A0E080839183A2836091A90179
:101830007091AA01C80103DE84E690E00E940617B9
:1018400081E0CC59DF4F0FB6F894DEBF0FBECDBF9D
:10185000DF91CF911F910F9108950F931F93CF9315
:10186000DF938C01EB0180E592E00E94EA1663E0D1
:1018700070E088E092E0D3DC8DE592E00E94EA1609
:1018800063E070E088E092E0CADC8BE692E00E94C0
:10189000EA1663E070E088E092E0C1DC89E792E05C
:1018A0000E94EA1663E070E088E092E0B8DC82EA29
:1018B00092E00E94EA1663E070E088E092E0AFDC1C
:1018C00086EB92E00E94EA1663E070E088E092E026
:1018D000A6DC85ED92E00E94EA1663E070E088E005
:1018E00092E09DDC80EE92E00E94EA16C8010E9420
:1018F000EA1687E493E00E94EA16CE010E94EA16F7
:1019000086ED97E00E94EA166AE070E088E092E0D7
:1019100086DC892B19F08091B10302C08091AF035E
:10192000DF91CF911F910F910895CF93C091B10393
:10193000C093150A47DE811105C08091AF038093E3
:10194000150A0DC00DDF811105C08091AF03809392
:10195000150A05C0C093150A0E94E01801C080E076
:10196000CF9108950F931F93CF93DF938C01EB01D9
:101970000E94E0182091160D30E08091B5039091FF
:10198000B6032817390791F485E393E00E94EA161D
:10199000C8010E94EA168BE493E00E94EA16CE0189
:1019A0000E94EA1689EA96E00E94EA162091160D36
:1019B00030E08091B3039091B4032817390791F474
:1019C0008EE493E00E94EA16C8010E94EA1687E4BA
:1019D00093E00E94EA16CE010E94EA1687E293E0A5
:1019E0000E94EA166AE070E088E092E018DC21E0EC
:1019F000019709F020E0822FDF91CF911F910F9185
:101A00000895EF92FF920F931F93CF93DF93CDB77B
:101A1000DEB768970FB6F894DEBF0FBECDBF68EC97
:101A200079E084E699E00E945A0468EC79E084E663
:101A300099E098DF182F813009F08BC066ED71E0D6
:101A4000CE0101967C010E948B1BF70101900020C2
:101A5000E9F731978AE090E0918380838091B10328
:101A60008093150A84EF91E00E9406176091A90106
:101A70007091AA01C701E3DC6AE070E082E693E0BE
:101A8000CEDB019709F063C084E690E00E94061760
:101A900062E673E086E19AE00E94921B62E673E0E0
:101AA0000E94921BAE01495E5F4F6EEB73E00E9495
:101AB000AC1B009709F44BC000E0AE014B5E5F4FDA
:101AC0006AEF71E00E94AC1B7C0162E673E00E9449
:101AD000921B892B81F0AE014B5E5F4F6AEF71E084
:101AE00080E090E00E94AC1B7C01BC0184E699E0A0
:101AF0000E948B1B0F5F67E673E0C7010E94921B79
:101B0000892B79F0AE014B5E5F4F6AEF71E080E0A8
:101B100090E00E94AC1BBC0188EC99E00E948B1BFA
:101B20000F5FAE01495E5F4F6EEB73E080E090E0C7
:101B30000E94AC1B009709F6023049F48CE693E052
:101B40000E94EA1684EF91E00E94061703C010E09D
:101B500001C010E0812F68960FB6F894DEBF0FBE6B
:101B6000CDBFDF91CF911F910F91FF90EF9008951E
:101B70001F93CF93DF93E0E4F9E0228933898089D2
:101B80009189281739070CF49AC08091150A90E0C2
:101B90002091B1033091B2038217930709F48BC0EF
:101BA000C091AF03D091B0038091B5039091B6037B
:101BB0000E94F0176BEE79E08DEC99E04EDE809399
:101BC000130A81110FC08091B3039091B4030E9456
:101BD000F0178091130A811105C08091140A88239F
:101BE00009F456C01C2F68EC79E084E699E00E9465
:101BF0004A03892B49F068EC79E084E699E0B2DE8B
:101C0000882321F092DE03C08C2F01C08C2F282F57
:101C100030E0C217D30781F568EC79E084E699E0FB
:101C20000E94D203892BB1F08CE793E00E94EA1660
:101C300084EF91E00E94061768EC79E084E699E071
:101C400091DE882311F071DE182F812F90E0C817E4
:101C5000D90791F4D6DE882379F087E893E00E94D3
:101C6000EA1684EF91E00E94061768EC79E084E6BA
:101C700099E078DE811159DE8091140A811104C047
:101C80008091130A882321F08091150A81110DC0DB
:101C90008091500990915109893522E092072CF4E6
:101CA00044969093510980935009E0E4F9E0178A33
:101CB000168A138E128E1092530910925209DF91D8
:101CC000CF911F910895EF92FF920F931F93CF939F
:101CD000DF93CDB7DEB7C05AD1090FB6F894DEBF97
:101CE0000FBECDBFE0909D01F0909E0160919F01DD
:101CF0007091A001C7010E94D50087E0E9EBF3E0F5
:101D00008E010F5F1F4FD80101900D928A95E1F768
:101D10006DEC79E0C8010E94751BD8010D90002080
:101D2000E9F7119787E0E0ECF3E001900D928A95D6
:101D3000E1F76BEE79E0C8010E94751BD8010D90A8
:101D40000020E9F7119787E0E7ECF3E001900D92AE
:101D50008A95E1F769E07AE0C8010E94751BF801F5
:101D600001900020E9F7319783E290E0918380832E
:101D7000C8010E94EA1684EF91E00E940617F092D3
:101D80001A0DE092190DB701C8010E94B700C056A4
:101D9000DF4F0FB6F894DEBF0FBECDBFDF91CF91FE
:101DA0001F910F91FF90EF9008958F929F92AF92A5
:101DB000BF92CF92DF92EF92FF920F931F93CF9338
:101DC000DF93CDB7DEB7C154D7400FB6F894DEBF6E
:101DD0000FBECDBF6EEC73E086E19AE00E94921BCD
:101DE000892B09F425C16AED73E086E19AE00E942F
:101DF000921B0197FC018081C05CD84F8883C0543E
:101E0000D740CF5BD84F1882C154D74084EF91E0C0
:101E1000FDD77E01F7E1EF1AFCEFFF0A83E7E3EE5F
:101E2000F3E0D70101900D928A95E1F7D7010D906B
:101E30000020E9F711978BE1E6E5F4E001900D92BF
:101E40008A95E1F7D7010D900020E9F711978BE310
:101E5000E1E7F4E001900D928A95E1F7D7010D904A
:101E60000020E9F7119785E1ECEAF4E001900D928A
:101E70008A95E1F7D7010D900020E9F7119784E1E9
:101E8000E1ECF4E001900D928A95E1F768ED7CE0D9
:101E9000C7010E94751BD7010D900020E9F711972B
:101EA00080E5E5EDF4E001900D928A95E1F76DECA7
:101EB00079E0C7010E94751BD7010D900020E9F75A
:101EC000119787E0E5E2F5E001900D928A95E1F740
:101ED000D7010D900020E9F711978FE4ECE2F5E0CF
:101EE00001900D928A95E1F76BEE79E0C7010E94AF
:101EF000751BD7010D900020E9F7119787E0E5E207
:101F0000F5E001900D928A95E1F7D7010D90002040
:101F1000E9F7119781E4EBE7F5E001900D928A95DE
:101F2000E1F769E07AE0C7010E94751BD7010D90C7
:101F30000020E9F7119787E0E5E2F5E001900D92C6
:101F40008A95E1F7D7010D900020E9F7119783E416
:101F5000ECEBF5E001900D928A95E1F764E679E00B
:101F6000C7010E94751BD7010D900020E9F711975A
:101F700087E0E5E2F5E001900D928A95E1F7D7015F
:101F80000D900020E9F711978AE2EFEFF5E001905C
:101F90000D928A95E1F7D7010D900020E9F711978E
:101FA0008FE0E9E2F6E001900D928A95E1F7F70102
:101FB00001900020E9F7CF0101972CE5E8E3F6E076
:101FC0008E010F5F1F4FD80101900D922A95E1F706
:101FD0004AE0BE01655C784F8E199F090E94D31BB1
:101FE000BC01C8010E94751BD8010D900020E9F7C3
:101FF000119788E1E4E9F6E001900D928A95E1F706
:10200000B701C8010E94751BBE01605C784FC80112
:102010007DDA63E070E088E092E001D90E94E01888
:10202000E0E4F9E0138A128A84EB90E0918B808BD4
:102030006CEA76E086E19AE00E94921B892B09F413
:102040003AC161EB76E086E19AE00E94921B892B0F
:1020500009F431C182E390E0D9D66AEB76E086E1FB
:102060009AE00E94921B7C01892B81F14DE150E0A6
:1020700060E270E08DEC99E00E946E1BF7018581B3
:102080008632A1F08D30A9F08A3009F00BC114C05E
:102090009191963299F09D3089F09A3079F02F5FC6
:1020A0003F4F9D932E31310599F708C020E030E075
:1020B00005C020E030E002C020E030E0F901E35349
:1020C000F64F1082AA24A394B12C02C0A12CB12CEB
:1020D00061EB76E086E19AE00E94921B7C01892BFD
:1020E00079F14DE150E060E270E08BEE99E00E9402
:1020F0006E1BF70181858632A1F08D30A9F08A3000
:1021000009F0C7C014C09191963299F09D3089F0C2
:102110009A3079F02F5F3F4F9D932E31310599F71B
:1021200008C020E030E005C020E030E002C020E040
:1021300030E0F901E551F64F1082FFEFAF1ABF0A08
:102140006FEB76E086E19AE00E94921B7C01892B7E
:1021500079F149E050E060E270E089E09AE00E94A5
:102160006E1BF70184818632A1F08D30A9F08A3090
:1021700009F086C014C09191963299F09D3089F093
:102180009A3079F02F5F3F4F9D932A30310599F7B0
:1021900008C020E030E005C020E030E002C020E0D0
:1021A00030E0F901E75FF54F1082FFEFAF1ABF0A89
:1021B0006CEA76E086E19AE00E94921B6C01892B22
:1021C00009F445C043E650E060E270E084E699E03F
:1021D0000E946E1BF60115811D3069F11A3071F1F4
:1021E000F6E0CF0ED11C0F2EF4E68F2EF9E09F2ED5
:1021F000F02DE12CF12C07C0F60111916F011D307B
:10220000F9F01A30E9F0812F90E00E94641B892BCD
:1022100039F4812F90E0C0970A9710F01E3281F4B4
:10222000FFEFEF1AFF0AF40111934F01F4E6EF16E6
:10223000F10411F705C0E12CF12C02C0E12CF12CC6
:10224000F701EC59F64F10828FEFA81AB80AE4E0B4
:10225000AE16B10499F437DDE0E4F9E0138A128A8E
:10226000118A108A1092150A1092130A83EC96E0D4
:10227000B1D58091B5039091B603B2D6A1D71BC05A
:102280008093090AF7013596AAE0BAE021E030E030
:1022900072CF8093EB09F7013A96ACEEB9E021E0FA
:1022A00030E031CF8093CD09F7013696AEECB9E03E
:1022B00021E030E0EDCECF5BD84F0FB6F894DEBF13
:1022C0000FBECDBFDF91CF911F910F91FF90EF9087
:1022D000DF90CF90BF90AF909F908F9008953F92E6
:1022E0004F925F926F927F928F929F92AF92BF9226
:1022F000CF92DF92EF92FF920F931F93CF93DF93D2
:10230000CDB7DEB7AD970FB6F894DEBF0FBECDBF29
:10231000762E542EA62EB12CE82EF12CB501C70135
:102320000E943902019739F4ECEFF8E0C680D780BB
:102330008480958004C0812C912CC12CD12C0AE082
:1023400010E06090900360E070E0C701D1D4862D6A
:102350000AD5872D08D5482E21E0C216D10421F4D4
:1023600081E001D5382E03C0852DFDD4382E61E0E3
:1023700070E0C701BDD4232D30E0240D311D2E3077
:10238000310509F487C082E390E040D5015011097E
:10239000D1F685C088EE93E09C01829EC001839EA9
:1023A000900D929E900D112431D50AE010E090908E
:1023B000900360E070E0C7019BD4892DD4D4872DB1
:1023C000D2D4C82E80E0CFD4D82E61E070E0C7010F
:1023D0008FD42D2D30E02C0D311D2E30310539F0EC
:1023E00082E390E013D50150110919F75CC085E133
:1023F000E3EDF6E08E010F5F1F4FD80101900D92C3
:102400008A95E1F74AE0BE01675D7F4FC7010E94F0
:10241000D31BBC01C8010E94751BF801019000206C
:10242000E9F731970F2EFBE3EF2EF12CF02DF1821F
:10243000E0824AE0BE01675D7F4FC5010E94D31B69
:10244000BC01C8010E94751BF80101900020E9F74A
:102450003197F182E0824AE0BE01675D7F4F852DB2
:1024600090E00E94D31BBC01C8010E94751BF801BB
:1024700001900020E9F731978BE39AE0A0E0808398
:102480009183A2836091A9017091AA01C8010E9461
:102490001F0A09C0CA94CD2809F0A9CF7BCFCA94DE
:1024A000CD2809F477CFAD960FB6F894DEBF0FBEF6
:1024B000CDBFDF91CF911F910F91FF90EF90DF90F3
:1024C000CF90BF90AF909F908F907F906F905F90D4
:1024D0004F903F900895EF92FF920F931F93CF93E9
:1024E000DF9368EE76E086E19AE00E94921B009707
:1024F00009F44CC06EEB73E00E946B1B6EEB73E053
:1025000080E090E00E946B1B0E94451B8C016EEBEB
:1025100073E080E090E00E946B1B0E94451BEC0181
:102520006EEB73E080E090E00E946B1B0E94451B05
:102530007C01482F6C2F802FD2DE043011052CF542
:10254000CD30D10514F5EA94EF2889F42DE0209FD1
:10255000C001219F900D1124C80FD91FCC0FDD1F82
:10256000C650D84F81E090E0998388830EC02DE05B
:10257000209FC001219F900D1124C80FD91FCC0F9F
:10258000DD1FC650D84F198218821AD6DF91CF911D
:102590001F910F91FF90EF900895CF93DF9364EF19
:1025A00076E086E19AE00E94921B892B09F46EC0C6
:1025B000109257091092560968EF76E086E19AE08A
:1025C0000E94921B892BE9F010921D0D87E097E085
:1025D00001D4C0919F01D091A0016091A10170919F
:1025E000A201CE010E94D500D0931A0DC093190DFF
:1025F0006091A9017091AA0185E192E00E941F0AF1
:1026000056C063E177E086E19AE00E94921B892B35
:10261000E9F080919F019091A00190931A0D809311
:10262000190D81E080931D0DC091A901D091AA01DF
:10263000BE0185E192E00E941F0A84EF91E0E6D39B
:10264000BE0189E197E00E941F0A31C060E377E094
:1026500086E19AE00E946B1B60E377E080E090E007
:102660000E946B1BC9E1DDE0688179810E94B7009F
:10267000998388838AE090E0C9D36091A901709121
:10268000AA0185E192E00E941F0A9AD562E377E0F1
:1026900086E19AE00E94921B892B49F06091A90182
:1026A0007091AA0189E397E00E941F0A89D5DF9102
:1026B000CF9108952F923F924F925F926F927F92A7
:1026C0008F929F92AF92BF92CF92DF92EF92FF9242
:1026D0000F931F93CF93DF93CDB7DEB7A3970FB6BA
:1026E000F894DEBF0FBECDBFE0E4F9E0228D338D5C
:1026F000808D918D281739070CF41DC14AE0BE0169
:10270000615E7F4F80915609909157090E94D31BBB
:102710000F2EF6EFEF2EFCE0FF2EF02D00E010E084
:1027200088248394912C212C309092034090910323
:102730000F2EFBE16F2EFDE07F2EF02D89E497E058
:1027400049D34AE0BE016F5F7F4FC8010E94D31B8F
:10275000CE0101963FD38AEF91E03CD35701D701D8
:1027600058968D919C91599716D44AE0BE016F5F9F
:102770007F4F90E00E94D31BCE0101962BD38AEAB3
:1027800096E028D3F701808D918D05D4811126C064
:10279000D70150968D919C915197892B09F4ADC02A
:1027A0001DC060E070E0C801A3D2832DDCD2842D6F
:1027B000DAD2582EB401C8019BD28EEF850D8C3F22
:1027C00028F0B1E0CB1AD10861F7512C852D90E0AB
:1027D000F50191838083D3018D929C92F501808DC8
:1027E000918DD9D3882341F0D50150968D919C913C
:1027F0005197019709F48FC00F5F1F4FB2E0EB0EA6
:10280000F11C0430110509F099CF80911B0D9091B6
:102810001C0D019709F06CC010921C0D10921B0D3D
:102820008091150A882309F463C082E1E6E0F1E0B3
:10283000DE01119601900D928A95E1F7FE017396E3
:102840008CE0DF011D928A95E9F70F2EFEEFEF2E47
:10285000FCE0FF2EF02D00E010E072976F010F2ECC
:10286000FAE38F2E912CF02D0F2EFBE3AF2EB12C1F
:10287000F02DD7018D919D917D01019719F54AE0C9
:10288000BE01615E7F4FC8018ED7BC01C6012DD746
:10289000F60101900020E9F73197918280824AE0A9
:1028A000BE01615E7F4FF7013A97808191817BD7AE
:1028B000BC01C6011AD7F60101900020E9F7319753
:1028C000B182A0820F5F1F4F0430110591F6CE0137
:1028D0000196FC0101900020E9F731972AE030E0F1
:1028E000318320836091A9017091AA010E941F0A7F
:1028F00010925B0910925A091EC084EF91E086D2B3
:10290000F70191868086918A808A0F2EF5E0CF2E7E
:10291000F02DD22C46CF84EF91E078D2D5011996D4
:102920001C921E92189751961C921E925097F3017A
:102930009182808261CFA3960FB6F894DEBF0FBE5E
:10294000CDBFDF91CF911F910F91FF90EF90DF905E
:10295000CF90BF90AF909F908F907F906F905F903F
:102960004F903F902F900895E0E4F9E02689378951
:10297000848995892817390704F18091150A8823DD
:10298000C1F06091A9017091AA0180E597E00E94D1
:102990001F0A63E070E087E597E00E940F09892B2A
:1029A00041F48091AF038093150A8093130A8093BA
:1029B000140A109257091092560908952F923F92C7
:1029C0004F925F926F927F928F929F92AF92BF923F
:1029D000CF92DF92EF92FF920F931F93CF93DF93EB
:1029E00000D000D0CDB7DEB7E0E4F9E0268D378D1A
:1029F000848D958D281739070CF4BCC080911D0D6E
:102A0000813009F0B7C00E94F20482E698E09A8310
:102A1000898300E010E0612C0F2EF9E14F2EFDE0DC
:102A20005F2EF02D20909F013090A001E090B10327
:102A3000F090B20390C0DC82CB82D60112968D91C9
:102A40009C9113978E3F910509F470C0EFEAF3E073
:102A50007080D2012D923C9206C00E9447078E15CD
:102A60009F0509F4782EEB81FC8162817381C80196
:102A70000E94DA05892B89F7772079F10430110556
:102A80000CF054C0FDE0AF16B1040CF04FC0AB81A8
:102A9000BC8112966D917C911397F401E60FF71F9C
:102AA000EE0FFF1FE650F84F80819181892B09F0CE
:102AB0003DC041E0802F13DCAB81BC811296ED91CB
:102AC000FC911397E80DF91DEE0FFF1FE650F84F2C
:102AD00081E090E09183808329C00430110534F5B2
:102AE0009DE0A916B10414F5AB81BC8112966D91DD
:102AF0007C911397F401E60FF71FEE0FFF1FE650CE
:102B0000F84F80819181019789F440E0802FE7DBC5
:102B1000AB81BC811296ED91FC911397E80DF91DE4
:102B2000EE0FFF1FE650F84F11821082BFEFAB1A75
:102B3000BB0AE2E0CE0ED11CFDE0AF16B10409F0F5
:102B40007ACF0F5F1F4F89819A814C969A83898330
:102B50000430110559F0C980DA80A62CB12C9DE013
:102B6000909F4001919F900C112465CF10925F09B6
:102B700010925E090F900F900F900F90DF91CF9100
:102B80001F910F91FF90EF90DF90CF90BF90AF908B
:102B90009F908F907F906F905F904F903F902F907D
:102BA00008958091A5019091A601892B79F1E0E427
:102BB000F9E022A133A180A191A12817390734F1AE
:102BC00017D38CE597E014D18CE291E01FD167E632
:102BD00077E08AE09CE0A6D5892BA1F462E777E054
:102BE0008AE09CE09FD5892B69F402D38DE797E0BA
:102BF000FFD068E072E08AE09CE094D5892B09F070
:102C0000B2D1B1D11092630910926209089508956A
:102C100068E977E08AE09CE085D5009791F067E469
:102C200073E0069658D5BC018FE19DE074D56AEA41
:102C300076E080E090E04FD568E273E080E090E0DD
:102C40004AC508950F931F93CF93DF93CDB7DEB797
:102C5000C85CD1090FB6F894DEBF0FBECDBF6FE9D7
:102C600077E08AE09CE05ED5892B21F1C1D281E03A
:102C700080931E0D84EA97E0BBD088EE93E0C6D027
:102C8000C7DF8C018FE19DE00E94F001882391F065
:102C900060EB77E0C80146D5892B61F087E0E5EB72
:102CA000F7E0DE01119601900D928A95E1F78CEB29
:102CB00097E09ED080911E0D882371F08DE797E0FC
:102CC00097D084EF91E0A2D085EC97E091D084EF8B
:102CD00091E09CD010921E0DC853DF4F0FB6F894B0
:102CE000DEBF0FBECDBFDF91CF911F910F91089531
:102CF0001F93CF93DF93EC01162F84E690E086D0EC
:102D0000C130D10589F01CF4CD2B39F021C0C2307F
:102D1000D10589F02397B1F01BC0612F80919501F7
:102D200090919601EED014C0612F80919301909103
:102D30009401E7D00DC0612F809191019091920193
:102D4000E0D006C0612F80918F0190919001D9D081
:102D500084E690E05BD0DF91CF911F91089581E5EB
:102D60008CBD1EBC08958EBD0DB407FEFDCF8EB583
:102D700008952091B7032093C4009091B8039093D5
:102D8000C50088E98093C1002093CC009093CD00CA
:102D90008093C90078940895E8ECF0E0908195FF65
:102DA000FDCF8093CE000895CF93DF93EC0188810F
:102DB000882329F02196F0DF89918111FCCFDF91E2
:102DC000CF910895E0ECF0E0908195FFFDCF8093E6
:102DD000C6000895CF93DF93EC018881882329F002
:102DE0002196F0DF89918111FCCFDF91CF91089579
:102DF0002091A3013091A4012115310511F4EACFEE
:102E000008952130310509F4CFCF08951816190619
:102E100044F4E3ECF9E03197F1F700C000000197CA
:102E2000C1F7089501978C32910508F069C0835B62
:102E30009F4FFC01F4C2613011F4259A0895259842
:102E40000895613011F4269A089526980895613006
:102E500011F4279A089527980895613011F4549A2F
:102E6000089554980895613011F4559A089555982D
:102E70000895613011F4569A089556980895613076
:102E800011F4579A089557980895613011F4399ABA
:102E9000089539980895613011F43A9A08953A984E
:102EA0000895613011F43B9A08953B98089561307C
:102EB00011F43C9A08953C980895613011F43D9ABC
:102EC00008953D980895613011F4209A089520984E
:102ED0000895613011F4219A089521980895613080
:102EE00011F4229A089522980895613011F4239ADA
:102EF000089523980895613011F4249A0895249830
:102F000008950D978E31910568F587589F4FFC0104
:102F100086C2613011F45C9A08955C98089561301E
:102F200011F45D9A08955D980895613011F45E9AE8
:102F300008955E980895613011F45F9A08955F983E
:102F40000895613011F4289A089528980895613001
:102F500011F4299A089529980895613011F42A9A54
:102F600008952A980895CF93DF93C0919901D09145
:102F70009A0161E0CE01C5DF2FE784E89EE1215090
:102F800080409040E1F700C0000060E0CE01B9DF72
:102F9000DF91CF91089586319105A1F034F4843109
:102FA000910551F0459759F019C08831910581F08C
:102FB00064F08B9781F012C086B18270089586B15B
:102FC0008470089586B18870089586B180710895DF
:102FD00086B18072089583B18870089580E0089565
:102FE0002091A7013091A801232B51F02091B50326
:102FF0003091B6038217930719F48093160D089544
:103000002091A5013091A601232B51F02091B3030B
:103010003091B4038217930719F48093160D089525
:103020008FEF8093160D0895E0E4F9E0118210828D
:1030300013821282158214821186108613861286DC
:103040001586148617861686E6EFFCE08EEF9CE068
:10305000119211921782168217861686E817F907C1
:10306000B9F7EAEFF7E022E638E009C011921192D1
:10307000E817F907D9F7FC012817390719F0CF012C
:103080004A96F4CFE8EDFCE010921C0D10921B0D57
:1030900080918D0190918E0197AB86AB80918B01D1
:1030A00090918C0191AF80AF8091890190918A01BC
:1030B00093AF82AF809187019091880195AF84AFE3
:1030C0001092180D1092170D10921A0D1092190DE2
:1030D00081E080931D0D67EB71E084E699E01BD3DE
:1030E00062EB71E088EC99E016D38091AF03809396
:1030F000130A8093140A8093150A24EF31E0E6E165
:10310000FAE0DF01A9011D9241505040E1F798EC2F
:10311000EAE0FCE0DF011D929A95E9F78093D20C7A
:103120008093D30C1092D50C1092D40C1092D70C23
:103130001092D60CE0E4F9E0138A128A8AE090E05B
:10314000918B808B178A168A8EE190E0958B848B09
:10315000138E128E25E030E0318F208F178E168E61
:10316000958F848F13A212A284EB90E091A380A389
:1031700085E0EAEDF7E0A8EDBCE001900D928A95BC
:10318000E1F78FE0E7EEFCE0DF011D928A95E9F7B9
:1031900021E030E042E352E06FE070E088ED9CE037
:1031A0000E94FB00811109C085E0EAEDF7E0A8ED7F
:1031B000BCE001900D928A95E1F70C946B040895A0
:1031C0008091160D90E02091B5033091B6038217DF
:1031D000930769F443EF51E060E270E086E19AE022
:1031E0007DD21092D20C1092D50C1092D40C08956E
:1031F00047EC50E060E270E08AE09CE06FD2109211
:10320000D30C1092D70C1092D60C089585B581601E
:1032100085BD16BCEEE6F0E0808181608083089574
:10322000CF93DF938091A5019091A601892B41F165
:103230008091B3039091B403D3DE8DE797E0D8DD9E
:1032400084EF91E0E3DD68E072E08AE09CE06AD21E
:10325000892B21F488DE88E893E1D8DD82E897E0C5
:10326000C7DD84EF91E0D2DD8FED97E0C1DD84EF23
:1032700091E0CCDD8BEE97E0BBDD84EF91E0C6DD25
:103280008091A7019091A801892BB1F0C09197017D
:10329000D0919801DD2761E0CE0133DE84EF91E02B
:1032A000B5DD60E0CE012DDE88EE93E0AFDD8091EC
:1032B000B5039091B60394DEDF91CF910895CF933B
:1032C000DF938091A7019091A801892B39F060913B
:1032D00093038091970190919801A4DD8091A501BD
:1032E0009091A601892B39F0609193038091990107
:1032F00090919A0197DDC09193036C2F8091950175
:10330000909196018FDD6C2F8091930190919401A3
:1033100089DD6C2F809191019091920183DD6C2F5A
:1033200080918F01909190017DDDD09195036D2F5B
:1033300080918D0190918E0175DD6D2F80918B01B3
:1033400090918C016FDD6D2F8091890190918A01A0
:1033500069DD6D2F809187019091880163DD6C2F6D
:1033600080918501909186015DDD6C2F80918301B4
:103370009091840157DD6D2F8091810190918201A0
:1033800051DD6C2F80917F01909180014BDDF1DC4C
:1033900084E690E03BDDE3DCDF91CF9108958FDFA1
:1033A00043DE34DF3DCF0895CF938091D20C81303E
:1033B00069F4C091160D84E690E028DD8CD8EDD834
:1033C0000E94D50EC093160D1092D20C8091D30C92
:1033D000813071F4C091160D8091B3039091B403C4
:1033E000FFDD15DC2FDC04DF1092D30CC093160D2B
:1033F000CF9108955FD9B8DAE1DAD3CB0895CFDF62
:10340000C0E0D0E0CE010DD2DDDC2196C83E83E0E5
:10341000D807C1F70E94B80DC7DFECDFFBCFEE0F76
:10342000FF1F0024001C0BBE0790F691E02D0994AD
:10343000CF93DF938230910510F482E090E0E09129
:103440002E0DF0912F0D20E030E0C0E0D0E030975D
:1034500011F14081518148175907C0F048175907A9
:1034600061F482819381209719F09B838A832BC01A
:1034700090932F0D80932E0D26C02115310519F044
:103480004217530718F49A01BE01DF01EF010280D1
:10349000F381E02DDCCF2115310509F1281B390B13
:1034A0002430310590F412968D919C9113976115FB
:1034B000710521F0FB019383828304C090932F0D4B
:1034C00080932E0DFD01329644C0FD01E20FF31FE3
:1034D00081939193225031092D933C933AC02091CE
:1034E0002C0D30912D0D232B41F4209102013091B0
:1034F000030130932D0D20932C0D2091000130916C
:1035000001012115310541F42DB73EB74091040169
:1035100050910501241B350BE0912C0DF0912D0DE0
:10352000E217F307A0F42E1B3F0B2817390778F09A
:10353000AC014E5F5F4F2417350748F04E0F5F1FF9
:1035400050932D0D40932C0D8193919302C0E0E098
:10355000F0E0CF01DF91CF9108950F931F93CF93A8
:10356000DF93009709F48CC0FC013297138212821A
:1035700000912E0D10912F0D0115110581F4208160
:103580003181820F931F20912C0D30912D0D281722
:10359000390779F5F0932D0DE0932C0D71C0D8010A
:1035A00040E050E0AE17BF0750F412962D913C91C9
:1035B0001397AD012115310509F1D901F3CF9D0113
:1035C000DA013383228360817181860F971F82170E
:1035D000930769F4EC0128813981260F371F2E5F8C
:1035E0003F4F318320838A819B8193838283452B44
:1035F00029F4F0932F0DE0932E0D42C01396FC9307
:10360000EE931297ED01499159919E01240F351FB8
:10361000E217F30771F480819181840F951F029660
:1036200011969C938E938281938113969C938E9393
:103630001297E0E0F0E0D80112968D919C911397DB
:10364000009719F0F8018C01F6CF8D919C919801AB
:103650002E5F3F4F820F931F20912C0D30912D0D27
:103660002817390769F4309729F410922F0D10921A
:103670002E0D02C01382128210932D0D00932C0D7B
:10368000DF91CF911F910F910895FC018827992711
:10369000E89421912032E9F3293010F02E30C8F35C
:1036A0002B3239F02D3231F4689403C086D0820F6A
:1036B000911D219120532A30C8F31EF490958195D5
:1036C0009F4F089585FD9AC08062911197C08156E1
:1036D0008A51E0F7089548EF57E03EC0DC0101C091
:1036E0006D9341505040E0F70895FB01DC010D90CF
:1036F0000020E9F7119701900D920020E1F708955D
:10370000FC018191861721F08823D9F79927089524
:103710003197CF010895FB01DC0101900D9200204B
:10372000E1F70895FB0151915523A9F0BF01DC0198
:103730004D9145174111E1F759F4CD010190002059
:1037400049F04D9140154111C9F3FB014111EFCFF3
:1037500081E090E001970895FA01A191B08100976E
:1037600019F41097E1F0CD01DC01CD010D9000209E
:1037700011F4C00113C0FB012191222319F020157F
:10378000D9F7F3CFFB012191201519F41E92119660
:1037900006C02223C1F70D900020A1F7D001FA0145
:1037A000A193B0830895BB274A3031F4992322F4C2
:1037B000BDE2909581959F4F09C07AE0979F902D2B
:1037C000879F802D910D11240895BB27FB0155275C
:1037D000AA27880F991FAA1FA41710F0A41B83956E
:1037E0005051B9F7A05DAA3308F0A95DA1930097E5
:1037F00079F7B111B1931192CB0103C099278827B2
:103800000895DC01FC01672F71917723E1F732976E
:1038100004C07C916D9370836291AE17BF07C8F3AB
:103820000895F999FECF92BD81BDF89A992780B588
:103830000895262FF999FECF1FBA92BD81BD20BDF4
:103840000FB6F894FA9AF99A0FBE01960895F89473
:02385000FFCFA8
:103852000000300D200052454C4159434F4E4E4519
:103862004354494F4E533B0000000000000000004B
:103872000000000041444D494E0055534552005549
:103882005352005549004341004D490052490049F5
:103892004D005541005253004E5300484F5354318E
:1038A20000504F52543100484F53543200504F523F
:1038B20054320053534944005057440041504E0083
:1038C2005453005449005357004554004557002CA7
:1038D2000002000100030018001700160015001076
:1038E200000F000E000D002900280000001400B493
:1038F20000001001000100010000006F6E6C696E93
:10390200650032303838003139322E3136382E30B7
:103912002E32370037374C6437637237645700549E
:10392200617264697300746573742070726F647578
:1039320063742031004552524F52004661696C0057
:1039420041542B43495053454E443D0041542B436F
:10395200495053454E440D004F4B0054494D4500CC
:1039620054494D45204F4B0A0053455249414C5F43
:103972004E554D4245520023002353455249414C76
:103982003B0053455249414C005245515545535411
:103992005F53455249414C5F4E554D4245523B00A3
:1039A20041542B534C4545503D320D0A0041542B96
:1039B2004349504D55583D310D0A0041542B435750
:1039C2004D4F44453D330D0A0041542B435753415B
:1039D200503D2248434D2D4E4554574F524B222CB9
:1039E2002261646D696E31323334222C352C330DF1
:1039F2000A0041542B4349505345525645523D31DA
:103A02002C38300D0A0041542B434950444F4D414C
:103A1200494E3D226A746563682D696F742E636F27
:103A22006D220D0A0041542B43494653520D0A00A0
:103A320041542B43574A41503D220041542B4349A4
:103A420050534855540D0041542B43474154543D63
:103A5200310D0041542B434744434F4E543D312CCA
:103A6200224950222C220041542B435354543D22CC
:103A720000222C22222C22220D0041542B434949A0
:103A820043520D0A0041542B43495053544152545E
:103A92003D302C22544350222C2200222C0041542F
:103AA2002B43495053544152543D22544350222CEB
:103AB2002200484F535400504F52540041542B435C
:103AC2004950434C4F53453D300D0A007365636FB7
:103AD2006E646172790A0064656661756C740A00CD
:103AE200040201010000001F001C001F001E001F35
:103AF200001E001F001F001E001F001E001F0000EE
:103B020000010000000100400023535349443B00E0
:103B120023235057443B00232341504E3B0047454B
:103B220054202F20485454502F002C434F4E4E45C2
:103B32004354003C68746D6C3E3C686561643E3C75
:103B42006D657461206E616D653D22766965777081
:103B52006F72742220636F6E74656E743D22776992
:103B62006474683D6465766963652D776964746819
:103B72002C20696E697469616C2D7363616C653D9B
:103B8200312E302C206D6178696D756D2D736361F6
:103B92006C653D312E30223E3C2F686561643E3CAF
:103BA200626F64793E003C7469746C653E48434DB3
:103BB20020436F6E736F6C653C2F7469746C653E45
:103BC200003C646976207374796C653D22666F6E81
:103BD200742D73697A653A206D656469756D3B2051
:103BE200746578742D616C69676E3A2063656E74D2
:103BF20065723B223E3C7370616E3E003C666F72A2
:103C02006D206D6574686F643D22504F5354223E9F
:103C1200003C703E3C7374726F6E673E534552496E
:103C2200414C3A20003C2F7374726F6E673E3C2FFA
:103C3200703E3C703E3C7374726F6E673E535349E4
:103C4200443C2F7374726F6E673E3C62723E3C69F5
:103C52006E70757420747970653D22746578742273
:103C6200206E616D653D2273736964222076616CFA
:103C720075653D2200223E3C2F703E003C703E3C6A
:103C82007374726F6E673E50415353574F52443CA8
:103C92002F7374726F6E673E3C62723E3C696E7047
:103CA200757420747970653D2270617373776F72D9
:103CB2006422206E616D653D2270617373776F724D
:103CC20064222076616C75653D22003C703E3C7337
:103CD20074726F6E673E41504E3C2F7374726F6EFA
:103CE200673E3C62723E3C696E70757420747970F6
:103CF200653D227465787422206E616D653D226196
:103D0200706E222076616C75653D22003C703E3CEF
:103D12007374726F6E673E484F53543C2F737472C4
:103D22006F6E673E3C62723E3C696E7075742074C1
:103D32007970653D227465787422206E616D653DEF
:103D420022686F7374222076616C75653D22003C97
:103D5200696E70757420747970653D227375626D39
:103D62006974223E3C2F666F726D3E3C2F73706108
:103D72006E3E3C2F6469763E003C2F626F64793E52
:103D82003C2F68746D6C3E00485454502F312E30D5
:103D920020323030204F4B0D0A436F6E74656E74C3
:103DA2002D547970653A20746578742F68746D6C3F
:103DB2003B20636861727365743D5554462D380D1E
:103DC2000A507261676D613A206E6F2D636163689C
:103DD200650D0A436F6E74656E742D4C656E677463
:103DE200683A20000D0A436F6E6E656374696F6EE8
:103DF2003A20636C6F73650D0A0D0A00686F737465
:103E02000070617373776F72640073736964006129
:103E1200706E0041542B434950434C4F53453D353E
:103E22000D0A004E4F54494649434154494F4E3BB7
:103E32005357495443483B0053574954434852450A
:103E42004C415900434647005B434C4541525F4554
:103E52004550524F4D5D00434C454152494E472E0D
:103E62002E2E005B454E445D004E4F544946494359
:103E72004154494F4E3B555044415445443B0A003E
:103E82002400555044415445005245515545535420
:103E92005F5550444154450A004D4F44554C45002E
:103EA200434845434B0A004C4956450041542B4375
:103EB2005245473F0D0A002B435245473A20302CCA
:103EC20031002B435245473A20302C350041540DE6
:103ED2000A0041542B434D47463D310D0A004154DF
:103EE2002B434D47533D2200554E52454144004D10
:103EF20054493A0041542B434D47523D310D0A007B
:103F0200494E464F00494E464F3A0A00494E464FE7
:103F120020534D530041542B434D4744413D2244CD
:103F2200454C20414C4C220D0A006E756C6C0041D0
:103F3200542B434C54533D310D0A0041542B434CF6
:083F420049503D310D0A000059
:00000001FF
