:1000000096C00000B3C00000B1C00000AFC0000047
:10001000ADC00000ABC00000A9C00000A7C0000038
:10002000A5C00000A3C00000A1C000009FC0000048
:100030009DC000009BC0000099C0000097C0000058
:1000400095C0000093C000000C9430088FC00000E1
:10005000C4C700008BC0000089C0000087C000003A
:1000600085C0000083C0000081C000007FC0000088
:1000700071C700007BC0000079C0000077C000009D
:1000800075C0000073C0000071C00000270B2D0B6D
:10009000330B390B3F0B450B4B0BB11AB71ABD1A7B
:1000A000161B161B161B161B161B161B161B161BC8
:1000B000161BC31AC91ACF1AD51A161B161B161BE4
:1000C000DB1AE11AE71AED1AF31A161B161B161B98
:1000D000161B161B161B161B161B161B161B161B98
:1000E000161B161B161B161BF91AFF1A051B0B1BDA
:1000F000111B1F1B251B2B1B311B481B481B481B9F
:10010000481B481B481B481B481B481B481B481BD7
:10011000481B481B481B481B481B481B481B481BC7
:10012000481B481B481B481B371B3D1B431B112406
:100130001FBECFEFD0E4DEBFCDBF18E0A0E0B1E03E
:10014000ECEFFFE300E00BBF02C007900D92A43A72
:10015000B107D9F72FE0A4EAB8E001C01D92A03D95
:10016000B207E1F70E94DE1D0C94FC1F49CF0F93EC
:100170001F93CF93DF93EB01FC016081662379F03D
:100180008C010F5F1F4FF999FECF2196CE01019789
:100190000E94EE1FF80161918F016111F4CFCE0131
:1001A000DF91CF911F910F910895EF92FF920F93DE
:1001B0001F93CF93DF93EC017B0186179707A4F47D
:1001C000F999FECF0C2F1D2FCE010E94E61F8F3F05
:1001D00059F0F999FECF6FEF802F912F0E94EE1FFB
:1001E0002196CE15DF0564F3DF91CF911F910F911A
:1001F000FF90EF9008952F923F924F925F926F92EF
:100200007F928F929F92AF92BF92CF92DF92EF92A6
:10021000FF920F931F93CF93DF93CDB7DEB7C85FE5
:10022000D1400FB6F894DEBF0FBECDBFDC01213048
:10023000310521F41092AD0F1092AC0F9A012F5F8F
:100240003F4FFA018081882351F0F901812C912CD4
:100250002FEF821A920A91919111FACF02C0812C4C
:10026000912CE090AC0FF090AD0F8091A101909196
:10027000A201E816F9060CF092C01A01C950DE4F2F
:1002800079836883C75FD140CB50DE4FB983A883A1
:10029000C55FD140A12CB12C00E010E0CE01019649
:1002A0006C010F2EF3EF4F2E55245394F02D6090D8
:1002B000A1017090A201F999FECFC7010E94E61F2B
:1002C000833231F491E0AB2809F090E0A92EB12CF3
:1002D00091E0A916B10461F4033FE1E01E0709F4BF
:1002E00060C0F601E00FF11F80830F5F1F4F4EC00B
:1002F000101611060CF04AC0F601E00FF11F108233
:10030000B101C6010E94671F0097C9F1FFEF8F1A64
:100310009F0AFC01E80DF91D20812223E1F0C9505C
:10032000DE4F48815981C75FD14041505109D9F111
:10033000CB50DE4FA881B981C55FD140319680E0B6
:1003400090E003C08417950781F101962D932191C8
:100350002111F8CF02C080E090E0CB50DE4FE88161
:10036000F981C55FD140E80FF91F10822FEFE21A23
:10037000F20AF092AD0FE092AC0F81E017C0F601E7
:10038000C20111920197E9F700E010E09FEFE91A2E
:10039000F90AE614F7040CF48ECF80E007C080E081
:1003A00005C080E003C080E001C080E0C850DE4F9F
:1003B0000FB6F894DEBF0FBECDBFDF91CF911F9176
:1003C0000F91FF90EF90DF90CF90BF90AF909F90F4
:1003D0008F907F906F905F904F903F902F900895F7
:1003E0000F931F93CF93DF93CDB7DEB7C456D109D8
:1003F0000FB6F894DEBF0FBECDBF8C011092AD0FCB
:100400001092AC0F17C0B801CE0101960E94671F71
:10041000892B81F064E271E0CE0101960E94671F92
:10042000892BB1F46AE271E0CE0101960E94671F48
:10043000892B89F420E030E04FE251E064E670E07F
:10044000CE010196D8DE8111DECF80E090E005C0BC
:1004500081E090E002C082E090E0CC59DF4F0FB61F
:10046000F894DEBF0FBECDBFDF91CF911F910F91EA
:1004700008954F925F926F927F928F929F92AF9268
:10048000BF92CF92DF92EF92FF920F931F93CF9381
:10049000DF93CDB7DEB7CE5CD1090FB6F894DEBFDF
:1004A0000FBECDBF5C014B011092AD0F1092AC0F8F
:1004B00008EA19E00F2EF8EC6F2E712CF02D0F2E9C
:1004C000F0EB4F2EF9E05F2EF02DBFC0AE0143538D
:1004D0005F4F6AEB73E0CE0101960E94811F009787
:1004E00009F4A5C0AE0145535F4F6CE876E00E9469
:1004F000811F7C0169E371E00E94671F892B79F0FD
:10050000AE0145535F4F6CE876E080E090E00E94DA
:10051000811F0E941A1FF801918380837CC06CE3C5
:1005200071E0C7010E94671F892B79F0AE01455326
:100530005F4F6CE876E080E090E00E94811F0E94AF
:100540001A1FF8019383828366C064E470E0C701D8
:100550000E94551F892B79F0AE0145535F4F6CE81F
:1005600076E080E090E00E94811F0E941A1FF8014F
:100570009583848350C06FE371E0C7010E94671FB9
:10058000892B79F0AE0145535F4F6CE876E080E04F
:1005900090E00E94811F0E941A1FF80197838683B2
:1005A0003AC062E471E0C7010E94671F892B99F18C
:1005B000AE0145535F4F6CE876E080E090E00E942A
:1005C000811FAE0147535F4F68E073E00E94811FB7
:1005D0000097C1F06201E12CF12CFFEFEF1AFF0A46
:1005E0000E941A1FF601819391936F01AE01475348
:1005F0005F4F68E073E080E090E00E94811F009709
:1006000061F702C0E12CF12CF701EE0FFF1FE0555E
:10061000F64F71826082AE0143535F4F6AEB73E025
:1006200080E090E00E94811F009709F05BCFF80105
:10063000808191818A159B0541F48281938188157F
:10064000990519F481E090E00DC020E030E045E428
:1006500051E067EC70E0CE010196CDDD811136CF1F
:1006600080E090E0C253DF4F0FB6F894DEBF0FBEBC
:10067000CDBFDF91CF911F910F91FF90EF90DF9051
:10068000CF90BF90AF909F908F907F906F905F9032
:100690004F900895AF92BF92CF92DF92FF920F9347
:1006A0001F93CF93DF93CDB7DEB7C65FD1400FB6B0
:1006B000F894DEBF0FBECDBF6C015B011092AD0F91
:1006C0001092AC0F20E030E048E451E064EF71E0BC
:1006D000CE01019690DD882309F451C0AE014B5044
:1006E0005E4F6AEB73E0CE0101960E94811F8C0180
:1006F000892BE9F1F12C6BE471E0C8010E94671FBE
:10070000892B89F06CE876E0C8010E94401F6CE8F4
:1007100076E080E090E00E94401FBC01C6010E948C
:10072000601FF39417C061E571E0C8010E94671F64
:10073000892B81F06CE876E0C8010E94401F6CE8CC
:1007400076E080E090E00E94401FBC01C5010E945D
:10075000601FF394AE014B505E4F6AEB73E080E094
:1007600090E00E94811F8C01892B29F601C0F12C99
:1007700081E090E022E0F21621F080E002C080E00B
:1007800090E0CA50DE4F0FB6F894DEBF0FBECDBF6B
:10079000DF91CF911F910F91FF90DF90CF90BF908D
:1007A000AF900895AF92BF92CF92DF92FF920F93D6
:1007B0001F93CF93DF93CDB7DEB7C65FD1400FB69F
:1007C000F894DEBF0FBECDBF6C015B011092AD0F80
:1007D0001092AC0F20E030E048E451E064EF71E0AB
:1007E000CE01019608DD882309F451C0AE014B50BB
:1007F0005E4F6AEB73E0CE0101960E94811F8C016F
:10080000892BE9F1F12C67E571E0C8010E94671FAF
:10081000892B89F06CE876E0C8010E94401F6CE8E3
:1008200076E080E090E00E94401FBC01C6010E947B
:10083000601FF39417C06DE571E0C8010E94671F47
:10084000892B81F06CE876E0C8010E94401F6CE8BB
:1008500076E080E090E00E94401FBC01C5010E944C
:10086000601FF394AE014B505E4F6AEB73E080E083
:1008700090E00E94811F8C01892B29F601C0F12C88
:1008800081E090E022E0F21621F080E002C080E0FA
:1008900090E0CA50DE4F0FB6F894DEBF0FBECDBF5A
:1008A000DF91CF911F910F91FF90DF90CF90BF907C
:1008B000AF900895CF93DF93EB0169EB71E00E9455
:1008C000601F64EB71E0CE010E94601F81E090E048
:1008D000DF91CF910895CF93DF93CDB7DEB7C456A4
:1008E000D1090FB6F894DEBF0FBECDBF1092AD0F89
:1008F0001092AC0F20E030E043E651E064E670E097
:10090000CE01019678DC882389F0DE011196FD0185
:1009100001900020E9F73197EA1BFB0B7F9760F409
:10092000BD0189E79AE00E94601F06C06AED71E090
:1009300089E79AE00E94601F1092AD0F1092AC0FF1
:1009400020E030E048E651E064E670E0CE01019638
:1009500052DC882389F0DE011196FD010190002010
:10096000E9F73197EA1BFB0B7F9760F4BD0187E93C
:100970009AE00E94601F06C06FEC71E087E99AE080
:100980000E94601F1092AD0F1092AC0F20E030E07B
:100990004CE651E064E670E0CE0101962CDC882341
:1009A00089F0DE011196FD0101900020E9F73197F1
:1009B000EA1BFB0B3B9760F4BD0185EB9AE00E94BC
:1009C000601F06C06DEA71E085EB9AE00E94601F2F
:1009D000CC59DF4F0FB6F894DEBF0FBECDBFDF910D
:1009E000CF9108955F926F927F928F929F92AF9274
:1009F000BF92CF92DF92EF92FF920F931F93CF930C
:100A0000DF93CDB7DEB7CC5CD1090FB6F894DEBF6B
:100A10000FBECDBF40E159E060E879E02EEF30E055
:100A20000AC021933193E817F907D9F7445E5F4F65
:100A30004617570721F0CA014A96FA01F2CF1092E1
:100A4000AD0F1092AC0F6894AA24A2F8B12C812C9F
:100A5000912CC12CD12C0F2EFCE16F2EF02D5524A2
:100A60005394712C78C0AE0145535F4F6AEB73E02D
:100A7000CE0101960E94811F009709F46CC0E12C01
:100A8000F12CAE0147535F4F6CE876E00E94811F66
:100A90008C0169E371E00E94671F892B81F0AE0130
:100AA00047535F4F6CE876E080E090E00E94811F42
:100AB0000E941A1F6C012FEFE21AF20A17C06CE3B2
:100AC00071E0C8010E94671F892B81F0AE01475376
:100AD0005F4F6CE876E080E090E00E94811F0E940A
:100AE0001A1F882E992E8FEFE81AF80AAE01455387
:100AF0005F4F6AEB73E080E090E00E94811F0097F7
:100B000009F0BFCF882D992DA60122E0E216F1044D
:100B100011F52DC0219131912817390709F4A72D1E
:100B2000E617F707B9F7A130B1F4440F551FFA01E2
:100B3000EE0FFF1FEE0FFF1FEE0FFF1FE41BF50B65
:100B4000EA0DFB1DEE0FFF1FE05FF64F91838083E0
:100B5000C50101965C0120E030E040E751E068EC1F
:100B600070E0CE01019647DB81117DCF0CC06C9CFB
:100B7000B0016D9C700D1124FB01E05FF64F665DC6
:100B8000764FA52DC7CFC453DF4F0FB6F894DEBF05
:100B90000FBECDBFDF91CF911F910F91FF90EF90CE
:100BA000DF90CF90BF90AF909F908F907F906F908D
:100BB0005F9008952F923F924F925F926F927F9233
:100BC0008F929F92AF92BF92CF92DF92EF92FF925D
:100BD0000F931F93CF93DF93CDB7DEB7CC56D109D8
:100BE0000FB6F894DEBF0FBECDBF5C014B010F2ED8
:100BF000F6E86F2EF9E07F2EF02D0EEF10E00F2EAD
:100C0000F8E94F2EF9E05F2EF02DAC964FAEAC9781
:100C1000AD965FAEAD97362C272C12C1AE01475969
:100C20005F4F6AEB73E0CE0101960E94811F26EAB6
:100C300039E0F30101931193E217F307D9F728EB99
:100C400039E0F20101931193E217F307D9F7009706
:100C500009F4E5C00F2EFEE7CF2EF9E0DF2EF02DD0
:100C6000AE0149595F4F6CE876E00E94811F7C011C
:100C700069E371E00E94671F892B79F0AE01495941
:100C80005F4F6CE876E080E090E00E94811F0E9458
:100C90001A1FF60191838083B6C06CE371E0C7012F
:100CA0000E94671F892B79F0AE0149595F4F6CE8AC
:100CB00076E080E090E00E94811F0E941A1FF601FA
:100CC00093838283A0C063E771E0C7010E94671F1E
:100CD000892B79F0AE0149595F4F6CE876E080E0EE
:100CE00090E00E94811F0E941A1FF6019583848361
:100CF0008AC060E373E0C7010E94671F892B79F007
:100D0000AE0149595F4F6CE876E080E090E00E94C8
:100D1000811F0E941A1FF6019783868374C066E7BD
:100D200071E0C7010E94671F892B39F1AE01495953
:100D30005F4F6CE876E080E090E00E94811FAE019A
:100D40004B595F4F68E073E00E94811F009709F4E0
:100D50005AC0E32CF22C0E941A1FF7018193919341
:100D60007F01AE014B595F4F68E073E080E090E097
:100D70000E94811F009779F746C069E771E0C701BB
:100D80000E94671F892B79F0AE0149595F4F6CE8CB
:100D900076E080E090E00E94811F0E941A1FF60119
:100DA000918F808F30C06CE771E0C7010E94671F90
:100DB000892B49F1AE0149595F4F6CE876E080E03C
:100DC00090E00E94811FAE014B595F4F68E073E0D5
:100DD0000E94811F0097B9F0AC96EFACAC97AD962E
:100DE000FFACAD970E941A1FF701819391937F0189
:100DF000AE014B595F4F68E073E080E090E00E94E5
:100E0000811F009779F7AE0147595F4F6AEB73E096
:100E100080E090E00E94811F009709F021CF80912F
:100E20007E0990917F098A159B0551F48091800974
:100E3000909181098815990519F481E090E00DC021
:100E400020E030E040E751E064E670E0CE0101963A
:100E5000D2D98111E3CE80E090E0C459DF4F0FB6C4
:100E6000F894DEBF0FBECDBFDF91CF911F910F91E0
:100E7000FF90EF90DF90CF90BF90AF909F908F90BA
:100E80007F906F905F904F903F902F900895EF92DA
:100E9000FF920F931F93CF93DF93ECEEF9E08085E1
:100EA00091852CE3289FB001299F700D1124828524
:100EB0009385680F791F4681578120EA35E0429F6C
:100EC000C001439F900D529F900D1124680F791F10
:100ED000EEE7F9E006811781E08CF18CE6E8F9E0B5
:100EE000A4E9B9E0C0EAD5E0819191918E3F9105E6
:100EF00019F1408951894E3F5105F1F08C9F9001C5
:100F00008D9F300D9C9F300D1124C901800F911FC2
:100F1000681779078CF04C9FC0014D9F900D5C9F26
:100F2000900D11248E0D9F1D681779072CF4809168
:100F3000AD039091AE0307C0EA17FB07A9F68091B5
:100F4000AB039091AC03DF91CF911F910F91FF9074
:100F5000EF9008951F920F920FB60F9211240BB6C7
:100F60000F922F933F934F938F939F93EF93FF9302
:100F70004091CE008091780F9091790F853C91053A
:100F800020F01092790F1092780FE8E7FFE080814F
:100F900091819C012F5F3F4F31832083FC01E455F9
:100FA000F14F40834D3021F04A3011F0411107C01C
:100FB00081E08093750FF901E455F14F1082FF91A4
:100FC000EF919F918F914F913F912F910F900BBE79
:100FD0000F900FBE0F901F9018951F920F920FB693
:100FE0000F9211240BB60F922F933F934F938F9331
:100FF0009F93EF93FF934091C6008091760F90915D
:10100000770F853E934020F01092770F1092760F65
:10101000E6E7FFE0808191819C012F5F3F4F3183A4
:101020002083FC01EC53F54F40834D3021F04A30D2
:1010300011F0411107C081E08093740FF901EC5366
:10104000F54F1082FF91EF919F918F914F913F91BA
:101050002F910F900BBE0F900FBE0F901F90189501
:101060001F920F920FB60F9211240BB60F922F936F
:101070003F934F935F938F939F93AF93BF93EF9360
:10108000FF938091AA0F9091AB0F01968732910543
:1010900029F09093AB0F8093AA0FB0C01092AB0FC2
:1010A0001092AA0FECEEF9E0868597850196978756
:1010B0008687883E934009F04BC0848595850196CC
:1010C0009587848717861686828993892089318936
:1010D000281739072CF001969093FF098093FE0999
:1010E000ECEEF9E086899789248935892817390734
:1010F0002CF001969093030A8093020AECEEF9E03B
:10110000828D938D208D318D281739072CF0019613
:101110009093070A8093060AECEEF9E0868D978D8E
:10112000248D358D281739072CF0019690930B0AE2
:1011300080930A0AECEEF9E082A193A120A131A1EB
:10114000281739072CF0019690930F0A80930E0A06
:101150008091F8099091F909CC9749F4ECEEF9E007
:101160008285938501969387828715861486809160
:10117000F6099091F709CC9749F4ECEEF9E08085F7
:101180009185019691878087138612868091F40954
:101190009091F509489749F4ECEEF9E08481958146
:1011A00001969583848311861086ACEEB9E0129681
:1011B0008D919C911397FC01EE0FFF1FED56FC4F94
:1011C00014964D915C9115972081318142175307F8
:1011D00031F4FD01019693838283158214828091FC
:1011E000EE099091EF090C9749F4ECEEF9E080815B
:1011F000918101969183808313821282FF91EF91F6
:10120000BF91AF919F918F915F914F913F912F919E
:101210000F900BBE0F900FBE0F901F9018956F92FE
:101220007F928F929F92AF92BF92CF92DF92EF9276
:10123000FF920F931F93CF93DF934C01EB010E941A
:101240006F1C88EE93E0C89F8001C99F100DD89F46
:10125000100D112411230CF468C0C0E0D0E00F2E53
:10126000FAE7CF2EFFE0DF2EF02DE090B103F090F3
:10127000B203A090AF03B090B003F60167A4712C45
:101280006E147F0411F5B40184EC9AE00E94671F8C
:10129000892B09F04DC060EF71E084EC9AE00E9468
:1012A000671F892B09F047C066EF71E084EC9AE074
:1012B0000E94671F892B09F041C06BEF71E084EC3D
:1012C0009AE00E94671F892BE1F56A147B04F9F408
:1012D000B4018CEA9EE00E94671F892BA9F560EF9C
:1012E00071E08CEA9EE00E94671F892B81F566EF12
:1012F00071E08CEA9EE00E94671F892B59F56BEF25
:1013000071E08CEA9EE00E94671F892B31F52196DF
:1013100083EC99E00197F1F700C000000C171D075E
:101320000CF0ABCF80E090E01AC080E090E017C0F6
:1013300081E090E014C080E090E011C080E090E097
:101340000EC080E090E00BC081E090E008C080E03B
:1013500090E005C080E090E002C080E090E0DF9186
:10136000CF911F910F91FF90EF90DF90CF90BF90A2
:10137000AF909F908F907F906F900895CF92DF9263
:10138000EF92FF920F931F93CF93DF9300D000D083
:101390001F92CDB7DEB77C016B018091A90F90E061
:1013A0002091B1033091B2038217930749F5F701F9
:1013B0003196D7018C91882341F000E010E00F5F57
:1013C0001F4F81918111FBCF02C000E010E080E04F
:1013D00092E00E94721AC6010E94721A88E093E09D
:1013E0000E94721A4AE0BE016F5F7F4FC8010E94DF
:1013F000A81F0E94721A8FE596E00E94721A04C01C
:101400008CE092E00E94801A63E070E08BEA94E046
:1014100006DF892B41F48091AB038093C30A80934C
:10142000C10A8093C20A8091A90F90E02091B10374
:101430003091B2038217930721F4C7010E94721AF8
:1014400009C0C7010E94801A8AE10E948E1A8DE0AD
:101450000E948E1A0F900F900F900F900F90DF91B7
:10146000CF911F910F91FF90EF90DF90CF90089553
:10147000AF92BF92CF92DF92EF92FF920F931F93A2
:10148000CF93DF9300D000D01F92CDB7DEB77C01A1
:101490009091C30A992309F442C06B01F701319678
:1014A000D7018C91882371F100E010E00F5F1F4F8E
:1014B00081918111FBCFC80101960E94ED1DA82EDC
:1014C000B92EE82FF92F83E28193112354F0D7012D
:1014D00020E030E08D9181932F5F3F4F021713077B
:1014E000CCF74AE0BE016F5F7F4FC6010E94A81F84
:1014F000BC018A2D9B2D42DF63E070E089E192E020
:101500008EDE0DC081E090E00E94ED1DA82EB92E68
:10151000E82FF92F83E2819300E010E0D8CF0F90FD
:101520000F900F900F900F90DF91CF911F910F911F
:10153000FF90EF90DF90CF90BF90AF900895CF9243
:10154000DF92EF92FF920F931F93CF93DF9300D020
:1015500000D01F92CDB7DEB77C016B01FC01319644
:10156000DC018C91882341F000E010E00F5F1F4FF9
:1015700081918111FBCF02C000E010E080E092E099
:101580000E94721AC6010E94721A88E093E00E94BB
:10159000721A4AE0BE016F5F7F4FC8010E94A81F08
:1015A0000E94721A8FE596E00E94721A62E070E063
:1015B0008BEA94E034DE892B41F48091AB03809375
:1015C000C30A8093C10A8093C20A8CE291E00E9410
:1015D0009C1AC7010E94721A63E070E089E192E0F0
:1015E0001EDE0F900F900F900F900F90DF91CF9114
:1015F0001F910F91FF90EF90DF90CF900895EF92A1
:10160000FF920F931F93CF93DF936FE070E08CE115
:1016100092E005DE892B09F463C084E690E00E9425
:101620009C1A6CE172E084EC9AE00E94671F6AEBFE
:1016300073E00E94401F892BA1F547C0FE0131973E
:10164000E730F105B0F5EA5BFF4F0C94E41D0E9412
:101650001A1FF701918380832CC00E941A1FF70183
:101660009383828326C00E941A1FF7019583848387
:1016700020C00E941A1FF701918780871AC00E941C
:101680001A1FF7019387828714C00E941A1FF7015F
:10169000958784870EC00E941A1FF701978386835F
:1016A00008C000E010E00F2EFCEEEF2EF9E0FF2E58
:1016B000F02DE80121968E016AEB73E080E090E066
:1016C0000E94401F009709F0B9CF6091AB01709163
:1016D000AC0181E292E0CCDE0E946F1C81E001C08F
:1016E00080E0DF91CF911F910F91FF90EF900895CF
:1016F0000F931F93CF93DF93CDB7DEB7E2970FB66B
:10170000F894DEBF0FBECDBF6AE272E084EC9AE0CF
:101710000E94671F892BA9F168E372E084EC9AE0CC
:101720000E94401F68E372E080E090E00E94401F4A
:10173000BC018AE79FE00E94601F89E0EAE3F2E0D3
:101740008E010F5F1F4FD80101900D928A95E1F72E
:101750006AE77FE0C8010E944A1FF801019000205B
:10176000E9F7319783E290E09183808360919B0158
:1017700070919C01C8010E94B7000E946F1C81E01B
:1017800001C080E0E2960FB6F894DEBF0FBECDBF79
:10179000DF91CF911F910F9108950F931F93CF93D6
:1017A000DF93CDB7DEB7C456D1090FB6F894DEBFCC
:1017B0000FBECDBF21E030E043E452E06FE070E0C7
:1017C0008AE79FE00E94FB00811132C00E946F1CDB
:1017D00087E1EAE4F2E08E010F5F1F4FD80101902C
:1017E0000D928A95E1F761EE71E0C8010E944A1FEF
:1017F000F80101900020E9F731978AE090E09183A9
:10180000808388EE93E00E949C1A6091AB017091F6
:10181000AC01C8012DDE6FE070E08AE292E0FFDCEF
:1018200084E690E00E949C1A63DF811122C026C0EA
:101830008FE0E2E5F2E08E010F5F1F4FD8010190CB
:101840000D928A95E1F76AE77FE0C8010E944A1F7E
:10185000F80101900020E9F731978BE39AE0A0E0CE
:1018600080839183A2836091AB017091AC01C80128
:10187000FFDD84E690E00E949C1A81E0CC59DF4FA6
:101880000FB6F894DEBF0FBECDBFDF91CF911F9191
:101890000F9108950F931F93CF93DF938C01EB016A
:1018A00081E692E00E94721A63E070E089E192E0C2
:1018B000B6DC80E892E00E94721A63E070E089E191
:1018C00092E0ADDC8BE892E00E94721AC8010E949F
:1018D000721A83E093E00E94721ACE010E94721A7B
:1018E00082EE92E00E94721A6AE070E089E192E072
:1018F00096DC892B19F08091AD0302C08091AB0377
:10190000DF91CF911F910F910895CF93DF93EC0159
:1019100086E992E00E94801A6AE070E089E192E034
:101920007EDC83EA92E00E94801A6AE070E089E13E
:1019300092E075DC81EB92E00E94801A6AE070E030
:1019400089E192E06CDC8EEB92E00E94801ACE017D
:101950000E94801A82EE92E00E94801A6AE070E093
:1019600089E192E05CDC82ED92E00E94801ACE0177
:101970000E94801A8CED92E00E94801A6AE070E06A
:1019800089E192E04CDC86EE92E00E94801A6AE0E7
:1019900070E089E192E043DCEC0180E892E00E9493
:1019A000801A84EF91E00E949C1A81E0CD2B09F40B
:1019B00080E0DF91CF910895CF93C091AD03C093A4
:1019C000C30A1DDE811105C09091AB039093C30A39
:1019D0000DC0E3DE811105C09091AB039093C30A63
:1019E00005C0C093C30A0E946F1C81E0CF91089587
:1019F0000F931F93CF93DF938C01EB010E946F1C19
:101A00002091A90F30E08091B1039091B203281783
:101A1000390791F481EF92E00E94721AC8010E9486
:101A2000721A87E093E00E94721ACE010E94721A25
:101A30008FE596E00E94721A2091A90F30E0809104
:101A4000AF039091B00328173907D9F48AE093E0E7
:101A50000E94801A6AE070E089E192E0E0DB8AE1AE
:101A600093E00E94801AC8010E94801A83E093E0EC
:101A70000E94801ACE010E94801A82EE92E00E949B
:101A8000801A6AE070E089E192E0C9DB21E0019709
:101A900009F020E0822FDF91CF911F910F910895DF
:101AA000AF92BF92CF92DF92EF92FF920F931F936C
:101AB000CF93DF93CDB7DEB768970FB6F894DEBF4C
:101AC0000FBECDBF64E77AE080E19AE00E945A043D
:101AD00064E77AE080E19AE08BDF182F813009F02B
:101AE000BDC061EE71E0CE0101967C010E94601FD5
:101AF000F70101900020E9F731978AE090E09183A7
:101B000080838091AD038093C30A84EF91E00E94AB
:101B10009C1A6091AB017091AC01C701A9DC6AE02D
:101B200070E08EE293E07BDB019709F095C084E6DC
:101B300090E00E949C1A8091A90F90E0A090B103C0
:101B4000B090B2038A159B0541F46EE273E084EC19
:101B50009AE00E94671F6C010EC02091AF03309184
:101B6000B0038217930739F46EE273E08CEA9EE0CB
:101B70000E94671F6C016EE273E0C6010E94671F3E
:101B8000AE01495E5F4F6AEB73E00E94811F0097D0
:101B900009F462C000E0AE014B5E5F4F6AE072E0A4
:101BA0000E94811F7C016EE273E00E94671F892BF7
:101BB00081F0AE014B5E5F4F6AE072E080E090E042
:101BC0000E94811F7C01BC0180E19AE00E94601F9D
:101BD0000F5F63E373E0C7010E94671F892B79F0F1
:101BE000AE014B5E5F4F6AE072E080E090E00E94E1
:101BF000811FBC0184E79AE00E94601F0F5FAE0165
:101C0000495E5F4F6AEB73E080E090E00E94811FC5
:101C1000009709F6023001F58CE291E00E949C1ACF
:101C20008091A90F90E0A816B90629F48AE093E004
:101C30000E94721A14C02091AF033091B003821732
:101C4000930769F486E992E00E94801A6AE070E0E6
:101C500089E192E0E4DA03C010E001C010E0812FD6
:101C600068960FB6F894DEBF0FBECDBFDF91CF915F
:101C70001F910F91FF90EF90DF90CF90BF90AF90AA
:101C800008951F93CF93DF93ECEEF9E02289338917
:101C900080899189281739070CF4AEC02091AD03D3
:101CA0003091AE038091C30A90E08217930709F444
:101CB0009FC0C091AB03D091AC038091A9019091DA
:101CC000AA012817390769F48091B1039091B203F2
:101CD0000E94861B67E97AE089E79AE0DBDD809362
:101CE000C10A8091C10A811112C08091AF03909105
:101CF000B0030E94861B85EB9AE007DE8093C20A40
:101D00009091C10A911103C0882309F45EC01C2F71
:101D100064E77AE080E19AE00E944A03892B89F027
:101D200088E393E00E94801A84EF91E00E949C1A5D
:101D300064E77AE080E19AE05BDE882321F03CDE14
:101D400003C08C2F01C08C2F282F30E0C217D3077F
:101D500081F564E77AE080E19AE00E94D203892B62
:101D6000B1F081E593E00E94801A84EF91E00E9437
:101D70009C1A64E77AE080E19AE03ADE882311F069
:101D80001BDE182F812F90E0C817D90791F488DE49
:101D9000882379F08CE693E00E94801A84EF91E02A
:101DA0000E949C1A64E77AE080E19AE021DE8111CA
:101DB00003DE8091C20A811104C08091C10A882388
:101DC00021F08091C30A81110DC08091FC0990918E
:101DD000FD09893522E092072CF444969093FD0981
:101DE0008093FC09ECEEF9E0178A168A138E128EA6
:101DF0001092FF091092FE09DF91CF911F91089573
:101E0000EF92FF920F931F93CF93DF93CDB7DEB77F
:101E1000C05AD1090FB6F894DEBF0FBECDBFE09017
:101E20009D01F0909E0160919F017091A001C701FA
:101E30000E94D50087E0E5EBF3E08E010F5F1F4FB6
:101E4000D80101900D928A95E1F769E77AE0C8011F
:101E50000E944A1FD8010D900020E9F7119787E0F2
:101E6000ECEBF3E001900D928A95E1F767E97AE0F7
:101E7000C8010E944A1FD8010D900020E9F7119770
:101E800087E0E3ECF3E001900D928A95E1F765EBD2
:101E90007AE0C8010E944A1FF80101900020E9F78A
:101EA000319783E290E091838083F092AD0FE092CE
:101EB000AC0FB701C8010E94B700C056DF4F0FB684
:101EC000F894DEBF0FBECDBFDF91CF911F910F9170
:101ED000FF90EF900895EF92FF920F931F93CF938F
:101EE000DF93CDB7DEB7CF53D7400FB6F894DEBF40
:101EF0000FBECDBFF82E89E08093BF0A6AEC73E075
:101F000084EC9AE00E94671F009731F0FC01848105
:101F10008093BF0A1092C00A84EF91E00E949C1A3D
:101F20008E0107511C4F83E7EFECF3E0D8010190DD
:101F30000D928A95E1F7D8010D900020E9F71197ED
:101F40008BE1E2E4F4E001900D928A95E1F7D8018B
:101F50000D900020E9F711978BE3EDE5F4E0019097
:101F60000D928A95E1F7D8010D900020E9F71197BD
:101F700085E1E8E9F4E001900D928A95E1F7D80156
:101F80000D900020E9F7119784E1EDEAF4E001906B
:101F90000D928A95E1F76AE77FE0C8010E944A1F27
:101FA000D8010D900020E9F7119780E5E1ECF4E00D
:101FB00001900D928A95E1F769E77AE0C8010E94E5
:101FC0004A1FD8010D900020E9F7119787E0E1E161
:101FD000F5E001900D928A95E1F7D8010D9000206F
:101FE000E9F711978BE4E8E1F5E001900D928A950D
:101FF000E1F767E97AE0C8010E944A1FD8010D9015
:102000000020E9F7119787E0E1E1F5E001900D92FA
:102010008A95E1F7D8010D900020E9F7119781E446
:10202000E3E6F5E001900D928A95E1F765EB7AE041
:10203000C8010E944A1FD8010D900020E9F71197AE
:1020400087E0E1E1F5E001900D928A95E1F7F1E09A
:10205000FF120DC0D8010D900020E9F7119781E122
:10206000E4EAF5E001900D928A95E1F70EC0DE01F9
:10207000A751BC4F0D900020E9F7119786E1E5EBE1
:10208000F5E001900D928A95E1F77E0187E1E81A6B
:102090008CEFF80AD7010D900020E9F7119783E241
:1020A000EBECF5E001900D928A95E1F7F7010190D4
:1020B0000020E9F7CF0101972CE5EEEEF5E08E0167
:1020C0000F5F1F4FD80101900D922A95E1F74AE06A
:1020D000BE01655C784F8E199F090E94A81FBC0144
:1020E000C8010E944A1FD8010D900020E9F71197FE
:1020F00088E1EAE4F6E001900D928A95E1F7B701F4
:10210000C8010E944A1F8091BF0A893041F06FEBDD
:102110007AE0C80114DA88EE93E00E949C1A0E94CB
:102120006F1CECEEF9E0138A128A84EB90E0918B3D
:10213000808BC15CD84F0FB6F894DEBF0FBECDBF09
:10214000DF91CF911F910F91FF90EF9008958F92A3
:102150009F92AF92BF92CF92DF92EF92FF920F9336
:102160001F93CF93DF93CDB7DEB7CE52D1400FB6DA
:10217000F894DEBF0FBECDBF62E676E084EC9AE055
:102180000E94671F009709F46BC0AE01435D5E4F6C
:102190006AEB73E00E94811F009709F454C0AE01FE
:1021A0004F5F5F4F6CE876E00E94811F8C0163E611
:1021B00071E00E94671F892B79F0AE014F5F5F4F7E
:1021C0006CE876E080E090E00E94811FBC0189E726
:1021D0009AE00E94601F2BC060E776E0C8010E9471
:1021E000671F892B79F0AE014F5F5F4F6CE876E097
:1021F00080E090E00E94811FBC0187E99AE00E9484
:10220000601F15C06CE671E0C8010E94671F892B32
:1022100071F0AE014F5F5F4F6CE876E080E090E0D8
:102220000E94811FBC0185EB9AE00E94601FAE01F5
:10223000435D5E4F6AEB73E080E090E00E94811F97
:10224000009709F0ACCFDCDDECEEF9E0138A128ADE
:10225000118A108A1092C30A1092C10A0E946F1C40
:1022600069E776E084EC9AE00E94671F892B09F405
:102270005BC089E08093BF0A6AEC73E084EC9AE06B
:102280000E94671F009739F0DC0114968C918093AF
:10229000BF0A1092C00A86E0E8E8F6E08E010F5F00
:1022A0001F4FD80101900D928A95E1F769E77AE016
:1022B000C8010E944A1FD8010D900020E9F711972C
:1022C0008BE0EEE8F6E001900D928A95E1F767E980
:1022D0007AE0C8010E944A1FD8010D900020E9F75A
:1022E000119786E0E9E9F6E001900D928A95E1F711
:1022F00065EB7AE0C8010E944A1FF80101900020B6
:10230000E9F731978AE090E0918380838CE291E055
:102310000E949C1A6FEB7AE0C80111D98CE291E01F
:102320000E949C1A0E946F1C6FE976E084EC9AE090
:102330000E94671F892B11F080E0CDDD6BEA76E00B
:1023400084EC9AE00E94671F892B09F413C189E08D
:102350008093BF0A6AEC73E084EC9AE00E94671FE6
:10236000009731F0FC0184818093BF0A1092C00A6B
:1023700084EF91E00E949C1A68EB76E084EC9AE08E
:102380000E94671F8C01892B89F14DE150E060E2CA
:1023900070E089E79AE00E94431FD80115968C915E
:1023A0008632A1F08D30A9F08A3009F0DAC014C06D
:1023B0009191963299F09D3089F09A3079F02F5FA3
:1023C0003F4F9D932E31310599F708C020E030E052
:1023D00005C020E030E002C020E030E0F901E7581D
:1023E000F54F1082EE24E394F12C02C0E12CF12C85
:1023F0006DEB76E084EC9AE00E94671F8C01892BDC
:1024000079F14DE150E060E270E087E99AE00E94E6
:10241000431FF80181858632A1F08D30A9F08A3002
:1024200009F096C014C09191963299F09D3089F0D0
:102430009A3079F02F5F3F4F9D932E31310599F7F8
:1024400008C020E030E005C020E030E002C020E01D
:1024500030E0F901E956F54F1082FFEFEF1AFF0A5D
:1024600066EC76E084EC9AE00E94671F009709F41E
:1024700047C029E0E5EBFAE0DF011D922A95E9F774
:10248000FC0114811D3081F11A3089F15C01F5E005
:10249000AF0EB11C0F2EF5EB8F2EFAE09F2EF02D14
:1024A000C12CD12C07C0D5011D915D011D3009F152
:1024B0001A30F9F0812F90E00E94391F892B49F4DE
:1024C000812F90E0C0970A9720F083ED810F823032
:1024D00080F4BFEFCB1ADB0AF40111934F01FAE04D
:1024E000CF16D10401F705C0C12CD12C02C0C12CDC
:1024F000D12CF601EB54F54F10822FEFE21AF20ABD
:1025000083E0E816F104F1F48091BF0A8930D1F03C
:1025100084EF91E00E949C1A81E0DDDC71DCECEE3E
:10252000F9E0138A128A118A108A1092C30A109253
:10253000C10A8AEC96E0C8D78091B1039091B203AA
:102540000E94861B88EE93E0F7D70E946F1C12C092
:102550008093970AF8013A96A8E9BAE021E030E0C2
:1025600062CF8093790AF8013696AAE7BAE021E0B3
:1025700030E01ECFC25DDE4F0FB6F894DEBF0FBE57
:10258000CDBFDF91CF911F910F91FF90EF90DF9022
:10259000CF90BF90AF909F908F9008952F923F92D1
:1025A0004F925F926F927F928F929F92AF92BF9263
:1025B000CF92DF92EF92FF920F931F93CF93DF930F
:1025C000CDB7DEB7AD970FB6F894DEBF0FBECDBF67
:1025D000482E742E522EA42EB12CE62EF12CB501CD
:1025E000C7010E943902019739F4E8EAF9E0C68090
:1025F000D7808480958004C0812C912CC12CD12C53
:102600000AE010E060908C0360E070E0C701EAD659
:10261000862D23D7872D21D7382E21E0C216D1044D
:1026200021F481E01AD7282E03C0852D16D7282E35
:1026300061E070E0C701D6D6622D70E0630D711DB8
:102640006E30710531F082E390E076D701501109C8
:10265000D9F6CA94CD2861F588EE93E09C01829E5C
:10266000C001839E900D929E900D112465D70AE0C3
:1026700010E090908C0360E070E0C701B3D6892D24
:10268000ECD6872DEAD6C82E80E0E7D6D82E61E0BA
:1026900070E0C701A7D62D2D30E02C0D311D2E3056
:1026A000310531F082E390E047D70150110919F765
:1026B00031E0431252C085E1EAEDF6E08E010F5F92
:1026C0001F4FD80101900D928A95E1F74AE0BE01B3
:1026D000675D7F4FC7010E94A81FBC01C8010E940F
:1026E0004A1FF80101900020E9F731970F2EFBE314
:1026F000EF2EF12CF02DF182E0824AE0BE01675D01
:102700007F4FC5010E94A81FBC01C8010E944A1F3B
:10271000F80101900020E9F73197F182E0824AE068
:10272000BE01675D7F4F852D90E00E94A81FBC0110
:10273000C8010E944A1FF80101900020E9F7319773
:102740008BE39AE0A0E080839183A2836091AB0148
:102750007091AC01C8010E94380A81E090E0AD960A
:102760000FB6F894DEBF0FBECDBFDF91CF911F91A2
:102770000F91FF90EF90DF90CF90BF90AF909F9020
:102780008F907F906F905F904F903F902F90089523
:102790002F923F924F925F926F927F928F929F9271
:1027A000AF92BF92CF92DF92EF92FF920F931F935F
:1027B000CF93DF93CDB7DEB7C553D1400FB6F894B2
:1027C000DEBF0FBECDBF8091A90F90E0A090B103F6
:1027D000B090B2038A159B0549F46FEE76E084EC65
:1027E0009AE00E94671F009791F467C02091AF03A1
:1027F0003091B0038217930709F070C16FEE76E055
:102800008CEA9EE00E94671F009709F467C16AEB9B
:1028100073E00E94401F6AEB73E080E090E00E944A
:10282000401F0E941A1F3C016AEB73E080E090E0B9
:102830000E94401F0E941A1F2C016AEB73E080E087
:1028400090E00E94401F0E941A1F4C01282F442D27
:10285000662D81E0A3DE24E06216710434F58DE07C
:102860004816510414F58A94892889F48DE0869DD0
:10287000F001879DF00D1124E40DF51DEE0FFF1FF3
:10288000EA55F74F81E090E0918380830EC08DE0A0
:10289000869DF001879DF00D1124E40DF51DEE0FCE
:1028A000FF1FEA55F74F118210820E946F1C809122
:1028B000A90F90E0A816B90649F46BEF76E084EC16
:1028C0009AE00E94671F009791F40CC12091AF031A
:1028D0003091B0038217930709F004C16BEF76E0E3
:1028E0008CEA9EE00E94671F009709F4FBC0AE01CE
:1028F0004C5C5E4F6AEB73E00E94811F2BE1E8E0C5
:10290000F7E0DE01119601900D922A95E1F7892BEF
:1029100009F0B4C0D0C0181419040CF0BDC0AE0149
:102920004E5C5E4F68E073E00E94811F0097E1F10A
:10293000A12CB12C21E0A216B104A9F022E0A2162C
:10294000B104F9F0A114B10409F50E941A1F8C0119
:10295000AE014E5C5E4F68E073E080E090E00E9464
:10296000811F009709F10E941A1F7C01AE014E5C85
:102970005E4F68E073E080E090E00E94811F009766
:1029800099F00E941A1F6C01A22CB32C8FEFA81A89
:10299000B80AAE014E5C5E4F68E073E080E090E004
:1029A0000E94811F009731F62C2D4E2D602F80E064
:1029B000F5DD892BC1F14AE0BE01635D7E4FC801A0
:1029C0000E94A81FBC01C3010E944A1FF30101908D
:1029D0000020E9F73197518240824AE0BE01635DF1
:1029E0007E4FC7010E94A81FBC01C3010E944A1F5D
:1029F000F30101900020E9F73197518240824AE0CB
:102A0000BE01635D7E4FC6010E94A81FBC01C301C9
:102A10000E944A1FF30101900020E9F731978BE3F0
:102A200090E09183808304301105B4F59DE0E916B0
:102A3000F10494F521E0C216D10489F48DE0809F61
:102A4000F001819FF00D1124EE0DFF1DEE0FFF1F11
:102A5000EA55F74F81E090E0918380831DC09DE0AF
:102A6000909FF001919FF00D1124EE0DFF1DEE0FD0
:102A7000FF1FEA55F74F118210820EC0812C912C56
:102A8000CE0101963C010F2EFCE24F2E512CF02D71
:102A90006894222421F8312C9FEF891A990AAE01FB
:102AA0004C5C5E4F6AEB73E080E090E00E94811F17
:102AB000009709F030CFCE010196FC010190002073
:102AC000E9F731972AE030E0318320836091AB0150
:102AD0007091AC010E94380A02D704C08091A90FFE
:102AE00090E0F4CECB5CDE4F0FB6F894DEBF0FBEA5
:102AF000CDBFDF91CF911F910F91FF90EF90DF90AD
:102B0000CF90BF90AF909F908F907F906F905F908D
:102B10004F903F902F9008950F931F93CF93DF9383
:102B2000C091A90FD0E00091B1031091B203C0177A
:102B3000D10751F463E277E084EC9AE00E94671FCA
:102B4000892B09F0A6C085C02091AF033091B00356
:102B5000C217D30709F0B8C063E277E08CEA9EE0C1
:102B60000E94671FB1C067E277E08CEA9EE00E9496
:102B7000671F892B21F10AE71FE0F80116AAC0910F
:102B80009F01D091A0016091A1017091A201CE019D
:102B90000E94D500F801D3ABC2AB6091AB0170913C
:102BA000AC0186E292E00E94380A9CC066E377E0BE
:102BB00084EC9AE00E94671F892B51F425C066E3DC
:102BC00077E08CEA9EE00E94671F892B09F47FC0A2
:102BD000EAE7FFE080919F019091A00193AB82AB67
:102BE00081E086ABC091AB01D091AC01BE0186E221
:102BF00092E00E94380A84EF91E09ED4BE018CE3FB
:102C000097E00E94380A6EC063E577E084EC9AE0B2
:102C10000E94401F63E577E080E090E00E94401F43
:102C2000CAE7DFE06AA97BA90E94B7009BAB8AAB29
:102C30008AE090E081D46091AB017091AC0186E2B2
:102C400092E00E94380A4BD68FA590E0081719072A
:102C500039F465E577E084EC9AE00E94671F0DC0C7
:102C60002091AF033091B00382179307D9F565E542
:102C700077E08CEA9EE00E94671F892B99F16091B2
:102C8000AB017091AC018CE597E00E94380A27D621
:102C900029C01092030A1092020A67E277E084ECDE
:102CA0009AE00E94671F892B09F480CF64CF1092AD
:102CB000030A1092020A8091AF039091B003C817E3
:102CC000D90709F058CF4FCF892B89F707C063E5A3
:102CD00077E08CEA9EE00E94401F9CCF8091A90F74
:102CE00090E0BECFDF91CF911F910F9108952F9269
:102CF0003F924F925F926F927F928F929F92AF928C
:102D0000BF92CF92DF92EF92FF920F931F93CF93D8
:102D1000DF93CDB7DEB7A3970FB6F894DEBF0FBE33
:102D2000CDBFECEEF9E0228D338D808D918D28178B
:102D300039070CF402C14AE0BE01615E7F4F809109
:102D4000020A9091030A0E94A81F0F2EF9E8EF2EA5
:102D5000FFE0FF2EF02D00E010E088248394912CFA
:102D6000212C30908E0340908D030F2EFAE76F2EAA
:102D7000FFE07F2EF02D5701D70158968D919C9141
:102D800059979FD4811124C0F70180899189892B9B
:102D900009F4B3C01DC060E070E0C80123D3832DE7
:102DA0005CD3842D5AD3582EB401C8011BD38EEFA7
:102DB000850D8C3F28F0F1E0CF1AD10861F7512C36
:102DC000852D90E0D5018D939C93F30195AA84AA5B
:102DD000D50158968D919C91599773D4882331F0E1
:102DE000F50180899189019709F499C00F5F1F4F00
:102DF000F2E0EF0EF11C0430110509F0BCCF809118
:102E0000AE0F9091AF0F019709F072C08091C30A85
:102E1000882309F46DC01092AF0F1092AE0F82E1BB
:102E2000E6E0F1E0DE01119601900D928A95E1F75E
:102E3000FE0173968CE0DF011D928A95E9F70F2E53
:102E4000FAE7EF2EFFE0FF2EF02D00E010E0729782
:102E50006F010F2EFAE38F2E912CF02D0F2EFBE336
:102E6000AF2EB12CF02DD70157968D919C9158978C
:102E7000019729F54AE0BE01615E7F4FC8010E94BB
:102E8000A81FBC01C6010E944A1FF6010190002044
:102E9000E9F73197918280824AE0BE01615E7F4FFF
:102EA000F701878590890E94A81FBC01C601F2D74F
:102EB000F60101900020E9F73197B182A0820F5FFF
:102EC0001F4FF2E0EF0EF11C0430110561F6CE0148
:102ED0000196FC0101900020E9F731972AE030E0EB
:102EE000318320836091AB017091AC010E94380A5C
:102EF0001092070A1092060A20C084EF91E01CD3BA
:102F0000D70119969C928E92189751969C928E9208
:102F100050970F2EF5E0CF2EF02DD22C3CCF84EF22
:102F200091E00AD3F50111861086118A108AD30127
:102F3000D5969C928E92D49759CFA3960FB6F894BB
:102F4000DEBF0FBECDBFDF91CF911F910F91FF90DC
:102F5000EF90DF90CF90BF90AF909F908F907F9039
:102F60006F905F904F903F902F900895ECEEF9E0B6
:102F700026893789848995892817390704F1809132
:102F8000C30A8823C1F06091AB017091AC018CE65B
:102F900097E00E94380A63E070E083E797E00E94C0
:102FA0000F09892B41F48091AB038093C30A80936E
:102FB000C10A8093C20A1092030A1092020A08956D
:102FC0002F923F924F925F926F927F928F929F9239
:102FD000AF92BF92CF92DF92EF92FF920F931F9327
:102FE000CF93DF9300D000D0CDB7DEB7ECEEF9E0A1
:102FF000268D378D848D958D281739070CF4C0C028
:103000008091B00F813009F0BBC00E94F2048EE0C5
:1030100099E09A83898300E010E0612C0F2EFAE793
:103020004F2EFFE05F2EF02D20909F013090A001E9
:10303000E090AD03F090AE0394C0DC82CB82D60169
:1030400012968D919C9113978E3F910509F474C04F
:10305000EBEAF3E07080D201D3963C922E92D297A5
:1030600006C00E9447078E159F0509F4782EEB8154
:10307000FC8162817381C8010E94DA05892B89F77E
:10308000772081F1043011050CF056C0FDE0AF1639
:10309000B1040CF051C0AB81BC8112964D915C9192
:1030A0001397F401E40FF51FEE0FFF1FEA55F74FDA
:1030B00080819181892B09F03FC021E0602F81E060
:1030C0006DDAAB81BC811296ED91FC911397E80DFE
:1030D000F91DEE0FFF1FEA55F74F81E090E0918355
:1030E00080832AC0043011053CF59DE0A916B10487
:1030F0001CF5AB81BC8112964D915C911397F40144
:10310000E40FF51FEE0FFF1FEA55F74F8081918105
:10311000019791F420E0602F81E040DAAB81BC811F
:103120001296ED91FC911397E80DF91DEE0FFF1F1C
:10313000EA55F74F11821082BFEFAB1ABB0AE2E0EB
:10314000CE0ED11CFDE0AF16B10409F076CF0F5FB3
:103150001F4F89819A814C969A8389830430110587
:1031600059F0C980DA80A62CB12C9DE0909F4001D7
:10317000919F900C112461CF10920B0A10920A0AB1
:103180000F900F900F900F90DF91CF911F910F91A3
:10319000FF90EF90DF90CF90BF90AF909F908F9077
:1031A0007F906F905F904F903F902F900895809107
:1031B000A7019091A801892B09F437C0ECEEF9E042
:1031C00022A133A180A191A12817390774F1B6D3A8
:1031D00088E797E095D18CE291E0AED163E877E0A3
:1031E0008CEA9EE074D6892BE1F46EE877E08CEAF5
:1031F0009EE06DD6892BA9F4A1D389E997E080D10F
:1032000069E172E08CEA9EE062D6892B09F041D236
:1032100040D28091AB038093C30A8093C10A80930C
:10322000C20A10920F0A10920E0A08950F931F936C
:10323000CF93DF938C01EB0189E997E061D162E0E4
:1032400070E089E192E00E940F098EE997E058D181
:1032500062E070E089E192E00E940F098AEA97E05B
:103260004FD1C8014DD182E259D18DE057D162E0F2
:1032700070E089E192E00E940F09CE0141D18AE11C
:103280004DD18DE04BD162E070E089E192E00E9487
:103290000F09DF91CF911F910F910895089564EB6D
:1032A00077E08CEA9EE013D6009791F063E073E03C
:1032B0000696E6D5BC018FEB9FE002D660E676E08D
:1032C00080E090E0DDD56BEB77E080E090E0D8C562
:1032D00008950F931F93CF93DF93CDB7DEB7C85CEC
:1032E000D1090FB6F894DEBF0FBECDBF6DEB77E00E
:1032F0008CEA9EE0ECD5892B09F456C01FD381E0FF
:103300008093B10F82EC97E0FBD088EE93E014D16C
:10331000C6DF8C018FEB9FE00E94F001882309F447
:1033200043C064E271E0C801D2D5892B59F18BE02A
:10333000EEECF7E0DE01119601900D928A95E1F72F
:103340006FEB7FE0CE010196A5D5BE016F5F7F4F89
:1033500082EB9FE06BDF8EE1E9EDF7E0DE01119695
:1033600001900D928A95E1F762EB7FE0CE01019624
:1033700091D5B8018FEB9FE059DF6FEB7FE082EBD7
:103380009FE09ED567EF77E0C801A1D5892B61F05A
:1033900087E0ECEFF7E0DE01119601900D928A953F
:1033A000E1F783E098E0ACD08091B10F882371F011
:1033B00089E997E0A5D084EF91E0BED08CE098E059
:1033C0009FD084EF91E0B8D01092B10FC853DF4F77
:1033D0000FB6F894DEBF0FBECDBFDF91CF911F9126
:1033E0000F9108951F93CF93DF93EC01162F84E67E
:1033F00090E0A2D0C130D10589F01CF4CD2B39F07A
:1034000021C0C230D10589F02397B1F01BC0612FD4
:1034100080919501909196010AD114C0612F8091FD
:1034200093019091940103D10DC0612F809191017E
:1034300090919201FCD006C0612F80918F019091F4
:103440009001F5D084E690E077D0DF91CF911F9185
:10345000089581E58CBD1EBC08958EBD0DB407FE98
:10346000FDCF8EB508952091B3032093C4009091B1
:10347000B4039093C50088E98093C1002093CC00E9
:103480009093CD008093C90078940895E8ECF0E023
:10349000908195FFFDCF8093CE000895CF93DF9369
:1034A000EC018881882329F02196F0DF8991811130
:1034B000FCCFDF91CF910895E0ECF0E0908195FF93
:1034C000FDCF8093C6000895CF93DF93EC018881F0
:1034D000882329F02196F0DF89918111FCCFDF91BB
:1034E000CF9108952091A5013091A60121153105B4
:1034F00011F4EACF08952130310509F4CFCF0895B2
:103500002091A3013091A4012115310511F4DCCFE4
:1035100008952130310509F4C1CF08952091A30108
:103520003091A4012115310511F4C6CF0895213041
:10353000310509F4ABCF08951816190644F4E3ECED
:10354000F9E03197F1F700C000000197C1F7089545
:1035500001978C32910508F069C0835B9F4FFC0195
:1035600033C3613011F4259A089525980895613088
:1035700011F4269A089526980895613011F4279A37
:10358000089527980895613011F4549A0895549835
:103590000895613011F4559A089555980895613051
:1035A00011F4569A089556980895613011F4579A77
:1035B000089557980895613011F4399A089539980B
:1035C0000895613011F43A9A08953A980895613057
:1035D00011F43B9A08953B980895613011F43C9A98
:1035E00008953C980895613011F43D9A08953D98EE
:1035F0000895613011F4209A08952098089561305B
:1036000011F4219A089521980895613011F4229AB5
:10361000089522980895613011F4239A089523980B
:103620000895613011F4249A0895249808950D970F
:103630008E31910568F587589F4FFC01C5C26130F6
:1036400011F45C9A08955C980895613011F45D9AC4
:1036500008955D980895613011F45E9A08955E981A
:103660000895613011F45F9A08955F98089561306C
:1036700011F4289A089528980895613011F4299A30
:10368000089529980895613011F42A9A08952A9886
:103690000895CF93DF93C0919901D0919A0161E091
:1036A000CE01C5DF2FE784E89EE1215080409040A5
:1036B000E1F700C0000060E0CE01B9DFDF91CF91FB
:1036C000089586319105A1F034F48431910551F0CB
:1036D000459759F019C08831910581F064F08B97B6
:1036E00081F012C086B18270089586B18470089509
:1036F00086B18870089586B18071089586B1807210
:10370000089583B18870089580E008952091A901FB
:103710003091AA01232B51F02091B1033091B203D3
:103720008217930719F48093A90F08952091A70198
:103730003091A801232B51F02091AF033091B003B9
:103740008217930719F48093A90F08958FEF809340
:10375000A90F0895ECEEF9E0118210821382128213
:103760001582148211861086138612861586148699
:1037700017861686E9E8FFE081E99FE01192119231
:103780001782168217861686E817F907B9F7E6EA50
:10379000F8E02EE039E009C011921192E817F9071C
:1037A000D9F7FC012817390719F0CF014A96F4CF51
:1037B000EAE7FFE015AA14AA80918D0190918E018D
:1037C00090A787A380918B0190918C0192A781A7EC
:1037D0008091890190918A0194A783A780918701A4
:1037E0009091880196A785A711AA10AA13AA12AAD8
:1037F00081E086AB69EB71E080E19AE061D364EB34
:1038000071E084E79AE05CD38091AB038093C10AB6
:103810008093C20A8093C30A28EE33E0E4ECFAE016
:10382000DF01A9011D9241505040E1F798ECECEA0C
:10383000FEE0DF011D929A95E9F78093740F809363
:10384000750F1092770F1092760F1092790F1092D9
:10385000780FECEEF9E0138A128A8AE090E0918BFF
:10386000808B178A168A8EE190E0958B848B138E5D
:10387000128E25E030E0318F208F178E168E958FB7
:10388000848F13A212A284EB90E091A380A385E021
:10389000E1E2F8E0AAE7BFE001900D928A95E1F736
:1038A0008DE0E2EBFFE0DF011D928A95E9F721E070
:1038B00030E043E452E06FE070E08AE79FE00E946E
:1038C000FB00811109C085E0E1E2F8E0AAE7BFE072
:1038D00001900D928A95E1F70C946B040895809104
:1038E000A90F90E02091B1033091B20382179307A2
:1038F00081F427EE33E0E4ECFAE0DF01A9011D9248
:1039000041505040E1F71092740F1092770F1092CF
:10391000760F2091AF033091B0038217930769F4BB
:1039200087ECECEAFEE0DF011D928A95E9F7109240
:10393000750F1092790F1092780F089547EC50E0B0
:1039400060E270E08CEA9EE09ED21092750F1092B9
:10395000790F1092780F089585B5816085BD16BCEA
:10396000EEE6F0E08081816080830895CF93DF935D
:103970008091A7019091A801892B41F18091AF031B
:103980009091B003C3DE89E997E0BADD84EF91E05E
:10399000D3DD69E172E08CEA9EE099D2892B21F4B3
:1039A00078DE80E197E2C8DD8EE997E0A9DD84EF5B
:1039B00091E0C2DD86E298E0A3DD84EF91E0BCDD1A
:1039C00082E398E09DDD84EF91E0B6DD8091A9016E
:1039D0009091AA01892B09F443C0C0919701D0911D
:1039E0009801DD2761E0CE0122DE84EF91E0A4DDC5
:1039F00060E0CE011CDE88EE93E09EDD8091B10395
:103A00009091B20383DE8EE398E06CDD63E070E0BA
:103A100089E192E00E940F098BE498E063DD63E0A6
:103A200070E089E192E00E940F0989E598E05ADD93
:103A300063E070E089E192E00E940F0987E698E078
:103A400051DD63E070E089E192E00E940F0980E9B6
:103A500098E048DD63E070E089E192E00E940F09A0
:103A6000DF91CF910895CF93DF938091A901909139
:103A7000AA01892B39F060918F0380919701909171
:103A8000980166DD8091A7019091A801892B39F0FA
:103A900060918F038091990190919A0159DDC091B5
:103AA0008F036C2F809195019091960151DD6C2FC1
:103AB00080919301909194014BDD6C2F8091910145
:103AC0009091920145DD6C2F80918F019091900132
:103AD0003FDDD09191036D2F80918D0190918E01EA
:103AE00037DD6D2F80918B0190918C0131DD6D2F31
:103AF0008091890190918A012BDD6D2F8091870142
:103B00009091880125DD6C2F80918501909186012F
:103B10001FDD6C2F809183019091840119DD6D2F41
:103B2000809181019091820113DD6C2F80917F0142
:103B3000909180010DDD97DC84E690E0FDDC89DC6E
:103B4000DF91CF9108958FDF05DE06DF0FCF089557
:103B50001F93CF93DF938091740F813081F4CAE774
:103B6000DFE01FA584E690E0E7DC0E94A7100E943A
:103B7000C8130E948C15B3DE1FA71092740F80919A
:103B8000750F813091F4CAE7DFE01FA58091AF0384
:103B90009091B003BBDD0E94C8130E948C157EDBA0
:103BA00098DBCCDE1092750F1FA7DF91CF911F918C
:103BB00008959DD8DBD904DAFACA0895C4DF0E94BB
:103BC000410EC6DFF6DFFBCFEE0FFF1F0024001C07
:103BD0000BBE0790F691E02D0994CF93DF938230CE
:103BE000910510F482E090E0E091CE0FF091CF0FBC
:103BF00020E030E0C0E0D0E0309711F14081518109
:103C000048175907C0F04817590761F4828193811A
:103C1000209719F09B838A832BC09093CF0F8093BA
:103C2000CE0F26C02115310519F04217530718F49D
:103C30009A01BE01DF01EF010280F381E02DDCCFAC
:103C40002115310509F1281B390B2430310590F479
:103C500012968D919C9113976115710521F0FB01CE
:103C60009383828304C09093CF0F8093CE0FFD0186
:103C7000329644C0FD01E20FF31F819391932250CD
:103C800031092D933C933AC02091CC0F3091CD0F48
:103C9000232B41F420910201309103013093CD0F89
:103CA0002093CC0F209100013091010121153105A5
:103CB00041F42DB73EB74091040150910501241BFA
:103CC000350BE091CC0FF091CD0FE217F307A0F484
:103CD0002E1B3F0B2817390778F0AC014E5F5F4F62
:103CE0002417350748F04E0F5F1F5093CD0F4093B8
:103CF000CC0F8193919302C0E0E0F0E0CF01DF911F
:103D0000CF9108950F931F93CF93DF93009709F4FA
:103D10008CC0FC013297138212820091CE0F109159
:103D2000CF0F0115110581F420813181820F931F7E
:103D30002091CC0F3091CD0F2817390779F5F093EA
:103D4000CD0FE093CC0F71C0D80140E050E0AE172A
:103D5000BF0750F412962D913C911397AD01211598
:103D6000310509F1D901F3CF9D01DA0133832283B3
:103D700060817181860F971F8217930769F4EC01A8
:103D800028813981260F371F2E5F3F4F31832083D3
:103D90008A819B8193838283452B29F4F093CF0FF3
:103DA000E093CE0F42C01396FC93EE931297ED0171
:103DB000499159919E01240F351FE217F30771F4C1
:103DC00080819181840F951F029611969C938E930A
:103DD0008281938113969C938E931297E0E0F0E09A
:103DE000D80112968D919C911397009719F0F801C4
:103DF0008C01F6CF8D919C9198012E5F3F4F820FE1
:103E0000931F2091CC0F3091CD0F2817390769F4FB
:103E1000309729F41092CF0F1092CE0F02C0138268
:103E200012821093CD0F0093CC0FDF91CF911F9191
:103E30000F910895FC0188279927E8942191203259
:103E4000E9F3293010F02E30C8F32B3239F02D323F
:103E500031F4689403C086D0820F911D21912053C4
:103E60002A30C8F31EF4909581959F4F089585FDE3
:103E70009AC08062911197C081568A51E0F70895E7
:103E800044EA58E03EC0DC0101C06D93415050400F
:103E9000E0F70895FB01DC010D900020E9F7119790
:103EA00001900D920020E1F70895FC0181918617A1
:103EB00021F08823D9F7992708953197CF010895E4
:103EC000FB01DC0101900D920020E1F70895FB0158
:103ED00051915523A9F0BF01DC014D9145174111C6
:103EE000E1F759F4CD010190002049F04D914015C2
:103EF0004111C9F3FB014111EFCF81E090E001973F
:103F00000895FA01A191B081009719F41097E1F09A
:103F1000CD01DC01CD010D90002011F4C00113C0D2
:103F2000FB012191222319F02015D9F7F3CFFB01D2
:103F30002191201519F41E92119606C02223C1F773
:103F40000D900020A1F7D001FA01A193B08308954C
:103F5000BB274A3031F4992322F4BDE29095819534
:103F60009F4F09C07AE0979F902D879F802D910DDC
:103F700011240895BB27FB015527AA27880F991FF5
:103F8000AA1FA41710F0A41B83955051B9F7A05D88
:103F9000AA3308F0A95DA193009779F7B111B19305
:103FA0001192CB0103C0992788270895DC01FC01F9
:103FB000672F71917723E1F7329704C07C916D935D
:103FC00070836291AE17BF07C8F30895F999FECFC9
:103FD00092BD81BDF89A992780B50895262FF99949
:103FE000FECF1FBA92BD81BD20BD0FB6F894FA9ADC
:0C3FF000F99A0FBE01960895F894FFCFD7
:103FFC000000D00F200052454C4159434F4E4E45C6
:10400C004354494F4E533B00000000000000000099
:10401C000000000041444D494E0055534552005597
:10402C005352005549004341004D49005249004943
:10403C004D005541005253004E5300484F535431DC
:10404C0000504F52543100484F53543200504F528D
:10405C0054320053534944005057440041504E00D1
:10406C005453005449005357004554004557002CF5
:10407C0000020001000300180017001600150010C4
:10408C00000F000E000D002900280000001400B4E1
:10409C00000010010000000100010000006F6E6CB8
:1040AC00696E650032303838006465766963657313
:1040BC002E6A746563682D696F742E636F6D00379B
:1040CC00374C643763723764570054617264697398
:1040DC0000746573742070726F64756374203100A2
:1040EC004552524F52004661696C004641494C00A2
:1040FC0041542B43495053454E443D0041542B43AE
:10410C00495053454E440D0A004F4B0054494D4500
:10411C000054494D45204F4B0A0053455249414CE0
:10412C005F4E554D424552002300235345524941A1
:10413C004C3B0053455249414C0052455155455357
:10414C00545F53455249414C5F4E554D4245523B8D
:10415C000041542B434950444F4D41494E3D226A36
:10416C00746563682D696F742E636F6D220D0A0080
:10417C0041542B43494653520D0A0041542B43578B
:10418C004A41503D220041542B4349505348555409
:10419C000D0A0041542B4349504D55583D300D0AE2
:1041AC000041542B43474154543D310D0A004154B6
:1041BC002B434744434F4E543D312C224950222C23
:1041CC00220041542B435354543D2200222C2222D2
:1041DC002C22220D0A0041542B43494943520D0A0B
:1041EC000041542B43495053544152543D302C22DE
:1041FC00544350222C2200222C0041542B43495072
:10420C00434C4F53453D300D0A0041542B4349500C
:10421C0053544152543D22544350222C2200484FB7
:10422C00535400504F5254006765745072696D615D
:10423C0072794E6574776F726B53657474696E67BF
:10424C00006765745365636F6E646172794E657453
:10425C00776F726B53657474696E6700676574442D
:10426C00656661756C74446576696365506F6F6CD7
:10427C00496E666F726D6174696F6E0004020101A4
:10428C000000001F001C001F001E001F001E001F4E
:10429C00001F001E001F001E001F00000001000078
:1042AC00000100400023535349443B002323505743
:1042BC00443B00232341504E3B004950442C003CCE
:1042CC0068746D6C3E3C686561643E3C6D65746100
:1042DC00206E616D653D2276696577706F72742210
:1042EC0020636F6E74656E743D2277696474683DEB
:1042FC006465766963652D77696474682C20696ED2
:10430C00697469616C2D7363616C653D312E302C61
:10431C00206D6178696D756D2D7363616C653D31D0
:10432C002E30223E3C2F686561643E3C626F64799E
:10433C003E003C7469746C653E48434D20436F6E7F
:10434C00736F6C653C2F7469746C653E003C6469DA
:10435C0076207374796C653D22666F6E742D73696B
:10436C007A653A206D656469756D3B207465787467
:10437C002D616C69676E3A2063656E7465723B22C1
:10438C003E3C7370616E3E003C666F726D206D65D5
:10439C0074686F643D22504F5354223E003C703E73
:1043AC003C7374726F6E673E53455249414C3A20D0
:1043BC00003C2F7374726F6E673E3C2F703E3C70E6
:1043CC003E3C7374726F6E673E535349443C2F737B
:1043DC0074726F6E673E3C62723E3C696E707574AF
:1043EC0020747970653D227465787422206E616D3D
:1043FC00653D2273736964222076616C75653D227C
:10440C0000223E3C2F703E003C703E3C7374726F39
:10441C006E673E50415353574F52443C2F73747246
:10442C006F6E673E3C62723E3C696E7075742074B0
:10443C007970653D227465787422206E616D653DDE
:10444C002270617373776F7264222076616C75656C
:10445C003D22003C703E3C7374726F6E673E41505F
:10446C004E3C2F7374726F6E673E3C62723E3C69B9
:10447C006E70757420747970653D22746578742241
:10448C00206E616D653D2261706E222076616C75C7
:10449C00653D22003C62723E3C703E5341564544A1
:1044AC003C2F703E003C696E707574207479706599
:1044BC003D227375626D6974223E003C2F666F72EB
:1044CC006D3E3C2F7370616E3E3C2F6469763E3CB2
:1044DC002F626F64793E3C2F68746D6C3E004854BB
:1044EC0054502F312E3020323030204F4B0D0A4398
:1044FC006F6E74656E742D547970653A207465789E
:10450C00742F68746D6C3B20636861727365743DC5
:10451C005554462D380D0A507261676D613A206E04
:10452C006F2D63616368650D0A436F6E74656E74FD
:10453C002D4C656E6774683A20000D0A436F6E6EE1
:10454C00656374696F6E3A20636C6F73650D0A0D49
:10455C000A005550444154455F434F4E464947006D
:10456C0050415353574F52440052455155455354A3
:10457C005F434F4E46494700535349443A003B5022
:10458C00415353574F52443A003B41504E3A004727
:10459C004554202F20485454502F00504F53542032
:1045AC002F20485454502F0073736964007061734A
:1045BC0073776F72640061706E0041542B434950E5
:1045CC00434C4F53453D350D0A004E4F5449464917
:1045DC00434154494F4E3B5357495443483B005376
:1045EC00574954434852454C4159004D554C544938
:1045FC002D535749544348004E4F54494649434163
:10460C0054494F4E3B4D554C54492D5357495443E7
:10461C00483B00434647005B434C4541525F454590
:10462C0050524F4D5D005B454E445D004E4F54491A
:10463C004649434154494F4E3B55504441544544DF
:10464C003B0A0024005550444154450052455155F5
:10465C004553545F5550444154450A004348454323
:10466C004B0A004C4956450041542B435245473F99
:10467C000D0A002B435245473A20302C31002B4376
:10468C005245473A20302C350041540D0A00415414
:10469C002B434D47463D310D0A0041542B434D47AA
:1046AC00533D2200554E52454144000D004D544996
:1046BC003A0041542B434D47523D310D0A004E6593
:1046CC00772041646D696E3A0041646D696E2070AB
:1046DC00726976696C696765206772616E7465646E
:1046EC002E204F6C643A00494E464F00494E464FBF
:1046FC003A0A00494E464F20534D530041542B4328
:10470C004D4744413D2244454C20414C4C220D0A1E
:10471C00006E756C6C0041542B434C54533D310D61
:10472C000A0041542B434C49503D310D0A00415471
:10473C002B534C4545503D320D0A0041542B4349F7
:10474C00504D55583D310D0A0041542B43574D4F98
:10475C0044453D330D0A0041542B43575341503DC2
:10476C002248434D2D4E4554574F524B222C22611B
:10477C00646D696E31323334222C352C330D0A00C2
:10478C0041542B4349505345525645523D312C38D8
:04479C00300D0A00D2
:00000001FF
