S01C0000686F6D655F636F6E74726F6C5F70726F6A6563742E73726563A9
S113000096C00000B3C00000B1C00000AFC0000043
S1130010ADC00000ABC00000A9C00000A7C0000034
S1130020A5C00000A3C00000A1C000009FC0000044
S11300309DC000009BC0000099C0000097C0000054
S113004095C0000093C0000018C600008FC00000D7
S1130050D1C500008BC0000089C0000087C000002B
S113006085C0000083C0000081C000007FC0000084
S11300707EC500007BC0000079C0000077C000008E
S113008075C0000073C0000071C00000EC08F208E5
S1130090F808FE0804090A0910098F1295129B1228
S11300A0EE12EE12EE12EE12EE12EE12EE12EE124C
S11300B0EE12A112A712AD12B312EE12EE12EE124C
S11300C0EE12B912BF12C512CB12EE12EE12EE12DC
S11300D0EE12EE12EE12EE12EE12EE12EE12EE121C
S11300E0EE12EE12EE12EE12D112D712DD12E3125C
S11300F0E912F712FD12031309132013201320131E
S11301002013201320132013201320132013201353
S11301102013201320132013201320132013201343
S113012020132013201320130F1315131B13112452
S11301301FBECFEFD0E4DEBFCDBF17E0A0E0B1E03B
S1130140E2E9FEE200E00BBF02C007900D92A2308C
S1130150B107D9F72BE0A2E0B7E001C01D92A630A9
S1130160B207E1F70E9417150C94471749CF0F9374
S11301701F93CF93DF93EB01FC016081662379F039
S11301808C010F5F1F4FF999FECF2196CE01019785
S11301900E943917F80161918F016111F4CFCE01EA
S11301A0DF91CF911F910F910895EF92FF920F93DA
S11301B01F93CF93DF93EC017B0186179707A4F479
S11301C0F999FECF0C2F1D2FCE010E9431178F3FBE
S11301D059F0F999FECF6FEF802F912F0E943917B4
S11301E02196CE15DF0564F3DF91CF911F910F9116
S11301F0FF90EF9008952F923F924F925F926F92EB
S11302007F928F929F92AF92BF92CF92DF92EF92A2
S1130210FF920F931F93CF93DF93CDB7DEB7CC5CE0
S1130220D1090FB6F894DEBF0FBECDBFDC0121307B
S1130230310521F41092FE0A1092FD0A9A012F5FF3
S11302403F4FFA018081882351F0F901812C912CD0
S11302502FEF821A920A91919111FACF02C0812C48
S1130260912CE090FD0AF090FE0A8091A4019091F7
S1130270A501E816F9060CF090C02A01C553DF4F1A
S113028079836883CB5CD040C753DF4FB983A8839D
S1130290C95CD040A12CB12C00E010E0CE01019645
S11302A06C010F2EF7EC2F2EF02D312C6090A40151
S11302B07090A501F999FECFC7010E9431178332CE
S11302C031F491E0AB2809F090E0A92EB12C91E033
S11302D0A916B10459F4073C110509F460C0F601EC
S11302E0E00FF11F80830F5F1F4F4EC010161106E1
S11302F00CF04AC0F601E00FF11F1082B201C601F2
S11303000E94B5160097C9F1EFEF8E1A9E0AFC0100
S1130310E80DF91D20812223E1F0C553DF4F488108
S11303205981CB5CD04041505109D9F1C753DF4FBB
S1130330A881B981C95CD040319680E090E003C0C7
S11303408417950781F101962D9321912111F8CFFE
S113035002C080E090E0C753DF4FE881F981C95CB7
S1130360D040E80FF91F1082FFEFEF1AFF0AF09256
S1130370FE0AE092FD0A81E017C0F601222D1192D7
S11303802A95E9F7032D10E08FEFE81AF80AE6142E
S1130390F7040CF48FCF80E007C080E005C080E054
S11303A003C080E001C080E0C453DF4F0FB6F8946F
S11303B0DEBF0FBECDBFDF91CF911F910F91FF9094
S11303C0EF90DF90CF90BF90AF909F908F907F90F1
S11303D06F905F904F903F902F9008954F925F924F
S11303E06F927F928F929F92AF92BF92CF92DF9241
S11303F0EF92FF920F931F93CF93DF93CDB7DEB7A6
S1130400CE5CD1090FB6F894DEBF0FBECDBF5C0140
S11304104B011092FE0A1092FD0A06E018E00F2E1E
S1130420F8EC6F2E712CF02D0F2EFEE04F2EF8E01D
S11304305F2EF02DBFC0AE0143535F4F69E876E0F5
S1130440CE0101960E94CF16009709F4A5C0AE0113
S113045045535F4F66E371E00E94CF167C016BE366
S113046071E00E94B516892B79F0AE0145535F4FB8
S113047066E371E080E090E00E94CF160E945D1672
S1130480F801918380837CC06EE371E0C7010E9410
S1130490B516892B79F0AE0145535F4F66E371E0E1
S11304A080E090E00E94CF160E945D16F8019383CD
S11304B0828366C064E470E0C7010E94A316892B9E
S11304C079F0AE0145535F4F66E371E080E090E060
S11304D00E94CF160E945D16F8019583848350C054
S11304E061E471E0C7010E94B516892B79F0AE0171
S11304F045535F4F66E371E080E090E00E94CF16C1
S11305000E945D16F801978386833AC064E471E023
S1130510C7010E94B516892B99F1AE0145535F4F6F
S113052066E371E080E090E00E94CF16AE0147538D
S11305305F4F66E373E00E94CF160097C1F062013B
S1130540E12CF12CFFEFEF1AFF0A0E945D16F60171
S1130550819391936F01AE0147535F4F66E373E05C
S113056080E090E00E94CF16009761F702C0E12C72
S1130570F12CF701EE0FFF1FE25FF74F71826082EB
S1130580AE0143535F4F69E876E080E090E00E945B
S1130590CF16009709F05BCFF801808191818A150D
S11305A09B0541F4828193818815990519F481E0B2
S11305B090E00DC020E030E047E451E067EC70E0EB
S11305C0CE01019618DE811136CF80E090E0C2534F
S11305D0DF4F0FB6F894DEBF0FBECDBFDF91CF91D2
S11305E01F910F91FF90EF90DF90CF90BF90AF904D
S11305F09F908F907F906F905F904F9008955F923F
S11306006F927F928F929F92AF92BF92CF92DF921E
S1130610EF92FF920F931F93CF93DF93CDB7DEB783
S1130620CC5CD1090FB6F894DEBF0FBECDBF4EE649
S113063057E06EED77E02EEF30E00AC0219331935E
S1130640E817F907D9F7445E5F4F4617570721F0BB
S1130650CA014A96FA01F2CF1092FE0A1092FD0ADC
S11306606894AA24A2F8B12C812C912CC12CD12CF1
S11306700F2EFCE16F2EF02D55245394712C78C06D
S1130680AE0145535F4F69E876E0CE0101960E94C2
S1130690CF16009709F46CC0E12CF12CAE0147533E
S11306A05F4F66E371E00E94CF168C016BE371E04B
S11306B00E94B516892B81F0AE0147535F4F66E364
S11306C071E080E090E00E94CF160E945D166C01FC
S11306D02FEFE21AF20A17C06EE371E0C8010E941C
S11306E0B516892B81F0AE0147535F4F66E371E085
S11306F080E090E00E94CF160E945D16882E992E0D
S11307008FEFE81AF80AAE0145535F4F69E876E0C7
S113071080E090E00E94CF16009709F0BFCF882DAB
S1130720992DA60122E0E216F10411F52DC02191C4
S113073031912817390709F4A72DE617F707B9F7F8
S1130740A130B1F4440F551FFA01EE0FFF1FEE0F55
S1130750FF1FEE0FFF1FE41BF50BEA0DFB1DEE0F51
S1130760FF1FE259F84F91838083C50101965C0114
S113077020E030E042E751E068EC70E0CE01019601
S11307803ADD81117DCF0CC06C9CB0016D9C700D65
S11307901124FB01E259F84F6857784FA52DC7CFB4
S11307A0C453DF4F0FB6F894DEBF0FBECDBFDF9149
S11307B0CF911F910F91FF90EF90DF90CF90BF905A
S11307C0AF909F908F907F906F905F9008952F923D
S11307D03F924F925F926F927F928F929F92AF92CD
S11307E0BF92CF92DF92EF92FF920F931F93CF931A
S11307F0DF93CDB7DEB7CC56D1090FB6F894DEBF80
S11308000FBECDBF5C014B010F2EF4EE6F2EF7E04F
S11308107F2EF02D0EEF10E00F2EF6EF4F2EF7E0A7
S11308205F2EF02DAC964FAEAC97AD965FAEAD9704
S1130830362C272C12C1AE0147595F4F69E876E088
S1130840CE0101960E94CF1624E038E0F301019313
S11308501193E217F307D9F726E138E0F201019387
S11308601193E217F307D9F7009709F4E5C00F2EA7
S1130870FCEDCF2EF7E0DF2EF02DAE0149595F4F8E
S113088066E371E00E94CF167C016BE371E00E9485
S1130890B516892B79F0AE0149595F4F66E371E0D3
S11308A080E090E00E94CF160E945D16F6019183CD
S11308B08083B6C06EE371E0C7010E94B516892B30
S11308C079F0AE0149595F4F66E371E080E090E052
S11308D00E94CF160E945D16F60193838283A0C006
S11308E065E771E0C7010E94B516892B79F0AE0166
S11308F049595F4F66E371E080E090E00E94CF16B3
S11309000E945D16F601958384838AC068E771E0CE
S1130910C7010E94B516892B79F0AE0149595F4F82
S113092066E371E080E090E00E94CF160E945D16BD
S1130930F6019783868374C06BE771E0C7010E9458
S1130940B516892B39F1AE0149595F4F66E371E061
S113095080E090E00E94CF16AE014B595F4F66E3F2
S113096073E00E94CF16009709F45AC0E32CF22CCE
S11309700E945D16F701819391937F01AE014B595B
S11309805F4F66E373E080E090E00E94CF1600972B
S113099079F746C06EE771E0C7010E94B516892B4E
S11309A079F0AE0149595F4F66E371E080E090E071
S11309B00E94CF160E945D16F601918F808F30C081
S11309C061E871E0C7010E94B516892B49F1AE01B7
S11309D049595F4F66E371E080E090E00E94CF16D2
S11309E0AE014B595F4F66E373E00E94CF16009748
S11309F0B9F0AC96EFACAC97AD96FFACAD970E9456
S1130A005D16F701819391937F01AE014B595F4FBE
S1130A1066E373E080E090E00E94CF16009779F7D8
S1130A20AE0147595F4F69E876E080E090E00E94AC
S1130A30CF16009709F021CF8091DC079091DD0754
S1130A408A159B0551F48091DE079091DF07881584
S1130A50990519F481E090E00DC020E030E042E710
S1130A6051E064E670E0CE010196C5DB8111E3CE6E
S1130A7080E090E0C459DF4F0FB6F894DEBF0FBE9C
S1130A80CDBFDF91CF911F910F91FF90EF90DF9039
S1130A90CF90BF90AF909F908F907F906F905F901A
S1130AA04F903F902F900895EF92FF920F931F93D2
S1130AB0CF93DF93EAE4F8E0808591852CE3289FC7
S1130AC0B001299F700D112482859385680F791FC9
S1130AD04681578120EA35E0429FC001439F900D33
S1130AE0529F900D1124680F791FECEDF7E00681F9
S1130AF01781E08CF18CE4EEF7E0A2EFB7E0C0EAF6
S1130B00D5E0819191918E3F910519F140895189E8
S1130B104E3F5105F1F08C9F90018D9F300D9C9FAD
S1130B20300D1124C901800F911F681779078CF0CB
S1130B304C9FC0014D9F900D5C9F900D11248E0D14
S1130B409F1D681779072CF480916F0390917003AF
S1130B5007C0EA17FB07A9F680916D0390916E0315
S1130B60DF91CF911F910F91FF90EF9008951F9205
S1130B700F920FB60F9211240BB60F922F933F933F
S1130B804F938F939F93EF93FF934091CE00809167
S1130B90BA0A9091BB0A853C910520F01092BB0AD9
S1130BA01092BA0AEAEBFAE0808191819C012F5FEE
S1130BB03F4F31832083FC01E251F64F40834D3097
S1130BC021F04A3011F0411107C081E08093B70A47
S1130BD0F901EE53F74F1082FF91EF919F918F919E
S1130BE04F913F912F910F900BBE0F900FBE0F901E
S1130BF01F9018951F920F920FB60F9211240BB6E7
S1130C000F922F933F934F938F939F93EF93FF9361
S1130C104091C6008091B80A9091B90A89329140F6
S1130C2020F01092B90A1092B80AE8EBFAE0808139
S1130C3091819C012F5F3F4F31832083FC01EE5350
S1130C40F74F40834D3021F04A3011F0411107C075
S1130C5081E08093B60AF901EE53F74F1082FF91B9
S1130C60EF919F918F914F913F912F910F900BBED8
S1130C700F900FBE0F901F9018951F920F920FB6F2
S1130C800F9211240BB60F922F933F934F935F93C0
S1130C908F939F93AF93BF93EF93FF938091FB0A3E
S1130CA09091FC0A01968732910529F09093FC0AF1
S1130CB08093FB0AA1C01092FC0A1092FB0AEAE49A
S1130CC0F8E086859785019697878687883E9340C6
S1130CD0E9F5848595850196958784871786168618
S1130CE08289938920893189281739072CF0019644
S1130CF090935D0880935C08EAE4F8E0868997891C
S1130D0024893589281739072CF0019690936108B6
S1130D1080936008EAE4F8E0828D938D208D318D14
S1130D20281739072CF0019690936508809364087E
S1130D30EAE4F8E0868D978D248D358D28173907E0
S1130D402CF0019690936908809368088091560866
S1130D5090915708CC9749F4EAE4F8E082859385AA
S1130D600196938782871586148680915408909102
S1130D705508CC9749F4EAE4F8E08085918501961A
S1130D809187808713861286809152089091530828
S1130D90489749F4EAE4F8E08481958101969583C3
S1130DA0848311861086AAE4B8E012968D919C91F2
S1130DB01397FC01EE0FFF1FED5AFC4F14964D9153
S1130DC05C911597208131814217530731F4FD015D
S1130DD00196938382831582148280914C089091AA
S1130DE04D080C9749F4EAE4F8E08081918101967A
S1130DF09183808313821282FF91EF91BF91AF910F
S1130E009F918F915F914F913F912F910F900BBEC6
S1130E100F900FBE0F901F9018956F927F928F9234
S1130E209F92AF92BF92CF92DF92EF92FF920F9375
S1130E301F93CF93DF933C01EB010E94401488EE93
S1130E4093E0C89F8001C99F100DD89F100D1124F5
S1130E501123B4F1812C912C0F2EFCEBCF2EFAE050
S1130E60DF2EF02DE0907303F0907403A0907103D3
S1130E70B0907203F601C6ADD0E0CE15DF0539F4AB
S1130E80B30182EC98E00E94B516892BE1F4CA15EF
S1130E90DB0539F4B3018EEE99E00E94B516892B77
S1130EA0A9F4FFEF8F1A9F0A83EC99E00197F1F7F9
S1130EB000C0000008151905ECF680E090E008C0B9
S1130EC080E090E005C081E090E002C081E090E025
S1130ED0DF91CF911F910F91FF90EF90DF90CF9012
S1130EE0BF90AF909F908F907F906F900895CF9216
S1130EF0DF92EF92FF920F931F93CF93DF9300D073
S1130F0000D01F92CDB7DEB77C016B018091FA0A45
S1130F1090E020917303309174038217930749F58D
S1130F20F7013196D7018C91882341F000E010E05D
S1130F300F5F1F4F81918111FBCF02C000E010E0D1
S1130F4086EE91E00E946C12C6010E946C1286E348
S1130F5093E00E946C124AE0BE016F5F7F4FC801AC
S1130F600E94F6160E946C128FE496E00E946C12A6
S1130F7004C082EF91E00E946C1262E070E085E6AA
S1130F8094E04BDF892B81F481E020916B03309155
S1130F906C03232B09F080E08093C10880916D03DA
S1130FA08093BF088093C0088091FA0A90E0209152
S1130FB07303309174038217930721F4C7010E94CD
S1130FC06C1209C0C7010E9456128AE10E944E1297
S1130FD08DE00E944E120F900F900F900F900F9083
S1130FE0DF91CF911F910F91FF90EF90DF90CF9001
S1130FF00895AF92BF92CF92DF92EF92FF920F9338
S11310001F93CF93DF9300D000D01F92CDB7DEB7EC
S11310107C019091C108992309F442C06B01F70146
S11310203196D7018C91882371F100E010E00F5FB5
S11310301F4F81918111FBCFC80101960E94301589
S1131040A82EB92EE82FF92F83E28193112354F0AF
S1131050D70120E030E08D9181932F5F3F4F02173D
S11310601307CCF74AE0BE016F5F7F4FC6010E94B1
S1131070F616BC018A2D9B2D3ADF63E070E08EEFFB
S113108091E0CBDE0DC081E090E00E943015A82EE7
S1131090B92EE82FF92F83E2819300E010E0D8CF36
S11310A00F900F900F900F900F90DF91CF911F91A1
S11310B00F91FF90EF90DF90CF90BF90AF90089585
S11310C0CF92DF92EF92FF920F931F93CF93DF9310
S11310D000D000D01F92CDB7DEB77C016B01FC01BC
S11310E03196DC018C91882341F000E010E00F5F21
S11310F01F4F81918111FBCF02C000E010E086EE0A
S113110091E00E946C12C6010E946C1286E393E087
S11311100E946C124AE0BE016F5F7F4FC8010E94BB
S1131120F6160E946C128FE496E00E946C1262E044
S113113070E085E694E071DE892B81F481E02091F2
S11311406B0330916C03232B09F080E08093C1087A
S113115080916D038093BF088093C008C7010E94EB
S11311606C1263E070E08EEF91E057DE0F900F9009
S11311700F900F900F90DF91CF911F910F91FF90DF
S1131180EF90DF90CF900895EF92FF920F931F930B
S1131190CF93DF936FE070E081E092E03EDE892B35
S11311A009F463C084E690E00E947A1261E072E080
S11311B082EC98E00E94B51669E876E00E948E16EB
S11311C0892BA1F547C0FE013197E730F105B0F551
S11311D0EA5BFF4F0C9427150E945D16F70191837B
S11311E080832CC00E945D16F7019383828326C0FE
S11311F00E945D16F7019583848320C00E945D16CA
S1131200F701918780871AC00E945D16F7019387C2
S1131210828714C00E945D16F701958784870EC0EB
S11312200E945D16F7019783868308C000E010E0F2
S11312300F2EFAE4EF2EF8E0FF2EF02DE8012196B0
S11312408E0169E876E080E090E00E948E160097B7
S113125009F0B9CF6091AA017091AB0186E092E0E8
S1131260C8DE0E94401481E001C080E0DF91CF918C
S11312701F910F91FF90EF9008950F931F93CF93B9
S1131280DF93CDB7DEB7E2970FB6F894DEBF0FBE9B
S1131290CDBF6FE072E082EC98E00E94B516892B16
S11312A0A9F16DE172E082EC98E00E948E166DE186
S11312B072E080E090E00E948E16BC018CEB9AE014
S11312C00E94AE1689E0EFE1F2E08E010F5F1F4F3E
S11312D0D80101900D928A95E1F76CEB7AE0C80190
S11312E00E949816F80101900020E9F7319783E2F3
S11312F090E0918380836091A0017091A101C80165
S11313000E94B7000E94401481E001C080E0E29690
S11313100FB6F894DEBF0FBECDBFDF91CF911F9102
S11313200F9108950F931F93CF93DF93CDB7DEB73B
S1131330C456D1090FB6F894DEBF0FBECDBF21E06D
S113134030E048E252E06FE070E08CEB9AE00E94FB
S1131350FB00811132C00E94401487E1EFE2F2E009
S11313608E010F5F1F4FD80101900D928A95E1F70E
S113137067ED71E0C8010E949816F8010190002001
S1131380E9F731978AE090E09183808388EE93E0D7
S11313900E947A126091AA017091AB01C80129DE02
S11313A06FE070E08FE092E038DD84E690E00E9428
S11313B07A1263DF811122C032C08FE0E7E3F2E0EA
S11313C08E010F5F1F4FD80101900D928A95E1F7AE
S11313D06CEB7AE0C8010E949816F8010190002095
S11313E0E9F731978BE39AE0A0E080839183A283AD
S11313F06091AA017091AB01C801FBDD86E492E023
S11314000E946C128CEB9AE00E946C1280E596E0CC
S11314100E946C1284E690E00E947A1281E0CC591A
S1131420DF4F0FB6F894DEBF0FBECDBFDF91CF9173
S11314301F910F9108950F931F93CF93DF938C0106
S1131440EB0185E592E00E946C1263E070E08EEFA0
S113145091E0E3DC82E692E00E946C1263E070E0CB
S11314608EEF91E0DADC80E792E00E946C1263E098
S113147070E08EEF91E0D1DC8EE792E00E946C1276
S113148063E070E08EEF91E0C8DC87EA92E00E94AE
S11314906C1263E070E08EEF91E0BFDC8BEB92E0C6
S11314A00E946C1263E070E08EEF91E0B6DC86EC93
S11314B092E00E946C12C8010E946C1281E393E0D6
S11314C00E946C12CE010E946C1281ED92E00E9487
S11314D06C126AE070E08EEF91E09FDC892B19F0CA
S11314E080916F0302C080916D03DF91CF911F91B2
S11314F00F9108950F931F93CF93DF938C01EB010A
S11315000E9440142091FA0A30E080917303909174
S113151074032817390769F48FE193E0DDD7C80114
S1131520DBD785E393E0D8D7CE01D6D78FE496E016
S1131530D3D72091FA0A30E080917103909172031D
S11315402817390769F488E393E0C6D7C801C4D7DC
S113155081E393E0C1D7CE01BFD781E193E0BCD74B
S11315606AE070E08EEF91E058DC019771F48091AD
S11315706F038093C10808DE982F882339F0D2DEE8
S113158091E0811103C090E001C090E0892FDF91C8
S1131590CF911F910F9108950F931F93CF93DF93D2
S11315A0EAE4F8E022893389808991892817390788
S11315B00CF466C0C0916B03D0916C038091C10898
S11315C090E08C179D0709F451C0009173031091AA
S11315D07403C8010E94421361EA78E08DE898E040
S11315E02ADF8093BF0881110AC080917103909112
S11315F072030E9442138091BF088823E1F1C8015D
S11316000E94421368E878E08AE698E073DF81304C
S113161021F4C093C1080E9440148091C00888231B
S113162051F080917103909172030E944213809152
S1131630C008811104C08091BF08882321F08091E3
S1131640C10881110DC080915A0890915B088935B9
S113165022E092072CF4449690935B0880935A08F6
S1131660EAE4F8E0178A168A138E128E10925D0847
S113167010925C0805C08091C008882321F3D1CF63
S1131680DF91CF911F910F910895AF92BF92CF92A6
S1131690DF92FF920F931F93CF93DF93CDB7DEB703
S11316A0C154D7400FB6F894DEBF0FBECDBF67E775
S11316B073E082EC98E00E94B516892B09F41AC1F4
S11316C063E873E082EC98E00E94B516FC01858122
S11316D0C05CD84F8883C054D740CF5BD84F1882A2
S11316E0C154D74084EF91E005D78E0107511C4FB8
S11316F083E7E9E8F3E0D80101900D928A95E1F7D8
S1131700D8010D900020E9F711978BE1ECEFF3E09D
S113171001900D928A95E1F7D8010D900020E9F728
S113172011978BE3E7E1F4E001900D928A95E1F7DC
S1131730D8010D900020E9F7119785E1E2E5F4E086
S113174001900D928A95E1F7D8010D900020E9F7F8
S1131750119784E1E7E6F4E001900D928A95E1F7B0
S11317606CEB7AE0C8010E949816D8010D90002015
S1131770E9F7119780E5EBE7F4E001900D928A9583
S1131780E1F76DE878E0C8010E949816D8010D9041
S11317900020E9F7119787E0EBECF4E001900D925B
S11317A08A95E1F7D8010D900020E9F711978FE4AD
S11317B0E2EDF4E001900D928A95E1F761EA78E0B8
S11317C0C8010E949816D8010D900020E9F71197DE
S11317D087E0EBECF4E001900D928A95E1F7D801F3
S11317E00D900020E9F7119781E4E1E2F5E0019022
S11317F00D928A95E1F765EB78E0C8010E9498168E
S1131800D8010D900020E9F7119787E0EBECF4E0A4
S113181001900D928A95E1F7D8010D900020E9F727
S1131820119783E4E2E6F5E001900D928A95E1F7E1
S11318306AE678E0C8010E949816D8010D9000204D
S1131840E9F7119787E0EBECF4E001900D928A95AB
S1131850E1F7D8010D900020E9F711978AE2E5EA53
S1131860F5E001900D928A95E1F7D8010D900020E2
S1131870E9F711978FE0EFECF5E001900D928A956E
S1131880E1F7F80101900020E9F7CF0101972CE579
S1131890EEEDF5E0AE014F5F5F4F6A01DA010190B2
S11318A00D922A95E1F74AE0BE01655C784F801BF2
S11318B0910B0E94F616BC01C6010E949816D6012F
S11318C00D900020E9F7119788E1EAE3F6E0019032
S11318D00D928A95E1F7B801C6010E949816BE01DF
S11318E0605C784FC601ECDB63E070E08EEF91E062
S11318F094DAC6D762E576E082EC98E00E94B516E9
S1131900892B09F030C13BC181E090E0F3D501504F
S1131910110921F16FE576E082EC98E00E94B5169A
S1131920892BE1F468E676E082EC98E00E94B51633
S1131930892BA1F46FE476E082EC98E00E94B5165E
S1131940892B11F34BE251E060E270E082EC98E005
S11319500E949116F60111821082D6CF88EC90E095
S1131960C9D568E676E082EC98E00E94B5168C0151
S1131970892B61F143E150E060E270E08DE898E08A
S11319800E949116F80185818632A1F08D30A9F06C
S11319908A3009F0DFC014C09191963299F09D30DD
S11319A089F09A3079F02F5F3F4F9D9324313105B0
S11319B099F708C020E030E005C020E030E002C024
S11319C020E030E0F901E659F74F13A26FE576E025
S11319D082EC98E00E94B5168C01892B61F143E1F9
S11319E050E060E270E081EA98E00E949116F8010C
S11319F081858632A1F08D30A9F08A3009F0A1C02A
S1131A0014C09191963299F09D3089F09A3079F012
S1131A102F5F3F4F9D932431310599F708C020E093
S1131A2030E005C020E030E002C020E030E0F90101
S1131A30E659F74F17AA6DE676E082EC98E00E942B
S1131A40B5168C01892B61F149E050E060E270E049
S1131A5085EB98E00E949116F80184818632A1F00A
S1131A608D30A9F08A3009F063C014C09191963288
S1131A7099F09D3089F09A3079F02F5F3F4F9D9314
S1131A802A30310599F708C020E030E005C020E095
S1131A9030E002C020E030E0F901EB54F74F10824F
S1131AA061E776E082EC98E00E94B516892B79F123
S1131AB061E776E08AE698E00E94B5166C014DE194
S1131AC050E060E270E08AE698E00E949116F5E04A
S1131AD0CF0ED11C0F2EFAE6AF2EF8E0BF2EF02D5C
S1131AE000E010E0F601F1906F018F2D90E00E946C
S1131AF07A16892B41F00F5F1F4FF501F1925F01B8
S1131B000E31110579F7F801E659F74F1082EAE42E
S1131B10F8E0138A128A118A108A1092C10810926E
S1131B20BF088091730390917403ACD5A9D627C0E4
S1131B308093B508F8013596A6EBB8E021E030E0D3
S1131B4095CF8093A108F8013A96A2EAB8E021E083
S1131B5030E057CF80938D08F8013696AEE8B8E0B0
S1131B6021E030E019CF81E090E0C4D407EE13E027
S1131B700F2EF8EBCF2EFAE0DF2EF02DCBCECF5B7D
S1131B80D84F0FB6F894DEBF0FBECDBFDF91CF9113
S1131B901F910F91FF90DF90CF90BF90AF90089569
S1131BA03F924F925F926F927F928F929F92AF92E9
S1131BB0BF92CF92DF92EF92FF920F931F93CF9336
S1131BC0DF93CDB7DEB7AD970FB6F894DEBF0FBE87
S1131BD0CDBF762E542EA62EB12CE82EF12CB501B5
S1131BE0C7010E94EE01019739F4E6E0F8E0C680EF
S1131BF0D7808480958004C0812C912CC12CD12C59
S1131C000AE010E060904C0360E070E0C701F2D39A
S1131C10862D2BD4872D29D4482E21E0C216D10439
S1131C2021F481E022D4382E03C0852D1ED4382E11
S1131C3061E070E0C701DED3232D30E0240D311DB7
S1131C402E30310509F486C082E390E053D401506C
S1131C501109D1F684C088EE93E09C01829EC001F4
S1131C60839E900D929E900D112444D40AE010E0BE
S1131C7090904C0360E070E0C701BCD3892DF5D38C
S1131C80872DF3D3C82E80E0F0D3D82E61E070E026
S1131C90C701B0D32D2D30E02C0D311D2E30310570
S1131CA039F082E390E026D40150110919F75BC0A2
S1131CB085E1E6E7F6E08E010F5F1F4FD801019042
S1131CC00D928A95E1F74AE0BE01675D7F4FC70137
S1131CD00E94F616BC01C8010E949816F8010190F2
S1131CE00020E9F731970F2EFBE3EF2EF12CF02DB6
S1131CF0F182E0824AE0BE01675D7F4FC5010E9428
S1131D00F616BC01C8010E949816F8010190002043
S1131D10E9F73197F182E0824AE0BE01675D7F4FC7
S1131D20852D90E00E94F616BC01C8010E94981609
S1131D30F80101900020E9F731978BE39AE0A0E0E5
S1131D4080839183A2836091AA017091AB01C80141
S1131D5050D909C0CA94CD2809F0AACF7CCFCA941F
S1131D60CD2809F478CFAD960FB6F894DEBF0FBE38
S1131D70CDBFDF91CF911F910F91FF90EF90DF9036
S1131D80CF90BF90AF909F908F907F906F905F9017
S1131D904F903F900895EF92FF920F931F93CF932C
S1131DA0DF936BE876E082EC98E0DFD7009709F4E4
S1131DB045C069E876E0B2D769E876E080E090E073
S1131DC0ADD77BD78C0169E876E080E090E0A6D7B8
S1131DD074D7EC0169E876E080E090E09FD76DD796
S1131DE07C01482F6C2F802FDBDE043011052CF58D
S1131DF0CD30D10514F5EA94EF2889F42DE0209F25
S1131E00C001219F900D1124C80FD91FCC0FDD1FD5
S1131E10CC5FD84F81E090E0998388830EC02DE099
S1131E20209FC001219F900D1124C80FD91FCC0FF2
S1131E30DD1FCC5FD84F1982188222D5DF91CF9154
S1131E401F910F91FF90EF900895CF93DF9367E96F
S1131E5076E082EC98E089D7892B09F466C0109269
S1131E606108109260086BE976E082EC98E07DD717
S1131E70892BE1F01092010B8AEA96E02DD3C091F0
S1131E80A201D091A3016091A4017091A501CE019A
S1131E900E94D500D093FE0AC093FD0A6091AA0166
S1131EA07091AB018BE092E0A4D84EC066EB76E073
S1131EB082EC98E05AD7892BD9F08091A2019091B5
S1131EC0A3019093FE0A8093FD0A81E08093010BA5
S1131ED0C091AA01D091AB01BE018BE092E089D8F8
S1131EE084EF91E007D3BE018CEB96E082D82CC03E
S1131EF063ED76E082EC98E011D763ED76E080E064
S1131F0090E00CD7CDEFDAE0688179810E94B700C8
S1131F10998388838AE090E0EDD26091AA01709160
S1131F20AB018BE092E065D8ABD465ED76E082EC52
S1131F3098E01BD7892B41F06091AA017091AB0105
S1131F408CED96E056D89CD4DF91CF9108952F92D2
S1131F503F924F925F926F927F928F929F92AF9235
S1131F60BF92CF92DF92EF92FF920F931F93CF9382
S1131F70DF93CDB7DEB7A3970FB6F894DEBF0FBEDD
S1131F80CDBFEAE4F8E0228D338D808D918D281742
S1131F9039070CF4F9C04AE0BE01615E7F4F8091BD
S1131FA060089091610822D70F2EFAEDEF2EFAE027
S1131FB0FF2EF02D00E010E088248394912C212C36
S1131FC030904E0340904D030F2EFFEF6F2EFAE03A
S1131FD07F2EF02D5701D70158968D919C915997DA
S1131FE030D3811124C0F70180899189892B09F4A8
S1131FF0ADC01DC060E070E0C801FCD1832D35D2B6
S1132000842D33D2582EB401C801F4D18EEF850D3E
S11320108C3F28F0F1E0CF1AD10861F7512C852DBF
S113202090E0D5018D939C93F30191828082D50138
S113203058968D919C91599704D3882331F0F501DA
S113204080899189019709F48FC00F5F1F4FF2E0D7
S1132050EF0EF11C0430110509F0BCCF8091FF0A8A
S11320609091000B019709F06CC01092000B109234
S1132070FF0A8091C108882309F463C082E1E6E085
S1132080F1E0DE01119601900D928A95E1F7FE01CF
S113209073968CE0DF011D928A95E9F70F2EF2EE1C
S11320A0EF2EFAE0FF2EF02D00E010E072976F01A2
S11320B00F2EFAE38F2E912CF02D0F2EFBE3AF2E73
S11320C0B12CF02DD7018D919D917D01019719F5CA
S11320D04AE0BE01615E7F4FC80188D6BC01C601DB
S11320E027D6F60101900020E9F73197918280828A
S11320F04AE0BE01615E7F4FF7013A97808191818A
S113210075D6BC01C60114D6F60101900020E9F78A
S11321103197B182A0820F5F1F4F0430110591F6F1
S1132120CE010196FC0101900020E9F731972AE0E5
S113213030E0318320836091AA017091AB010E9449
S1132140F90710926508109264081EC084EF91E0AC
S1132150D1D1F70191868086918A808A0F2EF5E08D
S1132160CF2EF02DD22C46CF84EF91E0C3D1D501F0
S113217019961C921E92189751961C921E92509773
S1132180F3019182808261CFA3960FB6F894DEBFEB
S11321900FBECDBFDF91CF911F910F91FF90EF90B4
S11321A0DF90CF90BF90AF909F908F907F906F9073
S11321B05F904F903F902F900895EAE4F8E02689CD
S11321C03789848995892817390704F18091C108D2
S11321D08823C1F06091AA017091AB018CEE96E066
S11321E00E94F90763E070E083EF96E00E940D0718
S11321F0892B41F480916D038093C1088093BF08BB
S11322008093C008109261081092600808952F927C
S11322103F924F925F926F927F928F929F92AF9272
S1132220BF92CF92DF92EF92FF920F931F93CF93BF
S1132230DF9300D000D0CDB7DEB7EAE4F8E0268D16
S1132240378D848D958D281739070CF4BCC0809187
S1132250010B813009F0B7C00E94FF028CE697E0C1
S11322609A83898300E010E0612C0F2EFDEF4F2E3E
S1132270FAE05F2EF02D2090A2013090A301E090AF
S11322806F03F090700390C0DC82CB82D60112966B
S11322908D919C9113978E3F910509F470C0EDE6E2
S11322A0F3E07080D2012D923C9206C00E94540546
S11322B08E159F0509F4782EEB81FC816281738170
S11322C0C8010E94E703892B89F7772079F104304C
S11322D011050CF054C0FDE0AF16B1040CF04FC072
S11322E0AB81BC8112966D917C911397F401E60F3A
S11322F0F71FEE0FFF1FEC5FF84F80819181892B50
S113230009F03DC041E0802F4BDCAB81BC811296CB
S1132310ED91FC911397E80DF91DEE0FFF1FEC5F93
S1132320F84F81E090E09183808329C00430110547
S113233034F59DE0A916B10414F5AB81BC81129665
S11323406D917C911397F401E60FF71FEE0FFF1FB9
S1132350EC5FF84F80819181019789F440E0802FF0
S11323601FDCAB81BC811296ED91FC911397E80DB3
S1132370F91DEE0FFF1FEC5FF84F11821082BFEFC3
S1132380AB1ABB0AE2E0CE0ED11CFDE0AF16B104DD
S113239009F07ACF0F5F1F4F89819A814C969A83F7
S11323A089830430110559F0C980DA80A62CB12C38
S11323B09DE0909F4001919F900C112465CF109255
S11323C06908109268080F900F900F900F90DF919A
S11323D0CF911F910F91FF90EF90DF90CF90BF901E
S11323E0AF909F908F907F906F905F904F903F90B1
S11323F02F9008951F93CF93DF93EC01162F84E65B
S113240090E078D0C130D10589F01CF4CD2B39F09F
S113241021C0C230D10589F02397B1F01BC0612FD0
S113242080919A0190919B01DAD014C0612F809120
S1132430980190919901D3D00DC0612F809196019C
S113244090919701CCD006C0612F80919401909116
S11324509501C5D084E690E04DD0DF91CF911F91D6
S1132460089581E58CBD1EBC08958EBD0DB407FE94
S1132470FDCF8EB50895209175032093C4009091EB
S113248076039093C50088E98093C1002093CC0023
S11324909093CD008093C90078940895E8ECF0E01F
S11324A0908195FFFDCF8093CE000895CF93DF9365
S11324B0EC018881882329F02196F0DF899181112C
S11324C0FCCFDF91CF910895E0ECF0E0908195FF8F
S11324D0FDCF8093C6000895CF93DF93EC018881EC
S11324E0882329F02196F0DF89918111FCCFDF91B7
S11324F0CF9108951816190644F4E3ECF9E03197E6
S1132500F1F700C000000197C1F7089501978C32DC
S1132510910508F063C0835B9F4FFC0198C2613052
S113252011F4259A089525980895613011F4269A96
S1132530089526980895613011F4279A08952798EC
S11325400895613011F4549A0895549808956130AF
S113255011F4559A089555980895613011F4569AD6
S1132560089556980895613011F4579A089557982C
S11325700895613011F43A9A08953A9808956130B3
S113258011F43B9A08953B980895613011F43C9AF4
S113259008953C980895613011F43D9A08953D984A
S11325A00895613011F4209A0895209808956130B7
S11325B011F4219A089521980895613011F4229A12
S11325C0089522980895613011F4239A0895239868
S11325D00895613011F4249A0895249808950D976C
S11325E08E31910568F587589F4FFC0130C26130E8
S11325F011F45C9A08955C980895613011F45D9A21
S113260008955D980895613011F45E9A08955E9876
S11326100895613011F45F9A08955F9808956130C8
S113262011F4289A089528980895613011F4299A8C
S1132630089529980895613011F42A9A08952A98E2
S113264008958731910599F034F48531910549F065
S1132650469751F015C08831910561F08B9769F068
S11326600FC086B18470089586B18870089586B1CC
S11326708071089586B18072089583B18870089539
S113268080E008952091A8013091A901232B51F0F5
S113269020917303309174038217930719F4809384
S11326A0FA0A08952091A6013091A701232B51F035
S11326B020917103309172038217930719F4809368
S11326C0FA0A08958FEF8093FA0A0895EAE4F8E08D
S11326D0118210821382128215821482118610864E
S11326E0138612861586148617861686EAEDFAE096
S11326F082EE9AE01192119217821682178616863C
S1132700E817F907B9F7E4E0F7E02CE637E009C089
S113271011921192E817F907D9F7FC012817390724
S113272019F0CF014A96F4CFECEBFAE01092000BCB
S11327301092FF0A809192019091930197AB86AB1E
S1132740809190019091910191AF80AF80918E0121
S113275090918F0193AF82AF80918C0190918D0104
S113276095AF84AF80917303909174038BDF1092C3
S1132770FC0A1092FB0A1092FE0A1092FD0A81E0F4
S11327808093010B68EB71E08AE698E0E7D263EB93
S113279071E088E898E0E2D260ED71E08DE898E0BD
S11327A0DDD265EC71E081EA98E0D8D26CEA71E0A0
S11327B085EB98E0D3D280916D038093BF0880931A
S11327C0C0088093C1082CE231E0E2ECF8E0DF01BC
S11327D0A9011D9241505040E1F798ECEEEEF9E06A
S11327E0DF011D929A95E9F78093B60A8093B70AA0
S11327F01092B90A1092B80A1092BB0A1092BA0A3F
S1132800EAE4F8E0138A128A8AE090E0918B808BE4
S1132810178A168A8EE190E0958B848B138E128E24
S113282085E090E0918F808F178E168E84E190E082
S1132830958F848F85E0E8EFF6E0ACEBBAE0019089
S11328400D928A95E1F78FE0EBECFAE0DF011D923F
S11328508A95E9F721E030E048E252E06FE070E069
S11328608CEB9AE00E94FB00811109C085E0E8EF3F
S1132870F6E0ACEBBAE001900D928A95E1F7089589
S1132880CF93DF93C091FA0AD0E0809173039091C3
S11328907403C817D90759F44BE251E060E270E0C1
S11328A082EC98E03ED21092B90A1092B80A809154
S11328B0710390917203C817D90769F447EC50E08B
S11328C060E270E08EEE99E02CD21092B70A10927A
S11328D0BB0A1092BA0A1092B60ADF91CF910895FA
S11328E085B5816085BD16BCEEE6F0E0808181602F
S11328F080830895CF93DF93809171039091720345
S1132900C1DE8DEF96E0E8DD63E070E08EEF91E0EC
S11329100E940D07C0919C01D0919D01DD2761E0CB
S1132920CE015DDE84EF91E0E5DD60E0CE0157DEAF
S113293088EB9BE0DFDDDF91CF910895CF93DF93A8
S1132940C0914F036C2F80919C0190919D01DEDD1D
S11329506C2F80919E0190919F01D8DD6C2F809106
S11329609A0190919B01D2DD6C2F809198019091F6
S11329709901CCDD6C2F8091960190919701C6DD71
S11329806C2F8091940190919501C0DDD0915103F9
S11329906D2F8091920190919301B8DD6D2F8091FC
S11329A0900190919101B2DD6D2F80918E019091F3
S11329B08F01ACDD6D2F80918C0190918D01A6DD8E
S11329C06C2F80918A0190918B01A0DD6C2F8091F6
S11329D08801909189019ADD6D2F809186019091F3
S11329E0870194DD6C2F80918401909185018EDDA7
S11329F042DD84E690E07EDD34DDDF91CF91089501
S1132A009DDF64DE6DDF76CF08958091B60A813054
S1132A1049F484E690E06EDDBED917DA0E94450BD6
S1132A201092B60A089593DAC8DBF1CB0895E8DF73
S1132A30C0E0D0E0CE0115D247DD2196C83E83E048
S1132A40D807C1F70E94CC0AE0DFEDDFFBCFEE0F21
S1132A50FF1F0024001C0BBE0790F691E02D099483
S1132A60CF93DF938230910510F482E090E0E091FF
S1132A70040BF091050B20E030E0C0E0D0E030978B
S1132A8011F14081518148175907C0F0481759077F
S1132A9061F482819381209719F09B838A832BC0F0
S1132AA09093050B8093040B26C02115310519F072
S1132AB04217530718F49A01BE01DF01EF010280A7
S1132AC0F381E02DDCCF2115310509F1281B390BE9
S1132AD02430310590F412968D919C9113976115D1
S1132AE0710521F0FB019383828304C09093050B4D
S1132AF08093040BFD01329644C0FD01E20FF31FE5
S1132B0081939193225031092D933C933AC02091A3
S1132B10020B3091030B232B41F4209102013091DD
S1132B2003013093030B2093020B20910001309199
S1132B3001012115310541F42DB73EB7409104013F
S1132B4050910501241B350BE091020BF091030B0E
S1132B50E217F307A0F42E1B3F0B2817390778F070
S1132B60AC014E5F5F4F2417350748F04E0F5F1FCF
S1132B705093030B4093020B8193919302C0E0E0C6
S1132B80F0E0CF01DF91CF9108950F931F93CF937E
S1132B90DF93009709F48CC0FC01329713821282F0
S1132BA00091040B1091050B0115110581F420818E
S1132BB03181820F931F2091020B3091030B281750
S1132BC0390779F5F093030BE093020B71C0D80138
S1132BD040E050E0AE17BF0750F412962D913C919F
S1132BE01397AD012115310509F1D901F3CF9D01E9
S1132BF0DA013383228360817181860F971F8217E4
S1132C00930769F4EC0128813981260F371F2E5F61
S1132C103F4F318320838A819B8193838283452B19
S1132C2029F4F093050BE093040B42C01396FC9334
S1132C30EE931297ED01499159919E01240F351F8E
S1132C40E217F30771F480819181840F951F029636
S1132C5011969C938E938281938113969C938E9369
S1132C601297E0E0F0E0D80112968D919C911397B1
S1132C70009719F0F8018C01F6CF8D919C91980181
S1132C802E5F3F4F820F931F2091020B3091030B55
S1132C902817390769F4309729F41092050B10921C
S1132CA0040B02C0138212821093030B0093020BD5
S1132CB0DF91CF911F910F910895FC0188279927E7
S1132CC0E89421912032E9F3293010F02E30C8F332
S1132CD02B3239F02D3231F4689403C091D0820F35
S1132CE0911D219120532A30C8F31EF490958195AB
S1132CF09F4F0895911106C080538A5010F0865C4E
S1132D0006C0089599278827089585FDFBCF806222
S1132D109111F8CF81568A51E0F7089542E057E0C7
S1132D203EC0DC0101C06D9341505040E0F708956E
S1132D30FB01DC010D900020E9F7119701900D9241
S1132D400020E1F70895FC018191861721F0882382
S1132D50D9F7992708953197CF010895FB01DC0134
S1132D6001900D920020E1F70895FB015191552344
S1132D70A9F0BF01DC014D9145174111E1F759F468
S1132D80CD010190002049F04D9140154111C9F346
S1132D90FB014111EFCF81E090E001970895FA0122
S1132DA0A191B081009719F41097E1F0CD01DC01F5
S1132DB0CD010D90002011F4C00113C0FB0121913D
S1132DC0222319F02015D9F7F3CFFB012191201507
S1132DD019F41E92119606C02223C1F70D9000200B
S1132DE0A1F7D001FA01A193B0830895BB274A301B
S1132DF031F4992322F4BDE2909581959F4F09C047
S1132E007AE0979F902D879F802D910D112408952E
S1132E10BB27FB015527AA27880F991FAA1FA417B0
S1132E2010F0A41B83955051B9F7A05DAA3308F0A4
S1132E30A95DA193009779F7B111B1931192CB01D8
S1132E4000C0DC01FC01672F71917723E1F7329711
S1132E5004C07C916D9370836291AE17BF07C8F371
S1132E600895F999FECF92BD81BDF89A992780B54E
S1132E700895262FF999FECF1FBA92BD81BD20BDBA
S1132E800FB6F894FA9AF99A0FBE01960895F89439
S1052E90FFCF6E
S1132E920000060B200052454C4159434F4E4E450B
S1132EA24354494F4E533B00000000000000000011
S1132EB20000000041444D494E005553455200550F
S1132EC25352005549003A004341004D49005249CA
S1132ED200494D005541005253004E5300484F5390
S1132EE2543100504F52543100484F535432005021
S1132EF24F525432005353494400505744004150F6
S1132F024E0054530054490053540053570045543F
S1132F12004557002C0002000100030018001700AE
S1132F221600150010000F000E000D0029002800E5
S1132F320000500000100100010000006F6E6C6977
S1132F426E650032303836003139322E3136382E41
S1132F52302E32370037374C643763723764570088
S1132F6254617264697300746573742070726F645F
S1132F7275637420310041542B43495053454E44E8
S1132F823D0041542B43495053454E440D004F4B91
S1132F920054494D450054494D45204F4B0A0053B6
S1132FA2455249414C5F4E554D4245520023002340
S1132FB253455249414C3B0053455249414C0052FE
S1132FC24551554553545F53455249414C5F4E5503
S1132FD24D4245523B000A53455249414C4E554DD0
S1132FE24245523D0041542B534C4545503D320D10
S1132FF20A0041542B4349504D55583D310D0A00A6
S113300241542B43574D4F44453D330D0A0041541F
S11330122B43575341503D2248434D2D4E4554575F
S11330224F524B222C2261646D696E313233342249
S11330322C352C330D0A0041542B4349505345522D
S11330425645523D312C38300D0A0041542B434928
S11330524653520D0A0041542B43574A41503D22D4
S113306200220D0A0041542B434950534855540D34
S11330720041542B43474154543D310D0041542BDC
S1133082434744434F4E543D312C224950222C2273
S11330920041542B435354543D2200222C22222C0F
S11330A222220D0041542B43494943520D0A004147
S11330B2542B43495053544152543D302C225443CF
S11330C250222C2200222C0041542B4349505354A9
S11330D24152543D22544350222C22000402010145
S11330E20000001F001C001F001E001F001E001F06
S11330F2001F001E001F001E001F0001000000012F
S113310200000001004000474554202F2048545439
S1133112502F002B4950442C003C68746D6C3E3C8B
S1133122686561643E3C6D657461206E616D653DE8
S11331322276696577706F72742220636F6E74658C
S11331426E743D2277696474683D6465766963656B
S11331522D77696474682C20696E697469616C2DB9
S11331627363616C653D312E302C206D6178696D1D
S1133172756D2D7363616C653D312E30223E3C2F9B
S1133182686561643E3C626F64793E003C746974B4
S11331926C653E48434D20436F6E736F6C653C2FE4
S11331A27469746C653E003C646976207374796C4E
S11331B2653D22666F6E742D73697A653A206D657A
S11331C26469756D3B20746578742D616C69676EF2
S11331D23A2063656E7465723B223E3C7370616E85
S11331E23E003C666F726D206D6574686F643D22AB
S11331F2504F5354223E003C703E3C7374726F6EC7
S1133202673E53455249414C3A20003C2F73747235
S11332126F6E673E3C2F703E3C703E3C7374726F1F
S11332226E673E535349443C2F7374726F6E673E0C
S11332323C62723E3C696E70757420747970653DAF
S1133242227465787422206E616D653D2273736900
S113325264222076616C75653D2200223E3C2F700B
S11332623E003C703E3C7374726F6E673E50415335
S113327253574F52443C2F7374726F6E673E3C62D5
S1133282723E3C696E70757420747970653D22706B
S1133292617373776F726422206E616D653D227073
S11332A2617373776F7264222076616C75653D2257
S11332B2003C703E3C7374726F6E673E41504E3CEC
S11332C22F7374726F6E673E3C62723E3C696E701D
S11332D2757420747970653D227465787422206E49
S11332E2616D653D2261706E222076616C75653D6B
S11332F222003C703E3C7374726F6E673E484F53BB
S1133302543C2F7374726F6E673E3C62723E3C692A
S11333126E70757420747970653D227465787422B8
S1133322206E616D653D22686F7374222076616C34
S113333275653D22003C696E707574207479706500
S11333423D227375626D6974223E3C2F666F726D05
S11333523E3C2F7370616E3E3C2F6469763E003CA6
S11333622F626F64793E3C2F68746D6C3E00485442
S113337254502F312E3020323030204F4B0D0A431F
S11333826F6E74656E742D547970653A2074657825
S1133392742F68746D6C3B20636861727365743D4D
S11333A25554462D380D0A507261676D613A206E8C
S11333B26F2D63616368650D0A436F6E74656E7485
S11333C22D4C656E6774683A20000D0A436F6E6E69
S11333D2656374696F6E3A20636C6F73650D0A0DD1
S11333E20A00504F5354202F20485454502F007039
S11333F2617373776F726400737369640061706ED2
S113340200686F7374004E4F54494649434154490E
S11334124F4E3B5357495443483B00535749544337
S11334224852454C415900434647005B434C454191
S1133432525F454550524F4D5D00434C4541524900
S11334424E472E2E2E005B454E445D004E4F54498E
S11334524649434154494F4E3B55504441544544D7
S11334623B0A0024005550444154450052455155ED
S11334724553545F5550444154450A00434845431B
S11334824B0A004C495645006E756C6C0041540D54
S10534920A002A
S9030000FC
