:100000006AEF02F0FFFFFFFF00C016F001C015F01D
:10001000E9CF1BF0EACF1CF0F5CF1AF0F8CF17F0BC
:10002000F7CF18F0F6CF19F0F9D9A6D9F2A406D077
:10003000F294F60ED76E3C0ED66EF5D81AC0F5FFC8
:1000400017C0F8FF18C0F7FF19C0F6FF16C000F080
:1000500015C001F01BC0E9FF1CC0EAFF1100ACB2E3
:1000600002D00000FCD7D4C1ADFF12005E0E2A6E94
:10007000000E2B6ED40E2C6E010E2D6E500E226EC5
:10008000010E236E000E246E000E256EFF0E266EEE
:10009000FF0E276E000E286E000E296EFF0E010166
:1000A000BE6FFF0EBF6F000EC06F000EC16FAC8A37
:1000B000900EAB6E948E949C9EAA03D0AECF00F0AF
:1000C000FBD71200FF0E2A6EFF0E2B6EFF0E2C6E5A
:1000D000FF0E2D6EFF0E226EFF0E236E000E246E9D
:1000E000000E256EFF0E266EFF0E276E000E286E88
:1000F000000E296EFF0E0101BE6FFF0EBF6F000ED6
:10010000C06F000EC16FBA8A900EA66E958E959C38
:10011000A4AA03D07ACF00F0FBD712000101D36B61
:10012000D0C1E9FFD1C1EAFFEECFD2F1D251000A2E
:100130000EE0D2C1D4F193DF0101D32BD351D025EE
:10014000E96E000ED121EA6EEECFD2F1EFD71200A8
:10015000AECF01F0ABA202D0AB98AB8801C000F0EB
:100160001200010E926E936A946A956A806A816A9F
:10017000826A836A0F015D6B5C6B150E0B6E4B0E12
:100180000C6EBE0E0D6E0D2EFED70C2EFCD70B2E58
:10019000FAD70000670EAF6EAC8468DF030E0B6EFB
:1001A000080E0C6E770E0D6E0D2EFED70C2EFCD7A2
:1001B0000B2EFAD7B986010E7C6EA00E7B6EBA8428
:1001C00081DF150E0B6E4B0E0C6EBE0E0D6E0D2EDE
:1001D000FED70C2EFCD70B2EFAD700001D0ED06FC9
:1001E000000ED16F9BDF0B0E0B6E260E0C6E5D0E9C
:1001F0000D6E0D2EFED70C2EFCD70B2EFAD700005D
:100200000000060E0B6E130E0C6EAD0E0D6E0D2E55
:10021000FED70C2EFCD70B2EFAD700000000F28E72
:10022000F28C9D8A1200010E0101CE25006E000E97
:10023000CF21016E00C0CEF101C0CFF1CF51030A32
:1002400002E1E80ECE1920E1010ECC25006E000E71
:10025000CD21016E00C0CCF101C0CDF1CE6BCF6BD2
:10026000800E3118006E800E2F18005C02E12E50B7
:10027000305C0AE3010E2E24006E000E2F20016E6A
:1002800000C02EF001C02FF0000ECD1902E13C0E8F
:10029000CC190CE1010ECA25006E000ECB21016EB7
:1002A00000C0CAF101C0CBF1CC6BCD6B000ECB19F5
:1002B00002E13C0ECA190CE1010EC825006E000EC9
:1002C000C921016E00C0C8F101C0C9F1CA6BCB6B76
:1002D000000EC91902E1180EC8190CE1010EC6255D
:1002E000006E000EC721016E00C0C6F101C0C7F14B
:1002F000C86BC96BC4C100F0C5C101F0000EC5BF19
:10030000FF0E026E036E0036009001360236033691
:100310003C0E0024F66E050E0120F76E000E022042
:10032000F86E0900F5CF01F00900F5CF02F0C751D2
:10033000021802E10150C6190CE1010EC425006E3D
:10034000000EC521016E00C0C4F101C0C5F1C66B2D
:10035000C76B000EC51902E10C0EC4190CE1010EA9
:10036000C225006E000EC321016E00C0C2F101C0A3
:10037000C3F1C46BC56B1200A1AA4FD0800E01015E
:10038000BD19006E800E005C02E1C50EBC5D02E38B
:10039000BC6BBD6BF00EBC25D56F000EBD21D66FBA
:1003A000D7DED5C1E1FFD6C1E2FF00C0E6FFF00E07
:1003B0000101BC25E96E000EBD21EA6EEE500A0A6D
:1003C00013E0F00EBC25E96E000EBD21EA6EEE5082
:1003D000000A0AE0F00EBC25E96E000EBD21EA6EAF
:1003E000EE500D0A01E00FD0010EB96F010EBC25D1
:1003F000006E000EBD21016EF00E0024E16E000EB5
:100400000120E26EE66A010EBC25006E000EBD21E1
:10041000016E00C0BCF101C0BDF112009EAA4FD018
:10042000800E0101BB19006E800E005C02E1610EBE
:10043000BA5D02E3BA6BBB6B8C0EBA25D56F000EAA
:10044000BB21D66F85DED5C1E1FFD6C1E2FF00C07A
:10045000E6FF8C0E0101BA25E96E000EBB21EA6EA3
:10046000EE500A0A13E08C0EBA25E96E000EBB218D
:10047000EA6EEE50000A0AE08C0EBA25E96E000E14
:10048000BB21EA6EEE500D0A01E00FD0010EB86FED
:10049000010EBA25006E000EBB21016E8C0E0024E9
:1004A000E16E000E0120E26EE66A010EBA25006ED2
:1004B000000EBB21016E00C0BAF101C0BBF11200F9
:1004C0000900F5CFE6FF0006FBE10106F9E11200A5
:1004D00048DE1200410E1D6E540E1E6E0D0E1F6E74
:1004E0000A0E206E216AF4DFFF0E816EFF0E826E0F
:1004F000FF0E836EFF0E806E0B0E0B6E260E0C6EC3
:100500005D0E0D6E0D2EFED70C2EFCD70B2EFAD7DE
:1005100000000000816A826A836A806A0B0E0B6E9B
:10052000260E0C6E5D0E0D6E0D2EFED70C2EFCD71A
:100530000B2EFAD700000000D7D7FFD71F001C00F2
:100540001F001E001F001E001F001F001E001F00B6
:100550001E001F00FFFFFFFFFFFFFFFFFFFFFFFF6A
:020000040030CA
:0E0000001D03797CFF8991FF0FC00FE00F40B8
:00000001FF
