S00D000054657374312E7372656346
S11300000C9457000C9474000C9474000C947400B9
S11300100C9474000C9474000C9474000C9474008C
S11300200C9474000C9474000C9474000C9474007C
S11300300C9474000C9474000C9474000C9474006C
S11300400C9474000C9474000C9474000C9474005C
S11300500C9484000C9474000C9474000C9474003C
S11300600C9474000C9474000C9474000C9474003C
S11300700C9474000C9474000C947400D90BDF0B72
S1130080E50BEB0BF10BF70BFD0B390C3F0C450C9F
S11300904B0C510C570C5D0C320E390D750D7B0D4C
S11300A0810D310F340F4A0F510F8D0FCD0F1124D5
S11300B01FBECFEFD0E1DEBFCDBF11E0A0E0B1E0C5
S11300C0E4EFF4E202C005900D92AA34B107D9F727
S11300D028E0AAE4B1E001C01D92AD3CB207E1F70B
S11300E00E940A0D0C9478120C94000010924C019A
S11300F084E6EFE4F1E0DF011D928A95E9F71092BE
S11301004E0110924D0108951F920F920FB60F9257
S113011011242F933F934F938F939F93EF93FF93C8
S11301204091C60080914D0190914E018136910518
S113013020F010924E0110924D0180914D0190914A
S11301404E019C012F5F3F4F30934E0120934D0190
S1130150FC01E15BFE4F40834D3021F04A3011F049
S1130160411107C081E080934C01F901E15BFE4F2E
S11301701082FF91EF919F918F914F913F912F9119
S11301800F900FBE0F901F90189587E68093C400C0
S11301901092C50088E98093C10078940895E0EC3A
S11301A0F0E0908195FFFDCF8093C6000895CF9332
S11301B0DF93EC018881882331F021960E94CF00DF
S11301C089918111FBCFDF91CF910895249A0E94E8
S11301D0C5002FEF89E698E1215080409040E1F777
S11301E000C0000008951816190644F4EFE9FFE072
S11301F03197F1F700C000000197C1F70895181670
S1130200190634F425E02A95F1F700000197D1F797
S11302100895549A2BB12F7E3BB130614FB7F894B7
S113022061157105B1F0FC01680F791F919188E0A7
S11302303BB9000000C097FF2BB9990F000000C024
S113024000C000C02BB900C08A9591F7E617F707E4
S113025069F74FBF08959093BD018093BC01089541
S11302608093BE080895009739F481E090E090935C
S1130270B4018093B30108959093B4018093B301C2
S113028008952F923F924F925F926F927F928F9236
S11302909F92AF92BF92CF92DF92EF92FF920F9311
S11302A01F93CF93DF9300D01F92CDB7DEB7209179
S11302B0BE082983222309F4C8C0C090B301D0909A
S11302C0B401822E912C0F2EFEEBAF2EF1E0BF2E47
S11302D0F02D0FEB15E0EEEBF5E0FB83EA83E0ECA9
S11302E0F5E0E12CF12C6894332433F8212C21E03F
S11302F030E0D5014D915D916D917D915D01832D2E
S1130300922DDC0150962A013B0104C07694679437
S113031057944794AA95D2F740FE0DC0D8017C901B
S1130320D901082E02C0AA0FBB1F0A94E2F77A2A49
S1130330D8017C920DC0D901082E02C0AA0FBB1FA0
S11303400A94E2F76A2E6094D8017C9076207C921D
S11303500197B9F6832D922DDC0118962A013B01F1
S113036004C07694679457944794AA95D2F740FEB4
S11303700FC0AA81BB817C90D901082E02C0AA0FAC
S1130380BB1F0A94E2F77A2AAA81BB817C920EC031
S1130390D901082E02C0AA0FBB1F0A94E2F77A2ED5
S11303A07094AA81BB816C9076207C920197A1F60F
S11303B0832D922D2A013B01082E04C07694679464
S11303C0579447940A94D2F740FE0BC07080D90129
S11303D0082E02C0AA0FBB1F0A94E2F7A729A08324
S11303E00BC0D901082E02C0AA0FBB1F0A94E2F762
S11303F0A095B081AB23A0830197E1F6D8018C913D
S113040090E0B6010E94D011D8016C93AA81BB81FF
S11304108C9190E0B6010E94D011AA81BB816C93AB
S1130420808190E0B6010E94D0116083BFEFEB1A87
S1130430FB0A0D5F1F4F8A819B8103969B838A83EE
S11304403396E814F90408F454CFE9818E2F90E030
S1130450BC01660F771F680F791F8EEB95E00E9431
S113046009018BE490E00E94FF008091BC0190910F
S1130470BD010E94F3000F900F900F90DF91CF9178
S11304801F910F91FF90EF90DF90CF90BF90AF90AE
S11304909F908F907F906F905F904F903F902F90A0
S11304A008959091BE08992351F0EEEBF1E080E0BD
S11304B011921192119211928F5F8917C8F30E94C1
S11304C0410108958F929F92AF92BF92CF92DF9293
S11304D0EF92FF920F93CF93DF934A01D22FC091F3
S11304E000012C2F30E040E050E00E94E41179013B
S11304F0DD24CC246C2F70E0C4010E94BC11B62E04
S1130500A12CCA0CDB1CE11CF11CE02FF0E0EE0F67
S1130510FF1FEE0FFF1FE254FE4F8D2F6C2F0E9422
S1130520B011C80ED11CE11CF11CC082D182E28240
S1130530F382DF91CF910F91FF90EF90DF90CF90F6
S1130540BF90AF909F908F9008950F931F93853520
S113055078F4682F660F860F282F209590E0A0E08E
S1130560B0E0DC0199278827BC01CD01722B1FC0A4
S11305708A3A70F48555682F660F680F262F2095E8
S1130580862F90E0A0E0B0E0BC01CD01822B0FC02B
S11305908A5A982F990F980F692F6095462F50E02B
S11305A060E070E08A019B01192BC901B8011F9119
S11305B00F9108952F923F924F925F926F927F9284
S11305C08F929F92AF92BF92CF92DF92EF92FF925F
S11305D00F931F93CF93DF93CDB7DEB76D970FB60D
S11305E0F894DEBF0FBECDBFF82E162F842E922EA8
S11305F06E2D70E080E090E00E94F9102B013C0128
S11306006F2D70E080E090E00E94F91069837A8396
S11306108B839C83612F70E080E090E00E94F9104E
S11306206D877E878F87988B682D70E080E090E0DF
S11306300E94F910698F7A8F8B8F9C8F692D70E0DF
S113064080E090E00E94F91029813A814B815C811D
S11306500E94DF0F6D837E838F8398870E94C3106F
S11306609B01772324F422273327261B370B790198
S1130670602F70E080E090E00E94F9102D853E85A7
S11306804F8558890E94DF0F69877A878B879C87FB
S11306900E94C3109B01772324F422273327261BAF
S11306A0370B2E153F055CF4B701FF0C880B990B33
S11306B00E94FB10962E372E282EE92E0AC0B9016F
S11306C0330F880B990B0E94FB10962E372E282E81
S11306D0E92E298D3A8D4B8D5C8DC301B2010E94A8
S11306E0DF0F2B013C010E94C3109B01772324F4EC
S11306F022273327261B370BB901330F880B990B9D
S11307000E94FB10862E172F082FF92E262F372F25
S1130710482F592F692D732D822D9E2D0E944C1028
S1130720882324F0892C132D022DFE2C20E030E0A8
S1130730A901682D712F802F9F2D0E94AB111816CF
S11307400CF0C6C0282D312F402F5F2D6D817E8186
S11307508F8198850E9451106D837E838F83988743
S1130760282D312F402F5F2D69857A858B859C85B7
S11307700E94511069877A878B879C87282D312F97
S1130780402F5F2DC301B2010E945110698B7A8BF7
S11307908B8B9C8BE12CC601880F991F880F991FA6
S11307A09C0122543E4F388F2F8B4D845E846F847E
S11307B07888ED8E16018D861D8B0E8B898C9A8C14
S11307C0AB8CBC8CF98E2D813E814F81588569811B
S11307D07A818B819C810E94E00F69837A838B8369
S11307E09C8329853A854B855C85C301B2010E94AF
S11307F0E00F2B013C0129893A894B895C89C501A9
S1130800B4010E94E00F4B015C010E94CA10C62E85
S1130810D12CE12CF12C69817A818B819C810E94FD
S1130820CA10DB0199278827C80ED91EEA1EFB1EB1
S1130830C301B2010E94CA10162F00E0B701A6013D
S1130840400F511F611D711D21143104F1F42091D9
S1130850BE0830E02F5F3F4F80E090E0A0E0BD8D08
S1130860F98C880F991F880F991FFC01E254FE4FE1
S11308704083518362837383AF5F8A2F90E0821732
S113088093077CF3BD8FF98E06C0EF89F88D408302
S11308905183628373838091BB01813019F4109278
S11308A0BB0116C00E944101FD8DFF5FFD8F6F2FBC
S11308B070E080E090E00E94FB109B01AC016D852C
S11308C07D898E89998D0E94AB1118160CF47BCF0B
S11308D06D960FB6F894DEBF0FBECDBFDF91CF91FA
S11308E01F910F91FF90EF90DF90CF90BF90AF904A
S11308F09F908F907F906F905F904F903F902F903C
S11309000895AF92BF92CF92DF92EF92FF920F932E
S1130910CF93DF93D42F9091BE089923F9F090914F
S1130920BB01913061F0C0E0A62EB12CC82ED12CB1
S1130930E12CF12C07C09091BB01913019F4109275
S1130940BB010EC00C2F2D2FA501C701B6010E94BB
S11309506202CF5F9091BE08C91768F30E944101FB
S1130960DF91CF910F91FF90EF90DF90CF90BF90E8
S1130970AF9008952F923F924F925F926F927F9221
S11309808F929F92AF92BF92CF92DF92EF92FF929B
S11309900F931F93CF93DF93CDB7DEB729970FB68D
S11309A0F894DEBF0FBECDBF1E8DFF8CF11608F08C
S11309B05AC09091BB01913049F405C01150809107
S11309C0BB01813019F51092BB014DC08986E886C0
S11309D04983882E11500F2EFBEAEF2EF02D8A2D1D
S11309E090E09B838A834C2C512C612C712C202EFB
S11309F0312C822F90E0A0E0B0E08C839D83AE8305
S1130A00BF83C62ED12C912CA12CB12C91E0910F37
S1130A109E9D812D11248695282F220F820F981BCD
S1130A2041F4012F2981A601C501B4010E9462028B
S1130A3016C0913051F4012F2885A1016C817D816C
S1130A408E819F810E9462020AC0923041F4012F7C
S1130A5029854A815B81C301B2010E9462020E941E
S1130A6041011F11ABCF29960FB6F894DEBF0FBE1C
S1130A70CDBFDF91CF911F910F91FF90EF90DF9049
S1130A80CF90BF90AF909F908F907F906F905F902A
S1130A904F903F902F9008952F923F924F925F92E4
S1130AA06F927F928F929F92AF92BF92CF92DF927A
S1130AB0EF92FF920F931F93CF93DF93CDB7DEB7DF
S1130AC02A970FB6F894DEBF0FBECDBF3E2D6F8CB4
S1130AD078A01091BE08161417040CF066C0E82C18
S1130AE09C2D3A87822E4987F12CCA2CD12C292F90
S1130AF030E040E050E029833A834B835C83402E0E
S1130B00512C912CA12CB12C262E312C282F30E0E5
S1130B1040E050E02D833E834F83588702E0010F6D
S1130B202E2DA60169817A818B819C810E946202AB
S1130B3001E0010F2A85A201C501B4010E946202ED
S1130B40012F2985A1016D817E818F8198850E9465
S1130B50620211502091BE08412F50E0822F90E094
S1130B6003974817590709F4122F2223A9F0EEEB33
S1130B70F1E0215030E0220F331F220F331F2E5398
S1130B803E4F84819581A681B78181939193A193EE
S1130B90B193E217F307A9F70E944101F3948F2D53
S1130BA090E0861597050CF4B9CF2A960FB6F89401
S1130BB0DEBF0FBECDBFDF91CF911F910F91FF908C
S1130BC0EF90DF90CF90BF90AF909F908F907F90E9
S1130BD06F905F904F903F902F9008952F923F9287
S1130BE04F925F926F927F928F929F92AF92BF9239
S1130BF0CF92DF92EF92FF920F931F93CF93DF93E5
S1130C00CDB7DEB72A970FB6F894DEBF0FBECDBFBF
S1130C106F8C78A0161417040CF084C09091BB015B
S1130C20913009F046C004C08091BB01813019F4B1
S1130C301092BB0177C0012F2C2DA20169817A810A
S1130C408B819C810E9462020FEF010F2E2DA10166
S1130C50C501B4010E9462020EEF010F2D2D4D81DA
S1130C605E816F81788589859A850E9462021F5F03
S1130C70133009F410E08091BE0890E0FC01EE0FFF
S1130C80FF1FEE0FFF1FEE53FE4F729162915291C0
S1130C90429144835583668377830197B2F70E9418
S1130CA04101F3948F2D90E0861597050CF4BCCF89
S1130CB039C0D82CFA2C1C2D202E822EC42E462E60
S1130CC0512C282F30E040E050E029833A834B83B5
S1130CD05C8300E02C2DA20169817A818B819C8147
S1130CE00E946202312C912CA12CB12C0FEF2E2DDD
S1130CF0A101C501B4010E9462024F2D50E05E8340
S1130D004D83812F90E0A0E0B0E08F839887A9877E
S1130D10BA870EEF2D2DBC01CD010E946202F12C89
S1130D2011E0A9CF2A960FB6F894DEBF0FBECDBF4F
S1130D30DF91CF911F910F91FF90EF90DF90CF90B3
S1130D40BF90AF909F908F907F906F905F904F90E7
S1130D503F902F9008954F925F926F927F928F925F
S1130D609F92AF92BF92CF92DF92EF92FF920F9336
S1130D701F93CF93DF931092B6011092B501A82E62
S1130D80B12CBA2CAA241A141B040CF048C0C12C90
S1130D90D12C0F2EFEEB6F2EF1E07F2EF02D44248C
S1130DA04394512C1092B8011092B7010091BE08DF
S1130DB010E0101611061CF57301C0E0D0E0812C80
S1130DC0912CCE01B8010E94D011862F8C0D0E9467
S1130DD0A502F70161937193819391937F01FFEFD2
S1130DE08F1A9F0AD395801691065CF3101611068C
S1130DF014F0042D152D1093B8010093B7010E942F
S1130E004101C090B501D090B6018FEFC81AD80A3D
S1130E10D092B601C092B501CA14DB041CF2DF9172
S1130E20CF911F910F91FF90EF90DF90CF90BF90E3
S1130E30AF909F908F907F906F905F904F900895A8
S1130E406F927F928F929F92AF92BF92CF92DF92D6
S1130E50EF92FF920F931F93CF93DF9390E0982F1D
S1130E6088276C0121E0C21AD108D092B601C09241
S1130E70B501892B09F446C00F2EFEEBAF2EF1E02D
S1130E80BF2EF02D66246394712C1092B801109239
S1130E90B7010091BE0810E0101611061CF575018B
S1130EA0C0E0D0E0812C912CCE01B8010E94D01179
S1130EB0862F8C0D0E94A502F70161937193819393
S1130EC091937F01FFEF8F1A9F0AD39580169106A5
S1130ED05CF31016110614F0062D172D1093B801AB
S1130EE00093B7010E9441018091B5019091B60130
S1130EF06C0121E0C21AD108D092B601C092B501AA
S1130F00892B19F6DF91CF911F910F91FF90EF90EC
S1130F10DF90CF90BF90AF909F908F907F906F9015
S1130F2008952F923F925F926F927F928F929F9239
S1130F30AF92BF92CF92DF92EF92FF920F931F93E3
S1130F40CF93DF93CDB7DEB7E0970FB6F894DEBF4B
S1130F500FBECDBF142F3AA729A71092BA01109241
S1130F60B901542E5694262E2694312C982F9695FA
S1130F70292F30E040E050E029833A834B835C839F
S1130F80612E66946694962F96959695492F50E017
S1130F905E834D83982F96959695292F30E040E0F7
S1130FA050E02F83388749875A87712E7694769438
S1130FB07694962F969596959695492F50E05C8752
S1130FC04B87982F969596959695292F30E040E07B
S1130FD050E02D873E874F87588B812E86948694C8
S1130FE086948694962F92959F70492F50E05A8B41
S1130FF0498B982F92959F70292F30E040E050E064
S11310002B8B3C8B4D8B5E8B912E96949694969461
S113101096949694962F929596959770492F50E0B2
S1131020588F4F8B982F929596959770292F30E073
S113103040E050E0298F3A8F4B8F5C8FA12EA6940D
S1131040A694A694A694A694A694962F9295969563
S113105096959370492F50E05E8F4D8F982F9295FF
S1131060969596959370292F30E040E050E02F8FAD
S113107038A349A35AA3B12EBB1CBB24BB1C962F77
S1131080991F9927991F492F50E05CA34BA3982FD0
S1131090991F9927991F292F30E040E050E02DA394
S11310A03EA34FA358A720E030E0462F50E0C82EBF
S11310B0D12CE12CF12CCBA6DCA6EDA6FEA66A0170
S11310C0F12E89012F2DA6016BA57CA58DA59EA5CA
S11310D00E946202E9EBF1E000810150252DA1019B
S11310E069817A818B819C810E946202E9EBF1E043
S11310F000810250262D4D815E816F81788589851E
S11311009A850E946202E9EBF1E000810350272DE9
S11311104B855C856D857E858F8598890E946202EA
S1131120E9EBF1E000810450282D49895A896B8943
S11311307C898D899E890E946202E9EBF1E000813D
S11311400550292D4F89588D698D7A8D8B8D9C8DF5
S11311500E946202E9EBF1E0008106502A2D4D8DD8
S11311605E8D6F8D78A189A19AA10E946202E9EB3C
S1131170F1E0008107502B2D4BA15CA16DA17EA154
S11311808FA198A50E946202E9EBF1E0008108506A
S113119020E040E050E060E070E0CB010E94620299
S11311A06091BE0870E0675F7F4F89A59AA50E9491
S11311B0D011CB010E94F3000E94410180914C01A7
S11311C0882319F00E94510212C00091B9011091B4
S11311D0BA010F5F1F4F1093BA010093B9018091B8
S11311E0BE0890E00996081719070CF46BCFE09637
S11311F00FB6F894DEBF0FBECDBFDF91CF911F9124
S11312000F91FF90EF90DF90CF90BF90AF909F90A1
S11312108F907F906F905F903F902F9008953F92B2
S11312204F925F926F927F928F929F92AF92BF92F2
S1131230CF92DF92EF92FF920F931F93CF93DF939E
S1131240CDB7DEB7EE970FB6F894DEBF0FBECDBFB5
S1131250B42E1E2DDAAAC9AA1092BA011092B901AD
S1131260342E3694962F9695C92ED12CDA82C982C3
S1131270982F9695C92ED12CE12CF12CCB82DC82AF
S1131280ED82FE82442E46944694962F969596952A
S1131290E92EF12CF886EF82982F96959695C92E13
S11312A0D12CE12CF12CC986DA86EB86FC86542EEF
S11312B0569456945694962F969596959695E92E0F
S11312C0F12CFE86ED86982F969596959695C92EC7
S11312D0D12CE12CF12CCF86D88AE98AFA8A642EA3
S11312E06694669466946694962F92959F70E92E00
S11312F0F12CFC8AEB8A982F92959F70C92ED12CE1
S1131300E12CF12CCD8ADE8AEF8AF88E712E769448
S1131310902F9695E92EF12CFA8EE98E922F9695C0
S1131320C92ED12CE12CF12CCB8EDC8EED8EFE8ED1
S1131330812E86948694902F96959695E92EF12C7D
S1131340F8A2EF8E922F96959695C92ED12CE12C6A
S1131350F12CC9A2DAA2EBA2FCA2912E9694969447
S11313609694902F969596959695E92EF12CFEA23B
S1131370EDA2922F969596959695C92ED12CE12C97
S1131380F12CCFA2D8A6E9A6FAA6A12EA694A694DB
S1131390A694A694902F92959F70E92EF12CFCA60A
S11313A0EBA6922F92959F70C92ED12CE12CF12C93
S11313B0CDA6DEA6EFA6F8AA40E050E0E62EF12C7A
S11313C0FCAAEBAAC82ED12CE12CF12C802F90E0A2
S11313D09EAF8DAF822F90E0A0E0B0E08DAB9EABCE
S11313E0AFABB8AFC9AEDAAEEBAEFCAEF12E8A014C
S11313F0CDACDEAC2B2D4BA95CA969AD7AAD8BAD20
S11314009CAD0E946202A9EBB1E00C910150232D26
S113141049815A816B817C818D819E810E94620207
S1131420E9EBF1E000810250242D4F815885698554
S11314307A858B859C850E946202A9EBB1E00C91B0
S11314400350252D4D855E856F85788989899A8914
S11314500E946202E9EBF1E000810450262D4B89E1
S11314605C896D897E898F89988D0E946202A9EBBF
S1131470B1E00C91055020E040E050E060E070E005
S1131480CB010E946202E9EBF1E0008106502F2DAE
S1131490A6016DA97EA98FA998AD0E946202A9EB4D
S11314A0B1E00C910750272D498D5A8D6B8D7C8DA1
S11314B08D8D9E8D0E946202E9EBF1E0008108505F
S11314C0282D4F8D58A169A17AA18BA19CA10E94BE
S11314D06202A9EBB1E00C910950292D4DA15EA146
S11314E06FA178A589A59AA50E946202E9EBF1E0B3
S11314F000810A502A2D4BA55CA56DA57EA58FA55C
S113150098A90E946202A9EBB1E00C910B5020E073
S113151040E050E060E070E0CB010E946202609124
S1131520BE0870E0645F7F4F89A99AA90E94D01118
S1131530CB010E94F3000E94410180914C01882359
S113154019F00E94510212C00091B9011091BA0120
S11315500F5F1F4F1093BA010093B9018091BE0829
S113156090E00C96081719070CF444CFEE960FB6CA
S1131570F894DEBF0FBECDBFDF91CF911F910F91C5
S1131580FF90EF90DF90CF90BF90AF909F908F909F
S11315907F906F905F904F903F900895CF93DF932B
S11315A065E071E00E942F126CE071E00E942A1243
S11315B0892B49F413C0C130D10539F40E940C12AF
S11315C00E94300102C0C0E0D0E021966CE071E0DE
S11315D080E090E00E942A12009769F7DF91CF9192
S11315E008950F931F93CF93DF936EE071E00E94F1
S11315F02F126CE071E00E942A12892BE1F428C0BA
S1131600C230D10561F0C330D10579F0C130D105C4
S1131610B1F40E940C12F8019183808310C00E94DF
S11316200C12F801938382830AC00E940C12F80101
S11316309583848304C0C0E0D0E007EC18E02196D1
S11316406CE071E080E090E00E942A120097C1F6FD
S1131650DF91CF911F910F9108950F931F93CF9313
S1131660DF9362E171E00E942F126CE071E00E944E
S11316702A12892B49F535C0C230D10591F024F4E2
S1131680C130D10541F024C0C330D10581F0C4304C
S1131690D10599F01DC00E940C12F801918380833A
S11316A017C00E940C12F8019383828311C00E9418
S11316B00C12F801958384830BC00E940C12909342
S11316C0C0088093BF0804C0C0E0D0E007EC18E075
S11316D021966CE071E080E090E00E942A1200976D
S11316E059F6DF91CF911F910F9108950F931F9396
S11316F0CF93DF9369E171E00E942F126CE071E0F7
S11317000E942A12892B49F535C0C230D10591F0C7
S113171024F4C130D10541F024C0C330D10581F097
S1131720C430D10599F01DC00E940C12F8019183B8
S1131730808317C00E940C12F8019383828311C026
S11317400E940C12F801958384830BC00E940C1232
S11317509093C0088093BF0804C0C0E0D0E007ECB9
S113176018E021966CE071E080E090E00E942A127B
S1131770009759F6DF91CF911F910F910895EF9241
S1131780FF920F931F93CF93DF9363E271E00E9464
S11317902F126CE071E00E942A12892BA9F548C02F
S11317A0FE013197E730F105C8F5E25CFF4F0C9478
S11317B006120E940C12F801918380832FC00E94AC
S11317C00C12F8019383828329C00E940C12F80141
S11317D09583848323C00E940C12F7019183808334
S11317E01DC00E940C12F7019383828317C00E94CC
S11317F00C12F7019583848311C00E940C129093FC
S1131800C0088093BF080AC0C0E0D0E00F2EF1ECFE
S1131810EF2EF8E0FF2EF02D07EC18E021966CE097
S113182071E080E090E00E942A12009709F0B8CF9E
S1131830DF91CF911F910F91FF90EF900895EF9258
S1131840FF920F931F93CF93DF936AE271E00E949C
S11318502F126CE071E00E942A12892BA9F548C06E
S1131860FE013197E730F105C8F5EB5BFF4F0C94AF
S113187006120E940C12F801918380832FC00E94EB
S11318800C12F8019383828329C00E940C12F80180
S11318909583848323C00E940C12F7019183808373
S11318A01DC00E940C12F7019383828317C00E940B
S11318B00C12F7019583848311C00E940C1290933B
S11318C0C0088093BF080AC0C0E0D0E00F2EF1EC3E
S11318D0EF2EF8E0FF2EF02D07EC18E021966CE0D7
S11318E071E080E090E00E942A12009709F0B8CFDE
S11318F0DF91CF911F910F91FF90EF900895809108
S11319004C01882309F485C064E371E08FE491E01D
S11319100E942F12892B39F085E090E09093040106
S11319208093030174C06EE071E08FE491E00E9443
S11319302F12892B59F08FE491E00E94F10A87E07D
S113194090E0909304018093030161C062E171E02F
S11319508FE491E00E942F12892B59F08FE491E0DB
S11319600E942D0B88E090E0909304018093030182
S11319704EC063E271E08FE491E00E942F12892B44
S113198059F08FE491E00E94BF0B89E090E09093BE
S11319900401809303013BC069E171E08FE491E0AD
S11319A00E942F12892B59F08FE491E00E94760B4C
S11319B08AE090E0909304018093030128C06AE2D6
S11319C071E08FE491E00E942F12892B59F08FE48B
S11319D091E00E941F0C86E090E0909304018093B4
S11319E0030115C065E071E08FE491E00E942F12BD
S11319F0892B39F08FE491E00E94CE0A0E945102B3
S1131A0006C085E090E090930401809303010E9456
S1131A10760008950E94E60088E391E00E94D700D2
S1131A2084E190E00E94300185E090E00E9433015F
S1131A3080E090E00E942B01C4EFD1E00F2EF7EC80
S1131A406F2EF8E07F2EF02D0F2EF1EC4F2EF8E0E4
S1131A505F2EF02DB12CF12C0E947F0CE09103013C
S1131A60F0910401EB30F105B8F7E45BFF4F0C94FF
S1131A700612CB2CDF2CE12C0FEF24E140E060E0D8
S1131A8080E00E94DA0280914C018111E5CFEE24BE
S1131A90EA9400E020E040E06FEF84E10E94DA0283
S1131AA080914C018111D8CFE12C0FEF20E04FEF52
S1131AB060E00E94DA0280914C018111CDCF00E0F8
S1131AC02FEF40E06FEF0E94DA0280914C01811108
S1131AD0C3CF0F2EF2E8EF2EF02D0BE420E040E010
S1131AE060E08FEF0E94DA02B7CF65E070E081E03A
S1131AF00E942007B1CF65E070E081E00E94AB0650
S1131B00ABCF1F928091BE0881508F93812CAA2461
S1131B10AA94CC24CA94E12C0FEF2FEF4FEF60E08E
S1131B2080E00E94BA040F900F9080914C018111C3
S1131B3093CF84E690E00E94F3001F928091BE0848
S1131B4081508F930F2EFCE08F2EF02D0F2EFEE18F
S1131B50CF2EF02D24E144E160E48EEF0E94BA041C
S1131B600F900F9080914C01811176CF84E690E024
S1131B700E94F3001F928091BE0881508F93812CA4
S1131B80CC24CA94EE24EA9400E020E04FEF6FEFF7
S1131B9080E00E94BA040F900F9080914C01811153
S1131BA05BCF84E690E00E94F3001F928091BE0810
S1131BB081508F930F2EF8E28F2EF02D0F2EF8E226
S1131BC0AF2EF02D0F2EF8E2CF2EF02D0F2EF2E8CF
S1131BD0EF2EF02D0BE420E048E268E288E20E9458
S1131BE0BA040F900F9080914C01811135CF84E697
S1131BF090E00E94F3001F928091BE0881508F9361
S1131C000F2EF3E08F2EF02D0F2EFCEDAF2EF02DC6
S1131C100F2EF3E0CF2EF02DEE24EA9400E02FEF08
S1131C2040E06FEF80EA0E94BA040F900F90809119
S1131C304C01811111CF84E690E00E94F3001F92C1
S1131C408091BE0881508F93812CAA24AA94C12C20
S1131C50E12C2FEF40E06FEF80E00E94BA040F9078
S1131C600F90FACE809102018F93809101018F939E
S1131C70812CA12CCC24CA94E12C00E02FEF40E06D
S1131C8060E08FEF0E94EE050F900F9080914C0161
S1131C908111E2CE809102018F93809101018F9393
S1131CA0AA24AA94C12C0FEF20E040E06FEF80E05B
S1131CB00E944C050F900F9080914C018111CCCE65
S1131CC0809102018F93809101018F9388248A94DB
S1131CD0A12CCC24CA94EE24EA9400E02FEF4FEF19
S1131CE060E08FEF0E94EE050F900F9080914C0101
S1131CF08111B2CE809102018F93809101018F9363
S1131D00C12C20E04FEF60E080E00E944C050F9072
S1131D100F9080914C0181119FCE809102018F938D
S1131D20809101018F93AA24AA940FEF20E04FEF32
S1131D306FEF80E00E94EE050F900F9080914C01B0
S1131D4081118ACE809102018F93809101018F933A
S1131D50812C0F2EF0EACF2EF02DE12C20EA40E06A
S1131D606FEF80EA0E944C050F900F9080914C0118
S1131D70811172CE809102018F93809101018F9322
S1131D800F2EF2E88F2EF02D0F2EFBE4AF2EF02D48
S1131D90C12C0F2EF2E8EF2EF02D0BE420E042E8E8
S1131DA06BE480E00E94EE050F900F9080914C014F
S1131DB0811152CE809102018F93809101018F9302
S1131DC00F2EF4E18F2EF02D6894AA24A6F80F2E7E
S1131DD0FEEFCF2EF02D0F2EF4E1EF2EF02D00E4C8
S1131DE02EEF44E160E48EEF0E944C050F900F90BB
S1131DF080914C01811130CE809102018F938091AA
S1131E0001018F93812CAA24AA94CC24CA94E12C96
S1131E100FEF2FEF40E06FEF8FEF0E94EE050F9072
S1131E200F9080914C01811117CE809102018F9304
S1131E30809101018F9388248A940F2EF7E8AF2EA6
S1131E40F02D0F2EFEECCF2EF02DEE24EA9407E8B1
S1131E502EEC4FEF67E88EEC0E944C050F900F902C
S1131E60FBCD0E945102F8CD8091BF089091C0082B
S1131E708C9F60018D9FD00C9C9FD00C1124F2018B
S1131E80E48002812081F3014481628180810E9487
S1131E900F09E2CDF3014481628180810E948104B3
S1131EA0DBCDF3014481628180810E9481048091B1
S1131EB0BF089091C0081816190694F40B2D1F2D15
S1131EC0CE010E94F30080914C01811109C00F5F83
S1131ED01F4F8091BF089091C0080817190784F319
S1131EE00E9451028091BF089091C00818161906EB
S1131EF00CF0B2CD0B2D1F2DCE010E94F30080916A
S1131F004C018111A9CD0F5F1F4F8091BF089091A3
S1131F10C0080817190784F39FCDF3014481628137
S1131F2080810E9481048091BF089091C008181696
S1131F30190694F40B2D1F2DCE010E94F3008091FD
S1131F404C01811109C00F5F1F4F8091BF08909110
S1131F50C0080817190784F3F20144816281808163
S1131F600E9481048091BF089091C0081816190638
S1131F700CF072CD0B2D1F2DCE010E94F300809129
S1131F804C01811169CD0F5F1F4F8091BF08909163
S1131F90C0080817190784F35FCD8091BF0890919A
S1131FA0C0088C9F90018D9F300D9C9F300D112493
S1131FB0F3014481628180810E9491074DCD505884
S1131FC0BB27AA270E94F70F0C9471110E9463117A
S1131FD038F00E946A1120F039F49F3F19F426F476
S1131FE00C9460110EF4E095E7FB0C945A11E92F60
S1131FF00E94821158F3BA17620773078407950782
S113200020F079F4A6F50C94A4110EF4E0950B2EAF
S1132010BA2FA02D0B01B90190010C01CA01A00136
S11320201124FF27591B99F0593F50F4503E68F191
S11320301A16F040A22F232F342F4427585FF3CFD2
S1132040469537952795A795F0405395C9F77EF4A3
S11320501F16BA0B620B730B840BBAF09150A1F0EC
S1132060FF0FBB1F661F771F881FC2F70EC0BA0F72
S1132070621F731F841F48F4879577956795B795FA
S1132080F7959E3F08F0B0CF9395880F08F09927F5
S1132090EE0F9795879508950E94361108F481E014
S11320A008950E9465100C9471110E946A1158F0F1
S11320B00E94631140F029F45F3F29F00C945A11F7
S11320C051110C94A5110C9460110E94821168F3B3
S11320D09923B1F3552391F3951B550BBB27AA27DD
S11320E062177307840738F09F5F5F4F220F331F17
S11320F0441FAA1FA9F335D00E2E3AF0E0E832D0DF
S113210091505040E695001CCAF72BD0FE2F29D0E1
S1132110660F771F881FBB1F261737074807AB07B3
S1132120B0E809F0BB0B802DBF01FF2793585F4F28
S11321303AF09E3F510578F00C945A110C94A51175
S11321405F3FE4F3983ED4F3869577956795B7950A
S1132150F7959F5FC9F7880F911D9695879597F915
S11321600895E1E0660F771F881FBB1F621773078E
S11321708407BA0720F0621B730B840BBA0BEE1FA3
S113218088F7E09508950E94CA106894B1110C94E0
S1132190A51108950E948A1188F09F5798F0B92FCD
S11321A09927B751B0F0E1F0660F771F881F991F88
S11321B01AF0BA95C9F714C0B13091F00E94A41175
S11321C0B1E008950C94A411672F782F8827B85F85
S11321D039F0B93FCCF3869577956795B395D9F7E0
S11321E03EF490958095709561957F4F8F4F9F4FEA
S11321F00895E89409C097FB3EF4909580957095F6
S113220061957F4F8F4F9F4F9923A9F0F92F96E93E
S1132210BB279395F695879577956795B795F111B3
S1132220F8CFFAF4BB0F11F460FF1BC06F5F7F4F50
S11322308F4F9F4F16C0882311F096E911C0772362
S113224021F09EE8872F762F05C0662371F096E86B
S1132250862F70E060E02AF09A95660F771F881F3A
S1132260DAF7880F9695879597F90895990F0008DE
S1132270550FAA0BE0E8FEEF16161706E807F90754
S1132280C0F012161306E407F50798F0621B730BEF
S1132290840B950B39F40A2661F0232B242B252B70
S11322A021F408950A2609F4A140A6958FEF811D13
S11322B0811D089597F99F6780E870E060E00895B4
S11322C09FEF80EC089500240A941616170618064A
S11322D00906089500240A94121613061406050626
S11322E00895092E0394000C11F4882352F0BB0FB7
S11322F040F4BF2B11F460FF04C06F5F7F4F8F4F1A
S11323009F4F089557FD9058440F551F59F05F3F54
S113231071F04795880F97FB991F61F09F3F79F003
S113232087950895121613061406551FF2CF469585
S1132330F1DF08C0161617061806991FF1CF869507
S11323407105610508940895E894BB2766277727EB
S1132350CB0197F908950E94361108F48FEF089580
S1132360991B79E004C0991F961708F0961B881FE3
S11323707A95C9F780950895AA1BBB1B51E107C044
S1132380AA1FBB1FA617B70710F0A61BB70B881F01
S1132390991F5A95A9F780959095BC01CD01089590
S11323A097FB072E16F4009407D077FD09D00E94FE
S11323B0BC1107FC05D03EF4909581959F4F08957C
S11323C0709561957F4F0895A1E21A2EAA1BBB1B3D
S11323D0FD010DC0AA1FBB1FEE1FFF1FA217B307ED
S11323E0E407F50720F0A21BB30BE40BF50B661F03
S11323F0771F881F991F1A9469F7609570958095C7
S113240090959B01AC01BD01CF010895EE0FFF1F14
S11324100590F491E02D0994FC0188279927E8940C
S113242021912032E9F3293010F02E30C8F32B32F9
S113243041F02D3239F4689404C00E947012820F66
S1132440911D219120532A30C0F31EF4909581955B
S11324509F4F08954AE451E00E9449120895FB01F8
S113246051915523A9F0BF01DC014D91451741114C
S1132470E1F759F4CD010190002049F04D91401548
S11324804111C9F3FB014111EFCF81E090E00197C5
S11324900895FA01A191B081009719F41097E1F021
S11324A0CD01DC01CD010D90002011F4C00113C059
S11324B0FB012191222319F02015D9F7F3CFFB0159
S11324C02191201519F41E92119606C02223C1F7FA
S11324D00D900020A1F7D001FA01A193B0830895D3
S11324E07AE0979F902D879F802D910D1124089558
S10724F0F894FFCF8A
S11324F401140005006C65646E756D003B0066692B
S11325047800666C61736831006361726F7573651A
S11325146C3100666C61736832006361726F757349
S1132524656C32006F66660041542B4E414D454B39
S10D253475747961637365637300C5
S9030000FC
