:100000000EEF00F00000000000EF00F00000000024
:100010000000000000000000F3D7FFFF926A936A1F
:10002000946A956A010E806E010E816E010E826ED9
:10003000010E836E070E0B6E170E0C6E6A0E0D6EA0
:100040000D2EFED70C2EFCD70B2EFAD70000806A9F
:10005000816A826A836A070E0B6E170E0C6E6A0E37
:100060000D6E0D2EFED70C2EFCD70B2EFAD70000EE
:10007000D9D7FFD7FFFFFFFFFFFFFFFFFFFFFFFF06
:020000040030CA
:0E0000001D03797CFF8991FF0FC00FE00F40B8
:00000001FF
