:100000000C943E000C945B000C945B000C945B0021
:100010000C945B000C945B000C945B000C945B00F4
:100020000C945B000C945B000C945B000C945B00E4
:100030000C945B000C945B000C945B000C945B00D4
:100040000C945B000C945B000C945B000C945B00C4
:100050000C946B000C945B000C945B000C945B00A4
:100060000C945B000C945B000C945B000C945B00A4
:100070000C945B000C945B000C945B0011241FBE7D
:10008000CFEFD0E1DEBFCDBF11E0A0E0B1E0E4E60C
:10009000F7E102C005900D92AA31B107D9F728E027
:1000A000AAE1B1E001C01D92AB38B207E1F70E94AE
:1000B000AF070C94B00B0C94000010921A0184E668
:1000C000EDE1F1E0DF011D928A95E9F710921C0144
:1000D00010921B0108951F920F920FB60F921124D8
:1000E0002F933F934F938F939F93EF93FF93409161
:1000F000C60080911B0190911C018136910520F072
:1001000010921C0110921B0180911B0190911C0107
:100110009C012F5F3F4F30931C0120931B01FC017A
:10012000E35EFE4F40834D3021F04A3011F0411123
:1001300007C081E080931A01F901E35EFE4F10824F
:10014000FF91EF919F918F914F913F912F910F9040
:100150000FBE0F901F90189587E68093C4001092F1
:10016000C50088E98093C10078940895E0ECF0E040
:10017000908195FFFDCF8093C6000895CF93DF93C4
:10018000EC018881882331F021960E94B600899184
:100190008111FBCFDF91CF910895249A0E94AC008A
:1001A0002FEF89E698E1215080409040E1F700C0B0
:1001B000000008951816190644F4EFE9FFE031979E
:1001C000F1F700C000000197C1F70895181619064D
:1001D00034F425E02A95F1F700000197D1F708954E
:1001E000549A2BB12F7E3BB130614FB7F894611513
:1001F0007105B1F0FC01680F791F919188E03BB95E
:10020000000000C097FF2BB9990F000000C000C08C
:1002100000C02BB900C08A9591F7E617F70769F778
:100220004FBF08959093890180938801089580932A
:100230008A080895009739F481E090E09093820154
:1002400080938101089590938201809381010895A4
:100250002F923F924F925F926F927F928F929F92D6
:10026000AF92BF92CF92DF92EF92FF920F931F93C4
:10027000CF93DF9300D01F92CDB7DEB720918A08CD
:100280002983222309F4C8C0C0908101D090820143
:10029000822E912C0F2EFAE8AF2EF1E0BF2EF02D1A
:1002A0000BE815E0EAE8F5E0FB83EA83ECE8F5E02B
:1002B000E12CF12C6894332433F8212C21E030E038
:1002C000D5014D915D916D917D915D01832D922DB3
:1002D000DC0150962A013B0104C076946794579440
:1002E0004794AA95D2F740FE0DC0D8017C90D90161
:1002F000082E02C0AA0FBB1F0A94E2F77A2AD8017F
:100300007C920DC0D901082E02C0AA0FBB1F0A940F
:10031000E2F76A2E6094D8017C9076207C92019757
:10032000B9F6832D922DDC0118962A013B0104C0F9
:100330007694679457944794AA95D2F740FE0FC0DD
:10034000AA81BB817C90D901082E02C0AA0FBB1FD5
:100350000A94E2F77A2AAA81BB817C920EC0D90165
:10036000082E02C0AA0FBB1F0A94E2F77A2E7094DF
:10037000AA81BB816C9076207C920197A1F6832D97
:10038000922D2A013B01082E04C07694679457945D
:1003900047940A94D2F740FE0BC07080D901082E12
:1003A00002C0AA0FBB1F0A94E2F7A729A0830BC0C3
:1003B000D901082E02C0AA0FBB1F0A94E2F7A0952C
:1003C000B081AB23A0830197E1F6D8018C9190E036
:1003D000B6010E946F0BD8016C93AA81BB818C91EE
:1003E00090E0B6010E946F0BAA81BB816C93808163
:1003F00090E0B6010E946F0B6083BFEFEB1AFB0A1F
:100400000D5F1F4F8A819B8103969B838A8333965E
:10041000E814F90408F454CFE9818E2F90E0BC0170
:10042000660F771F680F791F8AE895E00E94F00039
:100430008BE490E00E94E600809188019091890110
:100440000E94DA000F900F900F90DF91CF911F91D3
:100450000F91FF90EF90DF90CF90BF90AF909F9063
:100460008F907F906F905F904F903F902F90089566
:100470008F929F92AF92BF92CF92DF92EF92FF92B4
:100480000F93CF93DF934A01D22FC09100012C2FFD
:1004900030E040E050E00E94830B7901DD24CC2461
:1004A0006C2F70E0C4010E945B0BB62EA12CCA0C0D
:1004B000DB1CE11CF11CE02FF0E0EE0FFF1FEE0F44
:1004C000FF1FE657FE4F8D2F6C2F0E944F0BC80E5B
:1004D000D11CE11CF11CC082D182E282F382DF9147
:1004E000CF910F91FF90EF90DF90CF90BF90AF90A2
:1004F0009F908F9008950F931F93853578F4682F00
:10050000660F860F282F209590E0A0E0B0E0DC0178
:1005100099278827BC01CD01722B1FC08A3A70F43D
:100520008555682F660F680F262F2095862F90E03F
:10053000A0E0B0E0BC01CD01822B0FC08A5A982FF9
:10054000990F980F692F6095462F50E060E070E09A
:100550008A019B01192BC901B8011F910F910895C0
:100560002F923F924F925F926F927F928F929F92C3
:10057000AF92BF92CF92DF92EF92FF920F931F93B1
:10058000CF93DF93CDB7DEB76D970FB6F894DEBF8C
:100590000FBECDBFF82E162F842E922E6E2D70E03A
:1005A00080E090E00E94980A2B013C016F2D70E0E2
:1005B00080E090E00E94980A69837A838B839C8311
:1005C000612F70E080E090E00E94980A6D877E873E
:1005D0008F87988B682D70E080E090E00E94980AE9
:1005E000698F7A8F8B8F9C8F692D70E080E090E00F
:1005F0000E94980A29813A814B815C810E947E0980
:100600006D837E838F8398870E94620A9B01772384
:1006100024F422273327261B370B7901602F70E043
:1006200080E090E00E94980A2D853E854F8558898C
:100630000E947E0969877A878B879C870E94620A5D
:100640009B01772324F422273327261B370B2E15F3
:100650003F055CF4B701FF0C880B990B0E949A0AC6
:10066000962E372E282EE92E0AC0B901330F880B9B
:10067000990B0E949A0A962E372E282EE92E298D44
:100680003A8D4B8D5C8DC301B2010E947E092B0116
:100690003C010E94620A9B01772324F4222733271E
:1006A000261B370BB901330F880B990B0E949A0A4E
:1006B000862E172F082FF92E262F372F482F592F28
:1006C000692D732D822D9E2D0E94EB09882324F025
:1006D000892C132D022DFE2C20E030E0A901682D7D
:1006E000712F802F9F2D0E944A0B18160CF0C6C048
:1006F000282D312F402F5F2D6D817E818F81988530
:100700000E94F0096D837E838F839887282D312F77
:10071000402F5F2D69857A858B859C850E94F00925
:1007200069877A878B879C87282D312F402F5F2DF3
:10073000C301B2010E94F009698B7A8B8B8B9C8B71
:10074000E12CC601880F991F880F991F9C0126571D
:100750003E4F388F2F8B4D845E846F847888ED8E6A
:1007600016018D861D8B0E8B898C9A8CAB8CBC8C64
:10077000F98E2D813E814F81588569817A818B81E7
:100780009C810E947F0969837A838B839C8329855E
:100790003A854B855C85C301B2010E947F092B011C
:1007A0003C0129893A894B895C89C501B4010E94C1
:1007B0007F094B015C010E94690AC62ED12CE12CF5
:1007C000F12C69817A818B819C810E94690ADB010D
:1007D00099278827C80ED91EEA1EFB1EC301B20145
:1007E0000E94690A162F00E0B701A601400F511FB1
:1007F000611D711D21143104F1F420918A0830E04B
:100800002F5F3F4F80E090E0A0E0BD8DF98C880F16
:10081000991F880F991FFC01E657FE4F40835183B3
:1008200062837383AF5F8A2F90E0821793077CF314
:10083000BD8FF98E06C0EF89F88D408351836283A6
:10084000738380918701813019F41092870116C05B
:100850000E942801FD8DFF5FFD8F6F2F70E080E00B
:1008600090E00E949A0A9B01AC016D857D898E897A
:10087000998D0E944A0B18160CF47BCF6D960FB61B
:10088000F894DEBF0FBECDBFDF91CF911F910F91C6
:10089000FF90EF90DF90CF90BF90AF909F908F90A0
:1008A0007F906F905F904F903F902F900895AF9200
:1008B000BF92CF92DF92EF92FF920F93CF93DF938D
:1008C000D42F90918A089923F9F090918701913063
:1008D00061F0C0E0A62EB12CC82ED12CE12CF12C59
:1008E00007C090918701913019F4109287010EC0D2
:1008F0000C2F2D2FA501C701B6010E943802CF5F32
:1009000090918A08C91768F30E942801DF91CF915E
:100910000F91FF90EF90DF90CF90BF90AF90089530
:100920002F923F924F925F926F927F928F929F92FF
:10093000AF92BF92CF92DF92EF92FF920F931F93ED
:10094000CF93DF93CDB7DEB729970FB6F894DEBF0C
:100950000FBECDBF1E8DFF8CF11608F05AC09091CE
:100960008701913049F405C0115080918701813091
:1009700019F5109287014DC08986E8864983882E33
:1009800011500F2EFBEAEF2EF02D8A2D90E09B8365
:100990008A834C2C512C612C712C202E312C822FCF
:1009A00090E0A0E0B0E08C839D83AE83BF83C62E31
:1009B000D12C912CA12CB12C91E0910F9E9D812DD9
:1009C00011248695282F220F820F981B41F4012FA6
:1009D0002981A601C501B4010E94380216C09130D8
:1009E00051F4012F2885A1016C817D818E819F8129
:1009F0000E9438020AC0923041F4012F29854A81B1
:100A00005B81C301B2010E9438020E9428011F11BC
:100A1000ABCF29960FB6F894DEBF0FBECDBFDF91E6
:100A2000CF911F910F91FF90EF90DF90CF90BF90EB
:100A3000AF909F908F907F906F905F904F903F907E
:100A40002F9008952F923F924F925F926F927F92D4
:100A50008F929F92AF92BF92CF92DF92EF92FF92CE
:100A60000F931F93CF93DF93CDB7DEB72A970FB6BF
:100A7000F894DEBF0FBECDBF3E2D6F8C78A01091D5
:100A80008A08161417040CF066C0E82C9C2D3A87CF
:100A9000822E4987F12CCA2CD12C292F30E040E03E
:100AA00050E029833A834B835C83402E512C912C58
:100AB000A12CB12C262E312C282F30E040E050E024
:100AC0002D833E834F83588702E0010F2E2DA60110
:100AD00069817A818B819C810E94380201E0010F3B
:100AE0002A85A201C501B4010E943802012F29857F
:100AF000A1016D817E818F8198850E9438021150FD
:100B000020918A08412F50E0822F90E003974817E8
:100B1000590709F4122F2223A9F0EAE8F1E0215045
:100B200030E0220F331F220F331F22573E4F8481A4
:100B30009581A681B78181939193A193B193E21797
:100B4000F307A9F70E942801F3948F2D90E08615F2
:100B500097050CF4B9CF2A960FB6F894DEBF0FBEF6
:100B6000CDBFDF91CF911F910F91FF90EF90DF905C
:100B7000CF90BF90AF909F908F907F906F905F903D
:100B80004F903F902F9008952F923F924F925F92F7
:100B90006F927F928F929F92AF92BF92CF92DF928D
:100BA000EF92FF920F931F93CF93DF93CDB7DEB7F2
:100BB0002A970FB6F894DEBF0FBECDBF6F8C78A01A
:100BC000161417040CF084C090918701913009F03D
:100BD00046C004C080918701813019F410928701CA
:100BE00077C0012F2C2DA20169817A818B819C8194
:100BF0000E9438020FEF010F2E2DA101C501B40193
:100C00000E9438020EEF010F2D2D4D815E816F8104
:100C1000788589859A850E9438021F5F133009F410
:100C200010E080918A0890E0FC01EE0FFF1FEE0FAC
:100C3000FF1FE257FE4F729162915291429144839D
:100C40005583668377830197B2F70E942801F39456
:100C50008F2D90E0861597050CF4BCCF39C0D82CA9
:100C6000FA2C1C2D202E822EC42E462E512C282FDD
:100C700030E040E050E029833A834B835C8300E01E
:100C80002C2DA20169817A818B819C810E9438027E
:100C9000312C912CA12CB12C0FEF2E2DA101C501CF
:100CA000B4010E9438024F2D50E05E834D83812FA6
:100CB00090E0A0E0B0E08F839887A987BA870EEF15
:100CC0002D2DBC01CD010E943802F12C11E0A9CFDD
:100CD0002A960FB6F894DEBF0FBECDBFDF91CF913D
:100CE0001F910F91FF90EF90DF90CF90BF90AF904A
:100CF0009F908F907F906F905F904F903F902F903C
:100D000008954F925F926F927F928F929F92AF92CF
:100D1000BF92CF92DF92EF92FF920F931F93CF93E8
:100D2000DF931092840110928301A82EB12CBA2C6B
:100D3000AA241A141B040CF048C0C12CD12C0F2E6D
:100D4000FAE86F2EF1E07F2EF02D44244394512CCD
:100D5000109286011092850100918A0810E0101609
:100D600011061CF57301C0E0D0E0812C912CCE015E
:100D7000B8010E946F0B862F8C0D0E947B02F70139
:100D800061937193819391937F01FFEF8F1A9F0A73
:100D9000D395801691065CF31016110614F0042DFD
:100DA000152D10938601009385010E942801C090A3
:100DB0008301D09084018FEFC81AD80AD0928401A1
:100DC000C0928301CA14DB041CF2DF91CF911F9102
:100DD0000F91FF90EF90DF90CF90BF90AF909F90DA
:100DE0008F907F906F905F904F9008956F927F9259
:100DF0008F929F92AF92BF92CF92DF92EF92FF922B
:100E00000F931F93CF93DF9390E0982F88276C0167
:100E100021E0C21AD108D0928401C0928301892BAB
:100E200009F446C00F2EFAE8AF2EF1E0BF2EF02DE8
:100E300066246394712C10928601109285010091B2
:100E40008A0810E0101611061CF57501C0E0D0E00C
:100E5000812C912CCE01B8010E946F0B862F8C0D36
:100E60000E947B02F70161937193819391937F01BB
:100E7000FFEF8F1A9F0AD395801691065CF3101628
:100E8000110614F0062D172D10938601009385018D
:100E90000E94280180918301909184016C0121E0DE
:100EA000C21AD108D0928401C0928301892B19F60D
:100EB000DF91CF911F910F91FF90EF90DF90CF9036
:100EC000BF90AF909F908F907F906F90089580918A
:100ED0001A01882309F442C061E370E08DE191E0DA
:100EE0000E94A50B892B39F081E090E090930401DA
:100EF0008093030131C062E370E08DE191E00E94D4
:100F0000A50B892B39F082E090E090930401809347
:100F1000030122C063E370E08DE191E00E94A50B24
:100F2000892B39F083E090E09093040180930301D2
:100F300013C064E370E08DE191E00E94A50B892B62
:100F400039F084E090E0909304018093030104C0A1
:100F500010920401109203010E945D0008950E9406
:100F6000CD0085E091E00E94BE0084E190E00E9407
:100F7000170185E090E00E941A0180E090E00E9455
:100F8000120140E060E080E00E9457040E94670781
:100F9000809103019091040182309105D9F134F4DC
:100FA000009709F4DCC0019739F0F0CF8330910548
:100FB000B9F10497D9F1EACFC12CD12CE12C0FEF74
:100FC00024E140E060E080E00E94B002EE24EA9478
:100FD00000E020E040E06FEF84E10E94B002E12CED
:100FE0000FEF20E04FEF60E080E00E94B00200E0F1
:100FF0002FEF40E06FEF80E00E94B0020F2EF2E88A
:10100000EF2EF02D0BE420E040E060E08FEF0E9437
:10101000B002BCCF65E070E081E00E94F606B6CF7A
:1010200065E070E081E00E948106B0CF1F92809160
:101030008A0881508F93812CAA24AA94CC24CA9424
:10104000E12C0FEF2FEF4FEF60E080E00E94900463
:1010500084E690E00E94DA001F9280918A08815015
:101060008F930F2EFCE08F2EF02D0F2EFEE1CF2E52
:10107000F02D24E144E160E48EEF0E94900484E6C8
:1010800090E00E94DA001F9280918A0881508F932D
:10109000812CCC24CA94EE24EA9400E020E04FEFA7
:1010A0006FEF80E00E94900484E690E00E94DA00F6
:1010B0001F9280918A0881508F930F2EF8E28F2E15
:1010C000F02D0F2EF8E2AF2EF02D0F2EF8E2CF2EDE
:1010D000F02D0F2EF2E8EF2EF02D0BE420E048E289
:1010E00068E288E20E94900484E690E00E94DA00C0
:1010F0001F9280918A0881508F930F2EF3E08F2EDC
:10110000F02D0F2EFCEDAF2EF02D0F2EF3E0CF2E95
:10111000F02DEE24EA9400E02FEF40E06FEF80EA3C
:101120000E94900484E690E00E94DA001F92809171
:101130008A0881508F93812CAA24AA94C12CE12C77
:101140002FEF40E06FEF80E00E9490048DB79EB7D4
:101150000C960FB6F8949EBF0FBE8DBF17CF80912F
:1011600002018F93809101018F93812CA12CCC24BB
:10117000CA94E12C00E02FEF40E060E08FEF0E9486
:10118000C405809102018F93809101018F93AA245D
:10119000AA94C12C0FEF20E040E06FEF80E00E94A6
:1011A0002205809102018F93809101018F93882401
:1011B0008A94A12CCC24CA94EE24EA9400E02FEF68
:1011C0004FEF60E08FEF0E94C405809102018F9382
:1011D000809101018F93C12C20E04FEF60E080E00F
:1011E0000E942205809102018F93809101018F93CB
:1011F000AA24AA940FEF20E04FEF6FEF80E00E9447
:10120000C405809102018F93809101018F93812CFD
:101210000F2EF0EACF2EF02DE12C20EA40E06FEF08
:1012200080EA0E942205809102018F938091010142
:101230008F930F2EF2E88F2EF02D0F2EFBE4AF2EA2
:10124000F02DC12C0F2EF2E8EF2EF02D0BE420E054
:1012500042E86BE480E00E94C405809102018F9314
:10126000809101018F930F2EF4E18F2EF02D689461
:10127000AA24A6F80F2EFEEFCF2EF02D0F2EF4E1AC
:10128000EF2EF02D00E42EEF44E160E48EEF0E949B
:101290002205809102018F93809101018F93812C0F
:1012A000AA24AA94CC24CA94E12C0FEF2FEF40E09B
:1012B0006FEF8FEF0E94C405809102018F938091A0
:1012C00001018F9388248A940F2EF7E8AF2EF02D1A
:1012D0000F2EFEECCF2EF02DEE24EA9407E82EEC34
:1012E0004FEF67E88EEC0E9422058DB79EB74496BB
:1012F0000FB6F8949EBF0FBE8DBF48CE5058BB2787
:10130000AA270E9496090C94100B0E94020B38F039
:101310000E94090B20F039F49F3F19F426F40C9435
:10132000FF0A0EF4E095E7FB0C94F90AE92F0E94FE
:10133000210B58F3BA17620773078407950720F04B
:1013400079F4A6F50C94430B0EF4E0950B2EBA2F0E
:10135000A02D0B01B90190010C01CA01A0011124BB
:10136000FF27591B99F0593F50F4503E68F11A1667
:10137000F040A22F232F342F4427585FF3CF4695F8
:1013800037952795A795F0405395C9F77EF41F161A
:10139000BA0B620B730B840BBAF09150A1F0FF0FE4
:1013A000BB1F661F771F881FC2F70EC0BA0F621FD0
:1013B000731F841F48F4879577956795B795F795C0
:1013C0009E3F08F0B0CF9395880F08F09927EE0F55
:1013D0009795879508950E94D50A08F481E00895AD
:1013E0000E94040A0C94100B0E94090B58F00E94F2
:1013F000020B40F029F45F3F29F00C94F90A5111D7
:101400000C94440B0C94FF0A0E94210B68F399235F
:10141000B1F3552391F3951B550BBB27AA276217F0
:101420007307840738F09F5F5F4F220F331F441FFD
:10143000AA1FA9F335D00E2E3AF0E0E832D0915031
:101440005040E695001CCAF72BD0FE2F29D0660F1E
:10145000771F881FBB1F261737074807AB07B0E861
:1014600009F0BB0B802DBF01FF2793585F4F3AF067
:101470009E3F510578F00C94F90A0C94440B5F3FA1
:10148000E4F3983ED4F3869577956795B795F795ED
:101490009F5FC9F7880F911D9695879597F90895D5
:1014A000E1E0660F771F881FBB1F62177307840771
:1014B000BA0720F0621B730B840BBA0BEE1F88F780
:1014C000E09508950E94690A6894B1110C94440B48
:1014D00008950E94290B88F09F5798F0B92F9927FB
:1014E000B751B0F0E1F0660F771F881F991F1AF00F
:1014F000BA95C9F714C0B13091F00E94430BB1E026
:1015000008950C94430B672F782F8827B85F39F024
:10151000B93FCCF3869577956795B395D9F73EF4A7
:1015200090958095709561957F4F8F4F9F4F08954F
:10153000E89409C097FB3EF490958095709561956D
:101540007F4F8F4F9F4F9923A9F0F92F96E9BB2723
:101550009395F695879577956795B795F111F8CF9F
:10156000FAF4BB0F11F460FF1BC06F5F7F4F8F4F0A
:101570009F4F16C0882311F096E911C0772321F000
:101580009EE8872F762F05C0662371F096E8862F98
:1015900070E060E02AF09A95660F771F881FDAF7EF
:1015A000880F9695879597F90895990F0008550F1C
:1015B000AA0BE0E8FEEF16161706E807F907C0F0D9
:1015C00012161306E407F50798F0621B730B840BE1
:1015D000950B39F40A2661F0232B242B252B21F4BB
:1015E00008950A2609F4A140A6958FEF811D811D5B
:1015F000089597F99F6780E870E060E008959FEF95
:1016000080EC089500240A94161617061806090699
:10161000089500240A941216130614060506089568
:10162000092E0394000C11F4882352F0BB0F40F4F0
:10163000BF2B11F460FF04C06F5F7F4F8F4F9F4F30
:10164000089557FD9058440F551F59F05F3F71F0B2
:101650004795880F97FB991F61F09F3F79F0879519
:101660000895121613061406551FF2CF4695F1DFA2
:1016700008C0161617061806991FF1CF8695710532
:10168000610508940895E894BB2766277727CB0166
:1016900097F908950E94D50A08F48FEF0895991BD1
:1016A00079E004C0991F961708F0961B881F7A9559
:1016B000C9F780950895AA1BBB1B51E107C0AA1F5B
:1016C000BB1FA617B70710F0A61BB70B881F991FE3
:1016D0005A95A9F780959095BC01CD01089597FB87
:1016E000072E16F4009407D077FD09D00E945B0BFB
:1016F00007FC05D03EF4909581959F4F0895709515
:1017000061957F4F0895A1E21A2EAA1BBB1BFD0114
:101710000DC0AA1FBB1FEE1FFF1FA217B307E407D0
:10172000F50720F0A21BB30BE40BF50B661F771F28
:10173000881F991F1A9469F7609570958095909508
:101740009B01AC01BD01CF010895FC018191861779
:1017500021F08823D9F7992708953197CF0108956B
:04176000F894FFCF2B
:10176400011400030041542B4E414D454B757479CF
:0A1774006163736563730D0A0000E2
:00000001FF
