:100000004FEF16F0FFFFFFFF00C016F001C015F024
:10001000E1CF19F0E2CF1AF0E9CF17F0EACF18F0EC
:100020009EAA45D0B40E01017C250201C36F000ECB
:1000300001017D210201C46F05EC0EF0C3C2E1FF96
:10004000C4C2E2FF00C0E6FF800E01017D19006E10
:10005000800E005C02E1C60E7C5D12E3010E7C2581
:10006000006E000E7D21016EB40E0024E16E000EC4
:100070000120E26EE66A7C6B7D6B010E7F6F586A31
:10008000B40E7C25E96E000E7D21EA6EEE500D0A5D
:100090000AE0B40E7C25E96E000E7D21EA6EEE507A
:1000A000000A01E002D0010E586E7C4B7D2B9EA011
:1000B00005D09E909E0ECF6E580ECE6EF2A410D03C
:1000C000F294670ED76E690ED66E800E006E800EAB
:1000D0005E18005C02E15D50790802E35D4A5E2A29
:1000E00016C000F015C001F017C0E9FF18C0EAFF04
:1000F00019C0E1FF1AC0E2FF1100086A096A100E78
:100100000C6E0134083609360450085E0550D8A03C
:10011000053C095ED8B007D0045008260550D8B079
:10012000053C0926D890003601360C2EEAD712007D
:100130000201C06B050EC05D0AE2C051BE25E16E32
:10014000000EBF21E26E200EE66EC02BF3D7C05129
:10015000BE25E16E000EBF21E26EE66AC007C05107
:10016000BE25C16F000EBF21C26F0A0E046E000EC5
:10017000056EBCC200F0BDC201F0BFDF08C000F0D8
:1001800009C001F0300E0026C1C2E1FFC2C2E2FF89
:1001900000C0E6FF0A0E046E000E056EBCC200F041
:1001A000BDC201F0AADF00C0BCF201C0BDF2000E6A
:1001B000011802E1000E001801E102D0C007CFD7FC
:1001C0001200ACB202D00000FCD7BCC2ADFF1200DE
:1001D000BCC2E9FFBDC2EAFFEE500201BE1905E153
:1001E000BCC200F0BDC201F010D0BCC200F0BDC264
:1001F00001F0BC4BBD2B00C0E9FF01C0EAFFEECF10
:1002000000F00052E5E1006A016A1200A6A202D0E5
:100210000000FCD7A69CB2C2A9FFB3C2A8FFA69E4D
:10022000A684F2CF00F0F29E550EA76EAA0EA76E1E
:10023000A68200BE02D0F29E01D0F28EA6941200D9
:100240000201B66BB2C2E9FFB3C2EAFFEE5215E09B
:10025000B4C2BCF2B5C2BDF2B2C2E9FFB3C2EAFF9A
:10026000EECFBEF2B5DF000E011802E1000E00185D
:1002700004E1B24BB32BB62BE5D7B6C200F01200A7
:10028000B2C202F0B3C203F002C000F003C001F03A
:10029000024A032A00C0E9FF01C0EAFFEE5201E072
:1002A000F3D70201B251025C006EB3510358016EE4
:1002B000010E005E000E015A12000201B25139080F
:1002C00006E3300EB25D03E3010E006E01D0006A5A
:1002D00012000B6A0A6A096A00500402F4CF09F09E
:1002E000F3CF08F001500502F4CF0BF0F3CF0AF082
:1002F00000500502F3500926F4500A22E86A0B2246
:1003000001500402F3500926F4500A22E86A0B2235
:1003100008C000F009C001F00AC002F00BC003F0F1
:100320001200B6C200F00201B607005228E0B2C2C5
:10033000E9FFB3C2EAFFEE50000A0CE0B2C2E9FFE7
:10034000B3C2EAFFB4C2D9FFB5C2DAFFEE50DE187D
:1003500001E10FD0B2C2E9FFB3C2EAFFB4C2D9FFD4
:10036000B5C2DAFFDE50EE5C006E016A000E015A83
:1003700008D00201B24BB32BB44BB52BD2D7006AD5
:10038000016A1200220E0C6E086A096A0A6A0B6A78
:100390000C06D8B41FD0D8900B320A32093208327A
:1003A0000332023201320032D8A0F2D70C06D8B4A0
:1003B00009D0045008260550092206500A22075089
:1003C0000B22EAD7045008260550092206500A22BB
:1003D00007500B221200B2C204F0B3C205F004C0F1
:1003E000E9FF05C0EAFFEE5203E0044A052AF7D709
:1003F00004C002F005C003F0044A052AB4C200F0AC
:10040000B5C201F00201B44BB52B00C0E9FF01C039
:10041000EAFF02C0E1FF03C0E2FFEECFE6FF02C049
:10042000E9FF03C0EAFFEE5201E0E2D7B2C200F0FA
:10043000B3C201F01200B2C204F0B3C205F004C0AE
:1004400002F005C003F0044A052AB4C200F0B5C2A8
:1004500001F00201B44BB52B00C0E9FF01C0EAFF77
:1004600002C0E1FF03C0E2FFEECFE6FF02C0E9FFFA
:1004700003C0EAFFEE5201E0E2D7B2C200F0B3C21D
:1004800001F01200B2C205F0B3C206F0B2C203F02E
:10049000B3C204F00201B24BB32BB4C200F0B5C238
:1004A00001F0B6C202F0010EB427000EB523B62348
:1004B00000C0F6FF01C0F7FF02C0F8FF0900F5CF4A
:1004C00000F003C0E1FF04C0E2FF00C0E6FF03C08C
:1004D000E9FF04C0EAFFEE5201E0D8D705C000F002
:1004E00006C001F012000201B66BB76BB2C2E9FFA1
:1004F000B3C2EAFFEE5216E0B4C2BCF2B5C2BDF21E
:10050000B2C2E9FFB3C2EAFFEECFBEF261DE000E77
:10051000011802E1000E001805E0B24BB32BB64BF8
:10052000B72BE4D7B6C200F0B7C201F01200020147
:10053000B56BB2C2E9FFB3C2EAFFEECFB4F2B45179
:10054000000A0EE0B4C2BCF23CDE0201B52BB5518C
:10055000B225E96E000EB321EA6EEECFB4F2EFD70A
:1005600012000201B86BB96BB2C2BAF2B3C2BBF2ED
:10057000800EB319006E800E005C02E1000EB25DC9
:100580000BE2010EB86F000EB96FB2510008BA6FDE
:10059000B3C2BBF2000EBB57BAC2BCF2BBC2BDF2C3
:1005A000B4C2BEF2B5C2BFF2C3DD060EB66F000E16
:1005B000B76F000E006EB751005C02E1B651000843
:1005C00019E2B651B425E16EB751B521E26E010EC4
:1005D000B65D006E000EB759016E0050B425E96E8D
:1005E0000150B521EA6EEECFE6FF010EB65F000EB8
:1005F000B75BDFD7B4C2E1FFB5C2E2FF200EE66E03
:10060000B851B9111AE0B66BB76BB651B425E96EA3
:10061000B751B521EA6EEE50200A03E1B64BB72B75
:10062000F4D7010EB65F000EB75BB651B425E16E8C
:10063000B751B521E26E2D0EE66E12000900F5CF1E
:10064000E6FF0006FBE10106F9E112006DC271F25E
:100650006EC272F202016F6B706B800E7019006EC9
:10066000800E005C02E10A0E6F5D0DE271C2E9FFCF
:1006700072C2EAFFEECFBCF2A4DD0201714B722B15
:100680006F4B702BEAD7000E1C1802E10A0E1B18E4
:1006900003E1006A016A2FD0F29E6F6B706B800ECF
:1006A0007019006E800E005C02E10A0E6F5D1EE2A2
:1006B0000A0E1B02F3CFB2F2B00EB2276F51B2276F
:1006C0006DC2E9FF6EC2EAFFEECFB3F29FDD020119
:1006D0006D4B6E2B410E0C6EEE0E0D6E0D2EFED779
:1006E0000C2EFCD700006F4B702BD9D7F28E010E69
:1006F000006E000E016E1200C40E02016F6F090E33
:10070000706F000E716F726FC40E006E090E016E75
:10071000000E026E000E036E6DC204F06EC205F094
:10072000000E066E076E2EDE00C06FF201C070F282
:1007300002C071F203C072F2000E035C08E1000E09
:10074000025C05E1020E015C02E1940E005C01E234
:1007500031D0940E6F5F020E705B000E715B725BA6
:10076000050E006E005007E07233713370336F3343
:10077000729FFF0FF8D76FC200F070C201F071C214
:1007800002F072C203F0010E6F5F000E705B715BCE
:10079000725B00500110021003100CE0000000001A
:1007A0000000000000000000000000000000000049
:1007B0000000E1D71200000E02016E1902E1000EE6
:1007C0006D1934E06DC2E9FF6EC2EAFFEE522EE011
:1007D0006FC2B2F270C2B3F253DD00C0B6F26DC2A6
:1007E000B2F26EC2B3F26FC2B4F270C2B5F299DD6A
:1007F000000E011802E1000E001805E16DC200F0C4
:100800006EC201F015D0010E02016D25BC6F000E05
:100810006E21BD6F6FC2E9FF70C2EAFFEECFBEF27C
:10082000D7DC00C06DF201C06EF2C5D7006A016A64
:100830001200A69C6DC2A9FFA69EA680A8CF00F0BC
:100840001200000E02016E1902E1000E6D1904E1A2
:1008500005C26DF206C26EF26DC2E9FF6EC2EAFF1A
:10086000EECF00F0005203E1006A016A47D06DC28A
:10087000B2F26EC2B3F26FC2B4F270C2B5F233DE3E
:100880006D5100266E51012200C06DF201C06EF262
:1008900000C0E9FF01C0EAFFEECF00F0005207E11F
:1008A000056B066B000E006E000E016E27D06DC248
:1008B000B2F26EC2B3F26FC2B4F270C2B5F2C0DC73
:1008C000000E016E6D5100266E51012200C005F22E
:1008D00001C006F200C0E9FF01C0EAFFEE5208E0E5
:1008E00005C2E1FF06C2E2FFE66A054B062B02D015
:1008F000056B066B6DC200F06EC201F012006DC296
:10090000E9FF6EC2EAFFEECF6FF2000E0201706FD8
:10091000000E706F000E701902E1200E6F1907E0D3
:10092000000E701902E1090E6F1901E003D06D4B42
:100930006E2BE5D7716B726B736B746B000E701955
:1009400002E12D0E6F1905E1734B742B6D4B6E2B6D
:1009500008D0000E701902E12B0E6F1902E16D4BE9
:100960006E2B6DC2E9FF6EC2EAFFEECF6FF2000E92
:10097000706F000E706F6FC2B2F29FDC005218E011
:1009800071C200F072C201F00A0E046E000E056E14
:10099000A0DC300E6F5D026E000E7059036E0250C7
:1009A0000024716F03500120726F6D4B6E2BD9D7ED
:1009B0007351741108E071510008006E72C201F0A9
:1009C000000E015604D071C200F072C201F0120094
:1009D0006B0EF66E2E0EF76E000EF86E6D0EE16E5B
:1009E000020EE26E430E006E010E016E27DE39C06C
:1009F000B2F23AC0B3F26D0E0201B46F020EB56FDF
:100A0000B0DD740EB26F020EB36F6D0EB46F020ED6
:100A1000B56F11DD740EB26F020EB36F5B0EB46F63
:100A2000000EB56FD8DC33C0B2F234C0B3F26D0E35
:100A3000B46F020EB56F95DD740EB26F020EB36F18
:100A40006D0EB46F020EB56FC6DC740EB26F020E7F
:100A5000B36F750EB46F000EB56FBDDC3DC0B2F262
:100A60003EC0B3F26D0EB46F020EB56F7ADD740E38
:100A7000B26F020EB36F6D0EB46F020EB56FABDCCA
:100A8000740EB26F020EB36F770EB46F000EB56FB7
:100A9000A2DC96C1B2F297C1B3F26D0EB46F020E32
:100AA000B56F5FDD740EB26F020EB36F6D0EB46F73
:100AB000020EB56F90DC740EB26F020EB36F790E3A
:100AC000B46F000EB56F87DC84C1B2F285C1B3F29A
:100AD0006D0EB46F020EB56F44DD740EB26F020E70
:100AE000B36F6D0EB46F020EB56F75DC740EB26F1E
:100AF000020EB36F6F0EB46F000EB56F6CDC1BC0CF
:100B0000B2F21CC0B3F26D0EB46F020EB56F29DDE8
:100B1000740EB26F020EB36F6D0EB46F020EB56F2E
:100B20005ADC740EB26F020EB36F710EB46F000E0A
:100B3000B56F51DC31C0B2F232C0B3F26D0EB46F9A
:100B4000020EB56F0EDD740EB26F020EB36F6D0E36
:100B5000B46F020EB56F3FDC740EB26F020EB36F4E
:100B6000730EB46F000EB56F36DC740EB26F020EEA
:100B7000B36F8C0EB46F010EB56F2DDC740EB26FB7
:100B8000020EB36F510EB46F000EB56F24DC960EDB
:100B9000B26F000EB36FDC0EB46F2F0EB56F000E88
:100BA000B66F70DC00C0B2F201C0B3F2C0DC070E59
:100BB0000B6E580E0C6E590E0D6E0D2EFED70C2EB0
:100BC000FCD70B2EFAD700000000740EB26F020E95
:100BD000B36FADDCB06BB16B800EB119006E800EDF
:100BE000005C02E13B0EB05D10E2B0C2B2F2740EE6
:100BF000B025E96E020EB121EA6EEECFB3F206EC3B
:100C000001F00201B04BB12BE7D71200010ECD6EFF
:100C10009E909E0ECF6E580ECE6E9D80C00EF26ED0
:100C20001200850ED56E670ED76E690ED66EF28EE7
:100C3000F28A1200C20E0201076F010E086FBC0E8D
:100C4000096F020E0A6F0A0E0B6F1C0E0C6F000E5E
:100C50000D6F000E0E6FFF0E0101FC6FFF0EFD6F9A
:100C6000000EFE6F000EFF6FFF0E0201016FFF0E00
:100C7000026F000E036F000E046FAC8A900EAB6E15
:100C8000948E949C9EAA03D0AECF00F0FBD71200A6
:100C9000AE0EF66E2E0EF76E000EF86E2B0EE16E97
:100CA000020EE26E3C0E006E010E016EC7DC020108
:100CB000676B686B800E6819006E800E005C02E145
:100CC0003B0E675D12E22B0E67256B6F020E6821EB
:100CD0006C6F67C26DF2ADDD6BC2E1FF6CC2E2FF0B
:100CE00000C0E6FF674B682BE5D7960EB26F000E8B
:100CF000B36FDC0EB46F2F0EB56F000EB66F42EC03
:100D000002F000C0B2F201C0B3F211DC070E0B6EAC
:100D1000580E0C6E590E0D6E0D2EFED70C2EFCD7F4
:100D20000B2EFAD7000000002B0EB26F020EB36F2D
:100D300097EC02F0530EB26F000EB36F97EC02F017
:100D40002B0E6D6F020E6E6F560E6F6F000E706F72
:100D500078DD00C069F201C06AF2676B686B000E53
:100D60006A1902E1000E6919D8B4DFD099D069C2BE
:100D70006DF26AC26EF2C3DD00C039F001C03AF014
:100D8000C6D069C26DF26AC26EF2B9DD000E0118FA
:100D900002E1000E001805E1F40E336E010E346E10
:100DA00009D069C26DF26AC26EF2A9DD00C033F0EB
:100DB00001C034F0ACD069C26DF26AC26EF29FDD40
:100DC00000C03DF001C03EF0A2D069C26DF26AC21F
:100DD0006EF295DD00C096F101C097F198D069C21E
:100DE0006DF26AC26EF28BDD00C084F101C085F144
:100DF0008ED069C26DF26AC26EF281DD00C01BF056
:100E000001C01CF084D069C26DF26AC26EF277DD57
:100E1000000E011802E1000E001805E1010E316E0E
:100E2000000E326E09D069C26DF26AC26EF267DDE1
:100E300000C031F001C032F06AD069C26DF26AC2FE
:100E40006EF2430E6F6F000E706FB5DC000E01186E
:100E500002E1000E00180CE08C0E0201B26F010ED0
:100E6000B36F69C2B4F26AC2B5F21BEC02F017D0DC
:100E70000201960EB26F000EB36FD80EB46F2F0E34
:100E8000B56F000EB66F42EC02F000C0B4F201C0C4
:100E9000B5F28C0EB26F010EB36F1BEC02F037D0BF
:100EA000000E681902E1000E6719D8B460D7000E71
:100EB000681902E1010E6719D8B463D7000E6819EA
:100EC00002E1020E6719D8B476D7000E681902E164
:100ED000030E6719D8B479D7000E681902E1040E21
:100EE0006719D8B47CD7000E681902E1050E67199E
:100EF000D8B47FD7000E681902E1060E6719D8B47E
:100F000082D7000E681902E1070E671996E0674B59
:100F1000682B6D6B6E6B450E6F6F000E706F91DC02
:100F200000C069F201C06AF21AD7676B686B800E65
:100F30006819006E800E005C02E10A0E675D1CE21B
:100F4000870E67256B6F000E68216C6F6751A00FCD
:100F50006D6F6FDC6BC2E1FF6CC2E2FF00C0E6FFA9
:100F6000410E0C6EEE0E0D6E0D2EFED70C2EFCD724
:100F70000000674B682BDBD789C0B2F25DEC01F053
:100F800000520AE1870EB26F000EB36F470EB46FC6
:100F9000000EB56F1BEC02F0676B686B800E681972
:100FA000006E800E1C18005C02E11B50675D3BE286
:100FB0000001856B866B800E8619006E800E005CCA
:100FC00002E10A0E855D2BE20A0E006E000E016E34
:100FD00067C204F068C205F069EC01F0980E0024C5
:100FE000026E010E0120036E8551022402016B6F17
:100FF00000018651032002016C6FB00E00246D6F5A
:101000000001855102016D2714DC6BC2E1FF6CC247
:10101000E2FF00C0E6FF0001854B862BCCD7020122
:10102000674B682BBBD7070E0B6E580E0C6E590E14
:101030000D6E0D2EFED70C2EFCD70B2EFAD700000E
:1010400000001200800E5E18006E800E005C02E14F
:101050003C0E5D5CD8A07DD05D6A5E6A960E020192
:10106000B26F000EB36FDC0EB46F2F0EB56F000EB3
:10107000B66F42EC02F000C0B2F201C0B3F297ECDE
:1010800002F0070E0B6E580E0C6E590E0D6E0D2EE3
:10109000FED70C2EFCD70B2EFAD700000000960EC0
:1010A000B26F000EB36FDC0EB46F2F0EB56F000E73
:1010B000B66F42EC02F000C0B2F201C0B3F297EC9E
:1010C00002F0070E0B6E580E0C6E590E0D6E0D2EA3
:1010D000FED70C2EFCD70B2EFAD700000000960E80
:1010E000B26F000EB36FE00EB46F2F0EB56F000E2F
:1010F000B66F42EC02F000C06FF201C070F2B40EA5
:101100006D6F000E6E6FDBEC03F0000E011802E154
:10111000000E00181EE18282100E0B6E390E0C6E4E
:101120000D0E0D6E0D2EFED70C2EFCD70B2EFAD702
:10113000000000008292400E0B6E6A0E0C6E970E3D
:101140000D6E0D2EFED70C2EFCD70B2EFAD70000FD
:10115000000012005F0E0201B26F000EB36FDC0ED2
:10116000B46F2F0EB56F000EB66F42EC02F000C0E8
:10117000B2F201C0B3F297EC02F0070E0B6E580EFC
:101180000C6E590E0D6E0D2EFED70C2EFCD70B2EAD
:10119000FAD7000000005F0EB26F000EB36F790E39
:1011A000B46F2F0EB56F000EB66F42EC02F000C0A8
:1011B000B2F201C0B3F297EC02F0070E0B6E580EBC
:1011C0000C6E590E0D6E0D2EFED70C2EFCD70B2E6D
:1011D000FAD7000000005F0EB26F000EB36F840EEE
:1011E000B46F2F0EB56F000EB66F42EC02F000C068
:1011F000B2F201C0B3F297EC02F08C0EB26F010EA6
:10120000B36F97EC02F02BC2B2F22CC2B3F297ECA0
:1012100002F0220EBC6FE1EC00F00D0E0201BC6F7B
:10122000E1EC00F0070E0B6E580E0C6E590E0D6EB1
:101230000D2EFED70C2EFCD70B2EFAD70000000087
:101240002DC2B2F22EC2B3F297EC02F02FC2B2F26C
:1012500030C2B3F297EC02F01A0EBC6FE1EC00F072
:10126000070E0B6E580E0C6E590E0D6E0D2EFED71E
:101270000C2EFCD70B2EFAD7000000000D0E020139
:10128000BC6FE1EC00F0660E0B6E760E0C6EC10EBC
:101290000D6E0D2EFED70C2EFCD70B2EFAD712009A
:1012A0002BC2E9FF2CC2EAFFEE5211E02BC2E9FF8C
:1012B0002CC2EAFF2DC2D9FF2EC2DAFFEE50DE1893
:1012C00006E102012B4B2C2B2D4B2E2BE9D72BC2E9
:1012D000E9FF2CC2EAFF2DC2D9FF2EC2DAFFDE5091
:1012E000EE5C006E016A000E015A12000201316BC1
:1012F000326B336B346B356B366B376B386B396BEA
:101300003A6B2D6B2E6B800E2E19006E800E005CDA
:1013100002E10A0E2D5D11E2310E2D25E16E020E65
:101320002E21E26E2BC2E9FF2CC2EAFFEECFE6FFD0
:101330002B4B2C2B2D4B2E2BE6D7000E1C1802E12D
:10134000010E1B1833E1980EB26F010EB36F6E0ED3
:10135000B46F000EB56F1BEC02F02F6B306B800E7C
:101360003019006E800E005C02E10A0E2F5D14E25F
:101370002F51B00FB26FFF0EB36F06EC01F0410EAC
:101380000C6EEE0E0D6E0D2EFED70C2EFCD700004F
:1013900002012F4B302BE3D7410E0C6EEE0E0D6E7B
:1013A0000D2EFED70C2EFCD700003BD1010E1B5C8E
:1013B000006E000E1C58016E0A0E046E000E056EC3
:1013C00069EC01F0980E00246D6F010E01206E6F24
:1013D000310E6F6F020E706FDBEC03F0000E011820
:1013E00002E1000E001840E0010E1B5C006E000ED2
:1013F0001C58016E0A0E046E000E056E69EC01F0B9
:10140000980E00240201B26F010E0120B36F590E35
:10141000B46F000EB56F1BEC02F02F6B306B800EBB
:101420003019006E800E005C02E10A0E2F5D1BE297
:101430001B04B26F0A0EB203F3CFB2F2B00EB227A2
:101440002F51B227FF0EB36F06EC01F0410E0C6E68
:10145000EE0E0D6E0D2EFED70C2EFCD700000201F5
:101460002F4B302BDCD7DDD002012D6B2E6B800E85
:101470002E19006E800E1C18005C02E11B502D5DC1
:10148000D8B091D00A0E006E000E016E2DC204F08D
:101490002EC205F069EC01F0980E00246D6F010E6C
:1014A00001206E6F310E6F6F020E706FDBEC03F078
:1014B000000E011802E1000E001871E0010E1B5C25
:1014C000006E000E1C58016E0A0E046E000E056EB2
:1014D00069EC01F0980E00240201B26F010E0120A8
:1014E000B36F97EC02F00A0E006E000E016E2DC273
:1014F00004F02EC205F069EC01F0980E0024B26FE2
:10150000010E0120B36F010E1B5C006E000E1C5813
:10151000016E0A0E046E000E056E69EC01F0980E65
:101520000024B46F010E0120B56F1BEC02F02F6B8D
:10153000306B800E3019006E800E005C02E10A0EE6
:101540002F5D2DE20A0E2D03F3CFB2F2B00EB227BB
:101550002F51B2270A0E006E000E016E2DC204F04C
:101560002EC205F069EC01F0980E0026010E012252
:101570002F510024E96E30510120EA6EEECFB3F214
:1015800006EC01F0410E0C6EEE0E0D6E0D2EFED728
:101590000C2EFCD7000002012F4B302BCAD70201C2
:1015A0002D4B2E2B64D7010E1B5C006E000E1C58B9
:1015B000016E0A0E046E000E056E69EC01F0980EC5
:1015C0000024B26F010E0120B36F5A0EB46F000EEB
:1015D000B56F1BEC02F02F6B306B800E3019006E74
:1015E000800E005C02E10A0E2F5D1BE21B04B26F4D
:1015F0000A0EB203F3CFB2F2B00EB2272F51B227C8
:10160000FF0EB36F06EC01F0410E0C6EEE0E0D6E88
:101610000D2EFED70C2EFCD7000002012F4B302BD5
:10162000DCD7010E1B5E000E1C5A010E006E000E70
:10163000016E1200800E006E800E1C18005C02E12C
:101640001B500A0843E32BC26DF22CC26EF226EC4B
:1016500003F02D6B2E6B800E2E19006E800E005C39
:1016600002E10A0E2D5D1FE20A0E006E000E016EF1
:101670001BC004F01CC005F069EC01F0980E0026B8
:10168000010E01222D510024E16E2E510120E26E47
:101690002BC2E9FF2CC2EAFFEECFE6FF2B4B2C2B2F
:1016A0002D4B2E2BD8D71B4A1C2A1BC0B2F21CC0B4
:1016B000B3F2960EB46F000EB56FB1EC02F0E8EC29
:1016C00004F0010E006E000E016E02D0006A016A85
:1016D000120077D1040E0B6ECF0E0C6E010E0D6E44
:1016E0000D2EFED70C2EFCD70B2EFAD700000000D3
:1016F000960E0201B26F000EB36FB70EB46F2F0ECD
:10170000B56F000EB66F42EC02F000C0B2F201C03D
:10171000B3F297EC02F0030E0B6E8A0E0C6E550EB0
:101720000D6E0D2EFED70C2EFCD70B2EFAD7000017
:101730000000818433C06DF234C06EF27CEC03F0A3
:101740008194000E0101971902E1010E961918E12A
:1017500084C100F085C101F0E80E046E030E056E31
:1017600069EC01F000C06DF201C06EF27CEC03F098
:10177000818433C06DF234C06EF27CEC03F081944E
:1017800035D1040E0B6ECF0E0C6E010E0D6E0201E4
:101790000D2EFDD70C2EFBD70B2EF9D70000000025
:1017A000960EB26F000EB36FB70EB46F2F0EB56FFB
:1017B000000EB66F42EC02F000C0B2F201C0B3F20C
:1017C00097EC02F0030E0B6E8A0E0C6E550E0D6E2A
:1017D0000D2EFED70C2EFCD70B2EFAD700000000E2
:1017E0002F6B306B800E3019006E800E3A18005C43
:1017F00002E139502F5D1BE281843DC06DF23EC095
:101800006EF26E336D336E9F6EBD6E8F7CEC03F0A7
:1018100081943DC06DF23EC06EF26E336D336E9FAB
:101820006EBD6E8F7CEC03F02F4B302BDBD7000EA0
:101830000101971902E1010E961937E184C100F008
:1018400085C101F0E80E046E030E056E69EC01F02F
:1018500000C06DF201C06EF27CEC03F02F6B306BB8
:10186000800E3019006E800E3A18005C02E139508B
:101870002F5D1BE281843DC06DF23EC06EF26E337F
:101880006D336E9F6EBD6E8F7CEC03F081943DC016
:101890006DF23EC06EF26E336D336E9F6EBD6E8F15
:1018A0007CEC03F02F4B302BDBD7A0D05D6A5E6A57
:1018B0000201960EB26F000EB36F8E0EB46F2F0E34
:1018C000B56F000EB66F42EC02F000C06FF201C0BF
:1018D00070F2B40E6D6F000E6E6FDBEC03F0000E55
:1018E000011802E1000E001809E181845E50010A2E
:1018F00002E12C0E5D1801E101D0DAD78194000ECF
:101900000101971902E1010E96192BE15DC02DF23C
:101910005EC02EF284C100F085C101F0E80E046EB5
:10192000030E056E69EC01F000C06DF201C06EF2AD
:101930007CEC03F081842B6B2C6B800E2C19006ED9
:10194000800E030A005C02E1E80E2B5D09E22DC265
:101950006DF22EC26EF27CEC03F02B4B2C2BEDD7EC
:101960008194040E0B6ECF0E0C6E010E0D6E0201F3
:101970000D2EFDD70C2EFBD70B2EF9D70000000043
:10198000960EB26F000EB36FB70EB46F2F0EB56F19
:10199000000EB66F42EC02F000C0B2F201C0B3F22A
:1019A00097EC02F0030E0B6E8A0E0C6E550E0D6E48
:1019B0000D2EFED70C2EFCD70B2EFAD70000000000
:1019C00015D0000E321802E1010E3118D8B482D6BB
:1019D000000E321802E1020E3118D8B4D2D6000E31
:1019E000321802E1030E3118D8B460D71200070E86
:1019F0000B6E580E0C6E590E0D6E0D2EFED70C2E62
:101A0000FCD70B2EFAD7000000009290806A5B0E84
:101A1000936E390E946E816A826A0F0EC26E0F0E3B
:101A2000C16E070E0B6E580E0C6E590E0D6E0D2EFC
:101A3000FED70C2EFCD70B2EFAD700000000F28E3A
:101A4000F28C9D8A11EC06F006EC06F03C0E5D6E01
:101A5000000E5E6EB886010EB06E030EAF6EAC84E3
:101A60001AEC06F0070E0B6E580E0C6E590E0D6E2A
:101A70000D2EFED70C2EFCD70B2EFAD7000000003F
:101A800022EC08F0F29E48EC06F0F28E960EB26F51
:101A9000000EB36FDC0EB46F2F0EB56F000EB66F75
:101AA00042EC02F000C0B2F201C0B3F297EC02F0D7
:101AB000070E0B6E580E0C6E590E0D6E0D2EFED7C6
:101AC0000C2EFCD70B2EFAD700000000960EB26F3A
:101AD000000EB36F790EB46F2F0EB56F000EB66F98
:101AE00042EC02F000C0B2F201C0B3F297EC02F097
:101AF000070E0B6E580E0C6E590E0D6E0D2EFED786
:101B00000C2EFCD70B2EFAD700000000960EB26FF9
:101B1000000EB36F4C0EB46F2F0EB56F000EB66F84
:101B200042EC02F000C0B2F201C0B3F297EC02F056
:101B3000070E0B6E580E0C6E590E0D6E0D2EFED745
:101B40000C2EFCD70B2EFAD700000000960EB26FB9
:101B5000000EB36F6E0EB46F2F0EB56F000EB66F22
:101B600042EC02F000C0B2F201C0B3F297EC02F016
:101B7000070E0B6E580E0C6E590E0D6E0D2EFED705
:101B80000C2EFCD70B2EFAD700000000960EB26F79
:101B9000000EB36F630EB46F2F0EB56F000EB66FED
:101BA00042EC02F000C0B2F201C0B3F297EC02F0D6
:101BB000070E0B6E580E0C6E590E0D6E0D2EFED7C5
:101BC0000C2EFCD70B2EFAD70000000012000FC21B
:101BD00002F010C203F012C200F013C201F0010EB5
:101BE0000201125F000E135B0050011009E002C0F9
:101BF000E1FF03C0E2FF11C2E6FF024A032AEBD76E
:101C00000FC200F010C201F01200AECF01F0ABA283
:101C100002D0AB98AB8801C000F01200010E0101A8
:101C20007F5D45E3F29E960E0201B26F000EB36F28
:101C3000DC0EB46F2F0EB56F000EB66F42EC02F0E3
:101C400000C0B2F201C0B3F297EC02F0070E0B6EC7
:101C5000580E0C6E590E0D6E0D2EFED70C2EFCD7A5
:101C60000B2EFAD700000000960EB26F000EB36F75
:101C7000EA0EB46F2E0EB56F000EB66F42EC02F096
:101C800000C0B2F201C0B3F297EC02F0070E0B6E87
:101C9000580E0C6E590E0D6E0D2EFED70C2EFCD765
:101CA0000B2EFAD70000000001017F6BF28E1200AC
:101CB000960E0201B26F000EB36F9D0EB46F2F0E21
:101CC000B56F000EB66F42EC02F000C06FF201C0BB
:101CD00070F2B40E6D6F000E6E6FDBEC03F0000E51
:101CE000011802E1000E0018D8B464EF15F0010EDF
:101CF00001017F6F7E6B0001946B956BB40E020146
:101D0000B26F000EB36F40EC01F001500001955D21
:101D100002E10050945D50E2B40E9425E96E000E8D
:101D20009521EA6EEE502B0A44E1010E9425006ED7
:101D3000000E9521016EB40E0024E96E000E012004
:101D4000EA6EEE50330A35E1020E9425006E000E65
:101D50009521016EB40E0024E96E000E0120EA6E9A
:101D6000EE50360A26E1856B866B800E8619006E72
:101D7000800E005C02E1090E855D1BE27B0E85256D
:101D8000E16E000E8621E26E030E9425006E000EB9
:101D90009521016E8551002686510122B40E002442
:101DA000E96E000E0120EA6EEECFE6FF854B862B32
:101DB000DCD7944B952BA2D7020E0B6E450E0C6E02
:101DC000A90E0D6E0D2EFED70C2EFCD70B2EFAD7BA
:101DD00000000000960E0201B26F000EB36FB10E4C
:101DE000B46F2F0EB56F000EB66F42EC02F000C05C
:101DF0006FF201C070F2B40E6D6F000E6E6FDBEC0F
:101E000003F0000E011802E1000E0018D8B496D0BD
:101E1000870E02012B6F000E2C6F7B0E2D6F000EB4
:101E20002E6F50EC09F0000E011802E1000E0018B0
:101E30001CE1960E0201B26F000EB36FAB0EB46FD1
:101E40002F0EB56F000EB66F42EC02F000C02DF2FF
:101E500001C02EF2870E2B6F000E2C6F930E2F6F8A
:101E6000000E306FAAEC08F066D0960E0201B26F39
:101E7000000EB36F210EB46F2F0EB56F000EB66F4C
:101E800042EC02F000C02DF201C02EF2870E2B6F43
:101E9000000E2C6F7B0E2F6F000E306FAAEC08F037
:101EA000960E0201B26F000EB36F400EB46F2F0E8C
:101EB000B56F000EB66F42EC02F000C02DF201C00B
:101EC0002EF27B0E2B6F000E2C6F870E2F6F000EE5
:101ED000306FAAEC08F0870E0201B26F000EB36FEC
:101EE0007B0EB46F000EB56F1BEC02F00F6B106B26
:101EF000800E1019006E800E005C02E10A0E0F5D6C
:101F00001AE20F51A00FB26F870E0F25E96E000E77
:101F10001021EA6EEECFB3F206EC01F0410E0C6E2A
:101F2000EE0E0D6E0D2EFED70C2EFCD7000002011A
:101F30000F4B102BDDD7010E01017E6F870E0201C2
:101F40006D6F000E6E6F7B0E6F6F000E706FDBECAF
:101F500003F0000E011802E1000E0018D8B464EF7F
:101F600015F001017E51000AD8A464EF15F00201BA
:101F7000006B960EB26F000EB36FBC0EB46F2F0ED7
:101F8000B56F000EB66F42EC02F000C06FF201C0F8
:101F900070F2B40E6D6F000E6E6FDBEC03F0000E8E
:101FA000011802E1000E001867E0960E0201B26F00
:101FB000000EB36FBC0EB46F2F0EB56F000EB66F70
:101FC00042EC02F000C06FF201C070F2B40E6D6F0F
:101FD000000E6E6FDBEC03F000C06DF201C06EF21C
:101FE000910E02016F6F000E706F21EC04F06D6BAB
:101FF0006E6B800E6F6F010E706F21EC04F000C0ED
:1020000011F201C012F200C0B2F201C0B3F240EC12
:1020100001F0800E0118026E800E025C02E1060ED5
:10202000005C0AE28C0EB26F010EB36F11C2B4F203
:1020300012C2B5F21BEC02F0960EB26F000EB36F37
:10204000E00EB46F2F0EB56F000EB66F42EC02F0CB
:1020500000C02DF201C02EF2870E2B6F000E2C6FE8
:102060008B0E2F6F010E306FAAEC08F0010E0101EC
:102070007E6F010E0201006F0201960EB26F000E1C
:10208000B36FA40EB46F2F0EB56F000EB66F42EC97
:1020900002F000C06FF201C070F2B40E6D6F000E5E
:1020A0006E6FDBEC03F0000E011802E1000E001869
:1020B000D8B4BCD0960E0201B26F000EB36FA40E5E
:1020C000B46F2F0EB56F000EB66F42EC02F000C079
:1020D0006FF201C070F2B40E6D6F000E6E6FDBEC2C
:1020E00003F000C06DF201C06EF2920E02016F6F3C
:1020F000010E706F21EC04F06D6B6E6B940E6F6FC0
:10210000010E706F21EC04F000C06DF201C06EF2A0
:102110007FEC04F000C096F101C097F1000E0118A9
:1021200002E1000E001809E0000E0101971902E11A
:10213000010E961902E0006A02D0010E006E0052F4
:102140001FE10101966B976B960E0201B26F000EB4
:10215000B36FAB0EB46F2F0EB56F000EB66F42ECBF
:1021600002F000C02DF201C02EF2870E2B6F000E80
:102170002C6F8A0E2F6F010E306FAAEC08F053D02F
:1021800002016D6B6E6B820E6F6F010E706F21EC32
:1021900004F000C06DF201C06EF27FEC04F000C0EC
:1021A00084F101C085F1000E011802E1000E001853
:1021B0001FE10101966B976B960E0201B26F000E44
:1021C000B36FAB0EB46F2F0EB56F000EB66F42EC4F
:1021D00002F000C02DF201C02EF2870E2B6F000E10
:1021E0002C6F860E2F6F010E306FAAEC08F01BD0FB
:1021F000960E0201B26F000EB36FE00EB46F2F0E99
:10220000B56F000EB66F42EC02F000C02DF201C0B7
:102210002EF2870E2B6F000E2C6F890E2F6F010E82
:10222000306FAAEC08F0010E0201006F0201960E59
:10223000B26F000EB36FCB0EB46F2F0EB56F000EE2
:10224000B66F42EC02F000C06FF201C070F2B40E43
:102250006D6F000E6E6FDBEC03F0000E011802E1F3
:10226000000E0018D8B44FD1960E0201B26F000EC6
:10227000B36FCB0EB46F2F0EB56F000EB66F42EC7E
:1022800002F000C06FF201C070F2B40E6D6F000E6C
:102290006E6FDBEC03F000C06DF201C06EF2870ED2
:1022A00002016F6F010E706F21EC04F06D6B6E6BAD
:1022B0002F0E6F6F000E706F21EC04F000C06DF2F6
:1022C00001C06EF27FEC04F000C013F201C014F202
:1022D000000E011802E1010E001857E113C231F09F
:1022E00014C232F06D6B6E6B2B0E6F6F000E706F41
:1022F00021EC04F000C06DF201C06EF27FEC04F03E
:1023000000C033F001C034F0000E011802E1000EED
:1023100000181FE1E80E336E030E346E960EB26F96
:10232000000EB36FAB0EB46F2F0EB56F000EB66F0D
:1023300042EC02F000C02DF201C02EF2870E2B6F8E
:10234000000E2C6F2D0E2F6F000E306FAAEC08F0D0
:102350001BD0960E0201B26F000EB36FE00EB46F89
:102360002F0EB56F000EB66F42EC02F000C02DF2DA
:1023700001C02EF2870E2B6F000E2C6F2E0E2F6FCA
:10238000000E306FAAEC08F0BBD0000E0201141949
:1023900002E1020E131973E113C231F014C232F0DC
:1023A0006D6B6E6B3B0E6F6F000E706F21EC04F067
:1023B00000C06DF201C06EF27FEC04F000C039F095
:1023C00001C03AF0000E011802E1000E001804E10D
:1023D000010E396E000E3A6E6D6B6E6B350E6F6FBF
:1023E000000E706F21EC04F000C06DF201C06EF2BF
:1023F0007FEC04F000C03DF001C03EF0000E01187B
:1024000002E1000E00181FE1010E136F000E146FA1
:10241000960EB26F000EB36FAB0EB46F2F0EB56F8A
:10242000000EB66F42EC02F000C02DF201C02EF299
:10243000870E2B6F000E2C6F370E2F6F000E306F34
:10244000AAEC08F01BD0960E0201B26F000EB36F1B
:10245000E00EB46F2F0EB56F000EB66F42EC02F0B7
:1024600000C02DF201C02EF2870E2B6F000E2C6FD4
:10247000380E2F6F000E306FAAEC08F041D0000E1E
:102480000201141902E1030E13191FE113C231F006
:1024900014C232F0960EB26F000EB36FE00EB46F3E
:1024A0002F0EB56F000EB66F42EC02F000C02DF299
:1024B00001C02EF2870E2B6F000E2C6F1F0E2F6F98
:1024C000000E306FAAEC08F01BD0960E0201B26F1E
:1024D000000EB36FAB0EB46F2F0EB56F000EB66F5C
:1024E00042EC02F000C02DF201C02EF2870E2B6FDD
:1024F000000E2C6F200E2F6F000E306FAAEC08F02C
:10250000010E0201006F0201960EB26F000EB36F52
:10251000D40EB46F2F0EB56F000EB66F42EC02F002
:1025200000C06FF201C070F2B40E6D6F000E6E6FDE
:10253000DBEC03F0000E011802E1000E0018D8B425
:102540003DD1030E0201296F000E2A6F960EB26F65
:10255000000EB36FD40EB46F2F0EB56F000EB66FB2
:1025600042EC02F000C06FF201C070F2B40E6D6F69
:10257000000E6E6FDBEC03F000C019F201C01AF21E
:1025800000C06DF201C06EF2210E02016F6F000EED
:10259000706F21EC04F000C01BF201C01CF2000EB1
:1025A0001C1902E1000E1B19D8B4A3D01BC219F2EA
:1025B0001CC21AF2156B166B800E1619006E800E77
:1025C000005C02E1060E155D14E219C200F01AC2A9
:1025D00001F0194B1A2B00C0E9FF01C0EAFFEECF52
:1025E000B2F25DEC01F0005201E103D0154B162B65
:1025F000E3D7800E1619006E800E005C02E1040E17
:10260000155DD8A068D01BC2B2F21CC2B3F240EC78
:1026100001F0800E0118026E800E025C02E10A0ECB
:10262000005C59E2176B186B800E1819006E800E53
:102630001C18005C02E11B50175D26E20A0E006EBA
:10264000000E016E17C204F018C205F069EC01F02B
:10265000980E00246D6F010E01206E6F1BC26FF289
:102660001CC270F2DBEC03F0000E011802E1000E58
:10267000001806E0030E0201296F000E2A6F04D035
:102680000201174B182BD0D7870E6D6F000E6E6F9F
:102690001BC26FF21CC270F2DBEC03F0000E0118DB
:1026A00002E1000E001805E0030E0201296F000E82
:1026B0002A6F0201000E2A1902E1000E291901E118
:1026C00018D01BC22BF21CC22CF21AEC0BF000C06B
:1026D00029F201C02AF202016D6B6E6B1D0E6F6F45
:1026E000000E706F21EC04F000C01BF201C01CF260
:1026F00056D7000E2A1902E1000E29191AE1960E8A
:10270000B26F000EB36F100EB46F2F0EB56F000EC8
:10271000B66F42EC02F000C02DF201C02EF2870E1F
:102720002B6F000E2C6F280E2F6F000E306FAAEC4F
:1027300008F0000E02012A1902E1010E29191AE11E
:10274000960EB26F000EB36F320EB46F2F0EB56FD0
:10275000000EB66F42EC02F000C02DF201C02EF266
:10276000870E2B6F000E2C6F290E2F6F000E306F0F
:10277000AAEC08F0000E02012A1902E1030E291941
:102780001AE1960EB26F000EB36FFE0EB46F2E0EEE
:10279000B56F000EB66F42EC02F000C02DF201C022
:1027A0002EF2870E2B6F000E2C6F2A0E2F6F000E4D
:1027B000306FAAEC08F0010E01017E6F960E020147
:1027C000B26F000EB36FD00EB46F2F0EB56F000E48
:1027D000B66F42EC02F000C06FF201C070F2B40EAE
:1027E0006D6F000E6E6FDBEC03F0000E011802E15E
:1027F000000E0018D8B4CDD0960E0201B26F000EB4
:10280000B36FD00EB46F2F0EB56F000EB66F42ECE3
:1028100002F000C06FF201C070F2B40E6D6F000ED6
:102820006E6FDBEC03F000C021F201C022F200C0A9
:102830006DF201C06EF2230E02016F6F000E706F19
:1028400021EC04F000C023F201C024F2000E241990
:1028500002E1000E2319D8B47CD023C221F224C295
:1028600022F21D6B1E6B800E1E19006E800E005C26
:1028700002E1060E1D5D14E221C200F022C201F049
:10288000214B222B00C0E9FF01C0EAFFEECFB2F2DC
:102890005DEC01F0005201E103D01D4B1E2BE3D78C
:1028A000800E1E19006E800E005C02E1040E1D5D9C
:1028B00041E323C2B2F224C2B3F240EC01F0800E35
:1028C0000118026E800E025C02E10A0E005C32E228
:1028D0001F6B206B800E2019006E800E1C18005C90
:1028E00002E11B501F5D26E20A0E006E000E016E13
:1028F0001FC204F020C205F069EC01F0980E00241C
:102900006D6F010E01206E6F23C26FF224C270F250
:10291000DBEC03F0000E011802E1000E001806E0E7
:1029200023C22BF224C22CF276EC09F002011F4BD9
:10293000202BD0D76D6B6E6B250E6F6F000E706FF6
:1029400021EC04F000C023F201C024F21F4B202B25
:102950007DD7010E01017E6F010E0201006F960E00
:10296000B26F000EB36FE00EB46F2F0EB56F000E96
:10297000B66F42EC02F000C02DF201C02EF2870EBD
:102980002B6F000E2C6F270E2F6F000E306FAAECEE
:1029900008F0960E0201B26F000EB36F960EB46F80
:1029A0002F0EB56F000EB66F42EC02F000C06FF252
:1029B00001C070F2B40E6D6F000E6E6FDBEC03F0B1
:1029C000000E011802E1000E0018D8B477D0020101
:1029D000256B266B800E2619006E800E1C18005C7D
:1029E00002E11B50255D27E2276B286B800E28191A
:1029F000006E800E005C02E10A0E275D19E20A0EED
:102A00002503F3CFB2F2B00EB2272751B227FF0E43
:102A1000B36F06EC01F0410E0C6EEE0E0D6E0D2E36
:102A2000FED70C2EFCD700000201274B282BDED747
:102A3000254B262BCFD7276B286B800E2819006ECD
:102A4000800E005C02E10A0E275D14E22751A00F00
:102A5000B26FFF0EB36F06EC01F0410E0C6EEE0E7E
:102A60000D6E0D2EFED70C2EFCD700000201274B59
:102A7000282BE3D7396A3A6AF40E336E010E346EAE
:102A8000F40E3D6E010E3E6E0101966B976B050EC6
:102A9000846F000E856F1B6A1C6A010E316E000E7A
:102AA000326E8C0E0201B26F010EB36F3F0EB46F27
:102AB000000EB56F1BEC02F0010E006F0201005119
:102AC000010A02E1E8EC04F01200960E0201B26F76
:102AD000000EB36FC10EB46F2F0EB56F000EB66F40
:102AE00042EC02F000C06FF201C070F2B40E6D6FE4
:102AF000000E6E6FDBEC03F0000E011802E1000E19
:102B0000001831E0040E0B6ECF0E0C6E010E0D6E30
:102B10000D2EFED70C2EFCD70B2EFAD7000000008E
:102B200001017C6B7D6B960E0201B26F000EB36FDC
:102B3000580EB46F2F0EB56F000EB66F42EC02F058
:102B400000C0B2F201C0B3F297EC02F01A0E0B6EA5
:102B50005E0E0C6E6E0E0D6E0D2EFED70C2EFCD77B
:102B60000B2EFAD700001200960E0201B26F000E73
:102B7000B36FC60EB46F2F0EB56F000EB66F42EC7A
:102B800002F000C06FF201C070F2B40E6D6F000E63
:102B90006E6FDBEC03F0000E011802E1000E00186E
:102BA000D8B47CD0070E0B6E580E0C6E590E0D6EFD
:102BB0000D2EFED70C2EFCD70B2EFAD700000000EE
:102BC000B40E02016D6F000E6E6F870E6F6F000EF8
:102BD000706FDBEC03F0000E011802E1000E00182C
:102BE00002E069EC0BF00001946B956B1C50955D55
:102BF00002E11B50945D23E2B40E02016D6F000EE2
:102C00006E6F0A0E006E000E016E94C004F095C047
:102C100005F069EC01F0980E00246F6F010E0120A1
:102C2000706FDBEC03F0000E011802E1000E0018DB
:102C300002E069EC0BF00001944B952BD7D7040E02
:102C40000B6ECF0E0C6E010E0D6E0D2EFED70C2EE0
:102C5000FCD70B2EFAD700000000960E0201B26FCF
:102C6000000EB36FB70EB46F2F0EB56F000EB66FB8
:102C700042EC02F000C0B2F201C0B3F297EC02F0F5
:102C8000030E0B6E8A0E0C6E550E0D6E0D2EFED7BA
:102C90000C2EFCD70B2EFAD7000000001200F2EC2D
:102CA00017F0F7EC0CF022EC08F00EEC0EF0585098
:102CB000010A1BE1B40E7C25E16E000E7D21E26E5F
:102CC000E66A52DF02DF58EC0EF001017C6B7D6B8F
:102CD000586AB40E02010F6F000E106F116BC70E11
:102CE000126F000E136FE7EC0DF0DDD7FFD7000079
:102CF0003B0000003B003B003B00000000003B00AD
:102D000000003B000100F4013B00000000003B001C
:102D1000F4012B3336002B003B003330393232358F
:102D2000343237003B000A0D003B000000003B003E
:102D30000000000000000000000000000000000093
:102D400000003B003B003B003B003B003B00000021
:102D50000000000000000000000000000000000073
:102D6000000000003B000000000000000000000028
:102D70000000000000000000000000000000000053
:102D80000000000000000000000000000000000043
:102D90000000000000000000000000000000000033
:102DA0000000000000000000000000000000000023
:102DB0000000000000000000000000000000000013
:102DC0000000000000000000000000000000000003
:102DD00000000000000000000000000000000000F3
:102DE00000000000000000000000000000000000E3
:102DF00000000000000000000000000000000000D3
:102E000000000000000000000000000000000000C2
:102E100000000000000000000000000000000000B2
:102E200000000000000000000000000000000000A2
:102E30000000000000000000000000000000000092
:102E40000000000000000000000000000000000082
:102E50000000013B003B000500003B000000002B90
:102E600033360000003B003B000000000000000083
:102E70000000000000000000000000000000000052
:102E80000000000000000000000000000000000042
:102E90000000000000000000000000000000000032
:102EA0000000000000000000000000000000000022
:102EB0000000000000000000000000000000000012
:102EC0000000000000000000000000000000000002
:102ED00000000000000000000000000000000000F2
:102EE0000000000000000000000041542B434D474B
:102EF00044413D2244454C20414C4C220D0045525A
:102F0000524F52204E554D42455220555345440094
:102F100055534552204C494D4954204552524F5229
:102F20000050726576696F75732061646D696E3AE1
:102F3000200055534552285329204144444544001C
:102F40004E65772061646D696E3A200041542B43D1
:102F500053434C4B3D320D0041542B434D47523DA2
:102F6000310D0041542B434C49503D310D0041542B
:102F70002B434C54533D310D0041542B434D474698
:102F80003D310D0041542B434D47533D22004341F9
:102F900052524945520052455345540D00554E5228
:102FA00045414400524550454154004552524F520C
:102FB0000041444D494E004154480D00434F4445A3
:102FC000004D54493A0052494E47004D4F44450088
:102FD00044454C00414444002B33360041540D001D
:102FE0004F4B00FF10EE1BF07D0E006E020E016EC7
:102FF000EE0EF66E2C0EF76E000EF86E1EEC03F061
:103000001200FFFFFFFFFFFFFFFFFFFFFFFFFFFFBC
:020000040030CA
:0D000100021F1EFF8181FF0FC00FE00F40A6
:0200000400F00A
:10000000FFFFFFFFFFFFFFFFFFFFFFFFFFFFFFFF00
:10001000FFFFFFFFFFFFFFFFFFFFFFFFFFFFFFFFF0
:10002000FFFFFFFFFFFFFFFFFFFFFFFFFFFFFFFFE0
:10003000FFFFFFFFFFFFFFFFFFFFFFFFFFFFFFFFD0
:10004000FFFFFFFFFFFFFFFFFFFFFFFFFFFFFFFFC0
:10005000FFFFFFFFFFFFFFFFFFFFFFFFFFFFFFFFB0
:10006000FFFFFFFFFFFFFFFFFFFFFFFFFFFFFFFFA0
:10007000FFFFFFFFFFFFFFFFFFFFFFFFFFFFFFFF90
:10008000FFFFFFFFFFFFFFFFFFFFFFFFFFFFFFFF80
:10009000FFFFFFFFFFFFFFFFFFFFFFFFFFFFFFFF70
:1000A000FFFFFFFFFFFFFFFFFFFFFFFFFFFFFFFF60
:1000B000FFFFFFFFFFFFFFFFFFFFFFFFFFFFFFFF50
:1000C000FFFFFFFFFFFFFFFFFFFFFFFFFFFFFFFF40
:1000D000FFFFFFFFFFFFFFFFFFFFFFFFFFFFFFFF30
:1000E000FFFFFFFFFFFFFFFFFFFFFFFFFFFFFFFF20
:1000F000FFFFFFFFFFFFFFFFFFFFFFFFFFFFFFFF10
:00000001FF

