:100000000C947E000C949B000C949B000C949B0021
:100010000C949B000C949B000C949B000C949B00F4
:100020000C949B000C949B000C949B000C949B00E4
:100030000C949B000C949B000C949B000C949B00D4
:100040000C949B000C949B000C949B000C949B00C4
:100050000C949B000C949B000C949B000C949B00B4
:100060000C949B000C949B000C949B000C949B00A4
:100070000C949B000C949B000C949B00B200B80065
:10008000BE00110111011101110111011101110134
:100090001101C400CA00D000D600DC00110111011A
:1000A000E200110111011101E800EE00F400FA0074
:1000B00011011101110100010601110111011101CC
:1000C00011011101110111011101110111011101A0
:1000D00011010C011C01220128012E0134016301D0
:1000E00063013A01630163016301400146014C0170
:1000F000520163016301630158015E0111241FBEB7
:10010000CFEFD0E1DEBFCDBF11E0A0E0B1E0E4EC85
:10011000F4E002C005900D92A232B107D9F721E0B8
:10012000A2E2B1E001C01D92A232B207E1F70E9443
:1001300018020C9460020C9400008CB580648CBD95
:100140001EBC08958EBD0DB407FEFDCF8EB508957B
:1001500001978C32910508F064C0825C9F4FFC01CE
:100160000C944402613011F4259A0895259808955D
:10017000613011F4269A089526980895613011F49B
:10018000279A089527980895613011F4539A089595
:1001900053980895613011F4549A0895549808952D
:1001A000613011F4559A089555980895613011F40D
:1001B000569A089556980895613011F4579A089503
:1001C00057980895613011F4389A08953898089531
:1001D000613011F43C9A08953C980895613011F40F
:1001E0003D9A08953D980895613011F43E9A08951E
:1001F0003E980895613011F43F9A08953F9808950C
:10020000613011F40F9A08950F980895613011F438
:100210000E9A08950E980895613011F4249A089565
:10022000249808950C978431910508F04CC08659A4
:100230009F4FFC010C944402613011F45B9A0895C5
:100240005B980895613011F45C9A08955C98089564
:10025000613011F45D9A08955D980895613011F44C
:100260005E9A08955E980895613011F45F9A08953A
:100270005F980895613011F4409A08954098089568
:10028000613011F4449A089544980895613011F44E
:10029000459A089545980895613011F4469A089555
:1002A00046980895613011F4479A08954798089543
:1002B000613011F4179A089517980895613011F478
:1002C000169A0895169808958C9719F483B1807141
:1002D000089580E00895EF92FF920F931F93CF93BC
:1002E000DF9380912001882389F008E011E0C0E0CD
:1002F000D0E0E82EF12C61E0F801819191918F011D
:100300000E94A8002196CE15DF05A8F360E0809139
:100310000601909107010E94A80061E0809104010C
:10032000909105010E94A80060E0809102019091E7
:1003300003010E94A80060E08091000190910101FA
:100340000E94A800DF91CF911F910F91FF90EF9035
:1003500008950E946B010895EF92FF920F931F93EF
:10036000CF93DF93809120018823C9F008E011E04A
:10037000C0E0D0E0E82EF12CF999FECFCE010E942A
:100380004A02813031F461E0F801808191810E945C
:10039000120121960E5F1F4FCE15DF056CF3DF9122
:1003A000CF911F910F91FF90EF900895EF92FF92E0
:1003B0000F931F93CF93DF938C01EB016330710593
:1003C000B9F4FC01EE0FFF1FE85FFE4F80819181C1
:1003D0000E94640161E0811160E0E62EF801EE0FF9
:1003E000FF1FE85FFE4F808191810E9412010BC0C8
:1003F000FC01EE0FFF1FE85FFE4F808191810E949C
:100400001201E12CF12CF999FECFC330D10529F06E
:100410006C2FC8010E94520204C06E2DC8010E94B8
:100420005202DF91CF911F910F91FF90EF900895AD
:100430000E94A9010E94AC011EBC0E949D00C091B7
:100440000001D091010110912001CE010E946401B0
:100450008111FBCF812F0E94A200813019F08430DE
:1004600029F0F3CF812F0E94A200EFCF87E00E94F6
:10047000A200082F87E00E94A200682F70E0802F62
:1004800090E00E94D601E1CFEE0FFF1F0590F4919E
:10049000E02D0994F999FECF92BD81BDF89A992774
:1004A00080B50895262FF999FECF1FBA92BD81BD60
:1004B00020BD0FB6F894FA9AF99A0FBE01960895E6
:0404C000F894FFCFDE
:1004C4002C000100020003000C000D000E000F00C0
:1004D400100013001700180019001A001E001F0056
:0204E4000C000A
:00000001FF
